{
	"task3/BeggingContract.sol": {
		"BeggingContract": {
			"abi": [
				{
					"inputs": [
						{
							"internalType": "uint256",
							"name": "_donationDurationInDays",
							"type": "uint256"
						}
					],
					"stateMutability": "nonpayable",
					"type": "constructor"
				},
				{
					"anonymous": false,
					"inputs": [
						{
							"indexed": true,
							"internalType": "address",
							"name": "donor",
							"type": "address"
						},
						{
							"indexed": false,
							"internalType": "uint256",
							"name": "amount",
							"type": "uint256"
						},
						{
							"indexed": false,
							"internalType": "uint256",
							"name": "timestamp",
							"type": "uint256"
						}
					],
					"name": "Donation",
					"type": "event"
				},
				{
					"inputs": [],
					"name": "donate",
					"outputs": [],
					"stateMutability": "payable",
					"type": "function"
				},
				{
					"inputs": [],
					"name": "donationEndTime",
					"outputs": [
						{
							"internalType": "uint256",
							"name": "",
							"type": "uint256"
						}
					],
					"stateMutability": "view",
					"type": "function"
				},
				{
					"inputs": [],
					"name": "donationStartTime",
					"outputs": [
						{
							"internalType": "uint256",
							"name": "",
							"type": "uint256"
						}
					],
					"stateMutability": "view",
					"type": "function"
				},
				{
					"inputs": [],
					"name": "getContractBalance",
					"outputs": [
						{
							"internalType": "uint256",
							"name": "",
							"type": "uint256"
						}
					],
					"stateMutability": "view",
					"type": "function"
				},
				{
					"inputs": [
						{
							"internalType": "address",
							"name": "donor",
							"type": "address"
						}
					],
					"name": "getDonation",
					"outputs": [
						{
							"internalType": "uint256",
							"name": "",
							"type": "uint256"
						}
					],
					"stateMutability": "view",
					"type": "function"
				},
				{
					"inputs": [],
					"name": "getTop3Donors",
					"outputs": [
						{
							"internalType": "address[3]",
							"name": "top3Donors",
							"type": "address[3]"
						},
						{
							"internalType": "uint256[3]",
							"name": "top3Amounts",
							"type": "uint256[3]"
						}
					],
					"stateMutability": "view",
					"type": "function"
				},
				{
					"inputs": [],
					"name": "isDonationActive",
					"outputs": [
						{
							"internalType": "bool",
							"name": "",
							"type": "bool"
						}
					],
					"stateMutability": "view",
					"type": "function"
				},
				{
					"inputs": [
						{
							"internalType": "uint256",
							"name": "_newDurationInDays",
							"type": "uint256"
						}
					],
					"name": "updateDonationPeriod",
					"outputs": [],
					"stateMutability": "nonpayable",
					"type": "function"
				},
				{
					"inputs": [],
					"name": "withdraw",
					"outputs": [],
					"stateMutability": "nonpayable",
					"type": "function"
				}
			],
			"devdoc": {
				"kind": "dev",
				"methods": {},
				"version": 1
			},
			"evm": {
				"assembly": "    /* \"task3/BeggingContract.sol\":67:2971  contract BeggingContract {... */\n  mstore(0x40, 0xa0)\n    /* \"task3/BeggingContract.sol\":707:916  constructor(uint256 _donationDurationInDays) {... */\n  callvalue\n  dup1\n  iszero\n  tag_1\n  jumpi\n  revert(0x00, 0x00)\ntag_1:\n  pop\n  mload(0x40)\n  sub(codesize, bytecodeSize)\n  dup1\n  bytecodeSize\n  dup4\n  codecopy\n  dup2\n  dup2\n  add\n  0x40\n  mstore\n  dup2\n  add\n  swap1\n  tag_2\n  swap2\n  swap1\n  tag_3\n  jump\t// in\ntag_2:\n    /* \"task3/BeggingContract.sol\":771:781  msg.sender */\n  caller\n    /* \"task3/BeggingContract.sol\":763:781  owner = msg.sender */\n  0xffffffffffffffffffffffffffffffffffffffff\n  and\n  0x80\n  dup2\n  0xffffffffffffffffffffffffffffffffffffffff\n  and\n  dup2\n  mstore\n  pop\n  pop\n    /* \"task3/BeggingContract.sol\":812:827  block.timestamp */\n  timestamp\n    /* \"task3/BeggingContract.sol\":792:809  donationStartTime */\n  0x02\n    /* \"task3/BeggingContract.sol\":792:827  donationStartTime = block.timestamp */\n  dup2\n  swap1\n  sstore\n  pop\n    /* \"task3/BeggingContract.sol\":901:907  1 days */\n  0x015180\n    /* \"task3/BeggingContract.sol\":875:898  _donationDurationInDays */\n  dup2\n    /* \"task3/BeggingContract.sol\":875:907  _donationDurationInDays * 1 days */\n  tag_6\n  swap2\n  swap1\n  tag_7\n  jump\t// in\ntag_6:\n    /* \"task3/BeggingContract.sol\":856:871  block.timestamp */\n  timestamp\n    /* \"task3/BeggingContract.sol\":856:908  block.timestamp + (_donationDurationInDays * 1 days) */\n  tag_8\n  swap2\n  swap1\n  tag_9\n  jump\t// in\ntag_8:\n    /* \"task3/BeggingContract.sol\":838:853  donationEndTime */\n  0x03\n    /* \"task3/BeggingContract.sol\":838:908  donationEndTime = block.timestamp + (_donationDurationInDays * 1 days) */\n  dup2\n  swap1\n  sstore\n  pop\n    /* \"task3/BeggingContract.sol\":707:916  constructor(uint256 _donationDurationInDays) {... */\n  pop\n    /* \"task3/BeggingContract.sol\":67:2971  contract BeggingContract {... */\n  jump(tag_10)\n    /* \"#utility.yul\":88:205   */\ntag_12:\n    /* \"#utility.yul\":197:198   */\n  0x00\n    /* \"#utility.yul\":194:195   */\n  0x00\n    /* \"#utility.yul\":187:199   */\n  revert\n    /* \"#utility.yul\":334:411   */\ntag_14:\n    /* \"#utility.yul\":371:378   */\n  0x00\n    /* \"#utility.yul\":400:405   */\n  dup2\n    /* \"#utility.yul\":389:405   */\n  swap1\n  pop\n    /* \"#utility.yul\":334:411   */\n  swap2\n  swap1\n  pop\n  jump\t// out\n    /* \"#utility.yul\":417:539   */\ntag_15:\n    /* \"#utility.yul\":490:514   */\n  tag_24\n    /* \"#utility.yul\":508:513   */\n  dup2\n    /* \"#utility.yul\":490:514   */\n  tag_14\n  jump\t// in\ntag_24:\n    /* \"#utility.yul\":483:488   */\n  dup2\n    /* \"#utility.yul\":480:515   */\n  eq\n    /* \"#utility.yul\":470:533   */\n  tag_25\n  jumpi\n    /* \"#utility.yul\":529:530   */\n  0x00\n    /* \"#utility.yul\":526:527   */\n  0x00\n    /* \"#utility.yul\":519:531   */\n  revert\n    /* \"#utility.yul\":470:533   */\ntag_25:\n    /* \"#utility.yul\":417:539   */\n  pop\n  jump\t// out\n    /* \"#utility.yul\":545:688   */\ntag_16:\n    /* \"#utility.yul\":602:607   */\n  0x00\n    /* \"#utility.yul\":633:639   */\n  dup2\n    /* \"#utility.yul\":627:640   */\n  mload\n    /* \"#utility.yul\":618:640   */\n  swap1\n  pop\n    /* \"#utility.yul\":649:682   */\n  tag_27\n    /* \"#utility.yul\":676:681   */\n  dup2\n    /* \"#utility.yul\":649:682   */\n  tag_15\n  jump\t// in\ntag_27:\n    /* \"#utility.yul\":545:688   */\n  swap3\n  swap2\n  pop\n  pop\n  jump\t// out\n    /* \"#utility.yul\":694:1045   */\ntag_3:\n    /* \"#utility.yul\":764:770   */\n  0x00\n    /* \"#utility.yul\":813:815   */\n  0x20\n    /* \"#utility.yul\":801:810   */\n  dup3\n    /* \"#utility.yul\":792:799   */\n  dup5\n    /* \"#utility.yul\":788:811   */\n  sub\n    /* \"#utility.yul\":784:816   */\n  slt\n    /* \"#utility.yul\":781:900   */\n  iszero\n  tag_29\n  jumpi\n    /* \"#utility.yul\":819:898   */\n  tag_30\n  tag_12\n  jump\t// in\ntag_30:\n    /* \"#utility.yul\":781:900   */\ntag_29:\n    /* \"#utility.yul\":939:940   */\n  0x00\n    /* \"#utility.yul\":964:1028   */\n  tag_31\n    /* \"#utility.yul\":1020:1027   */\n  dup5\n    /* \"#utility.yul\":1011:1017   */\n  dup3\n    /* \"#utility.yul\":1000:1009   */\n  dup6\n    /* \"#utility.yul\":996:1018   */\n  add\n    /* \"#utility.yul\":964:1028   */\n  tag_16\n  jump\t// in\ntag_31:\n    /* \"#utility.yul\":954:1028   */\n  swap2\n  pop\n    /* \"#utility.yul\":910:1038   */\n  pop\n    /* \"#utility.yul\":694:1045   */\n  swap3\n  swap2\n  pop\n  pop\n  jump\t// out\n    /* \"#utility.yul\":1051:1231   */\ntag_17:\n    /* \"#utility.yul\":1099:1176   */\n  0x4e487b7100000000000000000000000000000000000000000000000000000000\n    /* \"#utility.yul\":1096:1097   */\n  0x00\n    /* \"#utility.yul\":1089:1177   */\n  mstore\n    /* \"#utility.yul\":1196:1200   */\n  0x11\n    /* \"#utility.yul\":1193:1194   */\n  0x04\n    /* \"#utility.yul\":1186:1201   */\n  mstore\n    /* \"#utility.yul\":1220:1224   */\n  0x24\n    /* \"#utility.yul\":1217:1218   */\n  0x00\n    /* \"#utility.yul\":1210:1225   */\n  revert\n    /* \"#utility.yul\":1237:1647   */\ntag_7:\n    /* \"#utility.yul\":1277:1284   */\n  0x00\n    /* \"#utility.yul\":1300:1320   */\n  tag_34\n    /* \"#utility.yul\":1318:1319   */\n  dup3\n    /* \"#utility.yul\":1300:1320   */\n  tag_14\n  jump\t// in\ntag_34:\n    /* \"#utility.yul\":1295:1320   */\n  swap2\n  pop\n    /* \"#utility.yul\":1334:1354   */\n  tag_35\n    /* \"#utility.yul\":1352:1353   */\n  dup4\n    /* \"#utility.yul\":1334:1354   */\n  tag_14\n  jump\t// in\ntag_35:\n    /* \"#utility.yul\":1329:1354   */\n  swap3\n  pop\n    /* \"#utility.yul\":1389:1390   */\n  dup3\n    /* \"#utility.yul\":1386:1387   */\n  dup3\n    /* \"#utility.yul\":1382:1391   */\n  mul\n    /* \"#utility.yul\":1411:1441   */\n  tag_36\n    /* \"#utility.yul\":1429:1440   */\n  dup2\n    /* \"#utility.yul\":1411:1441   */\n  tag_14\n  jump\t// in\ntag_36:\n    /* \"#utility.yul\":1400:1441   */\n  swap2\n  pop\n    /* \"#utility.yul\":1590:1591   */\n  dup3\n    /* \"#utility.yul\":1581:1588   */\n  dup3\n    /* \"#utility.yul\":1577:1592   */\n  div\n    /* \"#utility.yul\":1574:1575   */\n  dup5\n    /* \"#utility.yul\":1571:1593   */\n  eq\n    /* \"#utility.yul\":1551:1552   */\n  dup4\n    /* \"#utility.yul\":1544:1553   */\n  iszero\n    /* \"#utility.yul\":1524:1607   */\n  or\n    /* \"#utility.yul\":1501:1640   */\n  tag_37\n  jumpi\n    /* \"#utility.yul\":1620:1638   */\n  tag_38\n  tag_17\n  jump\t// in\ntag_38:\n    /* \"#utility.yul\":1501:1640   */\ntag_37:\n    /* \"#utility.yul\":1285:1647   */\n  pop\n    /* \"#utility.yul\":1237:1647   */\n  swap3\n  swap2\n  pop\n  pop\n  jump\t// out\n    /* \"#utility.yul\":1653:1844   */\ntag_9:\n    /* \"#utility.yul\":1693:1696   */\n  0x00\n    /* \"#utility.yul\":1712:1732   */\n  tag_40\n    /* \"#utility.yul\":1730:1731   */\n  dup3\n    /* \"#utility.yul\":1712:1732   */\n  tag_14\n  jump\t// in\ntag_40:\n    /* \"#utility.yul\":1707:1732   */\n  swap2\n  pop\n    /* \"#utility.yul\":1746:1766   */\n  tag_41\n    /* \"#utility.yul\":1764:1765   */\n  dup4\n    /* \"#utility.yul\":1746:1766   */\n  tag_14\n  jump\t// in\ntag_41:\n    /* \"#utility.yul\":1741:1766   */\n  swap3\n  pop\n    /* \"#utility.yul\":1789:1790   */\n  dup3\n    /* \"#utility.yul\":1786:1787   */\n  dup3\n    /* \"#utility.yul\":1782:1791   */\n  add\n    /* \"#utility.yul\":1775:1791   */\n  swap1\n  pop\n    /* \"#utility.yul\":1810:1813   */\n  dup1\n    /* \"#utility.yul\":1807:1808   */\n  dup3\n    /* \"#utility.yul\":1804:1814   */\n  gt\n    /* \"#utility.yul\":1801:1837   */\n  iszero\n  tag_42\n  jumpi\n    /* \"#utility.yul\":1817:1835   */\n  tag_43\n  tag_17\n  jump\t// in\ntag_43:\n    /* \"#utility.yul\":1801:1837   */\ntag_42:\n    /* \"#utility.yul\":1653:1844   */\n  swap3\n  swap2\n  pop\n  pop\n  jump\t// out\n    /* \"task3/BeggingContract.sol\":67:2971  contract BeggingContract {... */\ntag_10:\n  mload(0x80)\n  codecopy(0x00, dataOffset(sub_0), dataSize(sub_0))\n  0x00\n  assignImmutable(\"0x2a80e1ef1d7842f27f2e6be0972bb708b9a135c38860dbe73c27c3486c34f4de\")\n  return(0x00, dataSize(sub_0))\nstop\n\nsub_0: assembly {\n        /* \"task3/BeggingContract.sol\":67:2971  contract BeggingContract {... */\n      mstore(0x40, 0x80)\n      jumpi(tag_1, lt(calldatasize, 0x04))\n      shr(0xe0, calldataload(0x00))\n      dup1\n      0x46f999c6\n      gt\n      tag_11\n      jumpi\n      dup1\n      0x46f999c6\n      eq\n      tag_6\n      jumpi\n      dup1\n      0x6f9fb98a\n      eq\n      tag_7\n      jumpi\n      dup1\n      0x78331552\n      eq\n      tag_8\n      jumpi\n      dup1\n      0xed88c68e\n      eq\n      tag_9\n      jumpi\n      dup1\n      0xf12a4a53\n      eq\n      tag_10\n      jumpi\n      jump(tag_1)\n    tag_11:\n      dup1\n      0x17d440b9\n      eq\n      tag_2\n      jumpi\n      dup1\n      0x2d1e2518\n      eq\n      tag_3\n      jumpi\n      dup1\n      0x3ccfd60b\n      eq\n      tag_4\n      jumpi\n      dup1\n      0x410a1d32\n      eq\n      tag_5\n      jumpi\n    tag_1:\n      revert(0x00, 0x00)\n        /* \"task3/BeggingContract.sol\":2811:2968  function isDonationActive() external view returns (bool) {... */\n    tag_2:\n      callvalue\n      dup1\n      iszero\n      tag_12\n      jumpi\n      revert(0x00, 0x00)\n    tag_12:\n      pop\n      tag_13\n      tag_14\n      jump\t// in\n    tag_13:\n      mload(0x40)\n      tag_15\n      swap2\n      swap1\n      tag_16\n      jump\t// in\n    tag_15:\n      mload(0x40)\n      dup1\n      swap2\n      sub\n      swap1\n      return\n        /* \"task3/BeggingContract.sol\":1672:2517  function getTop3Donors() external view returns (address[3] memory top3Donors, uint256[3] memory top3Amounts) {... */\n    tag_3:\n      callvalue\n      dup1\n      iszero\n      tag_17\n      jumpi\n      revert(0x00, 0x00)\n    tag_17:\n      pop\n      tag_18\n      tag_19\n      jump\t// in\n    tag_18:\n      mload(0x40)\n      tag_20\n      swap3\n      swap2\n      swap1\n      tag_21\n      jump\t// in\n    tag_20:\n      mload(0x40)\n      dup1\n      swap2\n      sub\n      swap1\n      return\n        /* \"task3/BeggingContract.sol\":1285:1546  function withdraw() external onlyOwner {... */\n    tag_4:\n      callvalue\n      dup1\n      iszero\n      tag_22\n      jumpi\n      revert(0x00, 0x00)\n    tag_22:\n      pop\n      tag_23\n      tag_24\n      jump\t// in\n    tag_23:\n      stop\n        /* \"task3/BeggingContract.sol\":1554:1664  function getDonation(address donor) external view returns (uint256) {... */\n    tag_5:\n      callvalue\n      dup1\n      iszero\n      tag_25\n      jumpi\n      revert(0x00, 0x00)\n    tag_25:\n      pop\n      tag_26\n      0x04\n      dup1\n      calldatasize\n      sub\n      dup2\n      add\n      swap1\n      tag_27\n      swap2\n      swap1\n      tag_28\n      jump\t// in\n    tag_27:\n      tag_29\n      jump\t// in\n    tag_26:\n      mload(0x40)\n      tag_30\n      swap2\n      swap1\n      tag_31\n      jump\t// in\n    tag_30:\n      mload(0x40)\n      dup1\n      swap2\n      sub\n      swap1\n      return\n        /* \"task3/BeggingContract.sol\":2525:2686  function updateDonationPeriod(uint256 _newDurationInDays) external onlyOwner {... */\n    tag_6:\n      callvalue\n      dup1\n      iszero\n      tag_32\n      jumpi\n      revert(0x00, 0x00)\n    tag_32:\n      pop\n      tag_33\n      0x04\n      dup1\n      calldatasize\n      sub\n      dup2\n      add\n      swap1\n      tag_34\n      swap2\n      swap1\n      tag_35\n      jump\t// in\n    tag_34:\n      tag_36\n      jump\t// in\n    tag_33:\n      stop\n        /* \"task3/BeggingContract.sol\":2694:2803  function getContractBalance() external view returns (uint256) {... */\n    tag_7:\n      callvalue\n      dup1\n      iszero\n      tag_37\n      jumpi\n      revert(0x00, 0x00)\n    tag_37:\n      pop\n      tag_38\n      tag_39\n      jump\t// in\n    tag_38:\n      mload(0x40)\n      tag_40\n      swap2\n      swap1\n      tag_31\n      jump\t// in\n    tag_40:\n      mload(0x40)\n      dup1\n      swap2\n      sub\n      swap1\n      return\n        /* \"task3/BeggingContract.sol\":223:255  uint256 public donationStartTime */\n    tag_8:\n      callvalue\n      dup1\n      iszero\n      tag_41\n      jumpi\n      revert(0x00, 0x00)\n    tag_41:\n      pop\n      tag_42\n      tag_43\n      jump\t// in\n    tag_42:\n      mload(0x40)\n      tag_44\n      swap2\n      swap1\n      tag_31\n      jump\t// in\n    tag_44:\n      mload(0x40)\n      dup1\n      swap2\n      sub\n      swap1\n      return\n        /* \"task3/BeggingContract.sol\":924:1277  function donate() external payable onlyDuringDonationPeriod {... */\n    tag_9:\n      tag_45\n      tag_46\n      jump\t// in\n    tag_45:\n      stop\n        /* \"task3/BeggingContract.sol\":262:292  uint256 public donationEndTime */\n    tag_10:\n      callvalue\n      dup1\n      iszero\n      tag_47\n      jumpi\n      revert(0x00, 0x00)\n    tag_47:\n      pop\n      tag_48\n      tag_49\n      jump\t// in\n    tag_48:\n      mload(0x40)\n      tag_50\n      swap2\n      swap1\n      tag_31\n      jump\t// in\n    tag_50:\n      mload(0x40)\n      dup1\n      swap2\n      sub\n      swap1\n      return\n        /* \"task3/BeggingContract.sol\":2811:2968  function isDonationActive() external view returns (bool) {... */\n    tag_14:\n        /* \"task3/BeggingContract.sol\":2862:2866  bool */\n      0x00\n        /* \"task3/BeggingContract.sol\":2905:2922  donationStartTime */\n      sload(0x02)\n        /* \"task3/BeggingContract.sol\":2886:2901  block.timestamp */\n      timestamp\n        /* \"task3/BeggingContract.sol\":2886:2922  block.timestamp >= donationStartTime */\n      lt\n      iszero\n        /* \"task3/BeggingContract.sol\":2886:2960  block.timestamp >= donationStartTime && block.timestamp <= donationEndTime */\n      dup1\n      iszero\n      tag_52\n      jumpi\n      pop\n        /* \"task3/BeggingContract.sol\":2945:2960  donationEndTime */\n      sload(0x03)\n        /* \"task3/BeggingContract.sol\":2926:2941  block.timestamp */\n      timestamp\n        /* \"task3/BeggingContract.sol\":2926:2960  block.timestamp <= donationEndTime */\n      gt\n      iszero\n        /* \"task3/BeggingContract.sol\":2886:2960  block.timestamp >= donationStartTime && block.timestamp <= donationEndTime */\n    tag_52:\n        /* \"task3/BeggingContract.sol\":2879:2960  return block.timestamp >= donationStartTime && block.timestamp <= donationEndTime */\n      swap1\n      pop\n        /* \"task3/BeggingContract.sol\":2811:2968  function isDonationActive() external view returns (bool) {... */\n      swap1\n      jump\t// out\n        /* \"task3/BeggingContract.sol\":1672:2517  function getTop3Donors() external view returns (address[3] memory top3Donors, uint256[3] memory top3Amounts) {... */\n    tag_19:\n        /* \"task3/BeggingContract.sol\":1720:1748  address[3] memory top3Donors */\n      tag_53\n      tag_54\n      jump\t// in\n    tag_53:\n        /* \"task3/BeggingContract.sol\":1750:1779  uint256[3] memory top3Amounts */\n      tag_55\n      tag_56\n      jump\t// in\n    tag_55:\n        /* \"task3/BeggingContract.sol\":1792:1841  top3Donors = [address(0), address(0), address(0)] */\n      mload(0x40)\n      dup1\n      0x60\n      add\n      0x40\n      mstore\n      dup1\n        /* \"task3/BeggingContract.sol\":1814:1815  0 */\n      0x00\n        /* \"task3/BeggingContract.sol\":1792:1841  top3Donors = [address(0), address(0), address(0)] */\n      0xffffffffffffffffffffffffffffffffffffffff\n      and\n      0xffffffffffffffffffffffffffffffffffffffff\n      and\n      dup2\n      mstore\n      0x20\n      add\n        /* \"task3/BeggingContract.sol\":1826:1827  0 */\n      0x00\n        /* \"task3/BeggingContract.sol\":1792:1841  top3Donors = [address(0), address(0), address(0)] */\n      0xffffffffffffffffffffffffffffffffffffffff\n      and\n      0xffffffffffffffffffffffffffffffffffffffff\n      and\n      dup2\n      mstore\n      0x20\n      add\n        /* \"task3/BeggingContract.sol\":1838:1839  0 */\n      0x00\n        /* \"task3/BeggingContract.sol\":1792:1841  top3Donors = [address(0), address(0), address(0)] */\n      0xffffffffffffffffffffffffffffffffffffffff\n      and\n      0xffffffffffffffffffffffffffffffffffffffff\n      and\n      dup2\n      mstore\n      pop\n      swap2\n      pop\n        /* \"task3/BeggingContract.sol\":1852:1902  top3Amounts = [uint256(0), uint256(0), uint256(0)] */\n      mload(0x40)\n      dup1\n      0x60\n      add\n      0x40\n      mstore\n      dup1\n        /* \"task3/BeggingContract.sol\":1875:1876  0 */\n      0x00\n        /* \"task3/BeggingContract.sol\":1852:1902  top3Amounts = [uint256(0), uint256(0), uint256(0)] */\n      dup2\n      mstore\n      0x20\n      add\n        /* \"task3/BeggingContract.sol\":1887:1888  0 */\n      0x00\n        /* \"task3/BeggingContract.sol\":1852:1902  top3Amounts = [uint256(0), uint256(0), uint256(0)] */\n      dup2\n      mstore\n      0x20\n      add\n        /* \"task3/BeggingContract.sol\":1899:1900  0 */\n      0x00\n        /* \"task3/BeggingContract.sol\":1852:1902  top3Amounts = [uint256(0), uint256(0), uint256(0)] */\n      dup2\n      mstore\n      pop\n      swap1\n      pop\n        /* \"task3/BeggingContract.sol\":1920:1929  uint256 i */\n      0x00\n        /* \"task3/BeggingContract.sol\":1932:1933  0 */\n      0x00\n        /* \"task3/BeggingContract.sol\":1920:1933  uint256 i = 0 */\n      swap1\n      pop\n        /* \"task3/BeggingContract.sol\":1915:2510  for (uint256 i = 0; i < allDonors.length; ++i) {... */\n    tag_58:\n        /* \"task3/BeggingContract.sol\":1939:1948  allDonors */\n      0x01\n        /* \"task3/BeggingContract.sol\":1939:1955  allDonors.length */\n      dup1\n      sload\n      swap1\n      pop\n        /* \"task3/BeggingContract.sol\":1935:1936  i */\n      dup2\n        /* \"task3/BeggingContract.sol\":1935:1955  i < allDonors.length */\n      lt\n        /* \"task3/BeggingContract.sol\":1915:2510  for (uint256 i = 0; i < allDonors.length; ++i) {... */\n      iszero\n      tag_59\n      jumpi\n        /* \"task3/BeggingContract.sol\":1977:1990  address donor */\n      0x00\n        /* \"task3/BeggingContract.sol\":1993:2002  allDonors */\n      0x01\n        /* \"task3/BeggingContract.sol\":2003:2004  i */\n      dup3\n        /* \"task3/BeggingContract.sol\":1993:2005  allDonors[i] */\n      dup2\n      sload\n      dup2\n      lt\n      tag_61\n      jumpi\n      tag_62\n      tag_63\n      jump\t// in\n    tag_62:\n    tag_61:\n      swap1\n      0x00\n      mstore\n      keccak256(0x00, 0x20)\n      add\n      0x00\n      swap1\n      sload\n      swap1\n      0x0100\n      exp\n      swap1\n      div\n      0xffffffffffffffffffffffffffffffffffffffff\n      and\n        /* \"task3/BeggingContract.sol\":1977:2005  address donor = allDonors[i] */\n      swap1\n      pop\n        /* \"task3/BeggingContract.sol\":2020:2034  uint256 amount */\n      0x00\n        /* \"task3/BeggingContract.sol\":2037:2046  donations */\n      0x00\n        /* \"task3/BeggingContract.sol\":2037:2053  donations[donor] */\n      0x00\n        /* \"task3/BeggingContract.sol\":2047:2052  donor */\n      dup4\n        /* \"task3/BeggingContract.sol\":2037:2053  donations[donor] */\n      0xffffffffffffffffffffffffffffffffffffffff\n      and\n      0xffffffffffffffffffffffffffffffffffffffff\n      and\n      dup2\n      mstore\n      0x20\n      add\n      swap1\n      dup2\n      mstore\n      0x20\n      add\n      0x00\n      keccak256\n      sload\n        /* \"task3/BeggingContract.sol\":2020:2053  uint256 amount = donations[donor] */\n      swap1\n      pop\n        /* \"task3/BeggingContract.sol\":2075:2084  uint256 j */\n      0x00\n        /* \"task3/BeggingContract.sol\":2087:2088  0 */\n      0x00\n        /* \"task3/BeggingContract.sol\":2075:2088  uint256 j = 0 */\n      swap1\n      pop\n        /* \"task3/BeggingContract.sol\":2070:2499  for (uint256 j = 0; j < 3; ++j) {... */\n    tag_65:\n        /* \"task3/BeggingContract.sol\":2094:2095  3 */\n      0x03\n        /* \"task3/BeggingContract.sol\":2090:2091  j */\n      dup2\n        /* \"task3/BeggingContract.sol\":2090:2095  j < 3 */\n      lt\n        /* \"task3/BeggingContract.sol\":2070:2499  for (uint256 j = 0; j < 3; ++j) {... */\n      iszero\n      tag_66\n      jumpi\n        /* \"task3/BeggingContract.sol\":2134:2145  top3Amounts */\n      dup5\n        /* \"task3/BeggingContract.sol\":2146:2147  j */\n      dup2\n        /* \"task3/BeggingContract.sol\":2134:2148  top3Amounts[j] */\n      0x03\n      dup2\n      lt\n      tag_68\n      jumpi\n      tag_69\n      tag_63\n      jump\t// in\n    tag_69:\n    tag_68:\n      0x20\n      mul\n      add\n      mload\n        /* \"task3/BeggingContract.sol\":2125:2131  amount */\n      dup3\n        /* \"task3/BeggingContract.sol\":2125:2148  amount > top3Amounts[j] */\n      gt\n        /* \"task3/BeggingContract.sol\":2121:2484  if (amount > top3Amounts[j]) {... */\n      iszero\n      tag_70\n      jumpi\n        /* \"task3/BeggingContract.sol\":2178:2187  uint256 k */\n      0x00\n        /* \"task3/BeggingContract.sol\":2190:2191  2 */\n      0x02\n        /* \"task3/BeggingContract.sol\":2178:2191  uint256 k = 2 */\n      swap1\n      pop\n        /* \"task3/BeggingContract.sol\":2173:2347  for (uint256 k = 2; k > j; --k) {... */\n    tag_71:\n        /* \"task3/BeggingContract.sol\":2197:2198  j */\n      dup2\n        /* \"task3/BeggingContract.sol\":2193:2194  k */\n      dup2\n        /* \"task3/BeggingContract.sol\":2193:2198  k > j */\n      gt\n        /* \"task3/BeggingContract.sol\":2173:2347  for (uint256 k = 2; k > j; --k) {... */\n      iszero\n      tag_72\n      jumpi\n        /* \"task3/BeggingContract.sol\":2248:2258  top3Donors */\n      dup7\n        /* \"task3/BeggingContract.sol\":2261:2262  1 */\n      0x01\n        /* \"task3/BeggingContract.sol\":2259:2260  k */\n      dup3\n        /* \"task3/BeggingContract.sol\":2259:2262  k-1 */\n      tag_74\n      swap2\n      swap1\n      tag_75\n      jump\t// in\n    tag_74:\n        /* \"task3/BeggingContract.sol\":2248:2263  top3Donors[k-1] */\n      0x03\n      dup2\n      lt\n      tag_76\n      jumpi\n      tag_77\n      tag_63\n      jump\t// in\n    tag_77:\n    tag_76:\n      0x20\n      mul\n      add\n      mload\n        /* \"task3/BeggingContract.sol\":2232:2242  top3Donors */\n      dup8\n        /* \"task3/BeggingContract.sol\":2243:2244  k */\n      dup3\n        /* \"task3/BeggingContract.sol\":2232:2245  top3Donors[k] */\n      0x03\n      dup2\n      lt\n      tag_78\n      jumpi\n      tag_79\n      tag_63\n      jump\t// in\n    tag_79:\n    tag_78:\n      0x20\n      mul\n      add\n        /* \"task3/BeggingContract.sol\":2232:2263  top3Donors[k] = top3Donors[k-1] */\n      swap1\n      0xffffffffffffffffffffffffffffffffffffffff\n      and\n      swap1\n      dup2\n      0xffffffffffffffffffffffffffffffffffffffff\n      and\n      dup2\n      mstore\n      pop\n      pop\n        /* \"task3/BeggingContract.sol\":2307:2318  top3Amounts */\n      dup6\n        /* \"task3/BeggingContract.sol\":2321:2322  1 */\n      0x01\n        /* \"task3/BeggingContract.sol\":2319:2320  k */\n      dup3\n        /* \"task3/BeggingContract.sol\":2319:2322  k-1 */\n      tag_80\n      swap2\n      swap1\n      tag_75\n      jump\t// in\n    tag_80:\n        /* \"task3/BeggingContract.sol\":2307:2323  top3Amounts[k-1] */\n      0x03\n      dup2\n      lt\n      tag_81\n      jumpi\n      tag_82\n      tag_63\n      jump\t// in\n    tag_82:\n    tag_81:\n      0x20\n      mul\n      add\n      mload\n        /* \"task3/BeggingContract.sol\":2290:2301  top3Amounts */\n      dup7\n        /* \"task3/BeggingContract.sol\":2302:2303  k */\n      dup3\n        /* \"task3/BeggingContract.sol\":2290:2304  top3Amounts[k] */\n      0x03\n      dup2\n      lt\n      tag_83\n      jumpi\n      tag_84\n      tag_63\n      jump\t// in\n    tag_84:\n    tag_83:\n      0x20\n      mul\n      add\n        /* \"task3/BeggingContract.sol\":2290:2323  top3Amounts[k] = top3Amounts[k-1] */\n      dup2\n      dup2\n      mstore\n      pop\n      pop\n        /* \"task3/BeggingContract.sol\":2200:2203  --k */\n      dup1\n      tag_85\n      swap1\n      tag_86\n      jump\t// in\n    tag_85:\n      swap1\n      pop\n        /* \"task3/BeggingContract.sol\":2173:2347  for (uint256 k = 2; k > j; --k) {... */\n      jump(tag_71)\n    tag_72:\n      pop\n        /* \"task3/BeggingContract.sol\":2385:2390  donor */\n      dup3\n        /* \"task3/BeggingContract.sol\":2369:2379  top3Donors */\n      dup7\n        /* \"task3/BeggingContract.sol\":2380:2381  j */\n      dup3\n        /* \"task3/BeggingContract.sol\":2369:2382  top3Donors[j] */\n      0x03\n      dup2\n      lt\n      tag_87\n      jumpi\n      tag_88\n      tag_63\n      jump\t// in\n    tag_88:\n    tag_87:\n      0x20\n      mul\n      add\n        /* \"task3/BeggingContract.sol\":2369:2390  top3Donors[j] = donor */\n      swap1\n      0xffffffffffffffffffffffffffffffffffffffff\n      and\n      swap1\n      dup2\n      0xffffffffffffffffffffffffffffffffffffffff\n      and\n      dup2\n      mstore\n      pop\n      pop\n        /* \"task3/BeggingContract.sol\":2430:2436  amount */\n      dup2\n        /* \"task3/BeggingContract.sol\":2413:2424  top3Amounts */\n      dup6\n        /* \"task3/BeggingContract.sol\":2425:2426  j */\n      dup3\n        /* \"task3/BeggingContract.sol\":2413:2427  top3Amounts[j] */\n      0x03\n      dup2\n      lt\n      tag_89\n      jumpi\n      tag_90\n      tag_63\n      jump\t// in\n    tag_90:\n    tag_89:\n      0x20\n      mul\n      add\n        /* \"task3/BeggingContract.sol\":2413:2436  top3Amounts[j] = amount */\n      dup2\n      dup2\n      mstore\n      pop\n      pop\n        /* \"task3/BeggingContract.sol\":2459:2464  break */\n      jump(tag_66)\n        /* \"task3/BeggingContract.sol\":2121:2484  if (amount > top3Amounts[j]) {... */\n    tag_70:\n        /* \"task3/BeggingContract.sol\":2097:2100  ++j */\n      dup1\n      0x01\n      add\n      swap1\n      pop\n        /* \"task3/BeggingContract.sol\":2070:2499  for (uint256 j = 0; j < 3; ++j) {... */\n      jump(tag_65)\n    tag_66:\n      pop\n        /* \"task3/BeggingContract.sol\":1962:2510  {... */\n      pop\n      pop\n        /* \"task3/BeggingContract.sol\":1957:1960  ++i */\n      dup1\n      0x01\n      add\n      swap1\n      pop\n        /* \"task3/BeggingContract.sol\":1915:2510  for (uint256 i = 0; i < allDonors.length; ++i) {... */\n      jump(tag_58)\n    tag_59:\n      pop\n        /* \"task3/BeggingContract.sol\":1672:2517  function getTop3Donors() external view returns (address[3] memory top3Donors, uint256[3] memory top3Amounts) {... */\n      swap1\n      swap2\n      jump\t// out\n        /* \"task3/BeggingContract.sol\":1285:1546  function withdraw() external onlyOwner {... */\n    tag_24:\n        /* \"task3/BeggingContract.sol\":436:441  owner */\n      immutable(\"0x2a80e1ef1d7842f27f2e6be0972bb708b9a135c38860dbe73c27c3486c34f4de\")\n        /* \"task3/BeggingContract.sol\":422:441  msg.sender == owner */\n      0xffffffffffffffffffffffffffffffffffffffff\n      and\n        /* \"task3/BeggingContract.sol\":422:432  msg.sender */\n      caller\n        /* \"task3/BeggingContract.sol\":422:441  msg.sender == owner */\n      0xffffffffffffffffffffffffffffffffffffffff\n      and\n      eq\n        /* \"task3/BeggingContract.sol\":414:479  require(msg.sender == owner, \"Only owner can call this function\") */\n      tag_92\n      jumpi\n      mload(0x40)\n      0x08c379a000000000000000000000000000000000000000000000000000000000\n      dup2\n      mstore\n      0x04\n      add\n      tag_93\n      swap1\n      tag_94\n      jump\t// in\n    tag_93:\n      mload(0x40)\n      dup1\n      swap2\n      sub\n      swap1\n      revert\n    tag_92:\n        /* \"task3/BeggingContract.sol\":1335:1350  uint256 balance */\n      0x00\n        /* \"task3/BeggingContract.sol\":1353:1374  address(this).balance */\n      selfbalance\n        /* \"task3/BeggingContract.sol\":1335:1374  uint256 balance = address(this).balance */\n      swap1\n      pop\n        /* \"task3/BeggingContract.sol\":1403:1404  0 */\n      0x00\n        /* \"task3/BeggingContract.sol\":1393:1400  balance */\n      dup2\n        /* \"task3/BeggingContract.sol\":1393:1404  balance > 0 */\n      gt\n        /* \"task3/BeggingContract.sol\":1385:1428  require(balance > 0, \"No funds to windraw\") */\n      tag_96\n      jumpi\n      mload(0x40)\n      0x08c379a000000000000000000000000000000000000000000000000000000000\n      dup2\n      mstore\n      0x04\n      add\n      tag_97\n      swap1\n      tag_98\n      jump\t// in\n    tag_97:\n      mload(0x40)\n      dup1\n      swap2\n      sub\n      swap1\n      revert\n    tag_96:\n        /* \"task3/BeggingContract.sol\":1442:1454  bool success */\n      0x00\n        /* \"task3/BeggingContract.sol\":1460:1465  owner */\n      immutable(\"0x2a80e1ef1d7842f27f2e6be0972bb708b9a135c38860dbe73c27c3486c34f4de\")\n        /* \"task3/BeggingContract.sol\":1460:1470  owner.call */\n      0xffffffffffffffffffffffffffffffffffffffff\n      and\n        /* \"task3/BeggingContract.sol\":1478:1485  balance */\n      dup3\n        /* \"task3/BeggingContract.sol\":1460:1490  owner.call{value: balance}(\"\") */\n      mload(0x40)\n      tag_99\n      swap1\n      tag_100\n      jump\t// in\n    tag_99:\n      0x00\n      mload(0x40)\n      dup1\n      dup4\n      sub\n      dup2\n      dup6\n      dup8\n      gas\n      call\n      swap3\n      pop\n      pop\n      pop\n      returndatasize\n      dup1\n      0x00\n      dup2\n      eq\n      tag_103\n      jumpi\n      mload(0x40)\n      swap2\n      pop\n      and(add(returndatasize, 0x3f), not(0x1f))\n      dup3\n      add\n      0x40\n      mstore\n      returndatasize\n      dup3\n      mstore\n      returndatasize\n      0x00\n      0x20\n      dup5\n      add\n      returndatacopy\n      jump(tag_102)\n    tag_103:\n      0x60\n      swap2\n      pop\n    tag_102:\n      pop\n        /* \"task3/BeggingContract.sol\":1441:1490  (bool success, ) = owner.call{value: balance}(\"\") */\n      pop\n      swap1\n      pop\n        /* \"task3/BeggingContract.sol\":1509:1516  success */\n      dup1\n        /* \"task3/BeggingContract.sol\":1501:1538  require(success, \"Withdrawal failed\") */\n      tag_104\n      jumpi\n      mload(0x40)\n      0x08c379a000000000000000000000000000000000000000000000000000000000\n      dup2\n      mstore\n      0x04\n      add\n      tag_105\n      swap1\n      tag_106\n      jump\t// in\n    tag_105:\n      mload(0x40)\n      dup1\n      swap2\n      sub\n      swap1\n      revert\n    tag_104:\n        /* \"task3/BeggingContract.sol\":1324:1546  {... */\n      pop\n      pop\n        /* \"task3/BeggingContract.sol\":1285:1546  function withdraw() external onlyOwner {... */\n      jump\t// out\n        /* \"task3/BeggingContract.sol\":1554:1664  function getDonation(address donor) external view returns (uint256) {... */\n    tag_29:\n        /* \"task3/BeggingContract.sol\":1613:1620  uint256 */\n      0x00\n        /* \"task3/BeggingContract.sol\":1640:1649  donations */\n      0x00\n        /* \"task3/BeggingContract.sol\":1640:1656  donations[donor] */\n      0x00\n        /* \"task3/BeggingContract.sol\":1650:1655  donor */\n      dup4\n        /* \"task3/BeggingContract.sol\":1640:1656  donations[donor] */\n      0xffffffffffffffffffffffffffffffffffffffff\n      and\n      0xffffffffffffffffffffffffffffffffffffffff\n      and\n      dup2\n      mstore\n      0x20\n      add\n      swap1\n      dup2\n      mstore\n      0x20\n      add\n      0x00\n      keccak256\n      sload\n        /* \"task3/BeggingContract.sol\":1633:1656  return donations[donor] */\n      swap1\n      pop\n        /* \"task3/BeggingContract.sol\":1554:1664  function getDonation(address donor) external view returns (uint256) {... */\n      swap2\n      swap1\n      pop\n      jump\t// out\n        /* \"task3/BeggingContract.sol\":2525:2686  function updateDonationPeriod(uint256 _newDurationInDays) external onlyOwner {... */\n    tag_36:\n        /* \"task3/BeggingContract.sol\":436:441  owner */\n      immutable(\"0x2a80e1ef1d7842f27f2e6be0972bb708b9a135c38860dbe73c27c3486c34f4de\")\n        /* \"task3/BeggingContract.sol\":422:441  msg.sender == owner */\n      0xffffffffffffffffffffffffffffffffffffffff\n      and\n        /* \"task3/BeggingContract.sol\":422:432  msg.sender */\n      caller\n        /* \"task3/BeggingContract.sol\":422:441  msg.sender == owner */\n      0xffffffffffffffffffffffffffffffffffffffff\n      and\n      eq\n        /* \"task3/BeggingContract.sol\":414:479  require(msg.sender == owner, \"Only owner can call this function\") */\n      tag_109\n      jumpi\n      mload(0x40)\n      0x08c379a000000000000000000000000000000000000000000000000000000000\n      dup2\n      mstore\n      0x04\n      add\n      tag_110\n      swap1\n      tag_94\n      jump\t// in\n    tag_110:\n      mload(0x40)\n      dup1\n      swap2\n      sub\n      swap1\n      revert\n    tag_109:\n        /* \"task3/BeggingContract.sol\":2671:2677  1 days */\n      0x015180\n        /* \"task3/BeggingContract.sol\":2650:2668  _newDurationInDays */\n      dup2\n        /* \"task3/BeggingContract.sol\":2650:2677  _newDurationInDays * 1 days */\n      tag_112\n      swap2\n      swap1\n      tag_113\n      jump\t// in\n    tag_112:\n        /* \"task3/BeggingContract.sol\":2631:2646  block.timestamp */\n      timestamp\n        /* \"task3/BeggingContract.sol\":2631:2678  block.timestamp + (_newDurationInDays * 1 days) */\n      tag_114\n      swap2\n      swap1\n      tag_115\n      jump\t// in\n    tag_114:\n        /* \"task3/BeggingContract.sol\":2613:2628  donationEndTime */\n      0x03\n        /* \"task3/BeggingContract.sol\":2613:2678  donationEndTime = block.timestamp + (_newDurationInDays * 1 days) */\n      dup2\n      swap1\n      sstore\n      pop\n        /* \"task3/BeggingContract.sol\":2525:2686  function updateDonationPeriod(uint256 _newDurationInDays) external onlyOwner {... */\n      pop\n      jump\t// out\n        /* \"task3/BeggingContract.sol\":2694:2803  function getContractBalance() external view returns (uint256) {... */\n    tag_39:\n        /* \"task3/BeggingContract.sol\":2747:2754  uint256 */\n      0x00\n        /* \"task3/BeggingContract.sol\":2774:2795  address(this).balance */\n      selfbalance\n        /* \"task3/BeggingContract.sol\":2767:2795  return address(this).balance */\n      swap1\n      pop\n        /* \"task3/BeggingContract.sol\":2694:2803  function getContractBalance() external view returns (uint256) {... */\n      swap1\n      jump\t// out\n        /* \"task3/BeggingContract.sol\":223:255  uint256 public donationStartTime */\n    tag_43:\n      sload(0x02)\n      dup2\n      jump\t// out\n        /* \"task3/BeggingContract.sol\":924:1277  function donate() external payable onlyDuringDonationPeriod {... */\n    tag_46:\n        /* \"task3/BeggingContract.sol\":581:598  donationStartTime */\n      sload(0x02)\n        /* \"task3/BeggingContract.sol\":562:577  block.timestamp */\n      timestamp\n        /* \"task3/BeggingContract.sol\":562:598  block.timestamp >= donationStartTime */\n      lt\n      iszero\n        /* \"task3/BeggingContract.sol\":562:636  block.timestamp >= donationStartTime && block.timestamp <= donationEndTime */\n      dup1\n      iszero\n      tag_118\n      jumpi\n      pop\n        /* \"task3/BeggingContract.sol\":621:636  donationEndTime */\n      sload(0x03)\n        /* \"task3/BeggingContract.sol\":602:617  block.timestamp */\n      timestamp\n        /* \"task3/BeggingContract.sol\":602:636  block.timestamp <= donationEndTime */\n      gt\n      iszero\n        /* \"task3/BeggingContract.sol\":562:636  block.timestamp >= donationStartTime && block.timestamp <= donationEndTime */\n    tag_118:\n        /* \"task3/BeggingContract.sol\":554:679  require(block.timestamp >= donationStartTime && block.timestamp <= donationEndTime, \"Donations are not allowed at this time\") */\n      tag_119\n      jumpi\n      mload(0x40)\n      0x08c379a000000000000000000000000000000000000000000000000000000000\n      dup2\n      mstore\n      0x04\n      add\n      tag_120\n      swap1\n      tag_121\n      jump\t// in\n    tag_120:\n      mload(0x40)\n      dup1\n      swap2\n      sub\n      swap1\n      revert\n    tag_119:\n        /* \"task3/BeggingContract.sol\":1015:1016  0 */\n      0x00\n        /* \"task3/BeggingContract.sol\":1003:1012  msg.value */\n      callvalue\n        /* \"task3/BeggingContract.sol\":1003:1016  msg.value > 0 */\n      gt\n        /* \"task3/BeggingContract.sol\":995:1059  require(msg.value > 0, \"Donation amount must be greater than 0\") */\n      tag_123\n      jumpi\n      mload(0x40)\n      0x08c379a000000000000000000000000000000000000000000000000000000000\n      dup2\n      mstore\n      0x04\n      add\n      tag_124\n      swap1\n      tag_125\n      jump\t// in\n    tag_124:\n      mload(0x40)\n      dup1\n      swap2\n      sub\n      swap1\n      revert\n    tag_123:\n        /* \"task3/BeggingContract.sol\":1101:1102  0 */\n      0x00\n        /* \"task3/BeggingContract.sol\":1076:1085  donations */\n      0x00\n        /* \"task3/BeggingContract.sol\":1076:1097  donations[msg.sender] */\n      0x00\n        /* \"task3/BeggingContract.sol\":1086:1096  msg.sender */\n      caller\n        /* \"task3/BeggingContract.sol\":1076:1097  donations[msg.sender] */\n      0xffffffffffffffffffffffffffffffffffffffff\n      and\n      0xffffffffffffffffffffffffffffffffffffffff\n      and\n      dup2\n      mstore\n      0x20\n      add\n      swap1\n      dup2\n      mstore\n      0x20\n      add\n      0x00\n      keccak256\n      sload\n        /* \"task3/BeggingContract.sol\":1076:1102  donations[msg.sender] == 0 */\n      sub\n        /* \"task3/BeggingContract.sol\":1072:1157  if (donations[msg.sender] == 0) {... */\n      tag_126\n      jumpi\n        /* \"task3/BeggingContract.sol\":1119:1128  allDonors */\n      0x01\n        /* \"task3/BeggingContract.sol\":1134:1144  msg.sender */\n      caller\n        /* \"task3/BeggingContract.sol\":1119:1145  allDonors.push(msg.sender) */\n      swap1\n      dup1\n      0x01\n      dup2\n      sload\n      add\n      dup1\n      dup3\n      sstore\n      dup1\n      swap2\n      pop\n      pop\n      0x01\n      swap1\n      sub\n      swap1\n      0x00\n      mstore\n      keccak256(0x00, 0x20)\n      add\n      0x00\n      swap1\n      swap2\n      swap1\n      swap2\n      swap1\n      swap2\n      0x0100\n      exp\n      dup2\n      sload\n      dup2\n      0xffffffffffffffffffffffffffffffffffffffff\n      mul\n      not\n      and\n      swap1\n      dup4\n      0xffffffffffffffffffffffffffffffffffffffff\n      and\n      mul\n      or\n      swap1\n      sstore\n      pop\n        /* \"task3/BeggingContract.sol\":1072:1157  if (donations[msg.sender] == 0) {... */\n    tag_126:\n        /* \"task3/BeggingContract.sol\":1194:1203  msg.value */\n      callvalue\n        /* \"task3/BeggingContract.sol\":1169:1178  donations */\n      0x00\n        /* \"task3/BeggingContract.sol\":1169:1190  donations[msg.sender] */\n      0x00\n        /* \"task3/BeggingContract.sol\":1179:1189  msg.sender */\n      caller\n        /* \"task3/BeggingContract.sol\":1169:1190  donations[msg.sender] */\n      0xffffffffffffffffffffffffffffffffffffffff\n      and\n      0xffffffffffffffffffffffffffffffffffffffff\n      and\n      dup2\n      mstore\n      0x20\n      add\n      swap1\n      dup2\n      mstore\n      0x20\n      add\n      0x00\n      keccak256\n      0x00\n        /* \"task3/BeggingContract.sol\":1169:1203  donations[msg.sender] += msg.value */\n      dup3\n      dup3\n      sload\n      tag_128\n      swap2\n      swap1\n      tag_115\n      jump\t// in\n    tag_128:\n      swap3\n      pop\n      pop\n      dup2\n      swap1\n      sstore\n      pop\n        /* \"task3/BeggingContract.sol\":1230:1240  msg.sender */\n      caller\n        /* \"task3/BeggingContract.sol\":1221:1269  Donation(msg.sender, msg.value, block.timestamp) */\n      0xffffffffffffffffffffffffffffffffffffffff\n      and\n      0x106aac375bbcf013d1e52338bbf9e740009a1a3a6869f8daa1b72aa1620f5fec\n        /* \"task3/BeggingContract.sol\":1242:1251  msg.value */\n      callvalue\n        /* \"task3/BeggingContract.sol\":1253:1268  block.timestamp */\n      timestamp\n        /* \"task3/BeggingContract.sol\":1221:1269  Donation(msg.sender, msg.value, block.timestamp) */\n      mload(0x40)\n      tag_129\n      swap3\n      swap2\n      swap1\n      tag_130\n      jump\t// in\n    tag_129:\n      mload(0x40)\n      dup1\n      swap2\n      sub\n      swap1\n      log2\n        /* \"task3/BeggingContract.sol\":924:1277  function donate() external payable onlyDuringDonationPeriod {... */\n      jump\t// out\n        /* \"task3/BeggingContract.sol\":262:292  uint256 public donationEndTime */\n    tag_49:\n      sload(0x03)\n      dup2\n      jump\t// out\n    tag_54:\n      mload(0x40)\n      dup1\n      0x60\n      add\n      0x40\n      mstore\n      dup1\n      0x03\n      swap1\n      0x20\n      dup3\n      mul\n      dup1\n      calldatasize\n      dup4\n      calldatacopy\n      dup1\n      dup3\n      add\n      swap2\n      pop\n      pop\n      swap1\n      pop\n      pop\n      swap1\n      jump\t// out\n    tag_56:\n      mload(0x40)\n      dup1\n      0x60\n      add\n      0x40\n      mstore\n      dup1\n      0x03\n      swap1\n      0x20\n      dup3\n      mul\n      dup1\n      calldatasize\n      dup4\n      calldatacopy\n      dup1\n      dup3\n      add\n      swap2\n      pop\n      pop\n      swap1\n      pop\n      pop\n      swap1\n      jump\t// out\n        /* \"#utility.yul\":7:97   */\n    tag_131:\n        /* \"#utility.yul\":41:48   */\n      0x00\n        /* \"#utility.yul\":84:89   */\n      dup2\n        /* \"#utility.yul\":77:90   */\n      iszero\n        /* \"#utility.yul\":70:91   */\n      iszero\n        /* \"#utility.yul\":59:91   */\n      swap1\n      pop\n        /* \"#utility.yul\":7:97   */\n      swap2\n      swap1\n      pop\n      jump\t// out\n        /* \"#utility.yul\":103:212   */\n    tag_132:\n        /* \"#utility.yul\":184:205   */\n      tag_176\n        /* \"#utility.yul\":199:204   */\n      dup2\n        /* \"#utility.yul\":184:205   */\n      tag_131\n      jump\t// in\n    tag_176:\n        /* \"#utility.yul\":179:182   */\n      dup3\n        /* \"#utility.yul\":172:206   */\n      mstore\n        /* \"#utility.yul\":103:212   */\n      pop\n      pop\n      jump\t// out\n        /* \"#utility.yul\":218:428   */\n    tag_16:\n        /* \"#utility.yul\":305:309   */\n      0x00\n        /* \"#utility.yul\":343:345   */\n      0x20\n        /* \"#utility.yul\":332:341   */\n      dup3\n        /* \"#utility.yul\":328:346   */\n      add\n        /* \"#utility.yul\":320:346   */\n      swap1\n      pop\n        /* \"#utility.yul\":356:421   */\n      tag_178\n        /* \"#utility.yul\":418:419   */\n      0x00\n        /* \"#utility.yul\":407:416   */\n      dup4\n        /* \"#utility.yul\":403:420   */\n      add\n        /* \"#utility.yul\":394:400   */\n      dup5\n        /* \"#utility.yul\":356:421   */\n      tag_132\n      jump\t// in\n    tag_178:\n        /* \"#utility.yul\":218:428   */\n      swap3\n      swap2\n      pop\n      pop\n      jump\t// out\n        /* \"#utility.yul\":434:538   */\n    tag_133:\n        /* \"#utility.yul\":499:505   */\n      0x00\n        /* \"#utility.yul\":527:531   */\n      0x03\n        /* \"#utility.yul\":517:531   */\n      swap1\n      pop\n        /* \"#utility.yul\":434:538   */\n      swap2\n      swap1\n      pop\n      jump\t// out\n        /* \"#utility.yul\":544:687   */\n    tag_134:\n        /* \"#utility.yul\":641:652   */\n      0x00\n        /* \"#utility.yul\":678:681   */\n      dup2\n        /* \"#utility.yul\":663:681   */\n      swap1\n      pop\n        /* \"#utility.yul\":544:687   */\n      swap3\n      swap2\n      pop\n      pop\n      jump\t// out\n        /* \"#utility.yul\":693:791   */\n    tag_135:\n        /* \"#utility.yul\":758:762   */\n      0x00\n        /* \"#utility.yul\":781:784   */\n      dup2\n        /* \"#utility.yul\":773:784   */\n      swap1\n      pop\n        /* \"#utility.yul\":693:791   */\n      swap2\n      swap1\n      pop\n      jump\t// out\n        /* \"#utility.yul\":797:923   */\n    tag_136:\n        /* \"#utility.yul\":834:841   */\n      0x00\n        /* \"#utility.yul\":874:916   */\n      0xffffffffffffffffffffffffffffffffffffffff\n        /* \"#utility.yul\":867:872   */\n      dup3\n        /* \"#utility.yul\":863:917   */\n      and\n        /* \"#utility.yul\":852:917   */\n      swap1\n      pop\n        /* \"#utility.yul\":797:923   */\n      swap2\n      swap1\n      pop\n      jump\t// out\n        /* \"#utility.yul\":929:1025   */\n    tag_137:\n        /* \"#utility.yul\":966:973   */\n      0x00\n        /* \"#utility.yul\":995:1019   */\n      tag_184\n        /* \"#utility.yul\":1013:1018   */\n      dup3\n        /* \"#utility.yul\":995:1019   */\n      tag_136\n      jump\t// in\n    tag_184:\n        /* \"#utility.yul\":984:1019   */\n      swap1\n      pop\n        /* \"#utility.yul\":929:1025   */\n      swap2\n      swap1\n      pop\n      jump\t// out\n        /* \"#utility.yul\":1031:1139   */\n    tag_138:\n        /* \"#utility.yul\":1108:1132   */\n      tag_186\n        /* \"#utility.yul\":1126:1131   */\n      dup2\n        /* \"#utility.yul\":1108:1132   */\n      tag_137\n      jump\t// in\n    tag_186:\n        /* \"#utility.yul\":1103:1106   */\n      dup3\n        /* \"#utility.yul\":1096:1133   */\n      mstore\n        /* \"#utility.yul\":1031:1139   */\n      pop\n      pop\n      jump\t// out\n        /* \"#utility.yul\":1145:1324   */\n    tag_139:\n        /* \"#utility.yul\":1214:1224   */\n      0x00\n        /* \"#utility.yul\":1235:1281   */\n      tag_188\n        /* \"#utility.yul\":1277:1280   */\n      dup4\n        /* \"#utility.yul\":1269:1275   */\n      dup4\n        /* \"#utility.yul\":1235:1281   */\n      tag_138\n      jump\t// in\n    tag_188:\n        /* \"#utility.yul\":1313:1317   */\n      0x20\n        /* \"#utility.yul\":1308:1311   */\n      dup4\n        /* \"#utility.yul\":1304:1318   */\n      add\n        /* \"#utility.yul\":1290:1318   */\n      swap1\n      pop\n        /* \"#utility.yul\":1145:1324   */\n      swap3\n      swap2\n      pop\n      pop\n      jump\t// out\n        /* \"#utility.yul\":1330:1441   */\n    tag_140:\n        /* \"#utility.yul\":1398:1402   */\n      0x00\n        /* \"#utility.yul\":1430:1434   */\n      0x20\n        /* \"#utility.yul\":1425:1428   */\n      dup3\n        /* \"#utility.yul\":1421:1435   */\n      add\n        /* \"#utility.yul\":1413:1435   */\n      swap1\n      pop\n        /* \"#utility.yul\":1330:1441   */\n      swap2\n      swap1\n      pop\n      jump\t// out\n        /* \"#utility.yul\":1479:2173   */\n    tag_141:\n        /* \"#utility.yul\":1615:1667   */\n      tag_191\n        /* \"#utility.yul\":1661:1666   */\n      dup2\n        /* \"#utility.yul\":1615:1667   */\n      tag_133\n      jump\t// in\n    tag_191:\n        /* \"#utility.yul\":1683:1767   */\n      tag_192\n        /* \"#utility.yul\":1760:1766   */\n      dup2\n        /* \"#utility.yul\":1755:1758   */\n      dup5\n        /* \"#utility.yul\":1683:1767   */\n      tag_134\n      jump\t// in\n    tag_192:\n        /* \"#utility.yul\":1676:1767   */\n      swap3\n      pop\n        /* \"#utility.yul\":1791:1845   */\n      tag_193\n        /* \"#utility.yul\":1839:1844   */\n      dup3\n        /* \"#utility.yul\":1791:1845   */\n      tag_135\n      jump\t// in\n    tag_193:\n        /* \"#utility.yul\":1868:1875   */\n      dup1\n        /* \"#utility.yul\":1899:1900   */\n      0x00\n        /* \"#utility.yul\":1884:2166   */\n    tag_194:\n        /* \"#utility.yul\":1909:1915   */\n      dup4\n        /* \"#utility.yul\":1906:1907   */\n      dup2\n        /* \"#utility.yul\":1903:1916   */\n      lt\n        /* \"#utility.yul\":1884:2166   */\n      iszero\n      tag_196\n      jumpi\n        /* \"#utility.yul\":1985:1991   */\n      dup2\n        /* \"#utility.yul\":1979:1992   */\n      mload\n        /* \"#utility.yul\":2012:2075   */\n      tag_197\n        /* \"#utility.yul\":2071:2074   */\n      dup8\n        /* \"#utility.yul\":2056:2069   */\n      dup3\n        /* \"#utility.yul\":2012:2075   */\n      tag_139\n      jump\t// in\n    tag_197:\n        /* \"#utility.yul\":2005:2075   */\n      swap7\n      pop\n        /* \"#utility.yul\":2098:2156   */\n      tag_198\n        /* \"#utility.yul\":2149:2155   */\n      dup4\n        /* \"#utility.yul\":2098:2156   */\n      tag_140\n      jump\t// in\n    tag_198:\n        /* \"#utility.yul\":2088:2156   */\n      swap3\n      pop\n        /* \"#utility.yul\":1944:2166   */\n      pop\n        /* \"#utility.yul\":1931:1932   */\n      0x01\n        /* \"#utility.yul\":1928:1929   */\n      dup2\n        /* \"#utility.yul\":1924:1933   */\n      add\n        /* \"#utility.yul\":1919:1933   */\n      swap1\n      pop\n        /* \"#utility.yul\":1884:2166   */\n      jump(tag_194)\n    tag_196:\n        /* \"#utility.yul\":1888:1902   */\n      pop\n        /* \"#utility.yul\":1591:2173   */\n      pop\n      pop\n      pop\n        /* \"#utility.yul\":1479:2173   */\n      pop\n      pop\n      jump\t// out\n        /* \"#utility.yul\":2179:2283   */\n    tag_142:\n        /* \"#utility.yul\":2244:2250   */\n      0x00\n        /* \"#utility.yul\":2272:2276   */\n      0x03\n        /* \"#utility.yul\":2262:2276   */\n      swap1\n      pop\n        /* \"#utility.yul\":2179:2283   */\n      swap2\n      swap1\n      pop\n      jump\t// out\n        /* \"#utility.yul\":2289:2432   */\n    tag_143:\n        /* \"#utility.yul\":2386:2397   */\n      0x00\n        /* \"#utility.yul\":2423:2426   */\n      dup2\n        /* \"#utility.yul\":2408:2426   */\n      swap1\n      pop\n        /* \"#utility.yul\":2289:2432   */\n      swap3\n      swap2\n      pop\n      pop\n      jump\t// out\n        /* \"#utility.yul\":2438:2536   */\n    tag_144:\n        /* \"#utility.yul\":2503:2507   */\n      0x00\n        /* \"#utility.yul\":2526:2529   */\n      dup2\n        /* \"#utility.yul\":2518:2529   */\n      swap1\n      pop\n        /* \"#utility.yul\":2438:2536   */\n      swap2\n      swap1\n      pop\n      jump\t// out\n        /* \"#utility.yul\":2542:2619   */\n    tag_145:\n        /* \"#utility.yul\":2579:2586   */\n      0x00\n        /* \"#utility.yul\":2608:2613   */\n      dup2\n        /* \"#utility.yul\":2597:2613   */\n      swap1\n      pop\n        /* \"#utility.yul\":2542:2619   */\n      swap2\n      swap1\n      pop\n      jump\t// out\n        /* \"#utility.yul\":2625:2733   */\n    tag_146:\n        /* \"#utility.yul\":2702:2726   */\n      tag_204\n        /* \"#utility.yul\":2720:2725   */\n      dup2\n        /* \"#utility.yul\":2702:2726   */\n      tag_145\n      jump\t// in\n    tag_204:\n        /* \"#utility.yul\":2697:2700   */\n      dup3\n        /* \"#utility.yul\":2690:2727   */\n      mstore\n        /* \"#utility.yul\":2625:2733   */\n      pop\n      pop\n      jump\t// out\n        /* \"#utility.yul\":2739:2918   */\n    tag_147:\n        /* \"#utility.yul\":2808:2818   */\n      0x00\n        /* \"#utility.yul\":2829:2875   */\n      tag_206\n        /* \"#utility.yul\":2871:2874   */\n      dup4\n        /* \"#utility.yul\":2863:2869   */\n      dup4\n        /* \"#utility.yul\":2829:2875   */\n      tag_146\n      jump\t// in\n    tag_206:\n        /* \"#utility.yul\":2907:2911   */\n      0x20\n        /* \"#utility.yul\":2902:2905   */\n      dup4\n        /* \"#utility.yul\":2898:2912   */\n      add\n        /* \"#utility.yul\":2884:2912   */\n      swap1\n      pop\n        /* \"#utility.yul\":2739:2918   */\n      swap3\n      swap2\n      pop\n      pop\n      jump\t// out\n        /* \"#utility.yul\":2924:3035   */\n    tag_148:\n        /* \"#utility.yul\":2992:2996   */\n      0x00\n        /* \"#utility.yul\":3024:3028   */\n      0x20\n        /* \"#utility.yul\":3019:3022   */\n      dup3\n        /* \"#utility.yul\":3015:3029   */\n      add\n        /* \"#utility.yul\":3007:3029   */\n      swap1\n      pop\n        /* \"#utility.yul\":2924:3035   */\n      swap2\n      swap1\n      pop\n      jump\t// out\n        /* \"#utility.yul\":3073:3767   */\n    tag_149:\n        /* \"#utility.yul\":3209:3261   */\n      tag_209\n        /* \"#utility.yul\":3255:3260   */\n      dup2\n        /* \"#utility.yul\":3209:3261   */\n      tag_142\n      jump\t// in\n    tag_209:\n        /* \"#utility.yul\":3277:3361   */\n      tag_210\n        /* \"#utility.yul\":3354:3360   */\n      dup2\n        /* \"#utility.yul\":3349:3352   */\n      dup5\n        /* \"#utility.yul\":3277:3361   */\n      tag_143\n      jump\t// in\n    tag_210:\n        /* \"#utility.yul\":3270:3361   */\n      swap3\n      pop\n        /* \"#utility.yul\":3385:3439   */\n      tag_211\n        /* \"#utility.yul\":3433:3438   */\n      dup3\n        /* \"#utility.yul\":3385:3439   */\n      tag_144\n      jump\t// in\n    tag_211:\n        /* \"#utility.yul\":3462:3469   */\n      dup1\n        /* \"#utility.yul\":3493:3494   */\n      0x00\n        /* \"#utility.yul\":3478:3760   */\n    tag_212:\n        /* \"#utility.yul\":3503:3509   */\n      dup4\n        /* \"#utility.yul\":3500:3501   */\n      dup2\n        /* \"#utility.yul\":3497:3510   */\n      lt\n        /* \"#utility.yul\":3478:3760   */\n      iszero\n      tag_214\n      jumpi\n        /* \"#utility.yul\":3579:3585   */\n      dup2\n        /* \"#utility.yul\":3573:3586   */\n      mload\n        /* \"#utility.yul\":3606:3669   */\n      tag_215\n        /* \"#utility.yul\":3665:3668   */\n      dup8\n        /* \"#utility.yul\":3650:3663   */\n      dup3\n        /* \"#utility.yul\":3606:3669   */\n      tag_147\n      jump\t// in\n    tag_215:\n        /* \"#utility.yul\":3599:3669   */\n      swap7\n      pop\n        /* \"#utility.yul\":3692:3750   */\n      tag_216\n        /* \"#utility.yul\":3743:3749   */\n      dup4\n        /* \"#utility.yul\":3692:3750   */\n      tag_148\n      jump\t// in\n    tag_216:\n        /* \"#utility.yul\":3682:3750   */\n      swap3\n      pop\n        /* \"#utility.yul\":3538:3760   */\n      pop\n        /* \"#utility.yul\":3525:3526   */\n      0x01\n        /* \"#utility.yul\":3522:3523   */\n      dup2\n        /* \"#utility.yul\":3518:3527   */\n      add\n        /* \"#utility.yul\":3513:3527   */\n      swap1\n      pop\n        /* \"#utility.yul\":3478:3760   */\n      jump(tag_212)\n    tag_214:\n        /* \"#utility.yul\":3482:3496   */\n      pop\n        /* \"#utility.yul\":3185:3767   */\n      pop\n      pop\n      pop\n        /* \"#utility.yul\":3073:3767   */\n      pop\n      pop\n      jump\t// out\n        /* \"#utility.yul\":3773:4290   */\n    tag_21:\n        /* \"#utility.yul\":3986:3990   */\n      0x00\n        /* \"#utility.yul\":4024:4027   */\n      0xc0\n        /* \"#utility.yul\":4013:4022   */\n      dup3\n        /* \"#utility.yul\":4009:4028   */\n      add\n        /* \"#utility.yul\":4001:4028   */\n      swap1\n      pop\n        /* \"#utility.yul\":4038:4155   */\n      tag_218\n        /* \"#utility.yul\":4152:4153   */\n      0x00\n        /* \"#utility.yul\":4141:4150   */\n      dup4\n        /* \"#utility.yul\":4137:4154   */\n      add\n        /* \"#utility.yul\":4128:4134   */\n      dup6\n        /* \"#utility.yul\":4038:4155   */\n      tag_141\n      jump\t// in\n    tag_218:\n        /* \"#utility.yul\":4165:4283   */\n      tag_219\n        /* \"#utility.yul\":4279:4281   */\n      0x60\n        /* \"#utility.yul\":4268:4277   */\n      dup4\n        /* \"#utility.yul\":4264:4282   */\n      add\n        /* \"#utility.yul\":4255:4261   */\n      dup5\n        /* \"#utility.yul\":4165:4283   */\n      tag_149\n      jump\t// in\n    tag_219:\n        /* \"#utility.yul\":3773:4290   */\n      swap4\n      swap3\n      pop\n      pop\n      pop\n      jump\t// out\n        /* \"#utility.yul\":4377:4494   */\n    tag_151:\n        /* \"#utility.yul\":4486:4487   */\n      0x00\n        /* \"#utility.yul\":4483:4484   */\n      0x00\n        /* \"#utility.yul\":4476:4488   */\n      revert\n        /* \"#utility.yul\":4623:4745   */\n    tag_153:\n        /* \"#utility.yul\":4696:4720   */\n      tag_224\n        /* \"#utility.yul\":4714:4719   */\n      dup2\n        /* \"#utility.yul\":4696:4720   */\n      tag_137\n      jump\t// in\n    tag_224:\n        /* \"#utility.yul\":4689:4694   */\n      dup2\n        /* \"#utility.yul\":4686:4721   */\n      eq\n        /* \"#utility.yul\":4676:4739   */\n      tag_225\n      jumpi\n        /* \"#utility.yul\":4735:4736   */\n      0x00\n        /* \"#utility.yul\":4732:4733   */\n      0x00\n        /* \"#utility.yul\":4725:4737   */\n      revert\n        /* \"#utility.yul\":4676:4739   */\n    tag_225:\n        /* \"#utility.yul\":4623:4745   */\n      pop\n      jump\t// out\n        /* \"#utility.yul\":4751:4890   */\n    tag_154:\n        /* \"#utility.yul\":4797:4802   */\n      0x00\n        /* \"#utility.yul\":4835:4841   */\n      dup2\n        /* \"#utility.yul\":4822:4842   */\n      calldataload\n        /* \"#utility.yul\":4813:4842   */\n      swap1\n      pop\n        /* \"#utility.yul\":4851:4884   */\n      tag_227\n        /* \"#utility.yul\":4878:4883   */\n      dup2\n        /* \"#utility.yul\":4851:4884   */\n      tag_153\n      jump\t// in\n    tag_227:\n        /* \"#utility.yul\":4751:4890   */\n      swap3\n      swap2\n      pop\n      pop\n      jump\t// out\n        /* \"#utility.yul\":4896:5225   */\n    tag_28:\n        /* \"#utility.yul\":4955:4961   */\n      0x00\n        /* \"#utility.yul\":5004:5006   */\n      0x20\n        /* \"#utility.yul\":4992:5001   */\n      dup3\n        /* \"#utility.yul\":4983:4990   */\n      dup5\n        /* \"#utility.yul\":4979:5002   */\n      sub\n        /* \"#utility.yul\":4975:5007   */\n      slt\n        /* \"#utility.yul\":4972:5091   */\n      iszero\n      tag_229\n      jumpi\n        /* \"#utility.yul\":5010:5089   */\n      tag_230\n      tag_151\n      jump\t// in\n    tag_230:\n        /* \"#utility.yul\":4972:5091   */\n    tag_229:\n        /* \"#utility.yul\":5130:5131   */\n      0x00\n        /* \"#utility.yul\":5155:5208   */\n      tag_231\n        /* \"#utility.yul\":5200:5207   */\n      dup5\n        /* \"#utility.yul\":5191:5197   */\n      dup3\n        /* \"#utility.yul\":5180:5189   */\n      dup6\n        /* \"#utility.yul\":5176:5198   */\n      add\n        /* \"#utility.yul\":5155:5208   */\n      tag_154\n      jump\t// in\n    tag_231:\n        /* \"#utility.yul\":5145:5208   */\n      swap2\n      pop\n        /* \"#utility.yul\":5101:5218   */\n      pop\n        /* \"#utility.yul\":4896:5225   */\n      swap3\n      swap2\n      pop\n      pop\n      jump\t// out\n        /* \"#utility.yul\":5231:5349   */\n    tag_155:\n        /* \"#utility.yul\":5318:5342   */\n      tag_233\n        /* \"#utility.yul\":5336:5341   */\n      dup2\n        /* \"#utility.yul\":5318:5342   */\n      tag_145\n      jump\t// in\n    tag_233:\n        /* \"#utility.yul\":5313:5316   */\n      dup3\n        /* \"#utility.yul\":5306:5343   */\n      mstore\n        /* \"#utility.yul\":5231:5349   */\n      pop\n      pop\n      jump\t// out\n        /* \"#utility.yul\":5355:5577   */\n    tag_31:\n        /* \"#utility.yul\":5448:5452   */\n      0x00\n        /* \"#utility.yul\":5486:5488   */\n      0x20\n        /* \"#utility.yul\":5475:5484   */\n      dup3\n        /* \"#utility.yul\":5471:5489   */\n      add\n        /* \"#utility.yul\":5463:5489   */\n      swap1\n      pop\n        /* \"#utility.yul\":5499:5570   */\n      tag_235\n        /* \"#utility.yul\":5567:5568   */\n      0x00\n        /* \"#utility.yul\":5556:5565   */\n      dup4\n        /* \"#utility.yul\":5552:5569   */\n      add\n        /* \"#utility.yul\":5543:5549   */\n      dup5\n        /* \"#utility.yul\":5499:5570   */\n      tag_155\n      jump\t// in\n    tag_235:\n        /* \"#utility.yul\":5355:5577   */\n      swap3\n      swap2\n      pop\n      pop\n      jump\t// out\n        /* \"#utility.yul\":5583:5705   */\n    tag_156:\n        /* \"#utility.yul\":5656:5680   */\n      tag_237\n        /* \"#utility.yul\":5674:5679   */\n      dup2\n        /* \"#utility.yul\":5656:5680   */\n      tag_145\n      jump\t// in\n    tag_237:\n        /* \"#utility.yul\":5649:5654   */\n      dup2\n        /* \"#utility.yul\":5646:5681   */\n      eq\n        /* \"#utility.yul\":5636:5699   */\n      tag_238\n      jumpi\n        /* \"#utility.yul\":5695:5696   */\n      0x00\n        /* \"#utility.yul\":5692:5693   */\n      0x00\n        /* \"#utility.yul\":5685:5697   */\n      revert\n        /* \"#utility.yul\":5636:5699   */\n    tag_238:\n        /* \"#utility.yul\":5583:5705   */\n      pop\n      jump\t// out\n        /* \"#utility.yul\":5711:5850   */\n    tag_157:\n        /* \"#utility.yul\":5757:5762   */\n      0x00\n        /* \"#utility.yul\":5795:5801   */\n      dup2\n        /* \"#utility.yul\":5782:5802   */\n      calldataload\n        /* \"#utility.yul\":5773:5802   */\n      swap1\n      pop\n        /* \"#utility.yul\":5811:5844   */\n      tag_240\n        /* \"#utility.yul\":5838:5843   */\n      dup2\n        /* \"#utility.yul\":5811:5844   */\n      tag_156\n      jump\t// in\n    tag_240:\n        /* \"#utility.yul\":5711:5850   */\n      swap3\n      swap2\n      pop\n      pop\n      jump\t// out\n        /* \"#utility.yul\":5856:6185   */\n    tag_35:\n        /* \"#utility.yul\":5915:5921   */\n      0x00\n        /* \"#utility.yul\":5964:5966   */\n      0x20\n        /* \"#utility.yul\":5952:5961   */\n      dup3\n        /* \"#utility.yul\":5943:5950   */\n      dup5\n        /* \"#utility.yul\":5939:5962   */\n      sub\n        /* \"#utility.yul\":5935:5967   */\n      slt\n        /* \"#utility.yul\":5932:6051   */\n      iszero\n      tag_242\n      jumpi\n        /* \"#utility.yul\":5970:6049   */\n      tag_243\n      tag_151\n      jump\t// in\n    tag_243:\n        /* \"#utility.yul\":5932:6051   */\n    tag_242:\n        /* \"#utility.yul\":6090:6091   */\n      0x00\n        /* \"#utility.yul\":6115:6168   */\n      tag_244\n        /* \"#utility.yul\":6160:6167   */\n      dup5\n        /* \"#utility.yul\":6151:6157   */\n      dup3\n        /* \"#utility.yul\":6140:6149   */\n      dup6\n        /* \"#utility.yul\":6136:6158   */\n      add\n        /* \"#utility.yul\":6115:6168   */\n      tag_157\n      jump\t// in\n    tag_244:\n        /* \"#utility.yul\":6105:6168   */\n      swap2\n      pop\n        /* \"#utility.yul\":6061:6178   */\n      pop\n        /* \"#utility.yul\":5856:6185   */\n      swap3\n      swap2\n      pop\n      pop\n      jump\t// out\n        /* \"#utility.yul\":6191:6371   */\n    tag_63:\n        /* \"#utility.yul\":6239:6316   */\n      0x4e487b7100000000000000000000000000000000000000000000000000000000\n        /* \"#utility.yul\":6236:6237   */\n      0x00\n        /* \"#utility.yul\":6229:6317   */\n      mstore\n        /* \"#utility.yul\":6336:6340   */\n      0x32\n        /* \"#utility.yul\":6333:6334   */\n      0x04\n        /* \"#utility.yul\":6326:6341   */\n      mstore\n        /* \"#utility.yul\":6360:6364   */\n      0x24\n        /* \"#utility.yul\":6357:6358   */\n      0x00\n        /* \"#utility.yul\":6350:6365   */\n      revert\n        /* \"#utility.yul\":6377:6557   */\n    tag_158:\n        /* \"#utility.yul\":6425:6502   */\n      0x4e487b7100000000000000000000000000000000000000000000000000000000\n        /* \"#utility.yul\":6422:6423   */\n      0x00\n        /* \"#utility.yul\":6415:6503   */\n      mstore\n        /* \"#utility.yul\":6522:6526   */\n      0x11\n        /* \"#utility.yul\":6519:6520   */\n      0x04\n        /* \"#utility.yul\":6512:6527   */\n      mstore\n        /* \"#utility.yul\":6546:6550   */\n      0x24\n        /* \"#utility.yul\":6543:6544   */\n      0x00\n        /* \"#utility.yul\":6536:6551   */\n      revert\n        /* \"#utility.yul\":6563:6757   */\n    tag_75:\n        /* \"#utility.yul\":6603:6607   */\n      0x00\n        /* \"#utility.yul\":6623:6643   */\n      tag_248\n        /* \"#utility.yul\":6641:6642   */\n      dup3\n        /* \"#utility.yul\":6623:6643   */\n      tag_145\n      jump\t// in\n    tag_248:\n        /* \"#utility.yul\":6618:6643   */\n      swap2\n      pop\n        /* \"#utility.yul\":6657:6677   */\n      tag_249\n        /* \"#utility.yul\":6675:6676   */\n      dup4\n        /* \"#utility.yul\":6657:6677   */\n      tag_145\n      jump\t// in\n    tag_249:\n        /* \"#utility.yul\":6652:6677   */\n      swap3\n      pop\n        /* \"#utility.yul\":6701:6702   */\n      dup3\n        /* \"#utility.yul\":6698:6699   */\n      dup3\n        /* \"#utility.yul\":6694:6703   */\n      sub\n        /* \"#utility.yul\":6686:6703   */\n      swap1\n      pop\n        /* \"#utility.yul\":6725:6726   */\n      dup2\n        /* \"#utility.yul\":6719:6723   */\n      dup2\n        /* \"#utility.yul\":6716:6727   */\n      gt\n        /* \"#utility.yul\":6713:6750   */\n      iszero\n      tag_250\n      jumpi\n        /* \"#utility.yul\":6730:6748   */\n      tag_251\n      tag_158\n      jump\t// in\n    tag_251:\n        /* \"#utility.yul\":6713:6750   */\n    tag_250:\n        /* \"#utility.yul\":6563:6757   */\n      swap3\n      swap2\n      pop\n      pop\n      jump\t// out\n        /* \"#utility.yul\":6763:6934   */\n    tag_86:\n        /* \"#utility.yul\":6802:6805   */\n      0x00\n        /* \"#utility.yul\":6825:6849   */\n      tag_253\n        /* \"#utility.yul\":6843:6848   */\n      dup3\n        /* \"#utility.yul\":6825:6849   */\n      tag_145\n      jump\t// in\n    tag_253:\n        /* \"#utility.yul\":6816:6849   */\n      swap2\n      pop\n        /* \"#utility.yul\":6871:6875   */\n      0x00\n        /* \"#utility.yul\":6864:6869   */\n      dup3\n        /* \"#utility.yul\":6861:6876   */\n      sub\n        /* \"#utility.yul\":6858:6899   */\n      tag_254\n      jumpi\n        /* \"#utility.yul\":6879:6897   */\n      tag_255\n      tag_158\n      jump\t// in\n    tag_255:\n        /* \"#utility.yul\":6858:6899   */\n    tag_254:\n        /* \"#utility.yul\":6926:6927   */\n      0x01\n        /* \"#utility.yul\":6919:6924   */\n      dup3\n        /* \"#utility.yul\":6915:6928   */\n      sub\n        /* \"#utility.yul\":6908:6928   */\n      swap1\n      pop\n        /* \"#utility.yul\":6763:6934   */\n      swap2\n      swap1\n      pop\n      jump\t// out\n        /* \"#utility.yul\":6940:7109   */\n    tag_159:\n        /* \"#utility.yul\":7024:7035   */\n      0x00\n        /* \"#utility.yul\":7058:7064   */\n      dup3\n        /* \"#utility.yul\":7053:7056   */\n      dup3\n        /* \"#utility.yul\":7046:7065   */\n      mstore\n        /* \"#utility.yul\":7098:7102   */\n      0x20\n        /* \"#utility.yul\":7093:7096   */\n      dup3\n        /* \"#utility.yul\":7089:7103   */\n      add\n        /* \"#utility.yul\":7074:7103   */\n      swap1\n      pop\n        /* \"#utility.yul\":6940:7109   */\n      swap3\n      swap2\n      pop\n      pop\n      jump\t// out\n        /* \"#utility.yul\":7115:7335   */\n    tag_160:\n        /* \"#utility.yul\":7255:7289   */\n      0x4f6e6c79206f776e65722063616e2063616c6c20746869732066756e6374696f\n        /* \"#utility.yul\":7251:7252   */\n      0x00\n        /* \"#utility.yul\":7243:7249   */\n      dup3\n        /* \"#utility.yul\":7239:7253   */\n      add\n        /* \"#utility.yul\":7232:7290   */\n      mstore\n        /* \"#utility.yul\":7324:7327   */\n      0x6e00000000000000000000000000000000000000000000000000000000000000\n        /* \"#utility.yul\":7319:7321   */\n      0x20\n        /* \"#utility.yul\":7311:7317   */\n      dup3\n        /* \"#utility.yul\":7307:7322   */\n      add\n        /* \"#utility.yul\":7300:7328   */\n      mstore\n        /* \"#utility.yul\":7115:7335   */\n      pop\n      jump\t// out\n        /* \"#utility.yul\":7341:7707   */\n    tag_161:\n        /* \"#utility.yul\":7483:7486   */\n      0x00\n        /* \"#utility.yul\":7504:7571   */\n      tag_259\n        /* \"#utility.yul\":7568:7570   */\n      0x21\n        /* \"#utility.yul\":7563:7566   */\n      dup4\n        /* \"#utility.yul\":7504:7571   */\n      tag_159\n      jump\t// in\n    tag_259:\n        /* \"#utility.yul\":7497:7571   */\n      swap2\n      pop\n        /* \"#utility.yul\":7580:7673   */\n      tag_260\n        /* \"#utility.yul\":7669:7672   */\n      dup3\n        /* \"#utility.yul\":7580:7673   */\n      tag_160\n      jump\t// in\n    tag_260:\n        /* \"#utility.yul\":7698:7700   */\n      0x40\n        /* \"#utility.yul\":7693:7696   */\n      dup3\n        /* \"#utility.yul\":7689:7701   */\n      add\n        /* \"#utility.yul\":7682:7701   */\n      swap1\n      pop\n        /* \"#utility.yul\":7341:7707   */\n      swap2\n      swap1\n      pop\n      jump\t// out\n        /* \"#utility.yul\":7713:8132   */\n    tag_94:\n        /* \"#utility.yul\":7879:7883   */\n      0x00\n        /* \"#utility.yul\":7917:7919   */\n      0x20\n        /* \"#utility.yul\":7906:7915   */\n      dup3\n        /* \"#utility.yul\":7902:7920   */\n      add\n        /* \"#utility.yul\":7894:7920   */\n      swap1\n      pop\n        /* \"#utility.yul\":7966:7975   */\n      dup2\n        /* \"#utility.yul\":7960:7964   */\n      dup2\n        /* \"#utility.yul\":7956:7976   */\n      sub\n        /* \"#utility.yul\":7952:7953   */\n      0x00\n        /* \"#utility.yul\":7941:7950   */\n      dup4\n        /* \"#utility.yul\":7937:7954   */\n      add\n        /* \"#utility.yul\":7930:7977   */\n      mstore\n        /* \"#utility.yul\":7994:8125   */\n      tag_262\n        /* \"#utility.yul\":8120:8124   */\n      dup2\n        /* \"#utility.yul\":7994:8125   */\n      tag_161\n      jump\t// in\n    tag_262:\n        /* \"#utility.yul\":7986:8125   */\n      swap1\n      pop\n        /* \"#utility.yul\":7713:8132   */\n      swap2\n      swap1\n      pop\n      jump\t// out\n        /* \"#utility.yul\":8138:8307   */\n    tag_162:\n        /* \"#utility.yul\":8278:8299   */\n      0x4e6f2066756e647320746f2077696e6472617700000000000000000000000000\n        /* \"#utility.yul\":8274:8275   */\n      0x00\n        /* \"#utility.yul\":8266:8272   */\n      dup3\n        /* \"#utility.yul\":8262:8276   */\n      add\n        /* \"#utility.yul\":8255:8300   */\n      mstore\n        /* \"#utility.yul\":8138:8307   */\n      pop\n      jump\t// out\n        /* \"#utility.yul\":8313:8679   */\n    tag_163:\n        /* \"#utility.yul\":8455:8458   */\n      0x00\n        /* \"#utility.yul\":8476:8543   */\n      tag_265\n        /* \"#utility.yul\":8540:8542   */\n      0x13\n        /* \"#utility.yul\":8535:8538   */\n      dup4\n        /* \"#utility.yul\":8476:8543   */\n      tag_159\n      jump\t// in\n    tag_265:\n        /* \"#utility.yul\":8469:8543   */\n      swap2\n      pop\n        /* \"#utility.yul\":8552:8645   */\n      tag_266\n        /* \"#utility.yul\":8641:8644   */\n      dup3\n        /* \"#utility.yul\":8552:8645   */\n      tag_162\n      jump\t// in\n    tag_266:\n        /* \"#utility.yul\":8670:8672   */\n      0x20\n        /* \"#utility.yul\":8665:8668   */\n      dup3\n        /* \"#utility.yul\":8661:8673   */\n      add\n        /* \"#utility.yul\":8654:8673   */\n      swap1\n      pop\n        /* \"#utility.yul\":8313:8679   */\n      swap2\n      swap1\n      pop\n      jump\t// out\n        /* \"#utility.yul\":8685:9104   */\n    tag_98:\n        /* \"#utility.yul\":8851:8855   */\n      0x00\n        /* \"#utility.yul\":8889:8891   */\n      0x20\n        /* \"#utility.yul\":8878:8887   */\n      dup3\n        /* \"#utility.yul\":8874:8892   */\n      add\n        /* \"#utility.yul\":8866:8892   */\n      swap1\n      pop\n        /* \"#utility.yul\":8938:8947   */\n      dup2\n        /* \"#utility.yul\":8932:8936   */\n      dup2\n        /* \"#utility.yul\":8928:8948   */\n      sub\n        /* \"#utility.yul\":8924:8925   */\n      0x00\n        /* \"#utility.yul\":8913:8922   */\n      dup4\n        /* \"#utility.yul\":8909:8926   */\n      add\n        /* \"#utility.yul\":8902:8949   */\n      mstore\n        /* \"#utility.yul\":8966:9097   */\n      tag_268\n        /* \"#utility.yul\":9092:9096   */\n      dup2\n        /* \"#utility.yul\":8966:9097   */\n      tag_163\n      jump\t// in\n    tag_268:\n        /* \"#utility.yul\":8958:9097   */\n      swap1\n      pop\n        /* \"#utility.yul\":8685:9104   */\n      swap2\n      swap1\n      pop\n      jump\t// out\n        /* \"#utility.yul\":9110:9257   */\n    tag_164:\n        /* \"#utility.yul\":9211:9222   */\n      0x00\n        /* \"#utility.yul\":9248:9251   */\n      dup2\n        /* \"#utility.yul\":9233:9251   */\n      swap1\n      pop\n        /* \"#utility.yul\":9110:9257   */\n      swap3\n      swap2\n      pop\n      pop\n      jump\t// out\n        /* \"#utility.yul\":9263:9377   */\n    tag_165:\n      pop\n      jump\t// out\n        /* \"#utility.yul\":9383:9781   */\n    tag_166:\n        /* \"#utility.yul\":9542:9545   */\n      0x00\n        /* \"#utility.yul\":9563:9646   */\n      tag_272\n        /* \"#utility.yul\":9644:9645   */\n      0x00\n        /* \"#utility.yul\":9639:9642   */\n      dup4\n        /* \"#utility.yul\":9563:9646   */\n      tag_164\n      jump\t// in\n    tag_272:\n        /* \"#utility.yul\":9556:9646   */\n      swap2\n      pop\n        /* \"#utility.yul\":9655:9748   */\n      tag_273\n        /* \"#utility.yul\":9744:9747   */\n      dup3\n        /* \"#utility.yul\":9655:9748   */\n      tag_165\n      jump\t// in\n    tag_273:\n        /* \"#utility.yul\":9773:9774   */\n      0x00\n        /* \"#utility.yul\":9768:9771   */\n      dup3\n        /* \"#utility.yul\":9764:9775   */\n      add\n        /* \"#utility.yul\":9757:9775   */\n      swap1\n      pop\n        /* \"#utility.yul\":9383:9781   */\n      swap2\n      swap1\n      pop\n      jump\t// out\n        /* \"#utility.yul\":9787:10166   */\n    tag_100:\n        /* \"#utility.yul\":9971:9974   */\n      0x00\n        /* \"#utility.yul\":9993:10140   */\n      tag_275\n        /* \"#utility.yul\":10136:10139   */\n      dup3\n        /* \"#utility.yul\":9993:10140   */\n      tag_166\n      jump\t// in\n    tag_275:\n        /* \"#utility.yul\":9986:10140   */\n      swap2\n      pop\n        /* \"#utility.yul\":10157:10160   */\n      dup2\n        /* \"#utility.yul\":10150:10160   */\n      swap1\n      pop\n        /* \"#utility.yul\":9787:10166   */\n      swap2\n      swap1\n      pop\n      jump\t// out\n        /* \"#utility.yul\":10172:10339   */\n    tag_167:\n        /* \"#utility.yul\":10312:10331   */\n      0x5769746864726177616c206661696c6564000000000000000000000000000000\n        /* \"#utility.yul\":10308:10309   */\n      0x00\n        /* \"#utility.yul\":10300:10306   */\n      dup3\n        /* \"#utility.yul\":10296:10310   */\n      add\n        /* \"#utility.yul\":10289:10332   */\n      mstore\n        /* \"#utility.yul\":10172:10339   */\n      pop\n      jump\t// out\n        /* \"#utility.yul\":10345:10711   */\n    tag_168:\n        /* \"#utility.yul\":10487:10490   */\n      0x00\n        /* \"#utility.yul\":10508:10575   */\n      tag_278\n        /* \"#utility.yul\":10572:10574   */\n      0x11\n        /* \"#utility.yul\":10567:10570   */\n      dup4\n        /* \"#utility.yul\":10508:10575   */\n      tag_159\n      jump\t// in\n    tag_278:\n        /* \"#utility.yul\":10501:10575   */\n      swap2\n      pop\n        /* \"#utility.yul\":10584:10677   */\n      tag_279\n        /* \"#utility.yul\":10673:10676   */\n      dup3\n        /* \"#utility.yul\":10584:10677   */\n      tag_167\n      jump\t// in\n    tag_279:\n        /* \"#utility.yul\":10702:10704   */\n      0x20\n        /* \"#utility.yul\":10697:10700   */\n      dup3\n        /* \"#utility.yul\":10693:10705   */\n      add\n        /* \"#utility.yul\":10686:10705   */\n      swap1\n      pop\n        /* \"#utility.yul\":10345:10711   */\n      swap2\n      swap1\n      pop\n      jump\t// out\n        /* \"#utility.yul\":10717:11136   */\n    tag_106:\n        /* \"#utility.yul\":10883:10887   */\n      0x00\n        /* \"#utility.yul\":10921:10923   */\n      0x20\n        /* \"#utility.yul\":10910:10919   */\n      dup3\n        /* \"#utility.yul\":10906:10924   */\n      add\n        /* \"#utility.yul\":10898:10924   */\n      swap1\n      pop\n        /* \"#utility.yul\":10970:10979   */\n      dup2\n        /* \"#utility.yul\":10964:10968   */\n      dup2\n        /* \"#utility.yul\":10960:10980   */\n      sub\n        /* \"#utility.yul\":10956:10957   */\n      0x00\n        /* \"#utility.yul\":10945:10954   */\n      dup4\n        /* \"#utility.yul\":10941:10958   */\n      add\n        /* \"#utility.yul\":10934:10981   */\n      mstore\n        /* \"#utility.yul\":10998:11129   */\n      tag_281\n        /* \"#utility.yul\":11124:11128   */\n      dup2\n        /* \"#utility.yul\":10998:11129   */\n      tag_168\n      jump\t// in\n    tag_281:\n        /* \"#utility.yul\":10990:11129   */\n      swap1\n      pop\n        /* \"#utility.yul\":10717:11136   */\n      swap2\n      swap1\n      pop\n      jump\t// out\n        /* \"#utility.yul\":11142:11552   */\n    tag_113:\n        /* \"#utility.yul\":11182:11189   */\n      0x00\n        /* \"#utility.yul\":11205:11225   */\n      tag_283\n        /* \"#utility.yul\":11223:11224   */\n      dup3\n        /* \"#utility.yul\":11205:11225   */\n      tag_145\n      jump\t// in\n    tag_283:\n        /* \"#utility.yul\":11200:11225   */\n      swap2\n      pop\n        /* \"#utility.yul\":11239:11259   */\n      tag_284\n        /* \"#utility.yul\":11257:11258   */\n      dup4\n        /* \"#utility.yul\":11239:11259   */\n      tag_145\n      jump\t// in\n    tag_284:\n        /* \"#utility.yul\":11234:11259   */\n      swap3\n      pop\n        /* \"#utility.yul\":11294:11295   */\n      dup3\n        /* \"#utility.yul\":11291:11292   */\n      dup3\n        /* \"#utility.yul\":11287:11296   */\n      mul\n        /* \"#utility.yul\":11316:11346   */\n      tag_285\n        /* \"#utility.yul\":11334:11345   */\n      dup2\n        /* \"#utility.yul\":11316:11346   */\n      tag_145\n      jump\t// in\n    tag_285:\n        /* \"#utility.yul\":11305:11346   */\n      swap2\n      pop\n        /* \"#utility.yul\":11495:11496   */\n      dup3\n        /* \"#utility.yul\":11486:11493   */\n      dup3\n        /* \"#utility.yul\":11482:11497   */\n      div\n        /* \"#utility.yul\":11479:11480   */\n      dup5\n        /* \"#utility.yul\":11476:11498   */\n      eq\n        /* \"#utility.yul\":11456:11457   */\n      dup4\n        /* \"#utility.yul\":11449:11458   */\n      iszero\n        /* \"#utility.yul\":11429:11512   */\n      or\n        /* \"#utility.yul\":11406:11545   */\n      tag_286\n      jumpi\n        /* \"#utility.yul\":11525:11543   */\n      tag_287\n      tag_158\n      jump\t// in\n    tag_287:\n        /* \"#utility.yul\":11406:11545   */\n    tag_286:\n        /* \"#utility.yul\":11190:11552   */\n      pop\n        /* \"#utility.yul\":11142:11552   */\n      swap3\n      swap2\n      pop\n      pop\n      jump\t// out\n        /* \"#utility.yul\":11558:11749   */\n    tag_115:\n        /* \"#utility.yul\":11598:11601   */\n      0x00\n        /* \"#utility.yul\":11617:11637   */\n      tag_289\n        /* \"#utility.yul\":11635:11636   */\n      dup3\n        /* \"#utility.yul\":11617:11637   */\n      tag_145\n      jump\t// in\n    tag_289:\n        /* \"#utility.yul\":11612:11637   */\n      swap2\n      pop\n        /* \"#utility.yul\":11651:11671   */\n      tag_290\n        /* \"#utility.yul\":11669:11670   */\n      dup4\n        /* \"#utility.yul\":11651:11671   */\n      tag_145\n      jump\t// in\n    tag_290:\n        /* \"#utility.yul\":11646:11671   */\n      swap3\n      pop\n        /* \"#utility.yul\":11694:11695   */\n      dup3\n        /* \"#utility.yul\":11691:11692   */\n      dup3\n        /* \"#utility.yul\":11687:11696   */\n      add\n        /* \"#utility.yul\":11680:11696   */\n      swap1\n      pop\n        /* \"#utility.yul\":11715:11718   */\n      dup1\n        /* \"#utility.yul\":11712:11713   */\n      dup3\n        /* \"#utility.yul\":11709:11719   */\n      gt\n        /* \"#utility.yul\":11706:11742   */\n      iszero\n      tag_291\n      jumpi\n        /* \"#utility.yul\":11722:11740   */\n      tag_292\n      tag_158\n      jump\t// in\n    tag_292:\n        /* \"#utility.yul\":11706:11742   */\n    tag_291:\n        /* \"#utility.yul\":11558:11749   */\n      swap3\n      swap2\n      pop\n      pop\n      jump\t// out\n        /* \"#utility.yul\":11755:11980   */\n    tag_169:\n        /* \"#utility.yul\":11895:11929   */\n      0x446f6e6174696f6e7320617265206e6f7420616c6c6f77656420617420746869\n        /* \"#utility.yul\":11891:11892   */\n      0x00\n        /* \"#utility.yul\":11883:11889   */\n      dup3\n        /* \"#utility.yul\":11879:11893   */\n      add\n        /* \"#utility.yul\":11872:11930   */\n      mstore\n        /* \"#utility.yul\":11964:11972   */\n      0x732074696d650000000000000000000000000000000000000000000000000000\n        /* \"#utility.yul\":11959:11961   */\n      0x20\n        /* \"#utility.yul\":11951:11957   */\n      dup3\n        /* \"#utility.yul\":11947:11962   */\n      add\n        /* \"#utility.yul\":11940:11973   */\n      mstore\n        /* \"#utility.yul\":11755:11980   */\n      pop\n      jump\t// out\n        /* \"#utility.yul\":11986:12352   */\n    tag_170:\n        /* \"#utility.yul\":12128:12131   */\n      0x00\n        /* \"#utility.yul\":12149:12216   */\n      tag_295\n        /* \"#utility.yul\":12213:12215   */\n      0x26\n        /* \"#utility.yul\":12208:12211   */\n      dup4\n        /* \"#utility.yul\":12149:12216   */\n      tag_159\n      jump\t// in\n    tag_295:\n        /* \"#utility.yul\":12142:12216   */\n      swap2\n      pop\n        /* \"#utility.yul\":12225:12318   */\n      tag_296\n        /* \"#utility.yul\":12314:12317   */\n      dup3\n        /* \"#utility.yul\":12225:12318   */\n      tag_169\n      jump\t// in\n    tag_296:\n        /* \"#utility.yul\":12343:12345   */\n      0x40\n        /* \"#utility.yul\":12338:12341   */\n      dup3\n        /* \"#utility.yul\":12334:12346   */\n      add\n        /* \"#utility.yul\":12327:12346   */\n      swap1\n      pop\n        /* \"#utility.yul\":11986:12352   */\n      swap2\n      swap1\n      pop\n      jump\t// out\n        /* \"#utility.yul\":12358:12777   */\n    tag_121:\n        /* \"#utility.yul\":12524:12528   */\n      0x00\n        /* \"#utility.yul\":12562:12564   */\n      0x20\n        /* \"#utility.yul\":12551:12560   */\n      dup3\n        /* \"#utility.yul\":12547:12565   */\n      add\n        /* \"#utility.yul\":12539:12565   */\n      swap1\n      pop\n        /* \"#utility.yul\":12611:12620   */\n      dup2\n        /* \"#utility.yul\":12605:12609   */\n      dup2\n        /* \"#utility.yul\":12601:12621   */\n      sub\n        /* \"#utility.yul\":12597:12598   */\n      0x00\n        /* \"#utility.yul\":12586:12595   */\n      dup4\n        /* \"#utility.yul\":12582:12599   */\n      add\n        /* \"#utility.yul\":12575:12622   */\n      mstore\n        /* \"#utility.yul\":12639:12770   */\n      tag_298\n        /* \"#utility.yul\":12765:12769   */\n      dup2\n        /* \"#utility.yul\":12639:12770   */\n      tag_170\n      jump\t// in\n    tag_298:\n        /* \"#utility.yul\":12631:12770   */\n      swap1\n      pop\n        /* \"#utility.yul\":12358:12777   */\n      swap2\n      swap1\n      pop\n      jump\t// out\n        /* \"#utility.yul\":12783:13008   */\n    tag_171:\n        /* \"#utility.yul\":12923:12957   */\n      0x446f6e6174696f6e20616d6f756e74206d757374206265206772656174657220\n        /* \"#utility.yul\":12919:12920   */\n      0x00\n        /* \"#utility.yul\":12911:12917   */\n      dup3\n        /* \"#utility.yul\":12907:12921   */\n      add\n        /* \"#utility.yul\":12900:12958   */\n      mstore\n        /* \"#utility.yul\":12992:13000   */\n      0x7468616e20300000000000000000000000000000000000000000000000000000\n        /* \"#utility.yul\":12987:12989   */\n      0x20\n        /* \"#utility.yul\":12979:12985   */\n      dup3\n        /* \"#utility.yul\":12975:12990   */\n      add\n        /* \"#utility.yul\":12968:13001   */\n      mstore\n        /* \"#utility.yul\":12783:13008   */\n      pop\n      jump\t// out\n        /* \"#utility.yul\":13014:13380   */\n    tag_172:\n        /* \"#utility.yul\":13156:13159   */\n      0x00\n        /* \"#utility.yul\":13177:13244   */\n      tag_301\n        /* \"#utility.yul\":13241:13243   */\n      0x26\n        /* \"#utility.yul\":13236:13239   */\n      dup4\n        /* \"#utility.yul\":13177:13244   */\n      tag_159\n      jump\t// in\n    tag_301:\n        /* \"#utility.yul\":13170:13244   */\n      swap2\n      pop\n        /* \"#utility.yul\":13253:13346   */\n      tag_302\n        /* \"#utility.yul\":13342:13345   */\n      dup3\n        /* \"#utility.yul\":13253:13346   */\n      tag_171\n      jump\t// in\n    tag_302:\n        /* \"#utility.yul\":13371:13373   */\n      0x40\n        /* \"#utility.yul\":13366:13369   */\n      dup3\n        /* \"#utility.yul\":13362:13374   */\n      add\n        /* \"#utility.yul\":13355:13374   */\n      swap1\n      pop\n        /* \"#utility.yul\":13014:13380   */\n      swap2\n      swap1\n      pop\n      jump\t// out\n        /* \"#utility.yul\":13386:13805   */\n    tag_125:\n        /* \"#utility.yul\":13552:13556   */\n      0x00\n        /* \"#utility.yul\":13590:13592   */\n      0x20\n        /* \"#utility.yul\":13579:13588   */\n      dup3\n        /* \"#utility.yul\":13575:13593   */\n      add\n        /* \"#utility.yul\":13567:13593   */\n      swap1\n      pop\n        /* \"#utility.yul\":13639:13648   */\n      dup2\n        /* \"#utility.yul\":13633:13637   */\n      dup2\n        /* \"#utility.yul\":13629:13649   */\n      sub\n        /* \"#utility.yul\":13625:13626   */\n      0x00\n        /* \"#utility.yul\":13614:13623   */\n      dup4\n        /* \"#utility.yul\":13610:13627   */\n      add\n        /* \"#utility.yul\":13603:13650   */\n      mstore\n        /* \"#utility.yul\":13667:13798   */\n      tag_304\n        /* \"#utility.yul\":13793:13797   */\n      dup2\n        /* \"#utility.yul\":13667:13798   */\n      tag_172\n      jump\t// in\n    tag_304:\n        /* \"#utility.yul\":13659:13798   */\n      swap1\n      pop\n        /* \"#utility.yul\":13386:13805   */\n      swap2\n      swap1\n      pop\n      jump\t// out\n        /* \"#utility.yul\":13811:14143   */\n    tag_130:\n        /* \"#utility.yul\":13932:13936   */\n      0x00\n        /* \"#utility.yul\":13970:13972   */\n      0x40\n        /* \"#utility.yul\":13959:13968   */\n      dup3\n        /* \"#utility.yul\":13955:13973   */\n      add\n        /* \"#utility.yul\":13947:13973   */\n      swap1\n      pop\n        /* \"#utility.yul\":13983:14054   */\n      tag_306\n        /* \"#utility.yul\":14051:14052   */\n      0x00\n        /* \"#utility.yul\":14040:14049   */\n      dup4\n        /* \"#utility.yul\":14036:14053   */\n      add\n        /* \"#utility.yul\":14027:14033   */\n      dup6\n        /* \"#utility.yul\":13983:14054   */\n      tag_155\n      jump\t// in\n    tag_306:\n        /* \"#utility.yul\":14064:14136   */\n      tag_307\n        /* \"#utility.yul\":14132:14134   */\n      0x20\n        /* \"#utility.yul\":14121:14130   */\n      dup4\n        /* \"#utility.yul\":14117:14135   */\n      add\n        /* \"#utility.yul\":14108:14114   */\n      dup5\n        /* \"#utility.yul\":14064:14136   */\n      tag_155\n      jump\t// in\n    tag_307:\n        /* \"#utility.yul\":13811:14143   */\n      swap4\n      swap3\n      pop\n      pop\n      pop\n      jump\t// out\n\n    auxdata: 0xa26469706673582212206a1ebc464d0c14d02ba46df1ce075bf518da27436ecc12f787c531f45d25e7c764736f6c634300081e0033\n}\n",
				"bytecode": {
					"linkReferences": {},
					"object": "60a060405234801561000f575f5ffd5b50604051611267380380611267833981810160405281019061003191906100c9565b3373ffffffffffffffffffffffffffffffffffffffff1660808173ffffffffffffffffffffffffffffffffffffffff168152505042600281905550620151808161007b9190610121565b426100869190610162565b60038190555050610195565b5f5ffd5b5f819050919050565b6100a881610096565b81146100b2575f5ffd5b50565b5f815190506100c38161009f565b92915050565b5f602082840312156100de576100dd610092565b5b5f6100eb848285016100b5565b91505092915050565b7f4e487b71000000000000000000000000000000000000000000000000000000005f52601160045260245ffd5b5f61012b82610096565b915061013683610096565b925082820261014481610096565b9150828204841483151761015b5761015a6100f4565b5b5092915050565b5f61016c82610096565b915061017783610096565b925082820190508082111561018f5761018e6100f4565b5b92915050565b6080516110ac6101bb5f395f81816104e1015281816105b601526106c601526110ac5ff3fe608060405260043610610085575f3560e01c806346f999c61161005857806346f999c6146101305780636f9fb98a146101585780637833155214610182578063ed88c68e146101ac578063f12a4a53146101b657610085565b806317d440b9146100895780632d1e2518146100b35780633ccfd60b146100de578063410a1d32146100f4575b5f5ffd5b348015610094575f5ffd5b5061009d6101e0565b6040516100aa91906109c3565b60405180910390f35b3480156100be575f5ffd5b506100c76101fa565b6040516100d5929190610b5f565b60405180910390f35b3480156100e9575f5ffd5b506100f26104df565b005b3480156100ff575f5ffd5b5061011a60048036038101906101159190610bb4565b61067f565b6040516101279190610bee565b60405180910390f35b34801561013b575f5ffd5b5061015660048036038101906101519190610c31565b6106c4565b005b348015610163575f5ffd5b5061016c610775565b6040516101799190610bee565b60405180910390f35b34801561018d575f5ffd5b5061019661077c565b6040516101a39190610bee565b60405180910390f35b6101b4610782565b005b3480156101c1575f5ffd5b506101ca61095f565b6040516101d79190610bee565b60405180910390f35b5f60025442101580156101f557506003544211155b905090565b610202610965565b61020a610987565b60405180606001604052805f73ffffffffffffffffffffffffffffffffffffffff1673ffffffffffffffffffffffffffffffffffffffff1681526020015f73ffffffffffffffffffffffffffffffffffffffff1673ffffffffffffffffffffffffffffffffffffffff1681526020015f73ffffffffffffffffffffffffffffffffffffffff1673ffffffffffffffffffffffffffffffffffffffff16815250915060405180606001604052805f81526020015f81526020015f81525090505f5f90505b6001805490508110156104da575f600182815481106102ef576102ee610c5c565b5b905f5260205f20015f9054906101000a900473ffffffffffffffffffffffffffffffffffffffff1690505f5f5f8373ffffffffffffffffffffffffffffffffffffffff1673ffffffffffffffffffffffffffffffffffffffff1681526020019081526020015f205490505f5f90505b60038110156104cc5784816003811061037a57610379610c5c565b5b60200201518211156104c1575f600290505b8181111561045357866001826103a29190610cb6565b600381106103b3576103b2610c5c565b5b60200201518782600381106103cb576103ca610c5c565b5b602002019073ffffffffffffffffffffffffffffffffffffffff16908173ffffffffffffffffffffffffffffffffffffffff1681525050856001826104109190610cb6565b6003811061042157610420610c5c565b5b602002015186826003811061043957610438610c5c565b5b6020020181815250508061044c90610ce9565b905061038c565b508286826003811061046857610467610c5c565b5b602002019073ffffffffffffffffffffffffffffffffffffffff16908173ffffffffffffffffffffffffffffffffffffffff1681525050818582600381106104b3576104b2610c5c565b5b6020020181815250506104cc565b80600101905061035e565b5050508060010190506102cd565b509091565b7f000000000000000000000000000000000000000000000000000000000000000073ffffffffffffffffffffffffffffffffffffffff163373ffffffffffffffffffffffffffffffffffffffff161461056d576040517f08c379a000000000000000000000000000000000000000000000000000000000815260040161056490610d90565b60405180910390fd5b5f4790505f81116105b3576040517f08c379a00000000000000000000000000000000000000000000000000000000081526004016105aa90610df8565b60405180910390fd5b5f7f000000000000000000000000000000000000000000000000000000000000000073ffffffffffffffffffffffffffffffffffffffff16826040516105f890610e43565b5f6040518083038185875af1925050503d805f8114610632576040519150601f19603f3d011682016040523d82523d5f602084013e610637565b606091505b505090508061067b576040517f08c379a000000000000000000000000000000000000000000000000000000000815260040161067290610ea1565b60405180910390fd5b5050565b5f5f5f8373ffffffffffffffffffffffffffffffffffffffff1673ffffffffffffffffffffffffffffffffffffffff1681526020019081526020015f20549050919050565b7f000000000000000000000000000000000000000000000000000000000000000073ffffffffffffffffffffffffffffffffffffffff163373ffffffffffffffffffffffffffffffffffffffff1614610752576040517f08c379a000000000000000000000000000000000000000000000000000000000815260040161074990610d90565b60405180910390fd5b62015180816107619190610ebf565b4261076c9190610f00565b60038190555050565b5f47905090565b60025481565b600254421015801561079657506003544211155b6107d5576040517f08c379a00000000000000000000000000000000000000000000000000000000081526004016107cc90610fa3565b60405180910390fd5b5f3411610817576040517f08c379a000000000000000000000000000000000000000000000000000000000815260040161080e90611031565b60405180910390fd5b5f5f5f3373ffffffffffffffffffffffffffffffffffffffff1673ffffffffffffffffffffffffffffffffffffffff1681526020019081526020015f2054036108bb57600133908060018154018082558091505060019003905f5260205f20015f9091909190916101000a81548173ffffffffffffffffffffffffffffffffffffffff021916908373ffffffffffffffffffffffffffffffffffffffff1602179055505b345f5f3373ffffffffffffffffffffffffffffffffffffffff1673ffffffffffffffffffffffffffffffffffffffff1681526020019081526020015f205f8282546109069190610f00565b925050819055503373ffffffffffffffffffffffffffffffffffffffff167f106aac375bbcf013d1e52338bbf9e740009a1a3a6869f8daa1b72aa1620f5fec344260405161095592919061104f565b60405180910390a2565b60035481565b6040518060600160405280600390602082028036833780820191505090505090565b6040518060600160405280600390602082028036833780820191505090505090565b5f8115159050919050565b6109bd816109a9565b82525050565b5f6020820190506109d65f8301846109b4565b92915050565b5f60039050919050565b5f81905092915050565b5f819050919050565b5f73ffffffffffffffffffffffffffffffffffffffff82169050919050565b5f610a22826109f9565b9050919050565b610a3281610a18565b82525050565b5f610a438383610a29565b60208301905092915050565b5f602082019050919050565b610a64816109dc565b610a6e81846109e6565b9250610a79826109f0565b805f5b83811015610aa9578151610a908782610a38565b9650610a9b83610a4f565b925050600181019050610a7c565b505050505050565b5f60039050919050565b5f81905092915050565b5f819050919050565b5f819050919050565b610ae081610ace565b82525050565b5f610af18383610ad7565b60208301905092915050565b5f602082019050919050565b610b1281610ab1565b610b1c8184610abb565b9250610b2782610ac5565b805f5b83811015610b57578151610b3e8782610ae6565b9650610b4983610afd565b925050600181019050610b2a565b505050505050565b5f60c082019050610b725f830185610a5b565b610b7f6060830184610b09565b9392505050565b5f5ffd5b610b9381610a18565b8114610b9d575f5ffd5b50565b5f81359050610bae81610b8a565b92915050565b5f60208284031215610bc957610bc8610b86565b5b5f610bd684828501610ba0565b91505092915050565b610be881610ace565b82525050565b5f602082019050610c015f830184610bdf565b92915050565b610c1081610ace565b8114610c1a575f5ffd5b50565b5f81359050610c2b81610c07565b92915050565b5f60208284031215610c4657610c45610b86565b5b5f610c5384828501610c1d565b91505092915050565b7f4e487b71000000000000000000000000000000000000000000000000000000005f52603260045260245ffd5b7f4e487b71000000000000000000000000000000000000000000000000000000005f52601160045260245ffd5b5f610cc082610ace565b9150610ccb83610ace565b9250828203905081811115610ce357610ce2610c89565b5b92915050565b5f610cf382610ace565b91505f8203610d0557610d04610c89565b5b600182039050919050565b5f82825260208201905092915050565b7f4f6e6c79206f776e65722063616e2063616c6c20746869732066756e6374696f5f8201527f6e00000000000000000000000000000000000000000000000000000000000000602082015250565b5f610d7a602183610d10565b9150610d8582610d20565b604082019050919050565b5f6020820190508181035f830152610da781610d6e565b9050919050565b7f4e6f2066756e647320746f2077696e64726177000000000000000000000000005f82015250565b5f610de2601383610d10565b9150610ded82610dae565b602082019050919050565b5f6020820190508181035f830152610e0f81610dd6565b9050919050565b5f81905092915050565b50565b5f610e2e5f83610e16565b9150610e3982610e20565b5f82019050919050565b5f610e4d82610e23565b9150819050919050565b7f5769746864726177616c206661696c65640000000000000000000000000000005f82015250565b5f610e8b601183610d10565b9150610e9682610e57565b602082019050919050565b5f6020820190508181035f830152610eb881610e7f565b9050919050565b5f610ec982610ace565b9150610ed483610ace565b9250828202610ee281610ace565b91508282048414831517610ef957610ef8610c89565b5b5092915050565b5f610f0a82610ace565b9150610f1583610ace565b9250828201905080821115610f2d57610f2c610c89565b5b92915050565b7f446f6e6174696f6e7320617265206e6f7420616c6c6f776564206174207468695f8201527f732074696d650000000000000000000000000000000000000000000000000000602082015250565b5f610f8d602683610d10565b9150610f9882610f33565b604082019050919050565b5f6020820190508181035f830152610fba81610f81565b9050919050565b7f446f6e6174696f6e20616d6f756e74206d7573742062652067726561746572205f8201527f7468616e20300000000000000000000000000000000000000000000000000000602082015250565b5f61101b602683610d10565b915061102682610fc1565b604082019050919050565b5f6020820190508181035f8301526110488161100f565b9050919050565b5f6040820190506110625f830185610bdf565b61106f6020830184610bdf565b939250505056fea26469706673582212206a1ebc464d0c14d02ba46df1ce075bf518da27436ecc12f787c531f45d25e7c764736f6c634300081e0033",
					"opcodes": "PUSH1 0xA0 PUSH1 0x40 MSTORE CALLVALUE DUP1 ISZERO PUSH2 0xF JUMPI PUSH0 PUSH0 REVERT JUMPDEST POP PUSH1 0x40 MLOAD PUSH2 0x1267 CODESIZE SUB DUP1 PUSH2 0x1267 DUP4 CODECOPY DUP2 DUP2 ADD PUSH1 0x40 MSTORE DUP2 ADD SWAP1 PUSH2 0x31 SWAP2 SWAP1 PUSH2 0xC9 JUMP JUMPDEST CALLER PUSH20 0xFFFFFFFFFFFFFFFFFFFFFFFFFFFFFFFFFFFFFFFF AND PUSH1 0x80 DUP2 PUSH20 0xFFFFFFFFFFFFFFFFFFFFFFFFFFFFFFFFFFFFFFFF AND DUP2 MSTORE POP POP TIMESTAMP PUSH1 0x2 DUP2 SWAP1 SSTORE POP PUSH3 0x15180 DUP2 PUSH2 0x7B SWAP2 SWAP1 PUSH2 0x121 JUMP JUMPDEST TIMESTAMP PUSH2 0x86 SWAP2 SWAP1 PUSH2 0x162 JUMP JUMPDEST PUSH1 0x3 DUP2 SWAP1 SSTORE POP POP PUSH2 0x195 JUMP JUMPDEST PUSH0 PUSH0 REVERT JUMPDEST PUSH0 DUP2 SWAP1 POP SWAP2 SWAP1 POP JUMP JUMPDEST PUSH2 0xA8 DUP2 PUSH2 0x96 JUMP JUMPDEST DUP2 EQ PUSH2 0xB2 JUMPI PUSH0 PUSH0 REVERT JUMPDEST POP JUMP JUMPDEST PUSH0 DUP2 MLOAD SWAP1 POP PUSH2 0xC3 DUP2 PUSH2 0x9F JUMP JUMPDEST SWAP3 SWAP2 POP POP JUMP JUMPDEST PUSH0 PUSH1 0x20 DUP3 DUP5 SUB SLT ISZERO PUSH2 0xDE JUMPI PUSH2 0xDD PUSH2 0x92 JUMP JUMPDEST JUMPDEST PUSH0 PUSH2 0xEB DUP5 DUP3 DUP6 ADD PUSH2 0xB5 JUMP JUMPDEST SWAP2 POP POP SWAP3 SWAP2 POP POP JUMP JUMPDEST PUSH32 0x4E487B7100000000000000000000000000000000000000000000000000000000 PUSH0 MSTORE PUSH1 0x11 PUSH1 0x4 MSTORE PUSH1 0x24 PUSH0 REVERT JUMPDEST PUSH0 PUSH2 0x12B DUP3 PUSH2 0x96 JUMP JUMPDEST SWAP2 POP PUSH2 0x136 DUP4 PUSH2 0x96 JUMP JUMPDEST SWAP3 POP DUP3 DUP3 MUL PUSH2 0x144 DUP2 PUSH2 0x96 JUMP JUMPDEST SWAP2 POP DUP3 DUP3 DIV DUP5 EQ DUP4 ISZERO OR PUSH2 0x15B JUMPI PUSH2 0x15A PUSH2 0xF4 JUMP JUMPDEST JUMPDEST POP SWAP3 SWAP2 POP POP JUMP JUMPDEST PUSH0 PUSH2 0x16C DUP3 PUSH2 0x96 JUMP JUMPDEST SWAP2 POP PUSH2 0x177 DUP4 PUSH2 0x96 JUMP JUMPDEST SWAP3 POP DUP3 DUP3 ADD SWAP1 POP DUP1 DUP3 GT ISZERO PUSH2 0x18F JUMPI PUSH2 0x18E PUSH2 0xF4 JUMP JUMPDEST JUMPDEST SWAP3 SWAP2 POP POP JUMP JUMPDEST PUSH1 0x80 MLOAD PUSH2 0x10AC PUSH2 0x1BB PUSH0 CODECOPY PUSH0 DUP2 DUP2 PUSH2 0x4E1 ADD MSTORE DUP2 DUP2 PUSH2 0x5B6 ADD MSTORE PUSH2 0x6C6 ADD MSTORE PUSH2 0x10AC PUSH0 RETURN INVALID PUSH1 0x80 PUSH1 0x40 MSTORE PUSH1 0x4 CALLDATASIZE LT PUSH2 0x85 JUMPI PUSH0 CALLDATALOAD PUSH1 0xE0 SHR DUP1 PUSH4 0x46F999C6 GT PUSH2 0x58 JUMPI DUP1 PUSH4 0x46F999C6 EQ PUSH2 0x130 JUMPI DUP1 PUSH4 0x6F9FB98A EQ PUSH2 0x158 JUMPI DUP1 PUSH4 0x78331552 EQ PUSH2 0x182 JUMPI DUP1 PUSH4 0xED88C68E EQ PUSH2 0x1AC JUMPI DUP1 PUSH4 0xF12A4A53 EQ PUSH2 0x1B6 JUMPI PUSH2 0x85 JUMP JUMPDEST DUP1 PUSH4 0x17D440B9 EQ PUSH2 0x89 JUMPI DUP1 PUSH4 0x2D1E2518 EQ PUSH2 0xB3 JUMPI DUP1 PUSH4 0x3CCFD60B EQ PUSH2 0xDE JUMPI DUP1 PUSH4 0x410A1D32 EQ PUSH2 0xF4 JUMPI JUMPDEST PUSH0 PUSH0 REVERT JUMPDEST CALLVALUE DUP1 ISZERO PUSH2 0x94 JUMPI PUSH0 PUSH0 REVERT JUMPDEST POP PUSH2 0x9D PUSH2 0x1E0 JUMP JUMPDEST PUSH1 0x40 MLOAD PUSH2 0xAA SWAP2 SWAP1 PUSH2 0x9C3 JUMP JUMPDEST PUSH1 0x40 MLOAD DUP1 SWAP2 SUB SWAP1 RETURN JUMPDEST CALLVALUE DUP1 ISZERO PUSH2 0xBE JUMPI PUSH0 PUSH0 REVERT JUMPDEST POP PUSH2 0xC7 PUSH2 0x1FA JUMP JUMPDEST PUSH1 0x40 MLOAD PUSH2 0xD5 SWAP3 SWAP2 SWAP1 PUSH2 0xB5F JUMP JUMPDEST PUSH1 0x40 MLOAD DUP1 SWAP2 SUB SWAP1 RETURN JUMPDEST CALLVALUE DUP1 ISZERO PUSH2 0xE9 JUMPI PUSH0 PUSH0 REVERT JUMPDEST POP PUSH2 0xF2 PUSH2 0x4DF JUMP JUMPDEST STOP JUMPDEST CALLVALUE DUP1 ISZERO PUSH2 0xFF JUMPI PUSH0 PUSH0 REVERT JUMPDEST POP PUSH2 0x11A PUSH1 0x4 DUP1 CALLDATASIZE SUB DUP2 ADD SWAP1 PUSH2 0x115 SWAP2 SWAP1 PUSH2 0xBB4 JUMP JUMPDEST PUSH2 0x67F JUMP JUMPDEST PUSH1 0x40 MLOAD PUSH2 0x127 SWAP2 SWAP1 PUSH2 0xBEE JUMP JUMPDEST PUSH1 0x40 MLOAD DUP1 SWAP2 SUB SWAP1 RETURN JUMPDEST CALLVALUE DUP1 ISZERO PUSH2 0x13B JUMPI PUSH0 PUSH0 REVERT JUMPDEST POP PUSH2 0x156 PUSH1 0x4 DUP1 CALLDATASIZE SUB DUP2 ADD SWAP1 PUSH2 0x151 SWAP2 SWAP1 PUSH2 0xC31 JUMP JUMPDEST PUSH2 0x6C4 JUMP JUMPDEST STOP JUMPDEST CALLVALUE DUP1 ISZERO PUSH2 0x163 JUMPI PUSH0 PUSH0 REVERT JUMPDEST POP PUSH2 0x16C PUSH2 0x775 JUMP JUMPDEST PUSH1 0x40 MLOAD PUSH2 0x179 SWAP2 SWAP1 PUSH2 0xBEE JUMP JUMPDEST PUSH1 0x40 MLOAD DUP1 SWAP2 SUB SWAP1 RETURN JUMPDEST CALLVALUE DUP1 ISZERO PUSH2 0x18D JUMPI PUSH0 PUSH0 REVERT JUMPDEST POP PUSH2 0x196 PUSH2 0x77C JUMP JUMPDEST PUSH1 0x40 MLOAD PUSH2 0x1A3 SWAP2 SWAP1 PUSH2 0xBEE JUMP JUMPDEST PUSH1 0x40 MLOAD DUP1 SWAP2 SUB SWAP1 RETURN JUMPDEST PUSH2 0x1B4 PUSH2 0x782 JUMP JUMPDEST STOP JUMPDEST CALLVALUE DUP1 ISZERO PUSH2 0x1C1 JUMPI PUSH0 PUSH0 REVERT JUMPDEST POP PUSH2 0x1CA PUSH2 0x95F JUMP JUMPDEST PUSH1 0x40 MLOAD PUSH2 0x1D7 SWAP2 SWAP1 PUSH2 0xBEE JUMP JUMPDEST PUSH1 0x40 MLOAD DUP1 SWAP2 SUB SWAP1 RETURN JUMPDEST PUSH0 PUSH1 0x2 SLOAD TIMESTAMP LT ISZERO DUP1 ISZERO PUSH2 0x1F5 JUMPI POP PUSH1 0x3 SLOAD TIMESTAMP GT ISZERO JUMPDEST SWAP1 POP SWAP1 JUMP JUMPDEST PUSH2 0x202 PUSH2 0x965 JUMP JUMPDEST PUSH2 0x20A PUSH2 0x987 JUMP JUMPDEST PUSH1 0x40 MLOAD DUP1 PUSH1 0x60 ADD PUSH1 0x40 MSTORE DUP1 PUSH0 PUSH20 0xFFFFFFFFFFFFFFFFFFFFFFFFFFFFFFFFFFFFFFFF AND PUSH20 0xFFFFFFFFFFFFFFFFFFFFFFFFFFFFFFFFFFFFFFFF AND DUP2 MSTORE PUSH1 0x20 ADD PUSH0 PUSH20 0xFFFFFFFFFFFFFFFFFFFFFFFFFFFFFFFFFFFFFFFF AND PUSH20 0xFFFFFFFFFFFFFFFFFFFFFFFFFFFFFFFFFFFFFFFF AND DUP2 MSTORE PUSH1 0x20 ADD PUSH0 PUSH20 0xFFFFFFFFFFFFFFFFFFFFFFFFFFFFFFFFFFFFFFFF AND PUSH20 0xFFFFFFFFFFFFFFFFFFFFFFFFFFFFFFFFFFFFFFFF AND DUP2 MSTORE POP SWAP2 POP PUSH1 0x40 MLOAD DUP1 PUSH1 0x60 ADD PUSH1 0x40 MSTORE DUP1 PUSH0 DUP2 MSTORE PUSH1 0x20 ADD PUSH0 DUP2 MSTORE PUSH1 0x20 ADD PUSH0 DUP2 MSTORE POP SWAP1 POP PUSH0 PUSH0 SWAP1 POP JUMPDEST PUSH1 0x1 DUP1 SLOAD SWAP1 POP DUP2 LT ISZERO PUSH2 0x4DA JUMPI PUSH0 PUSH1 0x1 DUP3 DUP2 SLOAD DUP2 LT PUSH2 0x2EF JUMPI PUSH2 0x2EE PUSH2 0xC5C JUMP JUMPDEST JUMPDEST SWAP1 PUSH0 MSTORE PUSH1 0x20 PUSH0 KECCAK256 ADD PUSH0 SWAP1 SLOAD SWAP1 PUSH2 0x100 EXP SWAP1 DIV PUSH20 0xFFFFFFFFFFFFFFFFFFFFFFFFFFFFFFFFFFFFFFFF AND SWAP1 POP PUSH0 PUSH0 PUSH0 DUP4 PUSH20 0xFFFFFFFFFFFFFFFFFFFFFFFFFFFFFFFFFFFFFFFF AND PUSH20 0xFFFFFFFFFFFFFFFFFFFFFFFFFFFFFFFFFFFFFFFF AND DUP2 MSTORE PUSH1 0x20 ADD SWAP1 DUP2 MSTORE PUSH1 0x20 ADD PUSH0 KECCAK256 SLOAD SWAP1 POP PUSH0 PUSH0 SWAP1 POP JUMPDEST PUSH1 0x3 DUP2 LT ISZERO PUSH2 0x4CC JUMPI DUP5 DUP2 PUSH1 0x3 DUP2 LT PUSH2 0x37A JUMPI PUSH2 0x379 PUSH2 0xC5C JUMP JUMPDEST JUMPDEST PUSH1 0x20 MUL ADD MLOAD DUP3 GT ISZERO PUSH2 0x4C1 JUMPI PUSH0 PUSH1 0x2 SWAP1 POP JUMPDEST DUP2 DUP2 GT ISZERO PUSH2 0x453 JUMPI DUP7 PUSH1 0x1 DUP3 PUSH2 0x3A2 SWAP2 SWAP1 PUSH2 0xCB6 JUMP JUMPDEST PUSH1 0x3 DUP2 LT PUSH2 0x3B3 JUMPI PUSH2 0x3B2 PUSH2 0xC5C JUMP JUMPDEST JUMPDEST PUSH1 0x20 MUL ADD MLOAD DUP8 DUP3 PUSH1 0x3 DUP2 LT PUSH2 0x3CB JUMPI PUSH2 0x3CA PUSH2 0xC5C JUMP JUMPDEST JUMPDEST PUSH1 0x20 MUL ADD SWAP1 PUSH20 0xFFFFFFFFFFFFFFFFFFFFFFFFFFFFFFFFFFFFFFFF AND SWAP1 DUP2 PUSH20 0xFFFFFFFFFFFFFFFFFFFFFFFFFFFFFFFFFFFFFFFF AND DUP2 MSTORE POP POP DUP6 PUSH1 0x1 DUP3 PUSH2 0x410 SWAP2 SWAP1 PUSH2 0xCB6 JUMP JUMPDEST PUSH1 0x3 DUP2 LT PUSH2 0x421 JUMPI PUSH2 0x420 PUSH2 0xC5C JUMP JUMPDEST JUMPDEST PUSH1 0x20 MUL ADD MLOAD DUP7 DUP3 PUSH1 0x3 DUP2 LT PUSH2 0x439 JUMPI PUSH2 0x438 PUSH2 0xC5C JUMP JUMPDEST JUMPDEST PUSH1 0x20 MUL ADD DUP2 DUP2 MSTORE POP POP DUP1 PUSH2 0x44C SWAP1 PUSH2 0xCE9 JUMP JUMPDEST SWAP1 POP PUSH2 0x38C JUMP JUMPDEST POP DUP3 DUP7 DUP3 PUSH1 0x3 DUP2 LT PUSH2 0x468 JUMPI PUSH2 0x467 PUSH2 0xC5C JUMP JUMPDEST JUMPDEST PUSH1 0x20 MUL ADD SWAP1 PUSH20 0xFFFFFFFFFFFFFFFFFFFFFFFFFFFFFFFFFFFFFFFF AND SWAP1 DUP2 PUSH20 0xFFFFFFFFFFFFFFFFFFFFFFFFFFFFFFFFFFFFFFFF AND DUP2 MSTORE POP POP DUP2 DUP6 DUP3 PUSH1 0x3 DUP2 LT PUSH2 0x4B3 JUMPI PUSH2 0x4B2 PUSH2 0xC5C JUMP JUMPDEST JUMPDEST PUSH1 0x20 MUL ADD DUP2 DUP2 MSTORE POP POP PUSH2 0x4CC JUMP JUMPDEST DUP1 PUSH1 0x1 ADD SWAP1 POP PUSH2 0x35E JUMP JUMPDEST POP POP POP DUP1 PUSH1 0x1 ADD SWAP1 POP PUSH2 0x2CD JUMP JUMPDEST POP SWAP1 SWAP2 JUMP JUMPDEST PUSH32 0x0 PUSH20 0xFFFFFFFFFFFFFFFFFFFFFFFFFFFFFFFFFFFFFFFF AND CALLER PUSH20 0xFFFFFFFFFFFFFFFFFFFFFFFFFFFFFFFFFFFFFFFF AND EQ PUSH2 0x56D JUMPI PUSH1 0x40 MLOAD PUSH32 0x8C379A000000000000000000000000000000000000000000000000000000000 DUP2 MSTORE PUSH1 0x4 ADD PUSH2 0x564 SWAP1 PUSH2 0xD90 JUMP JUMPDEST PUSH1 0x40 MLOAD DUP1 SWAP2 SUB SWAP1 REVERT JUMPDEST PUSH0 SELFBALANCE SWAP1 POP PUSH0 DUP2 GT PUSH2 0x5B3 JUMPI PUSH1 0x40 MLOAD PUSH32 0x8C379A000000000000000000000000000000000000000000000000000000000 DUP2 MSTORE PUSH1 0x4 ADD PUSH2 0x5AA SWAP1 PUSH2 0xDF8 JUMP JUMPDEST PUSH1 0x40 MLOAD DUP1 SWAP2 SUB SWAP1 REVERT JUMPDEST PUSH0 PUSH32 0x0 PUSH20 0xFFFFFFFFFFFFFFFFFFFFFFFFFFFFFFFFFFFFFFFF AND DUP3 PUSH1 0x40 MLOAD PUSH2 0x5F8 SWAP1 PUSH2 0xE43 JUMP JUMPDEST PUSH0 PUSH1 0x40 MLOAD DUP1 DUP4 SUB DUP2 DUP6 DUP8 GAS CALL SWAP3 POP POP POP RETURNDATASIZE DUP1 PUSH0 DUP2 EQ PUSH2 0x632 JUMPI PUSH1 0x40 MLOAD SWAP2 POP PUSH1 0x1F NOT PUSH1 0x3F RETURNDATASIZE ADD AND DUP3 ADD PUSH1 0x40 MSTORE RETURNDATASIZE DUP3 MSTORE RETURNDATASIZE PUSH0 PUSH1 0x20 DUP5 ADD RETURNDATACOPY PUSH2 0x637 JUMP JUMPDEST PUSH1 0x60 SWAP2 POP JUMPDEST POP POP SWAP1 POP DUP1 PUSH2 0x67B JUMPI PUSH1 0x40 MLOAD PUSH32 0x8C379A000000000000000000000000000000000000000000000000000000000 DUP2 MSTORE PUSH1 0x4 ADD PUSH2 0x672 SWAP1 PUSH2 0xEA1 JUMP JUMPDEST PUSH1 0x40 MLOAD DUP1 SWAP2 SUB SWAP1 REVERT JUMPDEST POP POP JUMP JUMPDEST PUSH0 PUSH0 PUSH0 DUP4 PUSH20 0xFFFFFFFFFFFFFFFFFFFFFFFFFFFFFFFFFFFFFFFF AND PUSH20 0xFFFFFFFFFFFFFFFFFFFFFFFFFFFFFFFFFFFFFFFF AND DUP2 MSTORE PUSH1 0x20 ADD SWAP1 DUP2 MSTORE PUSH1 0x20 ADD PUSH0 KECCAK256 SLOAD SWAP1 POP SWAP2 SWAP1 POP JUMP JUMPDEST PUSH32 0x0 PUSH20 0xFFFFFFFFFFFFFFFFFFFFFFFFFFFFFFFFFFFFFFFF AND CALLER PUSH20 0xFFFFFFFFFFFFFFFFFFFFFFFFFFFFFFFFFFFFFFFF AND EQ PUSH2 0x752 JUMPI PUSH1 0x40 MLOAD PUSH32 0x8C379A000000000000000000000000000000000000000000000000000000000 DUP2 MSTORE PUSH1 0x4 ADD PUSH2 0x749 SWAP1 PUSH2 0xD90 JUMP JUMPDEST PUSH1 0x40 MLOAD DUP1 SWAP2 SUB SWAP1 REVERT JUMPDEST PUSH3 0x15180 DUP2 PUSH2 0x761 SWAP2 SWAP1 PUSH2 0xEBF JUMP JUMPDEST TIMESTAMP PUSH2 0x76C SWAP2 SWAP1 PUSH2 0xF00 JUMP JUMPDEST PUSH1 0x3 DUP2 SWAP1 SSTORE POP POP JUMP JUMPDEST PUSH0 SELFBALANCE SWAP1 POP SWAP1 JUMP JUMPDEST PUSH1 0x2 SLOAD DUP2 JUMP JUMPDEST PUSH1 0x2 SLOAD TIMESTAMP LT ISZERO DUP1 ISZERO PUSH2 0x796 JUMPI POP PUSH1 0x3 SLOAD TIMESTAMP GT ISZERO JUMPDEST PUSH2 0x7D5 JUMPI PUSH1 0x40 MLOAD PUSH32 0x8C379A000000000000000000000000000000000000000000000000000000000 DUP2 MSTORE PUSH1 0x4 ADD PUSH2 0x7CC SWAP1 PUSH2 0xFA3 JUMP JUMPDEST PUSH1 0x40 MLOAD DUP1 SWAP2 SUB SWAP1 REVERT JUMPDEST PUSH0 CALLVALUE GT PUSH2 0x817 JUMPI PUSH1 0x40 MLOAD PUSH32 0x8C379A000000000000000000000000000000000000000000000000000000000 DUP2 MSTORE PUSH1 0x4 ADD PUSH2 0x80E SWAP1 PUSH2 0x1031 JUMP JUMPDEST PUSH1 0x40 MLOAD DUP1 SWAP2 SUB SWAP1 REVERT JUMPDEST PUSH0 PUSH0 PUSH0 CALLER PUSH20 0xFFFFFFFFFFFFFFFFFFFFFFFFFFFFFFFFFFFFFFFF AND PUSH20 0xFFFFFFFFFFFFFFFFFFFFFFFFFFFFFFFFFFFFFFFF AND DUP2 MSTORE PUSH1 0x20 ADD SWAP1 DUP2 MSTORE PUSH1 0x20 ADD PUSH0 KECCAK256 SLOAD SUB PUSH2 0x8BB JUMPI PUSH1 0x1 CALLER SWAP1 DUP1 PUSH1 0x1 DUP2 SLOAD ADD DUP1 DUP3 SSTORE DUP1 SWAP2 POP POP PUSH1 0x1 SWAP1 SUB SWAP1 PUSH0 MSTORE PUSH1 0x20 PUSH0 KECCAK256 ADD PUSH0 SWAP1 SWAP2 SWAP1 SWAP2 SWAP1 SWAP2 PUSH2 0x100 EXP DUP2 SLOAD DUP2 PUSH20 0xFFFFFFFFFFFFFFFFFFFFFFFFFFFFFFFFFFFFFFFF MUL NOT AND SWAP1 DUP4 PUSH20 0xFFFFFFFFFFFFFFFFFFFFFFFFFFFFFFFFFFFFFFFF AND MUL OR SWAP1 SSTORE POP JUMPDEST CALLVALUE PUSH0 PUSH0 CALLER PUSH20 0xFFFFFFFFFFFFFFFFFFFFFFFFFFFFFFFFFFFFFFFF AND PUSH20 0xFFFFFFFFFFFFFFFFFFFFFFFFFFFFFFFFFFFFFFFF AND DUP2 MSTORE PUSH1 0x20 ADD SWAP1 DUP2 MSTORE PUSH1 0x20 ADD PUSH0 KECCAK256 PUSH0 DUP3 DUP3 SLOAD PUSH2 0x906 SWAP2 SWAP1 PUSH2 0xF00 JUMP JUMPDEST SWAP3 POP POP DUP2 SWAP1 SSTORE POP CALLER PUSH20 0xFFFFFFFFFFFFFFFFFFFFFFFFFFFFFFFFFFFFFFFF AND PUSH32 0x106AAC375BBCF013D1E52338BBF9E740009A1A3A6869F8DAA1B72AA1620F5FEC CALLVALUE TIMESTAMP PUSH1 0x40 MLOAD PUSH2 0x955 SWAP3 SWAP2 SWAP1 PUSH2 0x104F JUMP JUMPDEST PUSH1 0x40 MLOAD DUP1 SWAP2 SUB SWAP1 LOG2 JUMP JUMPDEST PUSH1 0x3 SLOAD DUP2 JUMP JUMPDEST PUSH1 0x40 MLOAD DUP1 PUSH1 0x60 ADD PUSH1 0x40 MSTORE DUP1 PUSH1 0x3 SWAP1 PUSH1 0x20 DUP3 MUL DUP1 CALLDATASIZE DUP4 CALLDATACOPY DUP1 DUP3 ADD SWAP2 POP POP SWAP1 POP POP SWAP1 JUMP JUMPDEST PUSH1 0x40 MLOAD DUP1 PUSH1 0x60 ADD PUSH1 0x40 MSTORE DUP1 PUSH1 0x3 SWAP1 PUSH1 0x20 DUP3 MUL DUP1 CALLDATASIZE DUP4 CALLDATACOPY DUP1 DUP3 ADD SWAP2 POP POP SWAP1 POP POP SWAP1 JUMP JUMPDEST PUSH0 DUP2 ISZERO ISZERO SWAP1 POP SWAP2 SWAP1 POP JUMP JUMPDEST PUSH2 0x9BD DUP2 PUSH2 0x9A9 JUMP JUMPDEST DUP3 MSTORE POP POP JUMP JUMPDEST PUSH0 PUSH1 0x20 DUP3 ADD SWAP1 POP PUSH2 0x9D6 PUSH0 DUP4 ADD DUP5 PUSH2 0x9B4 JUMP JUMPDEST SWAP3 SWAP2 POP POP JUMP JUMPDEST PUSH0 PUSH1 0x3 SWAP1 POP SWAP2 SWAP1 POP JUMP JUMPDEST PUSH0 DUP2 SWAP1 POP SWAP3 SWAP2 POP POP JUMP JUMPDEST PUSH0 DUP2 SWAP1 POP SWAP2 SWAP1 POP JUMP JUMPDEST PUSH0 PUSH20 0xFFFFFFFFFFFFFFFFFFFFFFFFFFFFFFFFFFFFFFFF DUP3 AND SWAP1 POP SWAP2 SWAP1 POP JUMP JUMPDEST PUSH0 PUSH2 0xA22 DUP3 PUSH2 0x9F9 JUMP JUMPDEST SWAP1 POP SWAP2 SWAP1 POP JUMP JUMPDEST PUSH2 0xA32 DUP2 PUSH2 0xA18 JUMP JUMPDEST DUP3 MSTORE POP POP JUMP JUMPDEST PUSH0 PUSH2 0xA43 DUP4 DUP4 PUSH2 0xA29 JUMP JUMPDEST PUSH1 0x20 DUP4 ADD SWAP1 POP SWAP3 SWAP2 POP POP JUMP JUMPDEST PUSH0 PUSH1 0x20 DUP3 ADD SWAP1 POP SWAP2 SWAP1 POP JUMP JUMPDEST PUSH2 0xA64 DUP2 PUSH2 0x9DC JUMP JUMPDEST PUSH2 0xA6E DUP2 DUP5 PUSH2 0x9E6 JUMP JUMPDEST SWAP3 POP PUSH2 0xA79 DUP3 PUSH2 0x9F0 JUMP JUMPDEST DUP1 PUSH0 JUMPDEST DUP4 DUP2 LT ISZERO PUSH2 0xAA9 JUMPI DUP2 MLOAD PUSH2 0xA90 DUP8 DUP3 PUSH2 0xA38 JUMP JUMPDEST SWAP7 POP PUSH2 0xA9B DUP4 PUSH2 0xA4F JUMP JUMPDEST SWAP3 POP POP PUSH1 0x1 DUP2 ADD SWAP1 POP PUSH2 0xA7C JUMP JUMPDEST POP POP POP POP POP POP JUMP JUMPDEST PUSH0 PUSH1 0x3 SWAP1 POP SWAP2 SWAP1 POP JUMP JUMPDEST PUSH0 DUP2 SWAP1 POP SWAP3 SWAP2 POP POP JUMP JUMPDEST PUSH0 DUP2 SWAP1 POP SWAP2 SWAP1 POP JUMP JUMPDEST PUSH0 DUP2 SWAP1 POP SWAP2 SWAP1 POP JUMP JUMPDEST PUSH2 0xAE0 DUP2 PUSH2 0xACE JUMP JUMPDEST DUP3 MSTORE POP POP JUMP JUMPDEST PUSH0 PUSH2 0xAF1 DUP4 DUP4 PUSH2 0xAD7 JUMP JUMPDEST PUSH1 0x20 DUP4 ADD SWAP1 POP SWAP3 SWAP2 POP POP JUMP JUMPDEST PUSH0 PUSH1 0x20 DUP3 ADD SWAP1 POP SWAP2 SWAP1 POP JUMP JUMPDEST PUSH2 0xB12 DUP2 PUSH2 0xAB1 JUMP JUMPDEST PUSH2 0xB1C DUP2 DUP5 PUSH2 0xABB JUMP JUMPDEST SWAP3 POP PUSH2 0xB27 DUP3 PUSH2 0xAC5 JUMP JUMPDEST DUP1 PUSH0 JUMPDEST DUP4 DUP2 LT ISZERO PUSH2 0xB57 JUMPI DUP2 MLOAD PUSH2 0xB3E DUP8 DUP3 PUSH2 0xAE6 JUMP JUMPDEST SWAP7 POP PUSH2 0xB49 DUP4 PUSH2 0xAFD JUMP JUMPDEST SWAP3 POP POP PUSH1 0x1 DUP2 ADD SWAP1 POP PUSH2 0xB2A JUMP JUMPDEST POP POP POP POP POP POP JUMP JUMPDEST PUSH0 PUSH1 0xC0 DUP3 ADD SWAP1 POP PUSH2 0xB72 PUSH0 DUP4 ADD DUP6 PUSH2 0xA5B JUMP JUMPDEST PUSH2 0xB7F PUSH1 0x60 DUP4 ADD DUP5 PUSH2 0xB09 JUMP JUMPDEST SWAP4 SWAP3 POP POP POP JUMP JUMPDEST PUSH0 PUSH0 REVERT JUMPDEST PUSH2 0xB93 DUP2 PUSH2 0xA18 JUMP JUMPDEST DUP2 EQ PUSH2 0xB9D JUMPI PUSH0 PUSH0 REVERT JUMPDEST POP JUMP JUMPDEST PUSH0 DUP2 CALLDATALOAD SWAP1 POP PUSH2 0xBAE DUP2 PUSH2 0xB8A JUMP JUMPDEST SWAP3 SWAP2 POP POP JUMP JUMPDEST PUSH0 PUSH1 0x20 DUP3 DUP5 SUB SLT ISZERO PUSH2 0xBC9 JUMPI PUSH2 0xBC8 PUSH2 0xB86 JUMP JUMPDEST JUMPDEST PUSH0 PUSH2 0xBD6 DUP5 DUP3 DUP6 ADD PUSH2 0xBA0 JUMP JUMPDEST SWAP2 POP POP SWAP3 SWAP2 POP POP JUMP JUMPDEST PUSH2 0xBE8 DUP2 PUSH2 0xACE JUMP JUMPDEST DUP3 MSTORE POP POP JUMP JUMPDEST PUSH0 PUSH1 0x20 DUP3 ADD SWAP1 POP PUSH2 0xC01 PUSH0 DUP4 ADD DUP5 PUSH2 0xBDF JUMP JUMPDEST SWAP3 SWAP2 POP POP JUMP JUMPDEST PUSH2 0xC10 DUP2 PUSH2 0xACE JUMP JUMPDEST DUP2 EQ PUSH2 0xC1A JUMPI PUSH0 PUSH0 REVERT JUMPDEST POP JUMP JUMPDEST PUSH0 DUP2 CALLDATALOAD SWAP1 POP PUSH2 0xC2B DUP2 PUSH2 0xC07 JUMP JUMPDEST SWAP3 SWAP2 POP POP JUMP JUMPDEST PUSH0 PUSH1 0x20 DUP3 DUP5 SUB SLT ISZERO PUSH2 0xC46 JUMPI PUSH2 0xC45 PUSH2 0xB86 JUMP JUMPDEST JUMPDEST PUSH0 PUSH2 0xC53 DUP5 DUP3 DUP6 ADD PUSH2 0xC1D JUMP JUMPDEST SWAP2 POP POP SWAP3 SWAP2 POP POP JUMP JUMPDEST PUSH32 0x4E487B7100000000000000000000000000000000000000000000000000000000 PUSH0 MSTORE PUSH1 0x32 PUSH1 0x4 MSTORE PUSH1 0x24 PUSH0 REVERT JUMPDEST PUSH32 0x4E487B7100000000000000000000000000000000000000000000000000000000 PUSH0 MSTORE PUSH1 0x11 PUSH1 0x4 MSTORE PUSH1 0x24 PUSH0 REVERT JUMPDEST PUSH0 PUSH2 0xCC0 DUP3 PUSH2 0xACE JUMP JUMPDEST SWAP2 POP PUSH2 0xCCB DUP4 PUSH2 0xACE JUMP JUMPDEST SWAP3 POP DUP3 DUP3 SUB SWAP1 POP DUP2 DUP2 GT ISZERO PUSH2 0xCE3 JUMPI PUSH2 0xCE2 PUSH2 0xC89 JUMP JUMPDEST JUMPDEST SWAP3 SWAP2 POP POP JUMP JUMPDEST PUSH0 PUSH2 0xCF3 DUP3 PUSH2 0xACE JUMP JUMPDEST SWAP2 POP PUSH0 DUP3 SUB PUSH2 0xD05 JUMPI PUSH2 0xD04 PUSH2 0xC89 JUMP JUMPDEST JUMPDEST PUSH1 0x1 DUP3 SUB SWAP1 POP SWAP2 SWAP1 POP JUMP JUMPDEST PUSH0 DUP3 DUP3 MSTORE PUSH1 0x20 DUP3 ADD SWAP1 POP SWAP3 SWAP2 POP POP JUMP JUMPDEST PUSH32 0x4F6E6C79206F776E65722063616E2063616C6C20746869732066756E6374696F PUSH0 DUP3 ADD MSTORE PUSH32 0x6E00000000000000000000000000000000000000000000000000000000000000 PUSH1 0x20 DUP3 ADD MSTORE POP JUMP JUMPDEST PUSH0 PUSH2 0xD7A PUSH1 0x21 DUP4 PUSH2 0xD10 JUMP JUMPDEST SWAP2 POP PUSH2 0xD85 DUP3 PUSH2 0xD20 JUMP JUMPDEST PUSH1 0x40 DUP3 ADD SWAP1 POP SWAP2 SWAP1 POP JUMP JUMPDEST PUSH0 PUSH1 0x20 DUP3 ADD SWAP1 POP DUP2 DUP2 SUB PUSH0 DUP4 ADD MSTORE PUSH2 0xDA7 DUP2 PUSH2 0xD6E JUMP JUMPDEST SWAP1 POP SWAP2 SWAP1 POP JUMP JUMPDEST PUSH32 0x4E6F2066756E647320746F2077696E6472617700000000000000000000000000 PUSH0 DUP3 ADD MSTORE POP JUMP JUMPDEST PUSH0 PUSH2 0xDE2 PUSH1 0x13 DUP4 PUSH2 0xD10 JUMP JUMPDEST SWAP2 POP PUSH2 0xDED DUP3 PUSH2 0xDAE JUMP JUMPDEST PUSH1 0x20 DUP3 ADD SWAP1 POP SWAP2 SWAP1 POP JUMP JUMPDEST PUSH0 PUSH1 0x20 DUP3 ADD SWAP1 POP DUP2 DUP2 SUB PUSH0 DUP4 ADD MSTORE PUSH2 0xE0F DUP2 PUSH2 0xDD6 JUMP JUMPDEST SWAP1 POP SWAP2 SWAP1 POP JUMP JUMPDEST PUSH0 DUP2 SWAP1 POP SWAP3 SWAP2 POP POP JUMP JUMPDEST POP JUMP JUMPDEST PUSH0 PUSH2 0xE2E PUSH0 DUP4 PUSH2 0xE16 JUMP JUMPDEST SWAP2 POP PUSH2 0xE39 DUP3 PUSH2 0xE20 JUMP JUMPDEST PUSH0 DUP3 ADD SWAP1 POP SWAP2 SWAP1 POP JUMP JUMPDEST PUSH0 PUSH2 0xE4D DUP3 PUSH2 0xE23 JUMP JUMPDEST SWAP2 POP DUP2 SWAP1 POP SWAP2 SWAP1 POP JUMP JUMPDEST PUSH32 0x5769746864726177616C206661696C6564000000000000000000000000000000 PUSH0 DUP3 ADD MSTORE POP JUMP JUMPDEST PUSH0 PUSH2 0xE8B PUSH1 0x11 DUP4 PUSH2 0xD10 JUMP JUMPDEST SWAP2 POP PUSH2 0xE96 DUP3 PUSH2 0xE57 JUMP JUMPDEST PUSH1 0x20 DUP3 ADD SWAP1 POP SWAP2 SWAP1 POP JUMP JUMPDEST PUSH0 PUSH1 0x20 DUP3 ADD SWAP1 POP DUP2 DUP2 SUB PUSH0 DUP4 ADD MSTORE PUSH2 0xEB8 DUP2 PUSH2 0xE7F JUMP JUMPDEST SWAP1 POP SWAP2 SWAP1 POP JUMP JUMPDEST PUSH0 PUSH2 0xEC9 DUP3 PUSH2 0xACE JUMP JUMPDEST SWAP2 POP PUSH2 0xED4 DUP4 PUSH2 0xACE JUMP JUMPDEST SWAP3 POP DUP3 DUP3 MUL PUSH2 0xEE2 DUP2 PUSH2 0xACE JUMP JUMPDEST SWAP2 POP DUP3 DUP3 DIV DUP5 EQ DUP4 ISZERO OR PUSH2 0xEF9 JUMPI PUSH2 0xEF8 PUSH2 0xC89 JUMP JUMPDEST JUMPDEST POP SWAP3 SWAP2 POP POP JUMP JUMPDEST PUSH0 PUSH2 0xF0A DUP3 PUSH2 0xACE JUMP JUMPDEST SWAP2 POP PUSH2 0xF15 DUP4 PUSH2 0xACE JUMP JUMPDEST SWAP3 POP DUP3 DUP3 ADD SWAP1 POP DUP1 DUP3 GT ISZERO PUSH2 0xF2D JUMPI PUSH2 0xF2C PUSH2 0xC89 JUMP JUMPDEST JUMPDEST SWAP3 SWAP2 POP POP JUMP JUMPDEST PUSH32 0x446F6E6174696F6E7320617265206E6F7420616C6C6F77656420617420746869 PUSH0 DUP3 ADD MSTORE PUSH32 0x732074696D650000000000000000000000000000000000000000000000000000 PUSH1 0x20 DUP3 ADD MSTORE POP JUMP JUMPDEST PUSH0 PUSH2 0xF8D PUSH1 0x26 DUP4 PUSH2 0xD10 JUMP JUMPDEST SWAP2 POP PUSH2 0xF98 DUP3 PUSH2 0xF33 JUMP JUMPDEST PUSH1 0x40 DUP3 ADD SWAP1 POP SWAP2 SWAP1 POP JUMP JUMPDEST PUSH0 PUSH1 0x20 DUP3 ADD SWAP1 POP DUP2 DUP2 SUB PUSH0 DUP4 ADD MSTORE PUSH2 0xFBA DUP2 PUSH2 0xF81 JUMP JUMPDEST SWAP1 POP SWAP2 SWAP1 POP JUMP JUMPDEST PUSH32 0x446F6E6174696F6E20616D6F756E74206D757374206265206772656174657220 PUSH0 DUP3 ADD MSTORE PUSH32 0x7468616E20300000000000000000000000000000000000000000000000000000 PUSH1 0x20 DUP3 ADD MSTORE POP JUMP JUMPDEST PUSH0 PUSH2 0x101B PUSH1 0x26 DUP4 PUSH2 0xD10 JUMP JUMPDEST SWAP2 POP PUSH2 0x1026 DUP3 PUSH2 0xFC1 JUMP JUMPDEST PUSH1 0x40 DUP3 ADD SWAP1 POP SWAP2 SWAP1 POP JUMP JUMPDEST PUSH0 PUSH1 0x20 DUP3 ADD SWAP1 POP DUP2 DUP2 SUB PUSH0 DUP4 ADD MSTORE PUSH2 0x1048 DUP2 PUSH2 0x100F JUMP JUMPDEST SWAP1 POP SWAP2 SWAP1 POP JUMP JUMPDEST PUSH0 PUSH1 0x40 DUP3 ADD SWAP1 POP PUSH2 0x1062 PUSH0 DUP4 ADD DUP6 PUSH2 0xBDF JUMP JUMPDEST PUSH2 0x106F PUSH1 0x20 DUP4 ADD DUP5 PUSH2 0xBDF JUMP JUMPDEST SWAP4 SWAP3 POP POP POP JUMP INVALID LOG2 PUSH5 0x6970667358 0x22 SLT KECCAK256 PUSH11 0x1EBC464D0C14D02BA46DF1 0xCE SMOD JUMPDEST CREATE2 XOR 0xDA 0x27 NUMBER PUSH15 0xCC12F787C531F45D25E7C764736F6C PUSH4 0x4300081E STOP CALLER "
				},
				"gasEstimates": {
					"creation": {
						"codeDepositCost": "853600",
						"executionCost": "infinite",
						"totalCost": "infinite"
					},
					"external": {
						"donate()": "infinite",
						"donationEndTime()": "2513",
						"donationStartTime()": "2469",
						"getContractBalance()": "356",
						"getDonation(address)": "2895",
						"getTop3Donors()": "infinite",
						"isDonationActive()": "4580",
						"updateDonationPeriod(uint256)": "infinite",
						"withdraw()": "infinite"
					}
				},
				"methodIdentifiers": {
					"donate()": "ed88c68e",
					"donationEndTime()": "f12a4a53",
					"donationStartTime()": "78331552",
					"getContractBalance()": "6f9fb98a",
					"getDonation(address)": "410a1d32",
					"getTop3Donors()": "2d1e2518",
					"isDonationActive()": "17d440b9",
					"updateDonationPeriod(uint256)": "46f999c6",
					"withdraw()": "3ccfd60b"
				}
			},
			"storageLayout": {
				"storage": [
					{
						"astId": 7,
						"contract": "task3/BeggingContract.sol:BeggingContract",
						"label": "donations",
						"offset": 0,
						"slot": "0",
						"type": "t_mapping(t_address,t_uint256)"
					},
					{
						"astId": 10,
						"contract": "task3/BeggingContract.sol:BeggingContract",
						"label": "allDonors",
						"offset": 0,
						"slot": "1",
						"type": "t_array(t_address)dyn_storage"
					},
					{
						"astId": 12,
						"contract": "task3/BeggingContract.sol:BeggingContract",
						"label": "donationStartTime",
						"offset": 0,
						"slot": "2",
						"type": "t_uint256"
					},
					{
						"astId": 14,
						"contract": "task3/BeggingContract.sol:BeggingContract",
						"label": "donationEndTime",
						"offset": 0,
						"slot": "3",
						"type": "t_uint256"
					}
				],
				"types": {
					"t_address": {
						"encoding": "inplace",
						"label": "address",
						"numberOfBytes": "20"
					},
					"t_array(t_address)dyn_storage": {
						"base": "t_address",
						"encoding": "dynamic_array",
						"label": "address[]",
						"numberOfBytes": "32"
					},
					"t_mapping(t_address,t_uint256)": {
						"encoding": "mapping",
						"key": "t_address",
						"label": "mapping(address => uint256)",
						"numberOfBytes": "32",
						"value": "t_uint256"
					},
					"t_uint256": {
						"encoding": "inplace",
						"label": "uint256",
						"numberOfBytes": "32"
					}
				}
			},
			"userdoc": {
				"kind": "user",
				"methods": {},
				"version": 1
			}
		}
	}
}