{
	"task1/Roman2Int.sol": {
		"Roman2Int": {
			"abi": [
				{
					"inputs": [
						{
							"internalType": "string",
							"name": "_romanStr",
							"type": "string"
						}
					],
					"name": "romanToInt",
					"outputs": [
						{
							"internalType": "uint256",
							"name": "",
							"type": "uint256"
						}
					],
					"stateMutability": "pure",
					"type": "function"
				}
			],
			"devdoc": {
				"kind": "dev",
				"methods": {},
				"version": 1
			},
			"evm": {
				"assembly": "    /* \"task1/Roman2Int.sol\":67:1169  contract Roman2Int {... */\n  mstore(0x40, 0x80)\n  callvalue\n  dup1\n  iszero\n  tag_1\n  jumpi\n  revert(0x00, 0x00)\ntag_1:\n  pop\n  dataSize(sub_0)\n  dup1\n  dataOffset(sub_0)\n  0x00\n  codecopy\n  0x00\n  return\nstop\n\nsub_0: assembly {\n        /* \"task1/Roman2Int.sol\":67:1169  contract Roman2Int {... */\n      mstore(0x40, 0x80)\n      callvalue\n      dup1\n      iszero\n      tag_1\n      jumpi\n      revert(0x00, 0x00)\n    tag_1:\n      pop\n      jumpi(tag_2, lt(calldatasize, 0x04))\n      shr(0xe0, calldataload(0x00))\n      dup1\n      0xcb159dfe\n      eq\n      tag_3\n      jumpi\n    tag_2:\n      revert(0x00, 0x00)\n        /* \"task1/Roman2Int.sol\":469:1166  function romanToInt(string memory _romanStr) public pure returns (uint256) {... */\n    tag_3:\n      tag_4\n      0x04\n      dup1\n      calldatasize\n      sub\n      dup2\n      add\n      swap1\n      tag_5\n      swap2\n      swap1\n      tag_6\n      jump\t// in\n    tag_5:\n      tag_7\n      jump\t// in\n    tag_4:\n      mload(0x40)\n      tag_8\n      swap2\n      swap1\n      tag_9\n      jump\t// in\n    tag_8:\n      mload(0x40)\n      dup1\n      swap2\n      sub\n      swap1\n      return\n    tag_7:\n        /* \"task1/Roman2Int.sol\":535:542  uint256 */\n      0x00\n        /* \"task1/Roman2Int.sol\":555:578  bytes memory romanBytes */\n      0x00\n        /* \"task1/Roman2Int.sol\":587:596  _romanStr */\n      dup3\n        /* \"task1/Roman2Int.sol\":555:597  bytes memory romanBytes = bytes(_romanStr) */\n      swap1\n      pop\n        /* \"task1/Roman2Int.sol\":608:622  uint256 length */\n      0x00\n        /* \"task1/Roman2Int.sol\":625:635  romanBytes */\n      dup2\n        /* \"task1/Roman2Int.sol\":625:642  romanBytes.length */\n      mload\n        /* \"task1/Roman2Int.sol\":608:642  uint256 length = romanBytes.length */\n      swap1\n      pop\n        /* \"task1/Roman2Int.sol\":670:671  0 */\n      0x00\n        /* \"task1/Roman2Int.sol\":661:667  length */\n      dup2\n        /* \"task1/Roman2Int.sol\":661:671  length > 0 */\n      gt\n        /* \"task1/Roman2Int.sol\":661:687  length > 0 && length <= 15 */\n      dup1\n      iszero\n      tag_11\n      jumpi\n      pop\n        /* \"task1/Roman2Int.sol\":685:687  15 */\n      0x0f\n        /* \"task1/Roman2Int.sol\":675:681  length */\n      dup2\n        /* \"task1/Roman2Int.sol\":675:687  length <= 15 */\n      gt\n      iszero\n        /* \"task1/Roman2Int.sol\":661:687  length > 0 && length <= 15 */\n    tag_11:\n        /* \"task1/Roman2Int.sol\":653:742  require(length > 0 && length <= 15, \"Roman Str length is be between 1 to 15 characteres\") */\n      tag_12\n      jumpi\n      mload(0x40)\n      0x08c379a000000000000000000000000000000000000000000000000000000000\n      dup2\n      mstore\n      0x04\n      add\n      tag_13\n      swap1\n      tag_14\n      jump\t// in\n    tag_13:\n      mload(0x40)\n      dup1\n      swap2\n      sub\n      swap1\n      revert\n    tag_12:\n        /* \"task1/Roman2Int.sol\":753:766  uint256 total */\n      0x00\n        /* \"task1/Roman2Int.sol\":769:770  0 */\n      0x00\n        /* \"task1/Roman2Int.sol\":753:770  uint256 total = 0 */\n      swap1\n      pop\n        /* \"task1/Roman2Int.sol\":786:795  uint256 i */\n      0x00\n        /* \"task1/Roman2Int.sol\":798:799  0 */\n      0x00\n        /* \"task1/Roman2Int.sol\":786:799  uint256 i = 0 */\n      swap1\n      pop\n        /* \"task1/Roman2Int.sol\":781:1061  for (uint256 i = 0; i < length; ++i) {... */\n    tag_15:\n        /* \"task1/Roman2Int.sol\":805:811  length */\n      dup3\n        /* \"task1/Roman2Int.sol\":801:802  i */\n      dup2\n        /* \"task1/Roman2Int.sol\":801:811  i < length */\n      lt\n        /* \"task1/Roman2Int.sol\":781:1061  for (uint256 i = 0; i < length; ++i) {... */\n      iszero\n      tag_16\n      jumpi\n        /* \"task1/Roman2Int.sol\":833:846  uint256 value */\n      0x00\n        /* \"task1/Roman2Int.sol\":849:872  getValue(romanBytes[i]) */\n      tag_18\n        /* \"task1/Roman2Int.sol\":858:868  romanBytes */\n      dup6\n        /* \"task1/Roman2Int.sol\":869:870  i */\n      dup4\n        /* \"task1/Roman2Int.sol\":858:871  romanBytes[i] */\n      dup2\n      mload\n      dup2\n      lt\n      tag_19\n      jumpi\n      tag_20\n      tag_21\n      jump\t// in\n    tag_20:\n    tag_19:\n      0x20\n      add\n      add\n      mload\n      0xf8\n      shr\n      0xf8\n      shl\n        /* \"task1/Roman2Int.sol\":849:857  getValue */\n      tag_22\n        /* \"task1/Roman2Int.sol\":849:872  getValue(romanBytes[i]) */\n      jump\t// in\n    tag_18:\n        /* \"task1/Roman2Int.sol\":833:872  uint256 value = getValue(romanBytes[i]) */\n      swap1\n      pop\n        /* \"task1/Roman2Int.sol\":904:905  1 */\n      0x01\n        /* \"task1/Roman2Int.sol\":895:901  length */\n      dup5\n        /* \"task1/Roman2Int.sol\":895:905  length - 1 */\n      tag_23\n      swap2\n      swap1\n      tag_24\n      jump\t// in\n    tag_23:\n        /* \"task1/Roman2Int.sol\":891:892  i */\n      dup3\n        /* \"task1/Roman2Int.sol\":891:905  i < length - 1 */\n      lt\n        /* \"task1/Roman2Int.sol\":891:944  i < length - 1 && value < getValue(romanBytes[i + 1]) */\n      dup1\n      iszero\n      tag_25\n      jumpi\n      pop\n        /* \"task1/Roman2Int.sol\":917:944  getValue(romanBytes[i + 1]) */\n      tag_26\n        /* \"task1/Roman2Int.sol\":926:936  romanBytes */\n      dup6\n        /* \"task1/Roman2Int.sol\":941:942  1 */\n      0x01\n        /* \"task1/Roman2Int.sol\":937:938  i */\n      dup5\n        /* \"task1/Roman2Int.sol\":937:942  i + 1 */\n      tag_27\n      swap2\n      swap1\n      tag_28\n      jump\t// in\n    tag_27:\n        /* \"task1/Roman2Int.sol\":926:943  romanBytes[i + 1] */\n      dup2\n      mload\n      dup2\n      lt\n      tag_29\n      jumpi\n      tag_30\n      tag_21\n      jump\t// in\n    tag_30:\n    tag_29:\n      0x20\n      add\n      add\n      mload\n      0xf8\n      shr\n      0xf8\n      shl\n        /* \"task1/Roman2Int.sol\":917:925  getValue */\n      tag_22\n        /* \"task1/Roman2Int.sol\":917:944  getValue(romanBytes[i + 1]) */\n      jump\t// in\n    tag_26:\n        /* \"task1/Roman2Int.sol\":909:914  value */\n      dup2\n        /* \"task1/Roman2Int.sol\":909:944  value < getValue(romanBytes[i + 1]) */\n      lt\n        /* \"task1/Roman2Int.sol\":891:944  i < length - 1 && value < getValue(romanBytes[i + 1]) */\n    tag_25:\n        /* \"task1/Roman2Int.sol\":887:1050  if (i < length - 1 && value < getValue(romanBytes[i + 1])) {... */\n      iszero\n      tag_31\n      jumpi\n        /* \"task1/Roman2Int.sol\":974:979  value */\n      dup1\n        /* \"task1/Roman2Int.sol\":965:979  total -= value */\n      dup4\n      tag_32\n      swap2\n      swap1\n      tag_24\n      jump\t// in\n    tag_32:\n      swap3\n      pop\n        /* \"task1/Roman2Int.sol\":887:1050  if (i < length - 1 && value < getValue(romanBytes[i + 1])) {... */\n      jump(tag_33)\n    tag_31:\n        /* \"task1/Roman2Int.sol\":1029:1034  value */\n      dup1\n        /* \"task1/Roman2Int.sol\":1020:1034  total += value */\n      dup4\n      tag_34\n      swap2\n      swap1\n      tag_28\n      jump\t// in\n    tag_34:\n      swap3\n      pop\n        /* \"task1/Roman2Int.sol\":887:1050  if (i < length - 1 && value < getValue(romanBytes[i + 1])) {... */\n    tag_33:\n        /* \"task1/Roman2Int.sol\":818:1061  {... */\n      pop\n        /* \"task1/Roman2Int.sol\":813:816  ++i */\n      dup1\n      0x01\n      add\n      swap1\n      pop\n        /* \"task1/Roman2Int.sol\":781:1061  for (uint256 i = 0; i < length; ++i) {... */\n      jump(tag_15)\n    tag_16:\n      pop\n        /* \"task1/Roman2Int.sol\":1090:1091  1 */\n      0x01\n        /* \"task1/Roman2Int.sol\":1081:1086  total */\n      dup2\n        /* \"task1/Roman2Int.sol\":1081:1091  total >= 1 */\n      lt\n      iszero\n        /* \"task1/Roman2Int.sol\":1081:1108  total >= 1 && total <= 3999 */\n      dup1\n      iszero\n      tag_35\n      jumpi\n      pop\n        /* \"task1/Roman2Int.sol\":1104:1108  3999 */\n      0x0f9f\n        /* \"task1/Roman2Int.sol\":1095:1100  total */\n      dup2\n        /* \"task1/Roman2Int.sol\":1095:1108  total <= 3999 */\n      gt\n      iszero\n        /* \"task1/Roman2Int.sol\":1081:1108  total >= 1 && total <= 3999 */\n    tag_35:\n        /* \"task1/Roman2Int.sol\":1073:1135  require(total >= 1 && total <= 3999, \"Invalid Roman numeral.\") */\n      tag_36\n      jumpi\n      mload(0x40)\n      0x08c379a000000000000000000000000000000000000000000000000000000000\n      dup2\n      mstore\n      0x04\n      add\n      tag_37\n      swap1\n      tag_38\n      jump\t// in\n    tag_37:\n      mload(0x40)\n      dup1\n      swap2\n      sub\n      swap1\n      revert\n    tag_36:\n        /* \"task1/Roman2Int.sol\":1153:1158  total */\n      dup1\n        /* \"task1/Roman2Int.sol\":1146:1158  return total */\n      swap4\n      pop\n      pop\n      pop\n      pop\n        /* \"task1/Roman2Int.sol\":469:1166  function romanToInt(string memory _romanStr) public pure returns (uint256) {... */\n      swap2\n      swap1\n      pop\n      jump\t// out\n        /* \"task1/Roman2Int.sol\":93:461  function getValue(bytes1 _c) private pure returns (uint256) {... */\n    tag_22:\n        /* \"task1/Roman2Int.sol\":144:151  uint256 */\n      0x00\n        /* \"task1/Roman2Int.sol\":168:177  _c == \"I\" */\n      0x4900000000000000000000000000000000000000000000000000000000000000\n        /* \"task1/Roman2Int.sol\":168:170  _c */\n      dup3\n        /* \"task1/Roman2Int.sol\":168:177  _c == \"I\" */\n      not(0xffffffffffffffffffffffffffffffffffffffffffffffffffffffffffffff)\n      and\n      sub\n        /* \"task1/Roman2Int.sol\":164:187  if (_c == \"I\") return 1 */\n      tag_40\n      jumpi\n        /* \"task1/Roman2Int.sol\":186:187  1 */\n      0x01\n        /* \"task1/Roman2Int.sol\":179:187  return 1 */\n      swap1\n      pop\n      jump(tag_39)\n        /* \"task1/Roman2Int.sol\":164:187  if (_c == \"I\") return 1 */\n    tag_40:\n        /* \"task1/Roman2Int.sol\":202:211  _c == \"V\" */\n      0x5600000000000000000000000000000000000000000000000000000000000000\n        /* \"task1/Roman2Int.sol\":202:204  _c */\n      dup3\n        /* \"task1/Roman2Int.sol\":202:211  _c == \"V\" */\n      not(0xffffffffffffffffffffffffffffffffffffffffffffffffffffffffffffff)\n      and\n      sub\n        /* \"task1/Roman2Int.sol\":198:221  if (_c == \"V\") return 5 */\n      tag_41\n      jumpi\n        /* \"task1/Roman2Int.sol\":220:221  5 */\n      0x05\n        /* \"task1/Roman2Int.sol\":213:221  return 5 */\n      swap1\n      pop\n      jump(tag_39)\n        /* \"task1/Roman2Int.sol\":198:221  if (_c == \"V\") return 5 */\n    tag_41:\n        /* \"task1/Roman2Int.sol\":236:245  _c == \"X\" */\n      0x5800000000000000000000000000000000000000000000000000000000000000\n        /* \"task1/Roman2Int.sol\":236:238  _c */\n      dup3\n        /* \"task1/Roman2Int.sol\":236:245  _c == \"X\" */\n      not(0xffffffffffffffffffffffffffffffffffffffffffffffffffffffffffffff)\n      and\n      sub\n        /* \"task1/Roman2Int.sol\":232:256  if (_c == \"X\") return 10 */\n      tag_42\n      jumpi\n        /* \"task1/Roman2Int.sol\":254:256  10 */\n      0x0a\n        /* \"task1/Roman2Int.sol\":247:256  return 10 */\n      swap1\n      pop\n      jump(tag_39)\n        /* \"task1/Roman2Int.sol\":232:256  if (_c == \"X\") return 10 */\n    tag_42:\n        /* \"task1/Roman2Int.sol\":271:280  _c == \"L\" */\n      0x4c00000000000000000000000000000000000000000000000000000000000000\n        /* \"task1/Roman2Int.sol\":271:273  _c */\n      dup3\n        /* \"task1/Roman2Int.sol\":271:280  _c == \"L\" */\n      not(0xffffffffffffffffffffffffffffffffffffffffffffffffffffffffffffff)\n      and\n      sub\n        /* \"task1/Roman2Int.sol\":267:291  if (_c == \"L\") return 50 */\n      tag_43\n      jumpi\n        /* \"task1/Roman2Int.sol\":289:291  50 */\n      0x32\n        /* \"task1/Roman2Int.sol\":282:291  return 50 */\n      swap1\n      pop\n      jump(tag_39)\n        /* \"task1/Roman2Int.sol\":267:291  if (_c == \"L\") return 50 */\n    tag_43:\n        /* \"task1/Roman2Int.sol\":306:315  _c == \"C\" */\n      0x4300000000000000000000000000000000000000000000000000000000000000\n        /* \"task1/Roman2Int.sol\":306:308  _c */\n      dup3\n        /* \"task1/Roman2Int.sol\":306:315  _c == \"C\" */\n      not(0xffffffffffffffffffffffffffffffffffffffffffffffffffffffffffffff)\n      and\n      sub\n        /* \"task1/Roman2Int.sol\":302:327  if (_c == \"C\") return 100 */\n      tag_44\n      jumpi\n        /* \"task1/Roman2Int.sol\":324:327  100 */\n      0x64\n        /* \"task1/Roman2Int.sol\":317:327  return 100 */\n      swap1\n      pop\n      jump(tag_39)\n        /* \"task1/Roman2Int.sol\":302:327  if (_c == \"C\") return 100 */\n    tag_44:\n        /* \"task1/Roman2Int.sol\":342:351  _c == \"D\" */\n      0x4400000000000000000000000000000000000000000000000000000000000000\n        /* \"task1/Roman2Int.sol\":342:344  _c */\n      dup3\n        /* \"task1/Roman2Int.sol\":342:351  _c == \"D\" */\n      not(0xffffffffffffffffffffffffffffffffffffffffffffffffffffffffffffff)\n      and\n      sub\n        /* \"task1/Roman2Int.sol\":338:363  if (_c == \"D\") return 500 */\n      tag_45\n      jumpi\n        /* \"task1/Roman2Int.sol\":360:363  500 */\n      0x01f4\n        /* \"task1/Roman2Int.sol\":353:363  return 500 */\n      swap1\n      pop\n      jump(tag_39)\n        /* \"task1/Roman2Int.sol\":338:363  if (_c == \"D\") return 500 */\n    tag_45:\n        /* \"task1/Roman2Int.sol\":378:387  _c == \"M\" */\n      0x4d00000000000000000000000000000000000000000000000000000000000000\n        /* \"task1/Roman2Int.sol\":378:380  _c */\n      dup3\n        /* \"task1/Roman2Int.sol\":378:387  _c == \"M\" */\n      not(0xffffffffffffffffffffffffffffffffffffffffffffffffffffffffffffff)\n      and\n      sub\n        /* \"task1/Roman2Int.sol\":374:400  if (_c == \"M\") return 1000 */\n      tag_46\n      jumpi\n        /* \"task1/Roman2Int.sol\":396:400  1000 */\n      0x03e8\n        /* \"task1/Roman2Int.sol\":389:400  return 1000 */\n      swap1\n      pop\n      jump(tag_39)\n        /* \"task1/Roman2Int.sol\":374:400  if (_c == \"M\") return 1000 */\n    tag_46:\n        /* \"task1/Roman2Int.sol\":413:453  revert(\"Invalid char in Roman numeral.\") */\n      mload(0x40)\n      0x08c379a000000000000000000000000000000000000000000000000000000000\n      dup2\n      mstore\n      0x04\n      add\n      tag_47\n      swap1\n      tag_48\n      jump\t// in\n    tag_47:\n      mload(0x40)\n      dup1\n      swap2\n      sub\n      swap1\n      revert\n        /* \"task1/Roman2Int.sol\":93:461  function getValue(bytes1 _c) private pure returns (uint256) {... */\n    tag_39:\n      swap2\n      swap1\n      pop\n      jump\t// out\n        /* \"#utility.yul\":7:82   */\n    tag_49:\n        /* \"#utility.yul\":40:46   */\n      0x00\n        /* \"#utility.yul\":73:75   */\n      0x40\n        /* \"#utility.yul\":67:76   */\n      mload\n        /* \"#utility.yul\":57:76   */\n      swap1\n      pop\n        /* \"#utility.yul\":7:82   */\n      swap1\n      jump\t// out\n        /* \"#utility.yul\":88:205   */\n    tag_50:\n        /* \"#utility.yul\":197:198   */\n      0x00\n        /* \"#utility.yul\":194:195   */\n      0x00\n        /* \"#utility.yul\":187:199   */\n      revert\n        /* \"#utility.yul\":211:328   */\n    tag_51:\n        /* \"#utility.yul\":320:321   */\n      0x00\n        /* \"#utility.yul\":317:318   */\n      0x00\n        /* \"#utility.yul\":310:322   */\n      revert\n        /* \"#utility.yul\":334:451   */\n    tag_52:\n        /* \"#utility.yul\":443:444   */\n      0x00\n        /* \"#utility.yul\":440:441   */\n      0x00\n        /* \"#utility.yul\":433:445   */\n      revert\n        /* \"#utility.yul\":457:574   */\n    tag_53:\n        /* \"#utility.yul\":566:567   */\n      0x00\n        /* \"#utility.yul\":563:564   */\n      0x00\n        /* \"#utility.yul\":556:568   */\n      revert\n        /* \"#utility.yul\":580:682   */\n    tag_54:\n        /* \"#utility.yul\":621:627   */\n      0x00\n        /* \"#utility.yul\":672:674   */\n      0x1f\n        /* \"#utility.yul\":668:675   */\n      not\n        /* \"#utility.yul\":663:665   */\n      0x1f\n        /* \"#utility.yul\":656:661   */\n      dup4\n        /* \"#utility.yul\":652:666   */\n      add\n        /* \"#utility.yul\":648:676   */\n      and\n        /* \"#utility.yul\":638:676   */\n      swap1\n      pop\n        /* \"#utility.yul\":580:682   */\n      swap2\n      swap1\n      pop\n      jump\t// out\n        /* \"#utility.yul\":688:868   */\n    tag_55:\n        /* \"#utility.yul\":736:813   */\n      0x4e487b7100000000000000000000000000000000000000000000000000000000\n        /* \"#utility.yul\":733:734   */\n      0x00\n        /* \"#utility.yul\":726:814   */\n      mstore\n        /* \"#utility.yul\":833:837   */\n      0x41\n        /* \"#utility.yul\":830:831   */\n      0x04\n        /* \"#utility.yul\":823:838   */\n      mstore\n        /* \"#utility.yul\":857:861   */\n      0x24\n        /* \"#utility.yul\":854:855   */\n      0x00\n        /* \"#utility.yul\":847:862   */\n      revert\n        /* \"#utility.yul\":874:1155   */\n    tag_56:\n        /* \"#utility.yul\":957:984   */\n      tag_81\n        /* \"#utility.yul\":979:983   */\n      dup3\n        /* \"#utility.yul\":957:984   */\n      tag_54\n      jump\t// in\n    tag_81:\n        /* \"#utility.yul\":949:955   */\n      dup2\n        /* \"#utility.yul\":945:985   */\n      add\n        /* \"#utility.yul\":1087:1093   */\n      dup2\n        /* \"#utility.yul\":1075:1085   */\n      dup2\n        /* \"#utility.yul\":1072:1094   */\n      lt\n        /* \"#utility.yul\":1051:1069   */\n      0xffffffffffffffff\n        /* \"#utility.yul\":1039:1049   */\n      dup3\n        /* \"#utility.yul\":1036:1070   */\n      gt\n        /* \"#utility.yul\":1033:1095   */\n      or\n        /* \"#utility.yul\":1030:1118   */\n      iszero\n      tag_82\n      jumpi\n        /* \"#utility.yul\":1098:1116   */\n      tag_83\n      tag_55\n      jump\t// in\n    tag_83:\n        /* \"#utility.yul\":1030:1118   */\n    tag_82:\n        /* \"#utility.yul\":1138:1148   */\n      dup1\n        /* \"#utility.yul\":1134:1136   */\n      0x40\n        /* \"#utility.yul\":1127:1149   */\n      mstore\n        /* \"#utility.yul\":917:1155   */\n      pop\n        /* \"#utility.yul\":874:1155   */\n      pop\n      pop\n      jump\t// out\n        /* \"#utility.yul\":1161:1290   */\n    tag_57:\n        /* \"#utility.yul\":1195:1201   */\n      0x00\n        /* \"#utility.yul\":1222:1242   */\n      tag_85\n      tag_49\n      jump\t// in\n    tag_85:\n        /* \"#utility.yul\":1212:1242   */\n      swap1\n      pop\n        /* \"#utility.yul\":1251:1284   */\n      tag_86\n        /* \"#utility.yul\":1279:1283   */\n      dup3\n        /* \"#utility.yul\":1271:1277   */\n      dup3\n        /* \"#utility.yul\":1251:1284   */\n      tag_56\n      jump\t// in\n    tag_86:\n        /* \"#utility.yul\":1161:1290   */\n      swap2\n      swap1\n      pop\n      jump\t// out\n        /* \"#utility.yul\":1296:1604   */\n    tag_58:\n        /* \"#utility.yul\":1358:1362   */\n      0x00\n        /* \"#utility.yul\":1448:1466   */\n      0xffffffffffffffff\n        /* \"#utility.yul\":1440:1446   */\n      dup3\n        /* \"#utility.yul\":1437:1467   */\n      gt\n        /* \"#utility.yul\":1434:1490   */\n      iszero\n      tag_88\n      jumpi\n        /* \"#utility.yul\":1470:1488   */\n      tag_89\n      tag_55\n      jump\t// in\n    tag_89:\n        /* \"#utility.yul\":1434:1490   */\n    tag_88:\n        /* \"#utility.yul\":1508:1537   */\n      tag_90\n        /* \"#utility.yul\":1530:1536   */\n      dup3\n        /* \"#utility.yul\":1508:1537   */\n      tag_54\n      jump\t// in\n    tag_90:\n        /* \"#utility.yul\":1500:1537   */\n      swap1\n      pop\n        /* \"#utility.yul\":1592:1596   */\n      0x20\n        /* \"#utility.yul\":1586:1590   */\n      dup2\n        /* \"#utility.yul\":1582:1597   */\n      add\n        /* \"#utility.yul\":1574:1597   */\n      swap1\n      pop\n        /* \"#utility.yul\":1296:1604   */\n      swap2\n      swap1\n      pop\n      jump\t// out\n        /* \"#utility.yul\":1610:1758   */\n    tag_59:\n        /* \"#utility.yul\":1708:1714   */\n      dup3\n        /* \"#utility.yul\":1703:1706   */\n      dup2\n        /* \"#utility.yul\":1698:1701   */\n      dup4\n        /* \"#utility.yul\":1685:1715   */\n      calldatacopy\n        /* \"#utility.yul\":1749:1750   */\n      0x00\n        /* \"#utility.yul\":1740:1746   */\n      dup4\n        /* \"#utility.yul\":1735:1738   */\n      dup4\n        /* \"#utility.yul\":1731:1747   */\n      add\n        /* \"#utility.yul\":1724:1751   */\n      mstore\n        /* \"#utility.yul\":1610:1758   */\n      pop\n      pop\n      pop\n      jump\t// out\n        /* \"#utility.yul\":1764:2189   */\n    tag_60:\n        /* \"#utility.yul\":1842:1847   */\n      0x00\n        /* \"#utility.yul\":1867:1933   */\n      tag_93\n        /* \"#utility.yul\":1883:1932   */\n      tag_94\n        /* \"#utility.yul\":1925:1931   */\n      dup5\n        /* \"#utility.yul\":1883:1932   */\n      tag_58\n      jump\t// in\n    tag_94:\n        /* \"#utility.yul\":1867:1933   */\n      tag_57\n      jump\t// in\n    tag_93:\n        /* \"#utility.yul\":1858:1933   */\n      swap1\n      pop\n        /* \"#utility.yul\":1956:1962   */\n      dup3\n        /* \"#utility.yul\":1949:1954   */\n      dup2\n        /* \"#utility.yul\":1942:1963   */\n      mstore\n        /* \"#utility.yul\":1994:1998   */\n      0x20\n        /* \"#utility.yul\":1987:1992   */\n      dup2\n        /* \"#utility.yul\":1983:1999   */\n      add\n        /* \"#utility.yul\":2032:2035   */\n      dup5\n        /* \"#utility.yul\":2023:2029   */\n      dup5\n        /* \"#utility.yul\":2018:2021   */\n      dup5\n        /* \"#utility.yul\":2014:2030   */\n      add\n        /* \"#utility.yul\":2011:2036   */\n      gt\n        /* \"#utility.yul\":2008:2120   */\n      iszero\n      tag_95\n      jumpi\n        /* \"#utility.yul\":2039:2118   */\n      tag_96\n      tag_53\n      jump\t// in\n    tag_96:\n        /* \"#utility.yul\":2008:2120   */\n    tag_95:\n        /* \"#utility.yul\":2129:2183   */\n      tag_97\n        /* \"#utility.yul\":2176:2182   */\n      dup5\n        /* \"#utility.yul\":2171:2174   */\n      dup3\n        /* \"#utility.yul\":2166:2169   */\n      dup6\n        /* \"#utility.yul\":2129:2183   */\n      tag_59\n      jump\t// in\n    tag_97:\n        /* \"#utility.yul\":1848:2189   */\n      pop\n        /* \"#utility.yul\":1764:2189   */\n      swap4\n      swap3\n      pop\n      pop\n      pop\n      jump\t// out\n        /* \"#utility.yul\":2209:2549   */\n    tag_61:\n        /* \"#utility.yul\":2265:2270   */\n      0x00\n        /* \"#utility.yul\":2314:2317   */\n      dup3\n        /* \"#utility.yul\":2307:2311   */\n      0x1f\n        /* \"#utility.yul\":2299:2305   */\n      dup4\n        /* \"#utility.yul\":2295:2312   */\n      add\n        /* \"#utility.yul\":2291:2318   */\n      slt\n        /* \"#utility.yul\":2281:2403   */\n      tag_99\n      jumpi\n        /* \"#utility.yul\":2322:2401   */\n      tag_100\n      tag_52\n      jump\t// in\n    tag_100:\n        /* \"#utility.yul\":2281:2403   */\n    tag_99:\n        /* \"#utility.yul\":2439:2445   */\n      dup2\n        /* \"#utility.yul\":2426:2446   */\n      calldataload\n        /* \"#utility.yul\":2464:2543   */\n      tag_101\n        /* \"#utility.yul\":2539:2542   */\n      dup5\n        /* \"#utility.yul\":2531:2537   */\n      dup3\n        /* \"#utility.yul\":2524:2528   */\n      0x20\n        /* \"#utility.yul\":2516:2522   */\n      dup7\n        /* \"#utility.yul\":2512:2529   */\n      add\n        /* \"#utility.yul\":2464:2543   */\n      tag_60\n      jump\t// in\n    tag_101:\n        /* \"#utility.yul\":2455:2543   */\n      swap2\n      pop\n        /* \"#utility.yul\":2271:2549   */\n      pop\n        /* \"#utility.yul\":2209:2549   */\n      swap3\n      swap2\n      pop\n      pop\n      jump\t// out\n        /* \"#utility.yul\":2555:3064   */\n    tag_6:\n        /* \"#utility.yul\":2624:2630   */\n      0x00\n        /* \"#utility.yul\":2673:2675   */\n      0x20\n        /* \"#utility.yul\":2661:2670   */\n      dup3\n        /* \"#utility.yul\":2652:2659   */\n      dup5\n        /* \"#utility.yul\":2648:2671   */\n      sub\n        /* \"#utility.yul\":2644:2676   */\n      slt\n        /* \"#utility.yul\":2641:2760   */\n      iszero\n      tag_103\n      jumpi\n        /* \"#utility.yul\":2679:2758   */\n      tag_104\n      tag_50\n      jump\t// in\n    tag_104:\n        /* \"#utility.yul\":2641:2760   */\n    tag_103:\n        /* \"#utility.yul\":2827:2828   */\n      0x00\n        /* \"#utility.yul\":2816:2825   */\n      dup3\n        /* \"#utility.yul\":2812:2829   */\n      add\n        /* \"#utility.yul\":2799:2830   */\n      calldataload\n        /* \"#utility.yul\":2857:2875   */\n      0xffffffffffffffff\n        /* \"#utility.yul\":2849:2855   */\n      dup2\n        /* \"#utility.yul\":2846:2876   */\n      gt\n        /* \"#utility.yul\":2843:2960   */\n      iszero\n      tag_105\n      jumpi\n        /* \"#utility.yul\":2879:2958   */\n      tag_106\n      tag_51\n      jump\t// in\n    tag_106:\n        /* \"#utility.yul\":2843:2960   */\n    tag_105:\n        /* \"#utility.yul\":2984:3047   */\n      tag_107\n        /* \"#utility.yul\":3039:3046   */\n      dup5\n        /* \"#utility.yul\":3030:3036   */\n      dup3\n        /* \"#utility.yul\":3019:3028   */\n      dup6\n        /* \"#utility.yul\":3015:3037   */\n      add\n        /* \"#utility.yul\":2984:3047   */\n      tag_61\n      jump\t// in\n    tag_107:\n        /* \"#utility.yul\":2974:3047   */\n      swap2\n      pop\n        /* \"#utility.yul\":2770:3057   */\n      pop\n        /* \"#utility.yul\":2555:3064   */\n      swap3\n      swap2\n      pop\n      pop\n      jump\t// out\n        /* \"#utility.yul\":3070:3147   */\n    tag_62:\n        /* \"#utility.yul\":3107:3114   */\n      0x00\n        /* \"#utility.yul\":3136:3141   */\n      dup2\n        /* \"#utility.yul\":3125:3141   */\n      swap1\n      pop\n        /* \"#utility.yul\":3070:3147   */\n      swap2\n      swap1\n      pop\n      jump\t// out\n        /* \"#utility.yul\":3153:3271   */\n    tag_63:\n        /* \"#utility.yul\":3240:3264   */\n      tag_110\n        /* \"#utility.yul\":3258:3263   */\n      dup2\n        /* \"#utility.yul\":3240:3264   */\n      tag_62\n      jump\t// in\n    tag_110:\n        /* \"#utility.yul\":3235:3238   */\n      dup3\n        /* \"#utility.yul\":3228:3265   */\n      mstore\n        /* \"#utility.yul\":3153:3271   */\n      pop\n      pop\n      jump\t// out\n        /* \"#utility.yul\":3277:3499   */\n    tag_9:\n        /* \"#utility.yul\":3370:3374   */\n      0x00\n        /* \"#utility.yul\":3408:3410   */\n      0x20\n        /* \"#utility.yul\":3397:3406   */\n      dup3\n        /* \"#utility.yul\":3393:3411   */\n      add\n        /* \"#utility.yul\":3385:3411   */\n      swap1\n      pop\n        /* \"#utility.yul\":3421:3492   */\n      tag_112\n        /* \"#utility.yul\":3489:3490   */\n      0x00\n        /* \"#utility.yul\":3478:3487   */\n      dup4\n        /* \"#utility.yul\":3474:3491   */\n      add\n        /* \"#utility.yul\":3465:3471   */\n      dup5\n        /* \"#utility.yul\":3421:3492   */\n      tag_63\n      jump\t// in\n    tag_112:\n        /* \"#utility.yul\":3277:3499   */\n      swap3\n      swap2\n      pop\n      pop\n      jump\t// out\n        /* \"#utility.yul\":3505:3674   */\n    tag_64:\n        /* \"#utility.yul\":3589:3600   */\n      0x00\n        /* \"#utility.yul\":3623:3629   */\n      dup3\n        /* \"#utility.yul\":3618:3621   */\n      dup3\n        /* \"#utility.yul\":3611:3630   */\n      mstore\n        /* \"#utility.yul\":3663:3667   */\n      0x20\n        /* \"#utility.yul\":3658:3661   */\n      dup3\n        /* \"#utility.yul\":3654:3668   */\n      add\n        /* \"#utility.yul\":3639:3668   */\n      swap1\n      pop\n        /* \"#utility.yul\":3505:3674   */\n      swap3\n      swap2\n      pop\n      pop\n      jump\t// out\n        /* \"#utility.yul\":3680:3917   */\n    tag_65:\n        /* \"#utility.yul\":3820:3854   */\n      0x526f6d616e20537472206c656e677468206973206265206265747765656e2031\n        /* \"#utility.yul\":3816:3817   */\n      0x00\n        /* \"#utility.yul\":3808:3814   */\n      dup3\n        /* \"#utility.yul\":3804:3818   */\n      add\n        /* \"#utility.yul\":3797:3855   */\n      mstore\n        /* \"#utility.yul\":3889:3909   */\n      0x20746f2031352063686172616374657265730000000000000000000000000000\n        /* \"#utility.yul\":3884:3886   */\n      0x20\n        /* \"#utility.yul\":3876:3882   */\n      dup3\n        /* \"#utility.yul\":3872:3887   */\n      add\n        /* \"#utility.yul\":3865:3910   */\n      mstore\n        /* \"#utility.yul\":3680:3917   */\n      pop\n      jump\t// out\n        /* \"#utility.yul\":3923:4289   */\n    tag_66:\n        /* \"#utility.yul\":4065:4068   */\n      0x00\n        /* \"#utility.yul\":4086:4153   */\n      tag_116\n        /* \"#utility.yul\":4150:4152   */\n      0x32\n        /* \"#utility.yul\":4145:4148   */\n      dup4\n        /* \"#utility.yul\":4086:4153   */\n      tag_64\n      jump\t// in\n    tag_116:\n        /* \"#utility.yul\":4079:4153   */\n      swap2\n      pop\n        /* \"#utility.yul\":4162:4255   */\n      tag_117\n        /* \"#utility.yul\":4251:4254   */\n      dup3\n        /* \"#utility.yul\":4162:4255   */\n      tag_65\n      jump\t// in\n    tag_117:\n        /* \"#utility.yul\":4280:4282   */\n      0x40\n        /* \"#utility.yul\":4275:4278   */\n      dup3\n        /* \"#utility.yul\":4271:4283   */\n      add\n        /* \"#utility.yul\":4264:4283   */\n      swap1\n      pop\n        /* \"#utility.yul\":3923:4289   */\n      swap2\n      swap1\n      pop\n      jump\t// out\n        /* \"#utility.yul\":4295:4714   */\n    tag_14:\n        /* \"#utility.yul\":4461:4465   */\n      0x00\n        /* \"#utility.yul\":4499:4501   */\n      0x20\n        /* \"#utility.yul\":4488:4497   */\n      dup3\n        /* \"#utility.yul\":4484:4502   */\n      add\n        /* \"#utility.yul\":4476:4502   */\n      swap1\n      pop\n        /* \"#utility.yul\":4548:4557   */\n      dup2\n        /* \"#utility.yul\":4542:4546   */\n      dup2\n        /* \"#utility.yul\":4538:4558   */\n      sub\n        /* \"#utility.yul\":4534:4535   */\n      0x00\n        /* \"#utility.yul\":4523:4532   */\n      dup4\n        /* \"#utility.yul\":4519:4536   */\n      add\n        /* \"#utility.yul\":4512:4559   */\n      mstore\n        /* \"#utility.yul\":4576:4707   */\n      tag_119\n        /* \"#utility.yul\":4702:4706   */\n      dup2\n        /* \"#utility.yul\":4576:4707   */\n      tag_66\n      jump\t// in\n    tag_119:\n        /* \"#utility.yul\":4568:4707   */\n      swap1\n      pop\n        /* \"#utility.yul\":4295:4714   */\n      swap2\n      swap1\n      pop\n      jump\t// out\n        /* \"#utility.yul\":4720:4900   */\n    tag_21:\n        /* \"#utility.yul\":4768:4845   */\n      0x4e487b7100000000000000000000000000000000000000000000000000000000\n        /* \"#utility.yul\":4765:4766   */\n      0x00\n        /* \"#utility.yul\":4758:4846   */\n      mstore\n        /* \"#utility.yul\":4865:4869   */\n      0x32\n        /* \"#utility.yul\":4862:4863   */\n      0x04\n        /* \"#utility.yul\":4855:4870   */\n      mstore\n        /* \"#utility.yul\":4889:4893   */\n      0x24\n        /* \"#utility.yul\":4886:4887   */\n      0x00\n        /* \"#utility.yul\":4879:4894   */\n      revert\n        /* \"#utility.yul\":4906:5086   */\n    tag_67:\n        /* \"#utility.yul\":4954:5031   */\n      0x4e487b7100000000000000000000000000000000000000000000000000000000\n        /* \"#utility.yul\":4951:4952   */\n      0x00\n        /* \"#utility.yul\":4944:5032   */\n      mstore\n        /* \"#utility.yul\":5051:5055   */\n      0x11\n        /* \"#utility.yul\":5048:5049   */\n      0x04\n        /* \"#utility.yul\":5041:5056   */\n      mstore\n        /* \"#utility.yul\":5075:5079   */\n      0x24\n        /* \"#utility.yul\":5072:5073   */\n      0x00\n        /* \"#utility.yul\":5065:5080   */\n      revert\n        /* \"#utility.yul\":5092:5286   */\n    tag_24:\n        /* \"#utility.yul\":5132:5136   */\n      0x00\n        /* \"#utility.yul\":5152:5172   */\n      tag_123\n        /* \"#utility.yul\":5170:5171   */\n      dup3\n        /* \"#utility.yul\":5152:5172   */\n      tag_62\n      jump\t// in\n    tag_123:\n        /* \"#utility.yul\":5147:5172   */\n      swap2\n      pop\n        /* \"#utility.yul\":5186:5206   */\n      tag_124\n        /* \"#utility.yul\":5204:5205   */\n      dup4\n        /* \"#utility.yul\":5186:5206   */\n      tag_62\n      jump\t// in\n    tag_124:\n        /* \"#utility.yul\":5181:5206   */\n      swap3\n      pop\n        /* \"#utility.yul\":5230:5231   */\n      dup3\n        /* \"#utility.yul\":5227:5228   */\n      dup3\n        /* \"#utility.yul\":5223:5232   */\n      sub\n        /* \"#utility.yul\":5215:5232   */\n      swap1\n      pop\n        /* \"#utility.yul\":5254:5255   */\n      dup2\n        /* \"#utility.yul\":5248:5252   */\n      dup2\n        /* \"#utility.yul\":5245:5256   */\n      gt\n        /* \"#utility.yul\":5242:5279   */\n      iszero\n      tag_125\n      jumpi\n        /* \"#utility.yul\":5259:5277   */\n      tag_126\n      tag_67\n      jump\t// in\n    tag_126:\n        /* \"#utility.yul\":5242:5279   */\n    tag_125:\n        /* \"#utility.yul\":5092:5286   */\n      swap3\n      swap2\n      pop\n      pop\n      jump\t// out\n        /* \"#utility.yul\":5292:5483   */\n    tag_28:\n        /* \"#utility.yul\":5332:5335   */\n      0x00\n        /* \"#utility.yul\":5351:5371   */\n      tag_128\n        /* \"#utility.yul\":5369:5370   */\n      dup3\n        /* \"#utility.yul\":5351:5371   */\n      tag_62\n      jump\t// in\n    tag_128:\n        /* \"#utility.yul\":5346:5371   */\n      swap2\n      pop\n        /* \"#utility.yul\":5385:5405   */\n      tag_129\n        /* \"#utility.yul\":5403:5404   */\n      dup4\n        /* \"#utility.yul\":5385:5405   */\n      tag_62\n      jump\t// in\n    tag_129:\n        /* \"#utility.yul\":5380:5405   */\n      swap3\n      pop\n        /* \"#utility.yul\":5428:5429   */\n      dup3\n        /* \"#utility.yul\":5425:5426   */\n      dup3\n        /* \"#utility.yul\":5421:5430   */\n      add\n        /* \"#utility.yul\":5414:5430   */\n      swap1\n      pop\n        /* \"#utility.yul\":5449:5452   */\n      dup1\n        /* \"#utility.yul\":5446:5447   */\n      dup3\n        /* \"#utility.yul\":5443:5453   */\n      gt\n        /* \"#utility.yul\":5440:5476   */\n      iszero\n      tag_130\n      jumpi\n        /* \"#utility.yul\":5456:5474   */\n      tag_131\n      tag_67\n      jump\t// in\n    tag_131:\n        /* \"#utility.yul\":5440:5476   */\n    tag_130:\n        /* \"#utility.yul\":5292:5483   */\n      swap3\n      swap2\n      pop\n      pop\n      jump\t// out\n        /* \"#utility.yul\":5489:5661   */\n    tag_68:\n        /* \"#utility.yul\":5629:5653   */\n      0x496e76616c696420526f6d616e206e756d6572616c2e00000000000000000000\n        /* \"#utility.yul\":5625:5626   */\n      0x00\n        /* \"#utility.yul\":5617:5623   */\n      dup3\n        /* \"#utility.yul\":5613:5627   */\n      add\n        /* \"#utility.yul\":5606:5654   */\n      mstore\n        /* \"#utility.yul\":5489:5661   */\n      pop\n      jump\t// out\n        /* \"#utility.yul\":5667:6033   */\n    tag_69:\n        /* \"#utility.yul\":5809:5812   */\n      0x00\n        /* \"#utility.yul\":5830:5897   */\n      tag_134\n        /* \"#utility.yul\":5894:5896   */\n      0x16\n        /* \"#utility.yul\":5889:5892   */\n      dup4\n        /* \"#utility.yul\":5830:5897   */\n      tag_64\n      jump\t// in\n    tag_134:\n        /* \"#utility.yul\":5823:5897   */\n      swap2\n      pop\n        /* \"#utility.yul\":5906:5999   */\n      tag_135\n        /* \"#utility.yul\":5995:5998   */\n      dup3\n        /* \"#utility.yul\":5906:5999   */\n      tag_68\n      jump\t// in\n    tag_135:\n        /* \"#utility.yul\":6024:6026   */\n      0x20\n        /* \"#utility.yul\":6019:6022   */\n      dup3\n        /* \"#utility.yul\":6015:6027   */\n      add\n        /* \"#utility.yul\":6008:6027   */\n      swap1\n      pop\n        /* \"#utility.yul\":5667:6033   */\n      swap2\n      swap1\n      pop\n      jump\t// out\n        /* \"#utility.yul\":6039:6458   */\n    tag_38:\n        /* \"#utility.yul\":6205:6209   */\n      0x00\n        /* \"#utility.yul\":6243:6245   */\n      0x20\n        /* \"#utility.yul\":6232:6241   */\n      dup3\n        /* \"#utility.yul\":6228:6246   */\n      add\n        /* \"#utility.yul\":6220:6246   */\n      swap1\n      pop\n        /* \"#utility.yul\":6292:6301   */\n      dup2\n        /* \"#utility.yul\":6286:6290   */\n      dup2\n        /* \"#utility.yul\":6282:6302   */\n      sub\n        /* \"#utility.yul\":6278:6279   */\n      0x00\n        /* \"#utility.yul\":6267:6276   */\n      dup4\n        /* \"#utility.yul\":6263:6280   */\n      add\n        /* \"#utility.yul\":6256:6303   */\n      mstore\n        /* \"#utility.yul\":6320:6451   */\n      tag_137\n        /* \"#utility.yul\":6446:6450   */\n      dup2\n        /* \"#utility.yul\":6320:6451   */\n      tag_69\n      jump\t// in\n    tag_137:\n        /* \"#utility.yul\":6312:6451   */\n      swap1\n      pop\n        /* \"#utility.yul\":6039:6458   */\n      swap2\n      swap1\n      pop\n      jump\t// out\n        /* \"#utility.yul\":6464:6644   */\n    tag_70:\n        /* \"#utility.yul\":6604:6636   */\n      0x496e76616c6964206368617220696e20526f6d616e206e756d6572616c2e0000\n        /* \"#utility.yul\":6600:6601   */\n      0x00\n        /* \"#utility.yul\":6592:6598   */\n      dup3\n        /* \"#utility.yul\":6588:6602   */\n      add\n        /* \"#utility.yul\":6581:6637   */\n      mstore\n        /* \"#utility.yul\":6464:6644   */\n      pop\n      jump\t// out\n        /* \"#utility.yul\":6650:7016   */\n    tag_71:\n        /* \"#utility.yul\":6792:6795   */\n      0x00\n        /* \"#utility.yul\":6813:6880   */\n      tag_140\n        /* \"#utility.yul\":6877:6879   */\n      0x1e\n        /* \"#utility.yul\":6872:6875   */\n      dup4\n        /* \"#utility.yul\":6813:6880   */\n      tag_64\n      jump\t// in\n    tag_140:\n        /* \"#utility.yul\":6806:6880   */\n      swap2\n      pop\n        /* \"#utility.yul\":6889:6982   */\n      tag_141\n        /* \"#utility.yul\":6978:6981   */\n      dup3\n        /* \"#utility.yul\":6889:6982   */\n      tag_70\n      jump\t// in\n    tag_141:\n        /* \"#utility.yul\":7007:7009   */\n      0x20\n        /* \"#utility.yul\":7002:7005   */\n      dup3\n        /* \"#utility.yul\":6998:7010   */\n      add\n        /* \"#utility.yul\":6991:7010   */\n      swap1\n      pop\n        /* \"#utility.yul\":6650:7016   */\n      swap2\n      swap1\n      pop\n      jump\t// out\n        /* \"#utility.yul\":7022:7441   */\n    tag_48:\n        /* \"#utility.yul\":7188:7192   */\n      0x00\n        /* \"#utility.yul\":7226:7228   */\n      0x20\n        /* \"#utility.yul\":7215:7224   */\n      dup3\n        /* \"#utility.yul\":7211:7229   */\n      add\n        /* \"#utility.yul\":7203:7229   */\n      swap1\n      pop\n        /* \"#utility.yul\":7275:7284   */\n      dup2\n        /* \"#utility.yul\":7269:7273   */\n      dup2\n        /* \"#utility.yul\":7265:7285   */\n      sub\n        /* \"#utility.yul\":7261:7262   */\n      0x00\n        /* \"#utility.yul\":7250:7259   */\n      dup4\n        /* \"#utility.yul\":7246:7263   */\n      add\n        /* \"#utility.yul\":7239:7286   */\n      mstore\n        /* \"#utility.yul\":7303:7434   */\n      tag_143\n        /* \"#utility.yul\":7429:7433   */\n      dup2\n        /* \"#utility.yul\":7303:7434   */\n      tag_71\n      jump\t// in\n    tag_143:\n        /* \"#utility.yul\":7295:7434   */\n      swap1\n      pop\n        /* \"#utility.yul\":7022:7441   */\n      swap2\n      swap1\n      pop\n      jump\t// out\n\n    auxdata: 0xa264697066735822122074c646c36c262440f733fb2753c14ed8344be1ec163d51b65aae0cea01df751264736f6c634300081e0033\n}\n",
				"bytecode": {
					"linkReferences": {},
					"object": "6080604052348015600e575f5ffd5b506108768061001c5f395ff3fe608060405234801561000f575f5ffd5b5060043610610029575f3560e01c8063cb159dfe1461002d575b5f5ffd5b6100476004803603810190610042919061059a565b61005d565b60405161005491906105f9565b60405180910390f35b5f5f8290505f815190505f811180156100775750600f8111155b6100b6576040517f08c379a00000000000000000000000000000000000000000000000000000000081526004016100ad90610692565b60405180910390fd5b5f5f90505f5f90505b8281101561016e575f6100ee8583815181106100de576100dd6106b0565b5b602001015160f81c60f81b6101cc565b90506001846100fd919061070a565b8210801561013b575061013885600184610117919061073d565b81518110610128576101276106b0565b5b602001015160f81c60f81b6101cc565b81105b1561015357808361014c919061070a565b9250610162565b808361015f919061073d565b92505b508060010190506100bf565b50600181101580156101825750610f9f8111155b6101c1576040517f08c379a00000000000000000000000000000000000000000000000000000000081526004016101b8906107ba565b60405180910390fd5b809350505050919050565b5f7f4900000000000000000000000000000000000000000000000000000000000000827effffffffffffffffffffffffffffffffffffffffffffffffffffffffffffff19160361021f5760019050610448565b7f5600000000000000000000000000000000000000000000000000000000000000827effffffffffffffffffffffffffffffffffffffffffffffffffffffffffffff1916036102715760059050610448565b7f5800000000000000000000000000000000000000000000000000000000000000827effffffffffffffffffffffffffffffffffffffffffffffffffffffffffffff1916036102c357600a9050610448565b7f4c00000000000000000000000000000000000000000000000000000000000000827effffffffffffffffffffffffffffffffffffffffffffffffffffffffffffff1916036103155760329050610448565b7f4300000000000000000000000000000000000000000000000000000000000000827effffffffffffffffffffffffffffffffffffffffffffffffffffffffffffff1916036103675760649050610448565b7f4400000000000000000000000000000000000000000000000000000000000000827effffffffffffffffffffffffffffffffffffffffffffffffffffffffffffff1916036103ba576101f49050610448565b7f4d00000000000000000000000000000000000000000000000000000000000000827effffffffffffffffffffffffffffffffffffffffffffffffffffffffffffff19160361040d576103e89050610448565b6040517f08c379a000000000000000000000000000000000000000000000000000000000815260040161043f90610822565b60405180910390fd5b919050565b5f604051905090565b5f5ffd5b5f5ffd5b5f5ffd5b5f5ffd5b5f601f19601f8301169050919050565b7f4e487b71000000000000000000000000000000000000000000000000000000005f52604160045260245ffd5b6104ac82610466565b810181811067ffffffffffffffff821117156104cb576104ca610476565b5b80604052505050565b5f6104dd61044d565b90506104e982826104a3565b919050565b5f67ffffffffffffffff82111561050857610507610476565b5b61051182610466565b9050602081019050919050565b828183375f83830152505050565b5f61053e610539846104ee565b6104d4565b90508281526020810184848401111561055a57610559610462565b5b61056584828561051e565b509392505050565b5f82601f8301126105815761058061045e565b5b813561059184826020860161052c565b91505092915050565b5f602082840312156105af576105ae610456565b5b5f82013567ffffffffffffffff8111156105cc576105cb61045a565b5b6105d88482850161056d565b91505092915050565b5f819050919050565b6105f3816105e1565b82525050565b5f60208201905061060c5f8301846105ea565b92915050565b5f82825260208201905092915050565b7f526f6d616e20537472206c656e677468206973206265206265747765656e20315f8201527f20746f2031352063686172616374657265730000000000000000000000000000602082015250565b5f61067c603283610612565b915061068782610622565b604082019050919050565b5f6020820190508181035f8301526106a981610670565b9050919050565b7f4e487b71000000000000000000000000000000000000000000000000000000005f52603260045260245ffd5b7f4e487b71000000000000000000000000000000000000000000000000000000005f52601160045260245ffd5b5f610714826105e1565b915061071f836105e1565b9250828203905081811115610737576107366106dd565b5b92915050565b5f610747826105e1565b9150610752836105e1565b925082820190508082111561076a576107696106dd565b5b92915050565b7f496e76616c696420526f6d616e206e756d6572616c2e000000000000000000005f82015250565b5f6107a4601683610612565b91506107af82610770565b602082019050919050565b5f6020820190508181035f8301526107d181610798565b9050919050565b7f496e76616c6964206368617220696e20526f6d616e206e756d6572616c2e00005f82015250565b5f61080c601e83610612565b9150610817826107d8565b602082019050919050565b5f6020820190508181035f83015261083981610800565b905091905056fea264697066735822122074c646c36c262440f733fb2753c14ed8344be1ec163d51b65aae0cea01df751264736f6c634300081e0033",
					"opcodes": "PUSH1 0x80 PUSH1 0x40 MSTORE CALLVALUE DUP1 ISZERO PUSH1 0xE JUMPI PUSH0 PUSH0 REVERT JUMPDEST POP PUSH2 0x876 DUP1 PUSH2 0x1C PUSH0 CODECOPY PUSH0 RETURN INVALID PUSH1 0x80 PUSH1 0x40 MSTORE CALLVALUE DUP1 ISZERO PUSH2 0xF JUMPI PUSH0 PUSH0 REVERT JUMPDEST POP PUSH1 0x4 CALLDATASIZE LT PUSH2 0x29 JUMPI PUSH0 CALLDATALOAD PUSH1 0xE0 SHR DUP1 PUSH4 0xCB159DFE EQ PUSH2 0x2D JUMPI JUMPDEST PUSH0 PUSH0 REVERT JUMPDEST PUSH2 0x47 PUSH1 0x4 DUP1 CALLDATASIZE SUB DUP2 ADD SWAP1 PUSH2 0x42 SWAP2 SWAP1 PUSH2 0x59A JUMP JUMPDEST PUSH2 0x5D JUMP JUMPDEST PUSH1 0x40 MLOAD PUSH2 0x54 SWAP2 SWAP1 PUSH2 0x5F9 JUMP JUMPDEST PUSH1 0x40 MLOAD DUP1 SWAP2 SUB SWAP1 RETURN JUMPDEST PUSH0 PUSH0 DUP3 SWAP1 POP PUSH0 DUP2 MLOAD SWAP1 POP PUSH0 DUP2 GT DUP1 ISZERO PUSH2 0x77 JUMPI POP PUSH1 0xF DUP2 GT ISZERO JUMPDEST PUSH2 0xB6 JUMPI PUSH1 0x40 MLOAD PUSH32 0x8C379A000000000000000000000000000000000000000000000000000000000 DUP2 MSTORE PUSH1 0x4 ADD PUSH2 0xAD SWAP1 PUSH2 0x692 JUMP JUMPDEST PUSH1 0x40 MLOAD DUP1 SWAP2 SUB SWAP1 REVERT JUMPDEST PUSH0 PUSH0 SWAP1 POP PUSH0 PUSH0 SWAP1 POP JUMPDEST DUP3 DUP2 LT ISZERO PUSH2 0x16E JUMPI PUSH0 PUSH2 0xEE DUP6 DUP4 DUP2 MLOAD DUP2 LT PUSH2 0xDE JUMPI PUSH2 0xDD PUSH2 0x6B0 JUMP JUMPDEST JUMPDEST PUSH1 0x20 ADD ADD MLOAD PUSH1 0xF8 SHR PUSH1 0xF8 SHL PUSH2 0x1CC JUMP JUMPDEST SWAP1 POP PUSH1 0x1 DUP5 PUSH2 0xFD SWAP2 SWAP1 PUSH2 0x70A JUMP JUMPDEST DUP3 LT DUP1 ISZERO PUSH2 0x13B JUMPI POP PUSH2 0x138 DUP6 PUSH1 0x1 DUP5 PUSH2 0x117 SWAP2 SWAP1 PUSH2 0x73D JUMP JUMPDEST DUP2 MLOAD DUP2 LT PUSH2 0x128 JUMPI PUSH2 0x127 PUSH2 0x6B0 JUMP JUMPDEST JUMPDEST PUSH1 0x20 ADD ADD MLOAD PUSH1 0xF8 SHR PUSH1 0xF8 SHL PUSH2 0x1CC JUMP JUMPDEST DUP2 LT JUMPDEST ISZERO PUSH2 0x153 JUMPI DUP1 DUP4 PUSH2 0x14C SWAP2 SWAP1 PUSH2 0x70A JUMP JUMPDEST SWAP3 POP PUSH2 0x162 JUMP JUMPDEST DUP1 DUP4 PUSH2 0x15F SWAP2 SWAP1 PUSH2 0x73D JUMP JUMPDEST SWAP3 POP JUMPDEST POP DUP1 PUSH1 0x1 ADD SWAP1 POP PUSH2 0xBF JUMP JUMPDEST POP PUSH1 0x1 DUP2 LT ISZERO DUP1 ISZERO PUSH2 0x182 JUMPI POP PUSH2 0xF9F DUP2 GT ISZERO JUMPDEST PUSH2 0x1C1 JUMPI PUSH1 0x40 MLOAD PUSH32 0x8C379A000000000000000000000000000000000000000000000000000000000 DUP2 MSTORE PUSH1 0x4 ADD PUSH2 0x1B8 SWAP1 PUSH2 0x7BA JUMP JUMPDEST PUSH1 0x40 MLOAD DUP1 SWAP2 SUB SWAP1 REVERT JUMPDEST DUP1 SWAP4 POP POP POP POP SWAP2 SWAP1 POP JUMP JUMPDEST PUSH0 PUSH32 0x4900000000000000000000000000000000000000000000000000000000000000 DUP3 PUSH31 0xFFFFFFFFFFFFFFFFFFFFFFFFFFFFFFFFFFFFFFFFFFFFFFFFFFFFFFFFFFFFFF NOT AND SUB PUSH2 0x21F JUMPI PUSH1 0x1 SWAP1 POP PUSH2 0x448 JUMP JUMPDEST PUSH32 0x5600000000000000000000000000000000000000000000000000000000000000 DUP3 PUSH31 0xFFFFFFFFFFFFFFFFFFFFFFFFFFFFFFFFFFFFFFFFFFFFFFFFFFFFFFFFFFFFFF NOT AND SUB PUSH2 0x271 JUMPI PUSH1 0x5 SWAP1 POP PUSH2 0x448 JUMP JUMPDEST PUSH32 0x5800000000000000000000000000000000000000000000000000000000000000 DUP3 PUSH31 0xFFFFFFFFFFFFFFFFFFFFFFFFFFFFFFFFFFFFFFFFFFFFFFFFFFFFFFFFFFFFFF NOT AND SUB PUSH2 0x2C3 JUMPI PUSH1 0xA SWAP1 POP PUSH2 0x448 JUMP JUMPDEST PUSH32 0x4C00000000000000000000000000000000000000000000000000000000000000 DUP3 PUSH31 0xFFFFFFFFFFFFFFFFFFFFFFFFFFFFFFFFFFFFFFFFFFFFFFFFFFFFFFFFFFFFFF NOT AND SUB PUSH2 0x315 JUMPI PUSH1 0x32 SWAP1 POP PUSH2 0x448 JUMP JUMPDEST PUSH32 0x4300000000000000000000000000000000000000000000000000000000000000 DUP3 PUSH31 0xFFFFFFFFFFFFFFFFFFFFFFFFFFFFFFFFFFFFFFFFFFFFFFFFFFFFFFFFFFFFFF NOT AND SUB PUSH2 0x367 JUMPI PUSH1 0x64 SWAP1 POP PUSH2 0x448 JUMP JUMPDEST PUSH32 0x4400000000000000000000000000000000000000000000000000000000000000 DUP3 PUSH31 0xFFFFFFFFFFFFFFFFFFFFFFFFFFFFFFFFFFFFFFFFFFFFFFFFFFFFFFFFFFFFFF NOT AND SUB PUSH2 0x3BA JUMPI PUSH2 0x1F4 SWAP1 POP PUSH2 0x448 JUMP JUMPDEST PUSH32 0x4D00000000000000000000000000000000000000000000000000000000000000 DUP3 PUSH31 0xFFFFFFFFFFFFFFFFFFFFFFFFFFFFFFFFFFFFFFFFFFFFFFFFFFFFFFFFFFFFFF NOT AND SUB PUSH2 0x40D JUMPI PUSH2 0x3E8 SWAP1 POP PUSH2 0x448 JUMP JUMPDEST PUSH1 0x40 MLOAD PUSH32 0x8C379A000000000000000000000000000000000000000000000000000000000 DUP2 MSTORE PUSH1 0x4 ADD PUSH2 0x43F SWAP1 PUSH2 0x822 JUMP JUMPDEST PUSH1 0x40 MLOAD DUP1 SWAP2 SUB SWAP1 REVERT JUMPDEST SWAP2 SWAP1 POP JUMP JUMPDEST PUSH0 PUSH1 0x40 MLOAD SWAP1 POP SWAP1 JUMP JUMPDEST PUSH0 PUSH0 REVERT JUMPDEST PUSH0 PUSH0 REVERT JUMPDEST PUSH0 PUSH0 REVERT JUMPDEST PUSH0 PUSH0 REVERT JUMPDEST PUSH0 PUSH1 0x1F NOT PUSH1 0x1F DUP4 ADD AND SWAP1 POP SWAP2 SWAP1 POP JUMP JUMPDEST PUSH32 0x4E487B7100000000000000000000000000000000000000000000000000000000 PUSH0 MSTORE PUSH1 0x41 PUSH1 0x4 MSTORE PUSH1 0x24 PUSH0 REVERT JUMPDEST PUSH2 0x4AC DUP3 PUSH2 0x466 JUMP JUMPDEST DUP2 ADD DUP2 DUP2 LT PUSH8 0xFFFFFFFFFFFFFFFF DUP3 GT OR ISZERO PUSH2 0x4CB JUMPI PUSH2 0x4CA PUSH2 0x476 JUMP JUMPDEST JUMPDEST DUP1 PUSH1 0x40 MSTORE POP POP POP JUMP JUMPDEST PUSH0 PUSH2 0x4DD PUSH2 0x44D JUMP JUMPDEST SWAP1 POP PUSH2 0x4E9 DUP3 DUP3 PUSH2 0x4A3 JUMP JUMPDEST SWAP2 SWAP1 POP JUMP JUMPDEST PUSH0 PUSH8 0xFFFFFFFFFFFFFFFF DUP3 GT ISZERO PUSH2 0x508 JUMPI PUSH2 0x507 PUSH2 0x476 JUMP JUMPDEST JUMPDEST PUSH2 0x511 DUP3 PUSH2 0x466 JUMP JUMPDEST SWAP1 POP PUSH1 0x20 DUP2 ADD SWAP1 POP SWAP2 SWAP1 POP JUMP JUMPDEST DUP3 DUP2 DUP4 CALLDATACOPY PUSH0 DUP4 DUP4 ADD MSTORE POP POP POP JUMP JUMPDEST PUSH0 PUSH2 0x53E PUSH2 0x539 DUP5 PUSH2 0x4EE JUMP JUMPDEST PUSH2 0x4D4 JUMP JUMPDEST SWAP1 POP DUP3 DUP2 MSTORE PUSH1 0x20 DUP2 ADD DUP5 DUP5 DUP5 ADD GT ISZERO PUSH2 0x55A JUMPI PUSH2 0x559 PUSH2 0x462 JUMP JUMPDEST JUMPDEST PUSH2 0x565 DUP5 DUP3 DUP6 PUSH2 0x51E JUMP JUMPDEST POP SWAP4 SWAP3 POP POP POP JUMP JUMPDEST PUSH0 DUP3 PUSH1 0x1F DUP4 ADD SLT PUSH2 0x581 JUMPI PUSH2 0x580 PUSH2 0x45E JUMP JUMPDEST JUMPDEST DUP2 CALLDATALOAD PUSH2 0x591 DUP5 DUP3 PUSH1 0x20 DUP7 ADD PUSH2 0x52C JUMP JUMPDEST SWAP2 POP POP SWAP3 SWAP2 POP POP JUMP JUMPDEST PUSH0 PUSH1 0x20 DUP3 DUP5 SUB SLT ISZERO PUSH2 0x5AF JUMPI PUSH2 0x5AE PUSH2 0x456 JUMP JUMPDEST JUMPDEST PUSH0 DUP3 ADD CALLDATALOAD PUSH8 0xFFFFFFFFFFFFFFFF DUP2 GT ISZERO PUSH2 0x5CC JUMPI PUSH2 0x5CB PUSH2 0x45A JUMP JUMPDEST JUMPDEST PUSH2 0x5D8 DUP5 DUP3 DUP6 ADD PUSH2 0x56D JUMP JUMPDEST SWAP2 POP POP SWAP3 SWAP2 POP POP JUMP JUMPDEST PUSH0 DUP2 SWAP1 POP SWAP2 SWAP1 POP JUMP JUMPDEST PUSH2 0x5F3 DUP2 PUSH2 0x5E1 JUMP JUMPDEST DUP3 MSTORE POP POP JUMP JUMPDEST PUSH0 PUSH1 0x20 DUP3 ADD SWAP1 POP PUSH2 0x60C PUSH0 DUP4 ADD DUP5 PUSH2 0x5EA JUMP JUMPDEST SWAP3 SWAP2 POP POP JUMP JUMPDEST PUSH0 DUP3 DUP3 MSTORE PUSH1 0x20 DUP3 ADD SWAP1 POP SWAP3 SWAP2 POP POP JUMP JUMPDEST PUSH32 0x526F6D616E20537472206C656E677468206973206265206265747765656E2031 PUSH0 DUP3 ADD MSTORE PUSH32 0x20746F2031352063686172616374657265730000000000000000000000000000 PUSH1 0x20 DUP3 ADD MSTORE POP JUMP JUMPDEST PUSH0 PUSH2 0x67C PUSH1 0x32 DUP4 PUSH2 0x612 JUMP JUMPDEST SWAP2 POP PUSH2 0x687 DUP3 PUSH2 0x622 JUMP JUMPDEST PUSH1 0x40 DUP3 ADD SWAP1 POP SWAP2 SWAP1 POP JUMP JUMPDEST PUSH0 PUSH1 0x20 DUP3 ADD SWAP1 POP DUP2 DUP2 SUB PUSH0 DUP4 ADD MSTORE PUSH2 0x6A9 DUP2 PUSH2 0x670 JUMP JUMPDEST SWAP1 POP SWAP2 SWAP1 POP JUMP JUMPDEST PUSH32 0x4E487B7100000000000000000000000000000000000000000000000000000000 PUSH0 MSTORE PUSH1 0x32 PUSH1 0x4 MSTORE PUSH1 0x24 PUSH0 REVERT JUMPDEST PUSH32 0x4E487B7100000000000000000000000000000000000000000000000000000000 PUSH0 MSTORE PUSH1 0x11 PUSH1 0x4 MSTORE PUSH1 0x24 PUSH0 REVERT JUMPDEST PUSH0 PUSH2 0x714 DUP3 PUSH2 0x5E1 JUMP JUMPDEST SWAP2 POP PUSH2 0x71F DUP4 PUSH2 0x5E1 JUMP JUMPDEST SWAP3 POP DUP3 DUP3 SUB SWAP1 POP DUP2 DUP2 GT ISZERO PUSH2 0x737 JUMPI PUSH2 0x736 PUSH2 0x6DD JUMP JUMPDEST JUMPDEST SWAP3 SWAP2 POP POP JUMP JUMPDEST PUSH0 PUSH2 0x747 DUP3 PUSH2 0x5E1 JUMP JUMPDEST SWAP2 POP PUSH2 0x752 DUP4 PUSH2 0x5E1 JUMP JUMPDEST SWAP3 POP DUP3 DUP3 ADD SWAP1 POP DUP1 DUP3 GT ISZERO PUSH2 0x76A JUMPI PUSH2 0x769 PUSH2 0x6DD JUMP JUMPDEST JUMPDEST SWAP3 SWAP2 POP POP JUMP JUMPDEST PUSH32 0x496E76616C696420526F6D616E206E756D6572616C2E00000000000000000000 PUSH0 DUP3 ADD MSTORE POP JUMP JUMPDEST PUSH0 PUSH2 0x7A4 PUSH1 0x16 DUP4 PUSH2 0x612 JUMP JUMPDEST SWAP2 POP PUSH2 0x7AF DUP3 PUSH2 0x770 JUMP JUMPDEST PUSH1 0x20 DUP3 ADD SWAP1 POP SWAP2 SWAP1 POP JUMP JUMPDEST PUSH0 PUSH1 0x20 DUP3 ADD SWAP1 POP DUP2 DUP2 SUB PUSH0 DUP4 ADD MSTORE PUSH2 0x7D1 DUP2 PUSH2 0x798 JUMP JUMPDEST SWAP1 POP SWAP2 SWAP1 POP JUMP JUMPDEST PUSH32 0x496E76616C6964206368617220696E20526F6D616E206E756D6572616C2E0000 PUSH0 DUP3 ADD MSTORE POP JUMP JUMPDEST PUSH0 PUSH2 0x80C PUSH1 0x1E DUP4 PUSH2 0x612 JUMP JUMPDEST SWAP2 POP PUSH2 0x817 DUP3 PUSH2 0x7D8 JUMP JUMPDEST PUSH1 0x20 DUP3 ADD SWAP1 POP SWAP2 SWAP1 POP JUMP JUMPDEST PUSH0 PUSH1 0x20 DUP3 ADD SWAP1 POP DUP2 DUP2 SUB PUSH0 DUP4 ADD MSTORE PUSH2 0x839 DUP2 PUSH2 0x800 JUMP JUMPDEST SWAP1 POP SWAP2 SWAP1 POP JUMP INVALID LOG2 PUSH5 0x6970667358 0x22 SLT KECCAK256 PUSH21 0xC646C36C262440F733FB2753C14ED8344BE1EC163D MLOAD 0xB6 GAS 0xAE 0xC 0xEA ADD 0xDF PUSH22 0x1264736F6C634300081E003300000000000000000000 "
				},
				"gasEstimates": {
					"creation": {
						"codeDepositCost": "433200",
						"executionCost": "466",
						"totalCost": "433666"
					},
					"external": {
						"romanToInt(string)": "infinite"
					},
					"internal": {
						"getValue(bytes1)": "infinite"
					}
				},
				"methodIdentifiers": {
					"romanToInt(string)": "cb159dfe"
				}
			},
			"storageLayout": {
				"storage": [],
				"types": null
			},
			"userdoc": {
				"kind": "user",
				"methods": {},
				"version": 1
			}
		}
	}
}