{
	"task1/Int2Roman.sol": {
		"Int2Roman": {
			"abi": [
				{
					"inputs": [
						{
							"internalType": "uint256",
							"name": "_num",
							"type": "uint256"
						}
					],
					"name": "intToRoman",
					"outputs": [
						{
							"internalType": "string",
							"name": "",
							"type": "string"
						}
					],
					"stateMutability": "pure",
					"type": "function"
				}
			],
			"devdoc": {
				"kind": "dev",
				"methods": {},
				"version": 1
			},
			"evm": {
				"assembly": "    /* \"task1/Int2Roman.sol\":67:1264  contract Int2Roman {... */\n  mstore(0x40, 0x80)\n  callvalue\n  dup1\n  iszero\n  tag_1\n  jumpi\n  revert(0x00, 0x00)\ntag_1:\n  pop\n  dataSize(sub_0)\n  dup1\n  dataOffset(sub_0)\n  0x00\n  codecopy\n  0x00\n  return\nstop\n\nsub_0: assembly {\n        /* \"task1/Int2Roman.sol\":67:1264  contract Int2Roman {... */\n      mstore(0x40, 0x80)\n      callvalue\n      dup1\n      iszero\n      tag_1\n      jumpi\n      revert(0x00, 0x00)\n    tag_1:\n      pop\n      jumpi(tag_2, lt(calldatasize, 0x04))\n      shr(0xe0, calldataload(0x00))\n      dup1\n      0x0cbc513a\n      eq\n      tag_3\n      jumpi\n    tag_2:\n      revert(0x00, 0x00)\n        /* \"task1/Int2Roman.sol\":93:1261  function intToRoman(uint256 _num) public pure returns (string memory) {... */\n    tag_3:\n      tag_4\n      0x04\n      dup1\n      calldatasize\n      sub\n      dup2\n      add\n      swap1\n      tag_5\n      swap2\n      swap1\n      tag_6\n      jump\t// in\n    tag_5:\n      tag_7\n      jump\t// in\n    tag_4:\n      mload(0x40)\n      tag_8\n      swap2\n      swap1\n      tag_9\n      jump\t// in\n    tag_8:\n      mload(0x40)\n      dup1\n      swap2\n      sub\n      swap1\n      return\n    tag_7:\n        /* \"task1/Int2Roman.sol\":148:161  string memory */\n      0x60\n        /* \"task1/Int2Roman.sol\":190:191  1 */\n      0x01\n        /* \"task1/Int2Roman.sol\":182:186  _num */\n      dup3\n        /* \"task1/Int2Roman.sol\":182:191  _num >= 1 */\n      lt\n      iszero\n        /* \"task1/Int2Roman.sol\":182:207  _num >= 1 && _num <= 3999 */\n      dup1\n      iszero\n      tag_11\n      jumpi\n      pop\n        /* \"task1/Int2Roman.sol\":203:207  3999 */\n      0x0f9f\n        /* \"task1/Int2Roman.sol\":195:199  _num */\n      dup3\n        /* \"task1/Int2Roman.sol\":195:207  _num <= 3999 */\n      gt\n      iszero\n        /* \"task1/Int2Roman.sol\":182:207  _num >= 1 && _num <= 3999 */\n    tag_11:\n        /* \"task1/Int2Roman.sol\":174:246  require(_num >= 1 && _num <= 3999, \"Number must be between 1 and 3999.\") */\n      tag_12\n      jumpi\n      mload(0x40)\n      0x08c379a000000000000000000000000000000000000000000000000000000000\n      dup2\n      mstore\n      0x04\n      add\n      tag_13\n      swap1\n      tag_14\n      jump\t// in\n    tag_13:\n      mload(0x40)\n      dup1\n      swap2\n      sub\n      swap1\n      revert\n    tag_12:\n        /* \"task1/Int2Roman.sol\":257:280  uint256[] memory values */\n      0x00\n        /* \"task1/Int2Roman.sol\":297:299  13 */\n      0x0d\n        /* \"task1/Int2Roman.sol\":283:300  new uint256[](13) */\n      0xffffffffffffffff\n      dup2\n      gt\n      iszero\n      tag_15\n      jumpi\n      tag_16\n      tag_17\n      jump\t// in\n    tag_16:\n    tag_15:\n      mload(0x40)\n      swap1\n      dup1\n      dup3\n      mstore\n      dup1\n      0x20\n      mul\n      0x20\n      add\n      dup3\n      add\n      0x40\n      mstore\n      dup1\n      iszero\n      tag_18\n      jumpi\n      dup2\n      0x20\n      add\n      0x20\n      dup3\n      mul\n      dup1\n      calldatasize\n      dup4\n      calldatacopy\n      dup1\n      dup3\n      add\n      swap2\n      pop\n      pop\n      swap1\n      pop\n    tag_18:\n      pop\n        /* \"task1/Int2Roman.sol\":257:300  uint256[] memory values = new uint256[](13) */\n      swap1\n      pop\n        /* \"task1/Int2Roman.sol\":311:334  string[] memory symbols */\n      0x00\n        /* \"task1/Int2Roman.sol\":350:352  13 */\n      0x0d\n        /* \"task1/Int2Roman.sol\":337:353  new string[](13) */\n      0xffffffffffffffff\n      dup2\n      gt\n      iszero\n      tag_19\n      jumpi\n      tag_20\n      tag_17\n      jump\t// in\n    tag_20:\n    tag_19:\n      mload(0x40)\n      swap1\n      dup1\n      dup3\n      mstore\n      dup1\n      0x20\n      mul\n      0x20\n      add\n      dup3\n      add\n      0x40\n      mstore\n      dup1\n      iszero\n      tag_21\n      jumpi\n      dup2\n      0x20\n      add\n    tag_22:\n      0x60\n      dup2\n      mstore\n      0x20\n      add\n      swap1\n      0x01\n      swap1\n      sub\n      swap1\n      dup2\n      tag_22\n      jumpi\n      swap1\n      pop\n    tag_21:\n      pop\n        /* \"task1/Int2Roman.sol\":311:353  string[] memory symbols = new string[](13) */\n      swap1\n      pop\n        /* \"task1/Int2Roman.sol\":376:380  1000 */\n      0x03e8\n        /* \"task1/Int2Roman.sol\":364:370  values */\n      dup3\n        /* \"task1/Int2Roman.sol\":371:372  0 */\n      0x00\n        /* \"task1/Int2Roman.sol\":364:373  values[0] */\n      dup2\n      mload\n      dup2\n      lt\n      tag_23\n      jumpi\n      tag_24\n      tag_25\n      jump\t// in\n    tag_24:\n    tag_23:\n      0x20\n      mul\n      0x20\n      add\n      add\n        /* \"task1/Int2Roman.sol\":364:380  values[0] = 1000 */\n      dup2\n      dup2\n      mstore\n      pop\n      pop\n        /* \"task1/Int2Roman.sol\":382:398  symbols[0] = \"M\" */\n      mload(0x40)\n      dup1\n      0x40\n      add\n      0x40\n      mstore\n      dup1\n      0x01\n      dup2\n      mstore\n      0x20\n      add\n      0x4d00000000000000000000000000000000000000000000000000000000000000\n      dup2\n      mstore\n      pop\n        /* \"task1/Int2Roman.sol\":382:389  symbols */\n      dup2\n        /* \"task1/Int2Roman.sol\":390:391  0 */\n      0x00\n        /* \"task1/Int2Roman.sol\":382:392  symbols[0] */\n      dup2\n      mload\n      dup2\n      lt\n      tag_26\n      jumpi\n      tag_27\n      tag_25\n      jump\t// in\n    tag_27:\n    tag_26:\n      0x20\n      mul\n      0x20\n      add\n      add\n        /* \"task1/Int2Roman.sol\":382:398  symbols[0] = \"M\" */\n      dup2\n      swap1\n      mstore\n      pop\n        /* \"task1/Int2Roman.sol\":421:424  900 */\n      0x0384\n        /* \"task1/Int2Roman.sol\":409:415  values */\n      dup3\n        /* \"task1/Int2Roman.sol\":416:417  1 */\n      0x01\n        /* \"task1/Int2Roman.sol\":409:418  values[1] */\n      dup2\n      mload\n      dup2\n      lt\n      tag_28\n      jumpi\n      tag_29\n      tag_25\n      jump\t// in\n    tag_29:\n    tag_28:\n      0x20\n      mul\n      0x20\n      add\n      add\n        /* \"task1/Int2Roman.sol\":409:424  values[1] = 900 */\n      dup2\n      dup2\n      mstore\n      pop\n      pop\n        /* \"task1/Int2Roman.sol\":426:443  symbols[1] = \"CM\" */\n      mload(0x40)\n      dup1\n      0x40\n      add\n      0x40\n      mstore\n      dup1\n      0x02\n      dup2\n      mstore\n      0x20\n      add\n      0x434d000000000000000000000000000000000000000000000000000000000000\n      dup2\n      mstore\n      pop\n        /* \"task1/Int2Roman.sol\":426:433  symbols */\n      dup2\n        /* \"task1/Int2Roman.sol\":434:435  1 */\n      0x01\n        /* \"task1/Int2Roman.sol\":426:436  symbols[1] */\n      dup2\n      mload\n      dup2\n      lt\n      tag_30\n      jumpi\n      tag_31\n      tag_25\n      jump\t// in\n    tag_31:\n    tag_30:\n      0x20\n      mul\n      0x20\n      add\n      add\n        /* \"task1/Int2Roman.sol\":426:443  symbols[1] = \"CM\" */\n      dup2\n      swap1\n      mstore\n      pop\n        /* \"task1/Int2Roman.sol\":466:469  500 */\n      0x01f4\n        /* \"task1/Int2Roman.sol\":454:460  values */\n      dup3\n        /* \"task1/Int2Roman.sol\":461:462  2 */\n      0x02\n        /* \"task1/Int2Roman.sol\":454:463  values[2] */\n      dup2\n      mload\n      dup2\n      lt\n      tag_32\n      jumpi\n      tag_33\n      tag_25\n      jump\t// in\n    tag_33:\n    tag_32:\n      0x20\n      mul\n      0x20\n      add\n      add\n        /* \"task1/Int2Roman.sol\":454:469  values[2] = 500 */\n      dup2\n      dup2\n      mstore\n      pop\n      pop\n        /* \"task1/Int2Roman.sol\":471:487  symbols[2] = \"D\" */\n      mload(0x40)\n      dup1\n      0x40\n      add\n      0x40\n      mstore\n      dup1\n      0x01\n      dup2\n      mstore\n      0x20\n      add\n      0x4400000000000000000000000000000000000000000000000000000000000000\n      dup2\n      mstore\n      pop\n        /* \"task1/Int2Roman.sol\":471:478  symbols */\n      dup2\n        /* \"task1/Int2Roman.sol\":479:480  2 */\n      0x02\n        /* \"task1/Int2Roman.sol\":471:481  symbols[2] */\n      dup2\n      mload\n      dup2\n      lt\n      tag_34\n      jumpi\n      tag_35\n      tag_25\n      jump\t// in\n    tag_35:\n    tag_34:\n      0x20\n      mul\n      0x20\n      add\n      add\n        /* \"task1/Int2Roman.sol\":471:487  symbols[2] = \"D\" */\n      dup2\n      swap1\n      mstore\n      pop\n        /* \"task1/Int2Roman.sol\":510:513  400 */\n      0x0190\n        /* \"task1/Int2Roman.sol\":498:504  values */\n      dup3\n        /* \"task1/Int2Roman.sol\":505:506  3 */\n      0x03\n        /* \"task1/Int2Roman.sol\":498:507  values[3] */\n      dup2\n      mload\n      dup2\n      lt\n      tag_36\n      jumpi\n      tag_37\n      tag_25\n      jump\t// in\n    tag_37:\n    tag_36:\n      0x20\n      mul\n      0x20\n      add\n      add\n        /* \"task1/Int2Roman.sol\":498:513  values[3] = 400 */\n      dup2\n      dup2\n      mstore\n      pop\n      pop\n        /* \"task1/Int2Roman.sol\":515:532  symbols[3] = \"CD\" */\n      mload(0x40)\n      dup1\n      0x40\n      add\n      0x40\n      mstore\n      dup1\n      0x02\n      dup2\n      mstore\n      0x20\n      add\n      0x4344000000000000000000000000000000000000000000000000000000000000\n      dup2\n      mstore\n      pop\n        /* \"task1/Int2Roman.sol\":515:522  symbols */\n      dup2\n        /* \"task1/Int2Roman.sol\":523:524  3 */\n      0x03\n        /* \"task1/Int2Roman.sol\":515:525  symbols[3] */\n      dup2\n      mload\n      dup2\n      lt\n      tag_38\n      jumpi\n      tag_39\n      tag_25\n      jump\t// in\n    tag_39:\n    tag_38:\n      0x20\n      mul\n      0x20\n      add\n      add\n        /* \"task1/Int2Roman.sol\":515:532  symbols[3] = \"CD\" */\n      dup2\n      swap1\n      mstore\n      pop\n        /* \"task1/Int2Roman.sol\":555:558  100 */\n      0x64\n        /* \"task1/Int2Roman.sol\":543:549  values */\n      dup3\n        /* \"task1/Int2Roman.sol\":550:551  4 */\n      0x04\n        /* \"task1/Int2Roman.sol\":543:552  values[4] */\n      dup2\n      mload\n      dup2\n      lt\n      tag_40\n      jumpi\n      tag_41\n      tag_25\n      jump\t// in\n    tag_41:\n    tag_40:\n      0x20\n      mul\n      0x20\n      add\n      add\n        /* \"task1/Int2Roman.sol\":543:558  values[4] = 100 */\n      dup2\n      dup2\n      mstore\n      pop\n      pop\n        /* \"task1/Int2Roman.sol\":560:576  symbols[4] = \"C\" */\n      mload(0x40)\n      dup1\n      0x40\n      add\n      0x40\n      mstore\n      dup1\n      0x01\n      dup2\n      mstore\n      0x20\n      add\n      0x4300000000000000000000000000000000000000000000000000000000000000\n      dup2\n      mstore\n      pop\n        /* \"task1/Int2Roman.sol\":560:567  symbols */\n      dup2\n        /* \"task1/Int2Roman.sol\":568:569  4 */\n      0x04\n        /* \"task1/Int2Roman.sol\":560:570  symbols[4] */\n      dup2\n      mload\n      dup2\n      lt\n      tag_42\n      jumpi\n      tag_43\n      tag_25\n      jump\t// in\n    tag_43:\n    tag_42:\n      0x20\n      mul\n      0x20\n      add\n      add\n        /* \"task1/Int2Roman.sol\":560:576  symbols[4] = \"C\" */\n      dup2\n      swap1\n      mstore\n      pop\n        /* \"task1/Int2Roman.sol\":599:601  90 */\n      0x5a\n        /* \"task1/Int2Roman.sol\":587:593  values */\n      dup3\n        /* \"task1/Int2Roman.sol\":594:595  5 */\n      0x05\n        /* \"task1/Int2Roman.sol\":587:596  values[5] */\n      dup2\n      mload\n      dup2\n      lt\n      tag_44\n      jumpi\n      tag_45\n      tag_25\n      jump\t// in\n    tag_45:\n    tag_44:\n      0x20\n      mul\n      0x20\n      add\n      add\n        /* \"task1/Int2Roman.sol\":587:601  values[5] = 90 */\n      dup2\n      dup2\n      mstore\n      pop\n      pop\n        /* \"task1/Int2Roman.sol\":603:620  symbols[5] = \"XC\" */\n      mload(0x40)\n      dup1\n      0x40\n      add\n      0x40\n      mstore\n      dup1\n      0x02\n      dup2\n      mstore\n      0x20\n      add\n      0x5843000000000000000000000000000000000000000000000000000000000000\n      dup2\n      mstore\n      pop\n        /* \"task1/Int2Roman.sol\":603:610  symbols */\n      dup2\n        /* \"task1/Int2Roman.sol\":611:612  5 */\n      0x05\n        /* \"task1/Int2Roman.sol\":603:613  symbols[5] */\n      dup2\n      mload\n      dup2\n      lt\n      tag_46\n      jumpi\n      tag_47\n      tag_25\n      jump\t// in\n    tag_47:\n    tag_46:\n      0x20\n      mul\n      0x20\n      add\n      add\n        /* \"task1/Int2Roman.sol\":603:620  symbols[5] = \"XC\" */\n      dup2\n      swap1\n      mstore\n      pop\n        /* \"task1/Int2Roman.sol\":643:645  50 */\n      0x32\n        /* \"task1/Int2Roman.sol\":631:637  values */\n      dup3\n        /* \"task1/Int2Roman.sol\":638:639  6 */\n      0x06\n        /* \"task1/Int2Roman.sol\":631:640  values[6] */\n      dup2\n      mload\n      dup2\n      lt\n      tag_48\n      jumpi\n      tag_49\n      tag_25\n      jump\t// in\n    tag_49:\n    tag_48:\n      0x20\n      mul\n      0x20\n      add\n      add\n        /* \"task1/Int2Roman.sol\":631:645  values[6] = 50 */\n      dup2\n      dup2\n      mstore\n      pop\n      pop\n        /* \"task1/Int2Roman.sol\":647:663  symbols[6] = \"L\" */\n      mload(0x40)\n      dup1\n      0x40\n      add\n      0x40\n      mstore\n      dup1\n      0x01\n      dup2\n      mstore\n      0x20\n      add\n      0x4c00000000000000000000000000000000000000000000000000000000000000\n      dup2\n      mstore\n      pop\n        /* \"task1/Int2Roman.sol\":647:654  symbols */\n      dup2\n        /* \"task1/Int2Roman.sol\":655:656  6 */\n      0x06\n        /* \"task1/Int2Roman.sol\":647:657  symbols[6] */\n      dup2\n      mload\n      dup2\n      lt\n      tag_50\n      jumpi\n      tag_51\n      tag_25\n      jump\t// in\n    tag_51:\n    tag_50:\n      0x20\n      mul\n      0x20\n      add\n      add\n        /* \"task1/Int2Roman.sol\":647:663  symbols[6] = \"L\" */\n      dup2\n      swap1\n      mstore\n      pop\n        /* \"task1/Int2Roman.sol\":686:688  40 */\n      0x28\n        /* \"task1/Int2Roman.sol\":674:680  values */\n      dup3\n        /* \"task1/Int2Roman.sol\":681:682  7 */\n      0x07\n        /* \"task1/Int2Roman.sol\":674:683  values[7] */\n      dup2\n      mload\n      dup2\n      lt\n      tag_52\n      jumpi\n      tag_53\n      tag_25\n      jump\t// in\n    tag_53:\n    tag_52:\n      0x20\n      mul\n      0x20\n      add\n      add\n        /* \"task1/Int2Roman.sol\":674:688  values[7] = 40 */\n      dup2\n      dup2\n      mstore\n      pop\n      pop\n        /* \"task1/Int2Roman.sol\":690:707  symbols[7] = \"XL\" */\n      mload(0x40)\n      dup1\n      0x40\n      add\n      0x40\n      mstore\n      dup1\n      0x02\n      dup2\n      mstore\n      0x20\n      add\n      0x584c000000000000000000000000000000000000000000000000000000000000\n      dup2\n      mstore\n      pop\n        /* \"task1/Int2Roman.sol\":690:697  symbols */\n      dup2\n        /* \"task1/Int2Roman.sol\":698:699  7 */\n      0x07\n        /* \"task1/Int2Roman.sol\":690:700  symbols[7] */\n      dup2\n      mload\n      dup2\n      lt\n      tag_54\n      jumpi\n      tag_55\n      tag_25\n      jump\t// in\n    tag_55:\n    tag_54:\n      0x20\n      mul\n      0x20\n      add\n      add\n        /* \"task1/Int2Roman.sol\":690:707  symbols[7] = \"XL\" */\n      dup2\n      swap1\n      mstore\n      pop\n        /* \"task1/Int2Roman.sol\":730:732  10 */\n      0x0a\n        /* \"task1/Int2Roman.sol\":718:724  values */\n      dup3\n        /* \"task1/Int2Roman.sol\":725:726  8 */\n      0x08\n        /* \"task1/Int2Roman.sol\":718:727  values[8] */\n      dup2\n      mload\n      dup2\n      lt\n      tag_56\n      jumpi\n      tag_57\n      tag_25\n      jump\t// in\n    tag_57:\n    tag_56:\n      0x20\n      mul\n      0x20\n      add\n      add\n        /* \"task1/Int2Roman.sol\":718:732  values[8] = 10 */\n      dup2\n      dup2\n      mstore\n      pop\n      pop\n        /* \"task1/Int2Roman.sol\":734:750  symbols[8] = \"X\" */\n      mload(0x40)\n      dup1\n      0x40\n      add\n      0x40\n      mstore\n      dup1\n      0x01\n      dup2\n      mstore\n      0x20\n      add\n      0x5800000000000000000000000000000000000000000000000000000000000000\n      dup2\n      mstore\n      pop\n        /* \"task1/Int2Roman.sol\":734:741  symbols */\n      dup2\n        /* \"task1/Int2Roman.sol\":742:743  8 */\n      0x08\n        /* \"task1/Int2Roman.sol\":734:744  symbols[8] */\n      dup2\n      mload\n      dup2\n      lt\n      tag_58\n      jumpi\n      tag_59\n      tag_25\n      jump\t// in\n    tag_59:\n    tag_58:\n      0x20\n      mul\n      0x20\n      add\n      add\n        /* \"task1/Int2Roman.sol\":734:750  symbols[8] = \"X\" */\n      dup2\n      swap1\n      mstore\n      pop\n        /* \"task1/Int2Roman.sol\":773:774  9 */\n      0x09\n        /* \"task1/Int2Roman.sol\":761:767  values */\n      dup3\n        /* \"task1/Int2Roman.sol\":768:769  9 */\n      0x09\n        /* \"task1/Int2Roman.sol\":761:770  values[9] */\n      dup2\n      mload\n      dup2\n      lt\n      tag_60\n      jumpi\n      tag_61\n      tag_25\n      jump\t// in\n    tag_61:\n    tag_60:\n      0x20\n      mul\n      0x20\n      add\n      add\n        /* \"task1/Int2Roman.sol\":761:774  values[9] = 9 */\n      dup2\n      dup2\n      mstore\n      pop\n      pop\n        /* \"task1/Int2Roman.sol\":776:793  symbols[9] = \"IX\" */\n      mload(0x40)\n      dup1\n      0x40\n      add\n      0x40\n      mstore\n      dup1\n      0x02\n      dup2\n      mstore\n      0x20\n      add\n      0x4958000000000000000000000000000000000000000000000000000000000000\n      dup2\n      mstore\n      pop\n        /* \"task1/Int2Roman.sol\":776:783  symbols */\n      dup2\n        /* \"task1/Int2Roman.sol\":784:785  9 */\n      0x09\n        /* \"task1/Int2Roman.sol\":776:786  symbols[9] */\n      dup2\n      mload\n      dup2\n      lt\n      tag_62\n      jumpi\n      tag_63\n      tag_25\n      jump\t// in\n    tag_63:\n    tag_62:\n      0x20\n      mul\n      0x20\n      add\n      add\n        /* \"task1/Int2Roman.sol\":776:793  symbols[9] = \"IX\" */\n      dup2\n      swap1\n      mstore\n      pop\n        /* \"task1/Int2Roman.sol\":817:818  5 */\n      0x05\n        /* \"task1/Int2Roman.sol\":804:810  values */\n      dup3\n        /* \"task1/Int2Roman.sol\":811:813  10 */\n      0x0a\n        /* \"task1/Int2Roman.sol\":804:814  values[10] */\n      dup2\n      mload\n      dup2\n      lt\n      tag_64\n      jumpi\n      tag_65\n      tag_25\n      jump\t// in\n    tag_65:\n    tag_64:\n      0x20\n      mul\n      0x20\n      add\n      add\n        /* \"task1/Int2Roman.sol\":804:818  values[10] = 5 */\n      dup2\n      dup2\n      mstore\n      pop\n      pop\n        /* \"task1/Int2Roman.sol\":820:837  symbols[10] = \"V\" */\n      mload(0x40)\n      dup1\n      0x40\n      add\n      0x40\n      mstore\n      dup1\n      0x01\n      dup2\n      mstore\n      0x20\n      add\n      0x5600000000000000000000000000000000000000000000000000000000000000\n      dup2\n      mstore\n      pop\n        /* \"task1/Int2Roman.sol\":820:827  symbols */\n      dup2\n        /* \"task1/Int2Roman.sol\":828:830  10 */\n      0x0a\n        /* \"task1/Int2Roman.sol\":820:831  symbols[10] */\n      dup2\n      mload\n      dup2\n      lt\n      tag_66\n      jumpi\n      tag_67\n      tag_25\n      jump\t// in\n    tag_67:\n    tag_66:\n      0x20\n      mul\n      0x20\n      add\n      add\n        /* \"task1/Int2Roman.sol\":820:837  symbols[10] = \"V\" */\n      dup2\n      swap1\n      mstore\n      pop\n        /* \"task1/Int2Roman.sol\":861:862  4 */\n      0x04\n        /* \"task1/Int2Roman.sol\":848:854  values */\n      dup3\n        /* \"task1/Int2Roman.sol\":855:857  11 */\n      0x0b\n        /* \"task1/Int2Roman.sol\":848:858  values[11] */\n      dup2\n      mload\n      dup2\n      lt\n      tag_68\n      jumpi\n      tag_69\n      tag_25\n      jump\t// in\n    tag_69:\n    tag_68:\n      0x20\n      mul\n      0x20\n      add\n      add\n        /* \"task1/Int2Roman.sol\":848:862  values[11] = 4 */\n      dup2\n      dup2\n      mstore\n      pop\n      pop\n        /* \"task1/Int2Roman.sol\":864:882  symbols[11] = \"IV\" */\n      mload(0x40)\n      dup1\n      0x40\n      add\n      0x40\n      mstore\n      dup1\n      0x02\n      dup2\n      mstore\n      0x20\n      add\n      0x4956000000000000000000000000000000000000000000000000000000000000\n      dup2\n      mstore\n      pop\n        /* \"task1/Int2Roman.sol\":864:871  symbols */\n      dup2\n        /* \"task1/Int2Roman.sol\":872:874  11 */\n      0x0b\n        /* \"task1/Int2Roman.sol\":864:875  symbols[11] */\n      dup2\n      mload\n      dup2\n      lt\n      tag_70\n      jumpi\n      tag_71\n      tag_25\n      jump\t// in\n    tag_71:\n    tag_70:\n      0x20\n      mul\n      0x20\n      add\n      add\n        /* \"task1/Int2Roman.sol\":864:882  symbols[11] = \"IV\" */\n      dup2\n      swap1\n      mstore\n      pop\n        /* \"task1/Int2Roman.sol\":906:907  1 */\n      0x01\n        /* \"task1/Int2Roman.sol\":893:899  values */\n      dup3\n        /* \"task1/Int2Roman.sol\":900:902  12 */\n      0x0c\n        /* \"task1/Int2Roman.sol\":893:903  values[12] */\n      dup2\n      mload\n      dup2\n      lt\n      tag_72\n      jumpi\n      tag_73\n      tag_25\n      jump\t// in\n    tag_73:\n    tag_72:\n      0x20\n      mul\n      0x20\n      add\n      add\n        /* \"task1/Int2Roman.sol\":893:907  values[12] = 1 */\n      dup2\n      dup2\n      mstore\n      pop\n      pop\n        /* \"task1/Int2Roman.sol\":909:926  symbols[12] = \"I\" */\n      mload(0x40)\n      dup1\n      0x40\n      add\n      0x40\n      mstore\n      dup1\n      0x01\n      dup2\n      mstore\n      0x20\n      add\n      0x4900000000000000000000000000000000000000000000000000000000000000\n      dup2\n      mstore\n      pop\n        /* \"task1/Int2Roman.sol\":909:916  symbols */\n      dup2\n        /* \"task1/Int2Roman.sol\":917:919  12 */\n      0x0c\n        /* \"task1/Int2Roman.sol\":909:920  symbols[12] */\n      dup2\n      mload\n      dup2\n      lt\n      tag_74\n      jumpi\n      tag_75\n      tag_25\n      jump\t// in\n    tag_75:\n    tag_74:\n      0x20\n      mul\n      0x20\n      add\n      add\n        /* \"task1/Int2Roman.sol\":909:926  symbols[12] = \"I\" */\n      dup2\n      swap1\n      mstore\n      pop\n        /* \"task1/Int2Roman.sol\":939:958  bytes memory result */\n      0x00\n        /* \"task1/Int2Roman.sol\":971:972  0 */\n      0x00\n        /* \"task1/Int2Roman.sol\":961:973  new bytes(0) */\n      0xffffffffffffffff\n      dup2\n      gt\n      iszero\n      tag_76\n      jumpi\n      tag_77\n      tag_17\n      jump\t// in\n    tag_77:\n    tag_76:\n      mload(0x40)\n      swap1\n      dup1\n      dup3\n      mstore\n      dup1\n      0x1f\n      add\n      not(0x1f)\n      and\n      0x20\n      add\n      dup3\n      add\n      0x40\n      mstore\n      dup1\n      iszero\n      tag_78\n      jumpi\n      dup2\n      0x20\n      add\n      0x01\n      dup3\n      mul\n      dup1\n      calldatasize\n      dup4\n      calldatacopy\n      dup1\n      dup3\n      add\n      swap2\n      pop\n      pop\n      swap1\n      pop\n    tag_78:\n      pop\n        /* \"task1/Int2Roman.sol\":939:973  bytes memory result = new bytes(0) */\n      swap1\n      pop\n        /* \"task1/Int2Roman.sol\":989:998  uint256 i */\n      0x00\n        /* \"task1/Int2Roman.sol\":1001:1002  0 */\n      0x00\n        /* \"task1/Int2Roman.sol\":989:1002  uint256 i = 0 */\n      swap1\n      pop\n        /* \"task1/Int2Roman.sol\":984:1220  for (uint256 i = 0; i < 13; ++i) {... */\n    tag_79:\n        /* \"task1/Int2Roman.sol\":1008:1010  13 */\n      0x0d\n        /* \"task1/Int2Roman.sol\":1004:1005  i */\n      dup2\n        /* \"task1/Int2Roman.sol\":1004:1010  i < 13 */\n      lt\n        /* \"task1/Int2Roman.sol\":984:1220  for (uint256 i = 0; i < 13; ++i) {... */\n      iszero\n      tag_80\n      jumpi\n        /* \"task1/Int2Roman.sol\":1032:1174  while (_num >= values[i]) {... */\n    tag_82:\n        /* \"task1/Int2Roman.sol\":1047:1053  values */\n      dup4\n        /* \"task1/Int2Roman.sol\":1054:1055  i */\n      dup2\n        /* \"task1/Int2Roman.sol\":1047:1056  values[i] */\n      dup2\n      mload\n      dup2\n      lt\n      tag_84\n      jumpi\n      tag_85\n      tag_25\n      jump\t// in\n    tag_85:\n    tag_84:\n      0x20\n      mul\n      0x20\n      add\n      add\n      mload\n        /* \"task1/Int2Roman.sol\":1039:1043  _num */\n      dup7\n        /* \"task1/Int2Roman.sol\":1039:1056  _num >= values[i] */\n      lt\n        /* \"task1/Int2Roman.sol\":1032:1174  while (_num >= values[i]) {... */\n      tag_83\n      jumpi\n        /* \"task1/Int2Roman.sol\":1103:1109  result */\n      dup2\n        /* \"task1/Int2Roman.sol\":1111:1118  symbols */\n      dup4\n        /* \"task1/Int2Roman.sol\":1119:1120  i */\n      dup3\n        /* \"task1/Int2Roman.sol\":1111:1121  symbols[i] */\n      dup2\n      mload\n      dup2\n      lt\n      tag_86\n      jumpi\n      tag_87\n      tag_25\n      jump\t// in\n    tag_87:\n    tag_86:\n      0x20\n      mul\n      0x20\n      add\n      add\n      mload\n        /* \"task1/Int2Roman.sol\":1086:1122  abi.encodePacked(result, symbols[i]) */\n      add(0x20, mload(0x40))\n      tag_88\n      swap3\n      swap2\n      swap1\n      tag_89\n      jump\t// in\n    tag_88:\n      mload(0x40)\n      0x20\n      dup2\n      dup4\n      sub\n      sub\n      dup2\n      mstore\n      swap1\n      0x40\n      mstore\n        /* \"task1/Int2Roman.sol\":1077:1122  result = abi.encodePacked(result, symbols[i]) */\n      swap2\n      pop\n        /* \"task1/Int2Roman.sol\":1149:1155  values */\n      dup4\n        /* \"task1/Int2Roman.sol\":1156:1157  i */\n      dup2\n        /* \"task1/Int2Roman.sol\":1149:1158  values[i] */\n      dup2\n      mload\n      dup2\n      lt\n      tag_90\n      jumpi\n      tag_91\n      tag_25\n      jump\t// in\n    tag_91:\n    tag_90:\n      0x20\n      mul\n      0x20\n      add\n      add\n      mload\n        /* \"task1/Int2Roman.sol\":1141:1158  _num -= values[i] */\n      dup7\n      tag_92\n      swap2\n      swap1\n      tag_93\n      jump\t// in\n    tag_92:\n      swap6\n      pop\n        /* \"task1/Int2Roman.sol\":1032:1174  while (_num >= values[i]) {... */\n      jump(tag_82)\n    tag_83:\n        /* \"task1/Int2Roman.sol\":1200:1201  0 */\n      0x00\n        /* \"task1/Int2Roman.sol\":1192:1196  _num */\n      dup7\n        /* \"task1/Int2Roman.sol\":1192:1201  _num == 0 */\n      sub\n        /* \"task1/Int2Roman.sol\":1188:1208  if (_num == 0) break */\n      iszero\n        /* \"task1/Int2Roman.sol\":1203:1208  break */\n      tag_80\n        /* \"task1/Int2Roman.sol\":1188:1208  if (_num == 0) break */\n      jumpi\n        /* \"task1/Int2Roman.sol\":1012:1015  ++i */\n      dup1\n      0x01\n      add\n      swap1\n      pop\n        /* \"task1/Int2Roman.sol\":984:1220  for (uint256 i = 0; i < 13; ++i) {... */\n      jump(tag_79)\n    tag_80:\n      pop\n        /* \"task1/Int2Roman.sol\":1246:1252  result */\n      dup1\n        /* \"task1/Int2Roman.sol\":1232:1253  return string(result) */\n      swap4\n      pop\n      pop\n      pop\n      pop\n        /* \"task1/Int2Roman.sol\":93:1261  function intToRoman(uint256 _num) public pure returns (string memory) {... */\n      swap2\n      swap1\n      pop\n      jump\t// out\n        /* \"#utility.yul\":88:205   */\n    tag_96:\n        /* \"#utility.yul\":197:198   */\n      0x00\n        /* \"#utility.yul\":194:195   */\n      0x00\n        /* \"#utility.yul\":187:199   */\n      revert\n        /* \"#utility.yul\":334:411   */\n    tag_98:\n        /* \"#utility.yul\":371:378   */\n      0x00\n        /* \"#utility.yul\":400:405   */\n      dup2\n        /* \"#utility.yul\":389:405   */\n      swap1\n      pop\n        /* \"#utility.yul\":334:411   */\n      swap2\n      swap1\n      pop\n      jump\t// out\n        /* \"#utility.yul\":417:539   */\n    tag_99:\n        /* \"#utility.yul\":490:514   */\n      tag_120\n        /* \"#utility.yul\":508:513   */\n      dup2\n        /* \"#utility.yul\":490:514   */\n      tag_98\n      jump\t// in\n    tag_120:\n        /* \"#utility.yul\":483:488   */\n      dup2\n        /* \"#utility.yul\":480:515   */\n      eq\n        /* \"#utility.yul\":470:533   */\n      tag_121\n      jumpi\n        /* \"#utility.yul\":529:530   */\n      0x00\n        /* \"#utility.yul\":526:527   */\n      0x00\n        /* \"#utility.yul\":519:531   */\n      revert\n        /* \"#utility.yul\":470:533   */\n    tag_121:\n        /* \"#utility.yul\":417:539   */\n      pop\n      jump\t// out\n        /* \"#utility.yul\":545:684   */\n    tag_100:\n        /* \"#utility.yul\":591:596   */\n      0x00\n        /* \"#utility.yul\":629:635   */\n      dup2\n        /* \"#utility.yul\":616:636   */\n      calldataload\n        /* \"#utility.yul\":607:636   */\n      swap1\n      pop\n        /* \"#utility.yul\":645:678   */\n      tag_123\n        /* \"#utility.yul\":672:677   */\n      dup2\n        /* \"#utility.yul\":645:678   */\n      tag_99\n      jump\t// in\n    tag_123:\n        /* \"#utility.yul\":545:684   */\n      swap3\n      swap2\n      pop\n      pop\n      jump\t// out\n        /* \"#utility.yul\":690:1019   */\n    tag_6:\n        /* \"#utility.yul\":749:755   */\n      0x00\n        /* \"#utility.yul\":798:800   */\n      0x20\n        /* \"#utility.yul\":786:795   */\n      dup3\n        /* \"#utility.yul\":777:784   */\n      dup5\n        /* \"#utility.yul\":773:796   */\n      sub\n        /* \"#utility.yul\":769:801   */\n      slt\n        /* \"#utility.yul\":766:885   */\n      iszero\n      tag_125\n      jumpi\n        /* \"#utility.yul\":804:883   */\n      tag_126\n      tag_96\n      jump\t// in\n    tag_126:\n        /* \"#utility.yul\":766:885   */\n    tag_125:\n        /* \"#utility.yul\":924:925   */\n      0x00\n        /* \"#utility.yul\":949:1002   */\n      tag_127\n        /* \"#utility.yul\":994:1001   */\n      dup5\n        /* \"#utility.yul\":985:991   */\n      dup3\n        /* \"#utility.yul\":974:983   */\n      dup6\n        /* \"#utility.yul\":970:992   */\n      add\n        /* \"#utility.yul\":949:1002   */\n      tag_100\n      jump\t// in\n    tag_127:\n        /* \"#utility.yul\":939:1002   */\n      swap2\n      pop\n        /* \"#utility.yul\":895:1012   */\n      pop\n        /* \"#utility.yul\":690:1019   */\n      swap3\n      swap2\n      pop\n      pop\n      jump\t// out\n        /* \"#utility.yul\":1025:1124   */\n    tag_101:\n        /* \"#utility.yul\":1077:1083   */\n      0x00\n        /* \"#utility.yul\":1111:1116   */\n      dup2\n        /* \"#utility.yul\":1105:1117   */\n      mload\n        /* \"#utility.yul\":1095:1117   */\n      swap1\n      pop\n        /* \"#utility.yul\":1025:1124   */\n      swap2\n      swap1\n      pop\n      jump\t// out\n        /* \"#utility.yul\":1130:1299   */\n    tag_102:\n        /* \"#utility.yul\":1214:1225   */\n      0x00\n        /* \"#utility.yul\":1248:1254   */\n      dup3\n        /* \"#utility.yul\":1243:1246   */\n      dup3\n        /* \"#utility.yul\":1236:1255   */\n      mstore\n        /* \"#utility.yul\":1288:1292   */\n      0x20\n        /* \"#utility.yul\":1283:1286   */\n      dup3\n        /* \"#utility.yul\":1279:1293   */\n      add\n        /* \"#utility.yul\":1264:1293   */\n      swap1\n      pop\n        /* \"#utility.yul\":1130:1299   */\n      swap3\n      swap2\n      pop\n      pop\n      jump\t// out\n        /* \"#utility.yul\":1305:1444   */\n    tag_103:\n        /* \"#utility.yul\":1394:1400   */\n      dup3\n        /* \"#utility.yul\":1389:1392   */\n      dup2\n        /* \"#utility.yul\":1384:1387   */\n      dup4\n        /* \"#utility.yul\":1378:1401   */\n      mcopy\n        /* \"#utility.yul\":1435:1436   */\n      0x00\n        /* \"#utility.yul\":1426:1432   */\n      dup4\n        /* \"#utility.yul\":1421:1424   */\n      dup4\n        /* \"#utility.yul\":1417:1433   */\n      add\n        /* \"#utility.yul\":1410:1437   */\n      mstore\n        /* \"#utility.yul\":1305:1444   */\n      pop\n      pop\n      pop\n      jump\t// out\n        /* \"#utility.yul\":1450:1552   */\n    tag_104:\n        /* \"#utility.yul\":1491:1497   */\n      0x00\n        /* \"#utility.yul\":1542:1544   */\n      0x1f\n        /* \"#utility.yul\":1538:1545   */\n      not\n        /* \"#utility.yul\":1533:1535   */\n      0x1f\n        /* \"#utility.yul\":1526:1531   */\n      dup4\n        /* \"#utility.yul\":1522:1536   */\n      add\n        /* \"#utility.yul\":1518:1546   */\n      and\n        /* \"#utility.yul\":1508:1546   */\n      swap1\n      pop\n        /* \"#utility.yul\":1450:1552   */\n      swap2\n      swap1\n      pop\n      jump\t// out\n        /* \"#utility.yul\":1558:1935   */\n    tag_105:\n        /* \"#utility.yul\":1646:1649   */\n      0x00\n        /* \"#utility.yul\":1674:1713   */\n      tag_133\n        /* \"#utility.yul\":1707:1712   */\n      dup3\n        /* \"#utility.yul\":1674:1713   */\n      tag_101\n      jump\t// in\n    tag_133:\n        /* \"#utility.yul\":1729:1800   */\n      tag_134\n        /* \"#utility.yul\":1793:1799   */\n      dup2\n        /* \"#utility.yul\":1788:1791   */\n      dup6\n        /* \"#utility.yul\":1729:1800   */\n      tag_102\n      jump\t// in\n    tag_134:\n        /* \"#utility.yul\":1722:1800   */\n      swap4\n      pop\n        /* \"#utility.yul\":1809:1874   */\n      tag_135\n        /* \"#utility.yul\":1867:1873   */\n      dup2\n        /* \"#utility.yul\":1862:1865   */\n      dup6\n        /* \"#utility.yul\":1855:1859   */\n      0x20\n        /* \"#utility.yul\":1848:1853   */\n      dup7\n        /* \"#utility.yul\":1844:1860   */\n      add\n        /* \"#utility.yul\":1809:1874   */\n      tag_103\n      jump\t// in\n    tag_135:\n        /* \"#utility.yul\":1899:1928   */\n      tag_136\n        /* \"#utility.yul\":1921:1927   */\n      dup2\n        /* \"#utility.yul\":1899:1928   */\n      tag_104\n      jump\t// in\n    tag_136:\n        /* \"#utility.yul\":1894:1897   */\n      dup5\n        /* \"#utility.yul\":1890:1929   */\n      add\n        /* \"#utility.yul\":1883:1929   */\n      swap2\n      pop\n        /* \"#utility.yul\":1650:1935   */\n      pop\n        /* \"#utility.yul\":1558:1935   */\n      swap3\n      swap2\n      pop\n      pop\n      jump\t// out\n        /* \"#utility.yul\":1941:2254   */\n    tag_9:\n        /* \"#utility.yul\":2054:2058   */\n      0x00\n        /* \"#utility.yul\":2092:2094   */\n      0x20\n        /* \"#utility.yul\":2081:2090   */\n      dup3\n        /* \"#utility.yul\":2077:2095   */\n      add\n        /* \"#utility.yul\":2069:2095   */\n      swap1\n      pop\n        /* \"#utility.yul\":2141:2150   */\n      dup2\n        /* \"#utility.yul\":2135:2139   */\n      dup2\n        /* \"#utility.yul\":2131:2151   */\n      sub\n        /* \"#utility.yul\":2127:2128   */\n      0x00\n        /* \"#utility.yul\":2116:2125   */\n      dup4\n        /* \"#utility.yul\":2112:2129   */\n      add\n        /* \"#utility.yul\":2105:2152   */\n      mstore\n        /* \"#utility.yul\":2169:2247   */\n      tag_138\n        /* \"#utility.yul\":2242:2246   */\n      dup2\n        /* \"#utility.yul\":2233:2239   */\n      dup5\n        /* \"#utility.yul\":2169:2247   */\n      tag_105\n      jump\t// in\n    tag_138:\n        /* \"#utility.yul\":2161:2247   */\n      swap1\n      pop\n        /* \"#utility.yul\":1941:2254   */\n      swap3\n      swap2\n      pop\n      pop\n      jump\t// out\n        /* \"#utility.yul\":2260:2481   */\n    tag_106:\n        /* \"#utility.yul\":2400:2434   */\n      0x4e756d626572206d757374206265206265747765656e203120616e6420333939\n        /* \"#utility.yul\":2396:2397   */\n      0x00\n        /* \"#utility.yul\":2388:2394   */\n      dup3\n        /* \"#utility.yul\":2384:2398   */\n      add\n        /* \"#utility.yul\":2377:2435   */\n      mstore\n        /* \"#utility.yul\":2469:2473   */\n      0x392e000000000000000000000000000000000000000000000000000000000000\n        /* \"#utility.yul\":2464:2466   */\n      0x20\n        /* \"#utility.yul\":2456:2462   */\n      dup3\n        /* \"#utility.yul\":2452:2467   */\n      add\n        /* \"#utility.yul\":2445:2474   */\n      mstore\n        /* \"#utility.yul\":2260:2481   */\n      pop\n      jump\t// out\n        /* \"#utility.yul\":2487:2853   */\n    tag_107:\n        /* \"#utility.yul\":2629:2632   */\n      0x00\n        /* \"#utility.yul\":2650:2717   */\n      tag_141\n        /* \"#utility.yul\":2714:2716   */\n      0x22\n        /* \"#utility.yul\":2709:2712   */\n      dup4\n        /* \"#utility.yul\":2650:2717   */\n      tag_102\n      jump\t// in\n    tag_141:\n        /* \"#utility.yul\":2643:2717   */\n      swap2\n      pop\n        /* \"#utility.yul\":2726:2819   */\n      tag_142\n        /* \"#utility.yul\":2815:2818   */\n      dup3\n        /* \"#utility.yul\":2726:2819   */\n      tag_106\n      jump\t// in\n    tag_142:\n        /* \"#utility.yul\":2844:2846   */\n      0x40\n        /* \"#utility.yul\":2839:2842   */\n      dup3\n        /* \"#utility.yul\":2835:2847   */\n      add\n        /* \"#utility.yul\":2828:2847   */\n      swap1\n      pop\n        /* \"#utility.yul\":2487:2853   */\n      swap2\n      swap1\n      pop\n      jump\t// out\n        /* \"#utility.yul\":2859:3278   */\n    tag_14:\n        /* \"#utility.yul\":3025:3029   */\n      0x00\n        /* \"#utility.yul\":3063:3065   */\n      0x20\n        /* \"#utility.yul\":3052:3061   */\n      dup3\n        /* \"#utility.yul\":3048:3066   */\n      add\n        /* \"#utility.yul\":3040:3066   */\n      swap1\n      pop\n        /* \"#utility.yul\":3112:3121   */\n      dup2\n        /* \"#utility.yul\":3106:3110   */\n      dup2\n        /* \"#utility.yul\":3102:3122   */\n      sub\n        /* \"#utility.yul\":3098:3099   */\n      0x00\n        /* \"#utility.yul\":3087:3096   */\n      dup4\n        /* \"#utility.yul\":3083:3100   */\n      add\n        /* \"#utility.yul\":3076:3123   */\n      mstore\n        /* \"#utility.yul\":3140:3271   */\n      tag_144\n        /* \"#utility.yul\":3266:3270   */\n      dup2\n        /* \"#utility.yul\":3140:3271   */\n      tag_107\n      jump\t// in\n    tag_144:\n        /* \"#utility.yul\":3132:3271   */\n      swap1\n      pop\n        /* \"#utility.yul\":2859:3278   */\n      swap2\n      swap1\n      pop\n      jump\t// out\n        /* \"#utility.yul\":3284:3464   */\n    tag_17:\n        /* \"#utility.yul\":3332:3409   */\n      0x4e487b7100000000000000000000000000000000000000000000000000000000\n        /* \"#utility.yul\":3329:3330   */\n      0x00\n        /* \"#utility.yul\":3322:3410   */\n      mstore\n        /* \"#utility.yul\":3429:3433   */\n      0x41\n        /* \"#utility.yul\":3426:3427   */\n      0x04\n        /* \"#utility.yul\":3419:3434   */\n      mstore\n        /* \"#utility.yul\":3453:3457   */\n      0x24\n        /* \"#utility.yul\":3450:3451   */\n      0x00\n        /* \"#utility.yul\":3443:3458   */\n      revert\n        /* \"#utility.yul\":3470:3650   */\n    tag_25:\n        /* \"#utility.yul\":3518:3595   */\n      0x4e487b7100000000000000000000000000000000000000000000000000000000\n        /* \"#utility.yul\":3515:3516   */\n      0x00\n        /* \"#utility.yul\":3508:3596   */\n      mstore\n        /* \"#utility.yul\":3615:3619   */\n      0x32\n        /* \"#utility.yul\":3612:3613   */\n      0x04\n        /* \"#utility.yul\":3605:3620   */\n      mstore\n        /* \"#utility.yul\":3639:3643   */\n      0x24\n        /* \"#utility.yul\":3636:3637   */\n      0x00\n        /* \"#utility.yul\":3629:3644   */\n      revert\n        /* \"#utility.yul\":3656:3754   */\n    tag_108:\n        /* \"#utility.yul\":3707:3713   */\n      0x00\n        /* \"#utility.yul\":3741:3746   */\n      dup2\n        /* \"#utility.yul\":3735:3747   */\n      mload\n        /* \"#utility.yul\":3725:3747   */\n      swap1\n      pop\n        /* \"#utility.yul\":3656:3754   */\n      swap2\n      swap1\n      pop\n      jump\t// out\n        /* \"#utility.yul\":3760:3907   */\n    tag_109:\n        /* \"#utility.yul\":3861:3872   */\n      0x00\n        /* \"#utility.yul\":3898:3901   */\n      dup2\n        /* \"#utility.yul\":3883:3901   */\n      swap1\n      pop\n        /* \"#utility.yul\":3760:3907   */\n      swap3\n      swap2\n      pop\n      pop\n      jump\t// out\n        /* \"#utility.yul\":3913:4299   */\n    tag_110:\n        /* \"#utility.yul\":4017:4020   */\n      0x00\n        /* \"#utility.yul\":4045:4083   */\n      tag_150\n        /* \"#utility.yul\":4077:4082   */\n      dup3\n        /* \"#utility.yul\":4045:4083   */\n      tag_108\n      jump\t// in\n    tag_150:\n        /* \"#utility.yul\":4099:4187   */\n      tag_151\n        /* \"#utility.yul\":4180:4186   */\n      dup2\n        /* \"#utility.yul\":4175:4178   */\n      dup6\n        /* \"#utility.yul\":4099:4187   */\n      tag_109\n      jump\t// in\n    tag_151:\n        /* \"#utility.yul\":4092:4187   */\n      swap4\n      pop\n        /* \"#utility.yul\":4196:4261   */\n      tag_152\n        /* \"#utility.yul\":4254:4260   */\n      dup2\n        /* \"#utility.yul\":4249:4252   */\n      dup6\n        /* \"#utility.yul\":4242:4246   */\n      0x20\n        /* \"#utility.yul\":4235:4240   */\n      dup7\n        /* \"#utility.yul\":4231:4247   */\n      add\n        /* \"#utility.yul\":4196:4261   */\n      tag_103\n      jump\t// in\n    tag_152:\n        /* \"#utility.yul\":4286:4292   */\n      dup1\n        /* \"#utility.yul\":4281:4284   */\n      dup5\n        /* \"#utility.yul\":4277:4293   */\n      add\n        /* \"#utility.yul\":4270:4293   */\n      swap2\n      pop\n        /* \"#utility.yul\":4021:4299   */\n      pop\n        /* \"#utility.yul\":3913:4299   */\n      swap3\n      swap2\n      pop\n      pop\n      jump\t// out\n        /* \"#utility.yul\":4305:4453   */\n    tag_111:\n        /* \"#utility.yul\":4407:4418   */\n      0x00\n        /* \"#utility.yul\":4444:4447   */\n      dup2\n        /* \"#utility.yul\":4429:4447   */\n      swap1\n      pop\n        /* \"#utility.yul\":4305:4453   */\n      swap3\n      swap2\n      pop\n      pop\n      jump\t// out\n        /* \"#utility.yul\":4459:4849   */\n    tag_112:\n        /* \"#utility.yul\":4565:4568   */\n      0x00\n        /* \"#utility.yul\":4593:4632   */\n      tag_155\n        /* \"#utility.yul\":4626:4631   */\n      dup3\n        /* \"#utility.yul\":4593:4632   */\n      tag_101\n      jump\t// in\n    tag_155:\n        /* \"#utility.yul\":4648:4737   */\n      tag_156\n        /* \"#utility.yul\":4730:4736   */\n      dup2\n        /* \"#utility.yul\":4725:4728   */\n      dup6\n        /* \"#utility.yul\":4648:4737   */\n      tag_111\n      jump\t// in\n    tag_156:\n        /* \"#utility.yul\":4641:4737   */\n      swap4\n      pop\n        /* \"#utility.yul\":4746:4811   */\n      tag_157\n        /* \"#utility.yul\":4804:4810   */\n      dup2\n        /* \"#utility.yul\":4799:4802   */\n      dup6\n        /* \"#utility.yul\":4792:4796   */\n      0x20\n        /* \"#utility.yul\":4785:4790   */\n      dup7\n        /* \"#utility.yul\":4781:4797   */\n      add\n        /* \"#utility.yul\":4746:4811   */\n      tag_103\n      jump\t// in\n    tag_157:\n        /* \"#utility.yul\":4836:4842   */\n      dup1\n        /* \"#utility.yul\":4831:4834   */\n      dup5\n        /* \"#utility.yul\":4827:4843   */\n      add\n        /* \"#utility.yul\":4820:4843   */\n      swap2\n      pop\n        /* \"#utility.yul\":4569:4849   */\n      pop\n        /* \"#utility.yul\":4459:4849   */\n      swap3\n      swap2\n      pop\n      pop\n      jump\t// out\n        /* \"#utility.yul\":4855:5286   */\n    tag_89:\n        /* \"#utility.yul\":5033:5036   */\n      0x00\n        /* \"#utility.yul\":5055:5148   */\n      tag_159\n        /* \"#utility.yul\":5144:5147   */\n      dup3\n        /* \"#utility.yul\":5135:5141   */\n      dup6\n        /* \"#utility.yul\":5055:5148   */\n      tag_110\n      jump\t// in\n    tag_159:\n        /* \"#utility.yul\":5048:5148   */\n      swap2\n      pop\n        /* \"#utility.yul\":5165:5260   */\n      tag_160\n        /* \"#utility.yul\":5256:5259   */\n      dup3\n        /* \"#utility.yul\":5247:5253   */\n      dup5\n        /* \"#utility.yul\":5165:5260   */\n      tag_112\n      jump\t// in\n    tag_160:\n        /* \"#utility.yul\":5158:5260   */\n      swap2\n      pop\n        /* \"#utility.yul\":5277:5280   */\n      dup2\n        /* \"#utility.yul\":5270:5280   */\n      swap1\n      pop\n        /* \"#utility.yul\":4855:5286   */\n      swap4\n      swap3\n      pop\n      pop\n      pop\n      jump\t// out\n        /* \"#utility.yul\":5292:5472   */\n    tag_113:\n        /* \"#utility.yul\":5340:5417   */\n      0x4e487b7100000000000000000000000000000000000000000000000000000000\n        /* \"#utility.yul\":5337:5338   */\n      0x00\n        /* \"#utility.yul\":5330:5418   */\n      mstore\n        /* \"#utility.yul\":5437:5441   */\n      0x11\n        /* \"#utility.yul\":5434:5435   */\n      0x04\n        /* \"#utility.yul\":5427:5442   */\n      mstore\n        /* \"#utility.yul\":5461:5465   */\n      0x24\n        /* \"#utility.yul\":5458:5459   */\n      0x00\n        /* \"#utility.yul\":5451:5466   */\n      revert\n        /* \"#utility.yul\":5478:5672   */\n    tag_93:\n        /* \"#utility.yul\":5518:5522   */\n      0x00\n        /* \"#utility.yul\":5538:5558   */\n      tag_163\n        /* \"#utility.yul\":5556:5557   */\n      dup3\n        /* \"#utility.yul\":5538:5558   */\n      tag_98\n      jump\t// in\n    tag_163:\n        /* \"#utility.yul\":5533:5558   */\n      swap2\n      pop\n        /* \"#utility.yul\":5572:5592   */\n      tag_164\n        /* \"#utility.yul\":5590:5591   */\n      dup4\n        /* \"#utility.yul\":5572:5592   */\n      tag_98\n      jump\t// in\n    tag_164:\n        /* \"#utility.yul\":5567:5592   */\n      swap3\n      pop\n        /* \"#utility.yul\":5616:5617   */\n      dup3\n        /* \"#utility.yul\":5613:5614   */\n      dup3\n        /* \"#utility.yul\":5609:5618   */\n      sub\n        /* \"#utility.yul\":5601:5618   */\n      swap1\n      pop\n        /* \"#utility.yul\":5640:5641   */\n      dup2\n        /* \"#utility.yul\":5634:5638   */\n      dup2\n        /* \"#utility.yul\":5631:5642   */\n      gt\n        /* \"#utility.yul\":5628:5665   */\n      iszero\n      tag_165\n      jumpi\n        /* \"#utility.yul\":5645:5663   */\n      tag_166\n      tag_113\n      jump\t// in\n    tag_166:\n        /* \"#utility.yul\":5628:5665   */\n    tag_165:\n        /* \"#utility.yul\":5478:5672   */\n      swap3\n      swap2\n      pop\n      pop\n      jump\t// out\n\n    auxdata: 0xa2646970667358221220016d16d0c5a555eef6f0e8277dd76a57713384f13220deda633b7288cd2a788264736f6c634300081e0033\n}\n",
				"bytecode": {
					"linkReferences": {},
					"object": "6080604052348015600e575f5ffd5b50610b788061001c5f395ff3fe608060405234801561000f575f5ffd5b5060043610610029575f3560e01c80630cbc513a1461002d575b5f5ffd5b6100476004803603810190610042919061089e565b61005d565b6040516100549190610939565b60405180910390f35b6060600182101580156100725750610f9f8211155b6100b1576040517f08c379a00000000000000000000000000000000000000000000000000000000081526004016100a8906109c9565b60405180910390fd5b5f600d67ffffffffffffffff8111156100cd576100cc6109e7565b5b6040519080825280602002602001820160405280156100fb5781602001602082028036833780820191505090505b5090505f600d67ffffffffffffffff81111561011a576101196109e7565b5b60405190808252806020026020018201604052801561014d57816020015b60608152602001906001900390816101385790505b5090506103e8825f8151811061016657610165610a14565b5b6020026020010181815250506040518060400160405280600181526020017f4d00000000000000000000000000000000000000000000000000000000000000815250815f815181106101bb576101ba610a14565b5b6020026020010181905250610384826001815181106101dd576101dc610a14565b5b6020026020010181815250506040518060400160405280600281526020017f434d0000000000000000000000000000000000000000000000000000000000008152508160018151811061023357610232610a14565b5b60200260200101819052506101f48260028151811061025557610254610a14565b5b6020026020010181815250506040518060400160405280600181526020017f4400000000000000000000000000000000000000000000000000000000000000815250816002815181106102ab576102aa610a14565b5b6020026020010181905250610190826003815181106102cd576102cc610a14565b5b6020026020010181815250506040518060400160405280600281526020017f43440000000000000000000000000000000000000000000000000000000000008152508160038151811061032357610322610a14565b5b602002602001018190525060648260048151811061034457610343610a14565b5b6020026020010181815250506040518060400160405280600181526020017f43000000000000000000000000000000000000000000000000000000000000008152508160048151811061039a57610399610a14565b5b6020026020010181905250605a826005815181106103bb576103ba610a14565b5b6020026020010181815250506040518060400160405280600281526020017f58430000000000000000000000000000000000000000000000000000000000008152508160058151811061041157610410610a14565b5b602002602001018190525060328260068151811061043257610431610a14565b5b6020026020010181815250506040518060400160405280600181526020017f4c000000000000000000000000000000000000000000000000000000000000008152508160068151811061048857610487610a14565b5b60200260200101819052506028826007815181106104a9576104a8610a14565b5b6020026020010181815250506040518060400160405280600281526020017f584c000000000000000000000000000000000000000000000000000000000000815250816007815181106104ff576104fe610a14565b5b6020026020010181905250600a826008815181106105205761051f610a14565b5b6020026020010181815250506040518060400160405280600181526020017f58000000000000000000000000000000000000000000000000000000000000008152508160088151811061057657610575610a14565b5b602002602001018190525060098260098151811061059757610596610a14565b5b6020026020010181815250506040518060400160405280600281526020017f4958000000000000000000000000000000000000000000000000000000000000815250816009815181106105ed576105ec610a14565b5b6020026020010181905250600582600a8151811061060e5761060d610a14565b5b6020026020010181815250506040518060400160405280600181526020017f560000000000000000000000000000000000000000000000000000000000000081525081600a8151811061066457610663610a14565b5b6020026020010181905250600482600b8151811061068557610684610a14565b5b6020026020010181815250506040518060400160405280600281526020017f495600000000000000000000000000000000000000000000000000000000000081525081600b815181106106db576106da610a14565b5b6020026020010181905250600182600c815181106106fc576106fb610a14565b5b6020026020010181815250506040518060400160405280600181526020017f490000000000000000000000000000000000000000000000000000000000000081525081600c8151811061075257610751610a14565b5b60200260200101819052505f5f67ffffffffffffffff811115610778576107776109e7565b5b6040519080825280601f01601f1916602001820160405280156107aa5781602001600182028036833780820191505090505b5090505f5f90505b600d81101561085b575b8381815181106107cf576107ce610a14565b5b6020026020010151861061084857818382815181106107f1576107f0610a14565b5b602002602001015160405160200161080a929190610abf565b604051602081830303815290604052915083818151811061082e5761082d610a14565b5b6020026020010151866108419190610b0f565b95506107bc565b5f86031561085b578060010190506107b2565b50809350505050919050565b5f5ffd5b5f819050919050565b61087d8161086b565b8114610887575f5ffd5b50565b5f8135905061089881610874565b92915050565b5f602082840312156108b3576108b2610867565b5b5f6108c08482850161088a565b91505092915050565b5f81519050919050565b5f82825260208201905092915050565b8281835e5f83830152505050565b5f601f19601f8301169050919050565b5f61090b826108c9565b61091581856108d3565b93506109258185602086016108e3565b61092e816108f1565b840191505092915050565b5f6020820190508181035f8301526109518184610901565b905092915050565b7f4e756d626572206d757374206265206265747765656e203120616e64203339395f8201527f392e000000000000000000000000000000000000000000000000000000000000602082015250565b5f6109b36022836108d3565b91506109be82610959565b604082019050919050565b5f6020820190508181035f8301526109e0816109a7565b9050919050565b7f4e487b71000000000000000000000000000000000000000000000000000000005f52604160045260245ffd5b7f4e487b71000000000000000000000000000000000000000000000000000000005f52603260045260245ffd5b5f81519050919050565b5f81905092915050565b5f610a5f82610a41565b610a698185610a4b565b9350610a798185602086016108e3565b80840191505092915050565b5f81905092915050565b5f610a99826108c9565b610aa38185610a85565b9350610ab38185602086016108e3565b80840191505092915050565b5f610aca8285610a55565b9150610ad68284610a8f565b91508190509392505050565b7f4e487b71000000000000000000000000000000000000000000000000000000005f52601160045260245ffd5b5f610b198261086b565b9150610b248361086b565b9250828203905081811115610b3c57610b3b610ae2565b5b9291505056fea2646970667358221220016d16d0c5a555eef6f0e8277dd76a57713384f13220deda633b7288cd2a788264736f6c634300081e0033",
					"opcodes": "PUSH1 0x80 PUSH1 0x40 MSTORE CALLVALUE DUP1 ISZERO PUSH1 0xE JUMPI PUSH0 PUSH0 REVERT JUMPDEST POP PUSH2 0xB78 DUP1 PUSH2 0x1C PUSH0 CODECOPY PUSH0 RETURN INVALID PUSH1 0x80 PUSH1 0x40 MSTORE CALLVALUE DUP1 ISZERO PUSH2 0xF JUMPI PUSH0 PUSH0 REVERT JUMPDEST POP PUSH1 0x4 CALLDATASIZE LT PUSH2 0x29 JUMPI PUSH0 CALLDATALOAD PUSH1 0xE0 SHR DUP1 PUSH4 0xCBC513A EQ PUSH2 0x2D JUMPI JUMPDEST PUSH0 PUSH0 REVERT JUMPDEST PUSH2 0x47 PUSH1 0x4 DUP1 CALLDATASIZE SUB DUP2 ADD SWAP1 PUSH2 0x42 SWAP2 SWAP1 PUSH2 0x89E JUMP JUMPDEST PUSH2 0x5D JUMP JUMPDEST PUSH1 0x40 MLOAD PUSH2 0x54 SWAP2 SWAP1 PUSH2 0x939 JUMP JUMPDEST PUSH1 0x40 MLOAD DUP1 SWAP2 SUB SWAP1 RETURN JUMPDEST PUSH1 0x60 PUSH1 0x1 DUP3 LT ISZERO DUP1 ISZERO PUSH2 0x72 JUMPI POP PUSH2 0xF9F DUP3 GT ISZERO JUMPDEST PUSH2 0xB1 JUMPI PUSH1 0x40 MLOAD PUSH32 0x8C379A000000000000000000000000000000000000000000000000000000000 DUP2 MSTORE PUSH1 0x4 ADD PUSH2 0xA8 SWAP1 PUSH2 0x9C9 JUMP JUMPDEST PUSH1 0x40 MLOAD DUP1 SWAP2 SUB SWAP1 REVERT JUMPDEST PUSH0 PUSH1 0xD PUSH8 0xFFFFFFFFFFFFFFFF DUP2 GT ISZERO PUSH2 0xCD JUMPI PUSH2 0xCC PUSH2 0x9E7 JUMP JUMPDEST JUMPDEST PUSH1 0x40 MLOAD SWAP1 DUP1 DUP3 MSTORE DUP1 PUSH1 0x20 MUL PUSH1 0x20 ADD DUP3 ADD PUSH1 0x40 MSTORE DUP1 ISZERO PUSH2 0xFB JUMPI DUP2 PUSH1 0x20 ADD PUSH1 0x20 DUP3 MUL DUP1 CALLDATASIZE DUP4 CALLDATACOPY DUP1 DUP3 ADD SWAP2 POP POP SWAP1 POP JUMPDEST POP SWAP1 POP PUSH0 PUSH1 0xD PUSH8 0xFFFFFFFFFFFFFFFF DUP2 GT ISZERO PUSH2 0x11A JUMPI PUSH2 0x119 PUSH2 0x9E7 JUMP JUMPDEST JUMPDEST PUSH1 0x40 MLOAD SWAP1 DUP1 DUP3 MSTORE DUP1 PUSH1 0x20 MUL PUSH1 0x20 ADD DUP3 ADD PUSH1 0x40 MSTORE DUP1 ISZERO PUSH2 0x14D JUMPI DUP2 PUSH1 0x20 ADD JUMPDEST PUSH1 0x60 DUP2 MSTORE PUSH1 0x20 ADD SWAP1 PUSH1 0x1 SWAP1 SUB SWAP1 DUP2 PUSH2 0x138 JUMPI SWAP1 POP JUMPDEST POP SWAP1 POP PUSH2 0x3E8 DUP3 PUSH0 DUP2 MLOAD DUP2 LT PUSH2 0x166 JUMPI PUSH2 0x165 PUSH2 0xA14 JUMP JUMPDEST JUMPDEST PUSH1 0x20 MUL PUSH1 0x20 ADD ADD DUP2 DUP2 MSTORE POP POP PUSH1 0x40 MLOAD DUP1 PUSH1 0x40 ADD PUSH1 0x40 MSTORE DUP1 PUSH1 0x1 DUP2 MSTORE PUSH1 0x20 ADD PUSH32 0x4D00000000000000000000000000000000000000000000000000000000000000 DUP2 MSTORE POP DUP2 PUSH0 DUP2 MLOAD DUP2 LT PUSH2 0x1BB JUMPI PUSH2 0x1BA PUSH2 0xA14 JUMP JUMPDEST JUMPDEST PUSH1 0x20 MUL PUSH1 0x20 ADD ADD DUP2 SWAP1 MSTORE POP PUSH2 0x384 DUP3 PUSH1 0x1 DUP2 MLOAD DUP2 LT PUSH2 0x1DD JUMPI PUSH2 0x1DC PUSH2 0xA14 JUMP JUMPDEST JUMPDEST PUSH1 0x20 MUL PUSH1 0x20 ADD ADD DUP2 DUP2 MSTORE POP POP PUSH1 0x40 MLOAD DUP1 PUSH1 0x40 ADD PUSH1 0x40 MSTORE DUP1 PUSH1 0x2 DUP2 MSTORE PUSH1 0x20 ADD PUSH32 0x434D000000000000000000000000000000000000000000000000000000000000 DUP2 MSTORE POP DUP2 PUSH1 0x1 DUP2 MLOAD DUP2 LT PUSH2 0x233 JUMPI PUSH2 0x232 PUSH2 0xA14 JUMP JUMPDEST JUMPDEST PUSH1 0x20 MUL PUSH1 0x20 ADD ADD DUP2 SWAP1 MSTORE POP PUSH2 0x1F4 DUP3 PUSH1 0x2 DUP2 MLOAD DUP2 LT PUSH2 0x255 JUMPI PUSH2 0x254 PUSH2 0xA14 JUMP JUMPDEST JUMPDEST PUSH1 0x20 MUL PUSH1 0x20 ADD ADD DUP2 DUP2 MSTORE POP POP PUSH1 0x40 MLOAD DUP1 PUSH1 0x40 ADD PUSH1 0x40 MSTORE DUP1 PUSH1 0x1 DUP2 MSTORE PUSH1 0x20 ADD PUSH32 0x4400000000000000000000000000000000000000000000000000000000000000 DUP2 MSTORE POP DUP2 PUSH1 0x2 DUP2 MLOAD DUP2 LT PUSH2 0x2AB JUMPI PUSH2 0x2AA PUSH2 0xA14 JUMP JUMPDEST JUMPDEST PUSH1 0x20 MUL PUSH1 0x20 ADD ADD DUP2 SWAP1 MSTORE POP PUSH2 0x190 DUP3 PUSH1 0x3 DUP2 MLOAD DUP2 LT PUSH2 0x2CD JUMPI PUSH2 0x2CC PUSH2 0xA14 JUMP JUMPDEST JUMPDEST PUSH1 0x20 MUL PUSH1 0x20 ADD ADD DUP2 DUP2 MSTORE POP POP PUSH1 0x40 MLOAD DUP1 PUSH1 0x40 ADD PUSH1 0x40 MSTORE DUP1 PUSH1 0x2 DUP2 MSTORE PUSH1 0x20 ADD PUSH32 0x4344000000000000000000000000000000000000000000000000000000000000 DUP2 MSTORE POP DUP2 PUSH1 0x3 DUP2 MLOAD DUP2 LT PUSH2 0x323 JUMPI PUSH2 0x322 PUSH2 0xA14 JUMP JUMPDEST JUMPDEST PUSH1 0x20 MUL PUSH1 0x20 ADD ADD DUP2 SWAP1 MSTORE POP PUSH1 0x64 DUP3 PUSH1 0x4 DUP2 MLOAD DUP2 LT PUSH2 0x344 JUMPI PUSH2 0x343 PUSH2 0xA14 JUMP JUMPDEST JUMPDEST PUSH1 0x20 MUL PUSH1 0x20 ADD ADD DUP2 DUP2 MSTORE POP POP PUSH1 0x40 MLOAD DUP1 PUSH1 0x40 ADD PUSH1 0x40 MSTORE DUP1 PUSH1 0x1 DUP2 MSTORE PUSH1 0x20 ADD PUSH32 0x4300000000000000000000000000000000000000000000000000000000000000 DUP2 MSTORE POP DUP2 PUSH1 0x4 DUP2 MLOAD DUP2 LT PUSH2 0x39A JUMPI PUSH2 0x399 PUSH2 0xA14 JUMP JUMPDEST JUMPDEST PUSH1 0x20 MUL PUSH1 0x20 ADD ADD DUP2 SWAP1 MSTORE POP PUSH1 0x5A DUP3 PUSH1 0x5 DUP2 MLOAD DUP2 LT PUSH2 0x3BB JUMPI PUSH2 0x3BA PUSH2 0xA14 JUMP JUMPDEST JUMPDEST PUSH1 0x20 MUL PUSH1 0x20 ADD ADD DUP2 DUP2 MSTORE POP POP PUSH1 0x40 MLOAD DUP1 PUSH1 0x40 ADD PUSH1 0x40 MSTORE DUP1 PUSH1 0x2 DUP2 MSTORE PUSH1 0x20 ADD PUSH32 0x5843000000000000000000000000000000000000000000000000000000000000 DUP2 MSTORE POP DUP2 PUSH1 0x5 DUP2 MLOAD DUP2 LT PUSH2 0x411 JUMPI PUSH2 0x410 PUSH2 0xA14 JUMP JUMPDEST JUMPDEST PUSH1 0x20 MUL PUSH1 0x20 ADD ADD DUP2 SWAP1 MSTORE POP PUSH1 0x32 DUP3 PUSH1 0x6 DUP2 MLOAD DUP2 LT PUSH2 0x432 JUMPI PUSH2 0x431 PUSH2 0xA14 JUMP JUMPDEST JUMPDEST PUSH1 0x20 MUL PUSH1 0x20 ADD ADD DUP2 DUP2 MSTORE POP POP PUSH1 0x40 MLOAD DUP1 PUSH1 0x40 ADD PUSH1 0x40 MSTORE DUP1 PUSH1 0x1 DUP2 MSTORE PUSH1 0x20 ADD PUSH32 0x4C00000000000000000000000000000000000000000000000000000000000000 DUP2 MSTORE POP DUP2 PUSH1 0x6 DUP2 MLOAD DUP2 LT PUSH2 0x488 JUMPI PUSH2 0x487 PUSH2 0xA14 JUMP JUMPDEST JUMPDEST PUSH1 0x20 MUL PUSH1 0x20 ADD ADD DUP2 SWAP1 MSTORE POP PUSH1 0x28 DUP3 PUSH1 0x7 DUP2 MLOAD DUP2 LT PUSH2 0x4A9 JUMPI PUSH2 0x4A8 PUSH2 0xA14 JUMP JUMPDEST JUMPDEST PUSH1 0x20 MUL PUSH1 0x20 ADD ADD DUP2 DUP2 MSTORE POP POP PUSH1 0x40 MLOAD DUP1 PUSH1 0x40 ADD PUSH1 0x40 MSTORE DUP1 PUSH1 0x2 DUP2 MSTORE PUSH1 0x20 ADD PUSH32 0x584C000000000000000000000000000000000000000000000000000000000000 DUP2 MSTORE POP DUP2 PUSH1 0x7 DUP2 MLOAD DUP2 LT PUSH2 0x4FF JUMPI PUSH2 0x4FE PUSH2 0xA14 JUMP JUMPDEST JUMPDEST PUSH1 0x20 MUL PUSH1 0x20 ADD ADD DUP2 SWAP1 MSTORE POP PUSH1 0xA DUP3 PUSH1 0x8 DUP2 MLOAD DUP2 LT PUSH2 0x520 JUMPI PUSH2 0x51F PUSH2 0xA14 JUMP JUMPDEST JUMPDEST PUSH1 0x20 MUL PUSH1 0x20 ADD ADD DUP2 DUP2 MSTORE POP POP PUSH1 0x40 MLOAD DUP1 PUSH1 0x40 ADD PUSH1 0x40 MSTORE DUP1 PUSH1 0x1 DUP2 MSTORE PUSH1 0x20 ADD PUSH32 0x5800000000000000000000000000000000000000000000000000000000000000 DUP2 MSTORE POP DUP2 PUSH1 0x8 DUP2 MLOAD DUP2 LT PUSH2 0x576 JUMPI PUSH2 0x575 PUSH2 0xA14 JUMP JUMPDEST JUMPDEST PUSH1 0x20 MUL PUSH1 0x20 ADD ADD DUP2 SWAP1 MSTORE POP PUSH1 0x9 DUP3 PUSH1 0x9 DUP2 MLOAD DUP2 LT PUSH2 0x597 JUMPI PUSH2 0x596 PUSH2 0xA14 JUMP JUMPDEST JUMPDEST PUSH1 0x20 MUL PUSH1 0x20 ADD ADD DUP2 DUP2 MSTORE POP POP PUSH1 0x40 MLOAD DUP1 PUSH1 0x40 ADD PUSH1 0x40 MSTORE DUP1 PUSH1 0x2 DUP2 MSTORE PUSH1 0x20 ADD PUSH32 0x4958000000000000000000000000000000000000000000000000000000000000 DUP2 MSTORE POP DUP2 PUSH1 0x9 DUP2 MLOAD DUP2 LT PUSH2 0x5ED JUMPI PUSH2 0x5EC PUSH2 0xA14 JUMP JUMPDEST JUMPDEST PUSH1 0x20 MUL PUSH1 0x20 ADD ADD DUP2 SWAP1 MSTORE POP PUSH1 0x5 DUP3 PUSH1 0xA DUP2 MLOAD DUP2 LT PUSH2 0x60E JUMPI PUSH2 0x60D PUSH2 0xA14 JUMP JUMPDEST JUMPDEST PUSH1 0x20 MUL PUSH1 0x20 ADD ADD DUP2 DUP2 MSTORE POP POP PUSH1 0x40 MLOAD DUP1 PUSH1 0x40 ADD PUSH1 0x40 MSTORE DUP1 PUSH1 0x1 DUP2 MSTORE PUSH1 0x20 ADD PUSH32 0x5600000000000000000000000000000000000000000000000000000000000000 DUP2 MSTORE POP DUP2 PUSH1 0xA DUP2 MLOAD DUP2 LT PUSH2 0x664 JUMPI PUSH2 0x663 PUSH2 0xA14 JUMP JUMPDEST JUMPDEST PUSH1 0x20 MUL PUSH1 0x20 ADD ADD DUP2 SWAP1 MSTORE POP PUSH1 0x4 DUP3 PUSH1 0xB DUP2 MLOAD DUP2 LT PUSH2 0x685 JUMPI PUSH2 0x684 PUSH2 0xA14 JUMP JUMPDEST JUMPDEST PUSH1 0x20 MUL PUSH1 0x20 ADD ADD DUP2 DUP2 MSTORE POP POP PUSH1 0x40 MLOAD DUP1 PUSH1 0x40 ADD PUSH1 0x40 MSTORE DUP1 PUSH1 0x2 DUP2 MSTORE PUSH1 0x20 ADD PUSH32 0x4956000000000000000000000000000000000000000000000000000000000000 DUP2 MSTORE POP DUP2 PUSH1 0xB DUP2 MLOAD DUP2 LT PUSH2 0x6DB JUMPI PUSH2 0x6DA PUSH2 0xA14 JUMP JUMPDEST JUMPDEST PUSH1 0x20 MUL PUSH1 0x20 ADD ADD DUP2 SWAP1 MSTORE POP PUSH1 0x1 DUP3 PUSH1 0xC DUP2 MLOAD DUP2 LT PUSH2 0x6FC JUMPI PUSH2 0x6FB PUSH2 0xA14 JUMP JUMPDEST JUMPDEST PUSH1 0x20 MUL PUSH1 0x20 ADD ADD DUP2 DUP2 MSTORE POP POP PUSH1 0x40 MLOAD DUP1 PUSH1 0x40 ADD PUSH1 0x40 MSTORE DUP1 PUSH1 0x1 DUP2 MSTORE PUSH1 0x20 ADD PUSH32 0x4900000000000000000000000000000000000000000000000000000000000000 DUP2 MSTORE POP DUP2 PUSH1 0xC DUP2 MLOAD DUP2 LT PUSH2 0x752 JUMPI PUSH2 0x751 PUSH2 0xA14 JUMP JUMPDEST JUMPDEST PUSH1 0x20 MUL PUSH1 0x20 ADD ADD DUP2 SWAP1 MSTORE POP PUSH0 PUSH0 PUSH8 0xFFFFFFFFFFFFFFFF DUP2 GT ISZERO PUSH2 0x778 JUMPI PUSH2 0x777 PUSH2 0x9E7 JUMP JUMPDEST JUMPDEST PUSH1 0x40 MLOAD SWAP1 DUP1 DUP3 MSTORE DUP1 PUSH1 0x1F ADD PUSH1 0x1F NOT AND PUSH1 0x20 ADD DUP3 ADD PUSH1 0x40 MSTORE DUP1 ISZERO PUSH2 0x7AA JUMPI DUP2 PUSH1 0x20 ADD PUSH1 0x1 DUP3 MUL DUP1 CALLDATASIZE DUP4 CALLDATACOPY DUP1 DUP3 ADD SWAP2 POP POP SWAP1 POP JUMPDEST POP SWAP1 POP PUSH0 PUSH0 SWAP1 POP JUMPDEST PUSH1 0xD DUP2 LT ISZERO PUSH2 0x85B JUMPI JUMPDEST DUP4 DUP2 DUP2 MLOAD DUP2 LT PUSH2 0x7CF JUMPI PUSH2 0x7CE PUSH2 0xA14 JUMP JUMPDEST JUMPDEST PUSH1 0x20 MUL PUSH1 0x20 ADD ADD MLOAD DUP7 LT PUSH2 0x848 JUMPI DUP2 DUP4 DUP3 DUP2 MLOAD DUP2 LT PUSH2 0x7F1 JUMPI PUSH2 0x7F0 PUSH2 0xA14 JUMP JUMPDEST JUMPDEST PUSH1 0x20 MUL PUSH1 0x20 ADD ADD MLOAD PUSH1 0x40 MLOAD PUSH1 0x20 ADD PUSH2 0x80A SWAP3 SWAP2 SWAP1 PUSH2 0xABF JUMP JUMPDEST PUSH1 0x40 MLOAD PUSH1 0x20 DUP2 DUP4 SUB SUB DUP2 MSTORE SWAP1 PUSH1 0x40 MSTORE SWAP2 POP DUP4 DUP2 DUP2 MLOAD DUP2 LT PUSH2 0x82E JUMPI PUSH2 0x82D PUSH2 0xA14 JUMP JUMPDEST JUMPDEST PUSH1 0x20 MUL PUSH1 0x20 ADD ADD MLOAD DUP7 PUSH2 0x841 SWAP2 SWAP1 PUSH2 0xB0F JUMP JUMPDEST SWAP6 POP PUSH2 0x7BC JUMP JUMPDEST PUSH0 DUP7 SUB ISZERO PUSH2 0x85B JUMPI DUP1 PUSH1 0x1 ADD SWAP1 POP PUSH2 0x7B2 JUMP JUMPDEST POP DUP1 SWAP4 POP POP POP POP SWAP2 SWAP1 POP JUMP JUMPDEST PUSH0 PUSH0 REVERT JUMPDEST PUSH0 DUP2 SWAP1 POP SWAP2 SWAP1 POP JUMP JUMPDEST PUSH2 0x87D DUP2 PUSH2 0x86B JUMP JUMPDEST DUP2 EQ PUSH2 0x887 JUMPI PUSH0 PUSH0 REVERT JUMPDEST POP JUMP JUMPDEST PUSH0 DUP2 CALLDATALOAD SWAP1 POP PUSH2 0x898 DUP2 PUSH2 0x874 JUMP JUMPDEST SWAP3 SWAP2 POP POP JUMP JUMPDEST PUSH0 PUSH1 0x20 DUP3 DUP5 SUB SLT ISZERO PUSH2 0x8B3 JUMPI PUSH2 0x8B2 PUSH2 0x867 JUMP JUMPDEST JUMPDEST PUSH0 PUSH2 0x8C0 DUP5 DUP3 DUP6 ADD PUSH2 0x88A JUMP JUMPDEST SWAP2 POP POP SWAP3 SWAP2 POP POP JUMP JUMPDEST PUSH0 DUP2 MLOAD SWAP1 POP SWAP2 SWAP1 POP JUMP JUMPDEST PUSH0 DUP3 DUP3 MSTORE PUSH1 0x20 DUP3 ADD SWAP1 POP SWAP3 SWAP2 POP POP JUMP JUMPDEST DUP3 DUP2 DUP4 MCOPY PUSH0 DUP4 DUP4 ADD MSTORE POP POP POP JUMP JUMPDEST PUSH0 PUSH1 0x1F NOT PUSH1 0x1F DUP4 ADD AND SWAP1 POP SWAP2 SWAP1 POP JUMP JUMPDEST PUSH0 PUSH2 0x90B DUP3 PUSH2 0x8C9 JUMP JUMPDEST PUSH2 0x915 DUP2 DUP6 PUSH2 0x8D3 JUMP JUMPDEST SWAP4 POP PUSH2 0x925 DUP2 DUP6 PUSH1 0x20 DUP7 ADD PUSH2 0x8E3 JUMP JUMPDEST PUSH2 0x92E DUP2 PUSH2 0x8F1 JUMP JUMPDEST DUP5 ADD SWAP2 POP POP SWAP3 SWAP2 POP POP JUMP JUMPDEST PUSH0 PUSH1 0x20 DUP3 ADD SWAP1 POP DUP2 DUP2 SUB PUSH0 DUP4 ADD MSTORE PUSH2 0x951 DUP2 DUP5 PUSH2 0x901 JUMP JUMPDEST SWAP1 POP SWAP3 SWAP2 POP POP JUMP JUMPDEST PUSH32 0x4E756D626572206D757374206265206265747765656E203120616E6420333939 PUSH0 DUP3 ADD MSTORE PUSH32 0x392E000000000000000000000000000000000000000000000000000000000000 PUSH1 0x20 DUP3 ADD MSTORE POP JUMP JUMPDEST PUSH0 PUSH2 0x9B3 PUSH1 0x22 DUP4 PUSH2 0x8D3 JUMP JUMPDEST SWAP2 POP PUSH2 0x9BE DUP3 PUSH2 0x959 JUMP JUMPDEST PUSH1 0x40 DUP3 ADD SWAP1 POP SWAP2 SWAP1 POP JUMP JUMPDEST PUSH0 PUSH1 0x20 DUP3 ADD SWAP1 POP DUP2 DUP2 SUB PUSH0 DUP4 ADD MSTORE PUSH2 0x9E0 DUP2 PUSH2 0x9A7 JUMP JUMPDEST SWAP1 POP SWAP2 SWAP1 POP JUMP JUMPDEST PUSH32 0x4E487B7100000000000000000000000000000000000000000000000000000000 PUSH0 MSTORE PUSH1 0x41 PUSH1 0x4 MSTORE PUSH1 0x24 PUSH0 REVERT JUMPDEST PUSH32 0x4E487B7100000000000000000000000000000000000000000000000000000000 PUSH0 MSTORE PUSH1 0x32 PUSH1 0x4 MSTORE PUSH1 0x24 PUSH0 REVERT JUMPDEST PUSH0 DUP2 MLOAD SWAP1 POP SWAP2 SWAP1 POP JUMP JUMPDEST PUSH0 DUP2 SWAP1 POP SWAP3 SWAP2 POP POP JUMP JUMPDEST PUSH0 PUSH2 0xA5F DUP3 PUSH2 0xA41 JUMP JUMPDEST PUSH2 0xA69 DUP2 DUP6 PUSH2 0xA4B JUMP JUMPDEST SWAP4 POP PUSH2 0xA79 DUP2 DUP6 PUSH1 0x20 DUP7 ADD PUSH2 0x8E3 JUMP JUMPDEST DUP1 DUP5 ADD SWAP2 POP POP SWAP3 SWAP2 POP POP JUMP JUMPDEST PUSH0 DUP2 SWAP1 POP SWAP3 SWAP2 POP POP JUMP JUMPDEST PUSH0 PUSH2 0xA99 DUP3 PUSH2 0x8C9 JUMP JUMPDEST PUSH2 0xAA3 DUP2 DUP6 PUSH2 0xA85 JUMP JUMPDEST SWAP4 POP PUSH2 0xAB3 DUP2 DUP6 PUSH1 0x20 DUP7 ADD PUSH2 0x8E3 JUMP JUMPDEST DUP1 DUP5 ADD SWAP2 POP POP SWAP3 SWAP2 POP POP JUMP JUMPDEST PUSH0 PUSH2 0xACA DUP3 DUP6 PUSH2 0xA55 JUMP JUMPDEST SWAP2 POP PUSH2 0xAD6 DUP3 DUP5 PUSH2 0xA8F JUMP JUMPDEST SWAP2 POP DUP2 SWAP1 POP SWAP4 SWAP3 POP POP POP JUMP JUMPDEST PUSH32 0x4E487B7100000000000000000000000000000000000000000000000000000000 PUSH0 MSTORE PUSH1 0x11 PUSH1 0x4 MSTORE PUSH1 0x24 PUSH0 REVERT JUMPDEST PUSH0 PUSH2 0xB19 DUP3 PUSH2 0x86B JUMP JUMPDEST SWAP2 POP PUSH2 0xB24 DUP4 PUSH2 0x86B JUMP JUMPDEST SWAP3 POP DUP3 DUP3 SUB SWAP1 POP DUP2 DUP2 GT ISZERO PUSH2 0xB3C JUMPI PUSH2 0xB3B PUSH2 0xAE2 JUMP JUMPDEST JUMPDEST SWAP3 SWAP2 POP POP JUMP INVALID LOG2 PUSH5 0x6970667358 0x22 SLT KECCAK256 ADD PUSH14 0x16D0C5A555EEF6F0E8277DD76A57 PUSH18 0x3384F13220DEDA633B7288CD2A788264736F PUSH13 0x634300081E0033000000000000 "
				},
				"gasEstimates": {
					"creation": {
						"codeDepositCost": "587200",
						"executionCost": "617",
						"totalCost": "587817"
					},
					"external": {
						"intToRoman(uint256)": "infinite"
					}
				},
				"methodIdentifiers": {
					"intToRoman(uint256)": "0cbc513a"
				}
			},
			"storageLayout": {
				"storage": [],
				"types": null
			},
			"userdoc": {
				"kind": "user",
				"methods": {},
				"version": 1
			}
		}
	}
}