{"contracts/LiquidityPool.sol":{"LiquidityPool":{"abi":[{"inputs":[{"internalType":"address","name":"memeToken","type":"address"}],"stateMutability":"nonpayable","type":"constructor"},{"anonymous":false,"inputs":[{"indexed":true,"internalType":"address","name":"provider","type":"address"},{"indexed":false,"internalType":"uint256","name":"ethAmount","type":"uint256"},{"indexed":false,"internalType":"uint256","name":"tokenAmount","type":"uint256"},{"indexed":false,"internalType":"uint256","name":"shares","type":"uint256"}],"name":"AddLiquidity","type":"event"},{"anonymous":false,"inputs":[{"indexed":true,"internalType":"address","name":"provider","type":"address"},{"indexed":false,"internalType":"uint256","name":"ethAmount","type":"uint256"},{"indexed":false,"internalType":"uint256","name":"tokenAmount","type":"uint256"},{"indexed":false,"internalType":"uint256","name":"shares","type":"uint256"}],"name":"RemoveLiquidity","type":"event"},{"anonymous":false,"inputs":[{"indexed":true,"internalType":"address","name":"swapper","type":"address"},{"indexed":false,"internalType":"uint256","name":"ethIn","type":"uint256"},{"indexed":false,"internalType":"uint256","name":"tokenOut","type":"uint256"},{"indexed":false,"internalType":"uint256","name":"tokenIn","type":"uint256"},{"indexed":false,"internalType":"uint256","name":"ethOut","type":"uint256"}],"name":"Swap","type":"event"},{"inputs":[],"name":"_ethReserve","outputs":[{"internalType":"uint256","name":"","type":"uint256"}],"stateMutability":"view","type":"function"},{"inputs":[{"internalType":"address","name":"","type":"address"}],"name":"_liquidityShares","outputs":[{"internalType":"uint256","name":"","type":"uint256"}],"stateMutability":"view","type":"function"},{"inputs":[],"name":"_memeToken","outputs":[{"internalType":"address","name":"","type":"address"}],"stateMutability":"view","type":"function"},{"inputs":[],"name":"_owner","outputs":[{"internalType":"address","name":"","type":"address"}],"stateMutability":"view","type":"function"},{"inputs":[],"name":"_tokenReserve","outputs":[{"internalType":"uint256","name":"","type":"uint256"}],"stateMutability":"view","type":"function"},{"inputs":[],"name":"_totalShares","outputs":[{"internalType":"uint256","name":"","type":"uint256"}],"stateMutability":"view","type":"function"},{"inputs":[{"internalType":"uint256","name":"tokenAmount","type":"uint256"}],"name":"addLiquidity","outputs":[],"stateMutability":"payable","type":"function"},{"inputs":[],"name":"getMemeToken","outputs":[{"internalType":"address","name":"","type":"address"}],"stateMutability":"view","type":"function"},{"inputs":[],"name":"getOwner","outputs":[{"internalType":"address","name":"","type":"address"}],"stateMutability":"view","type":"function"},{"inputs":[],"name":"getPoolInfo","outputs":[{"internalType":"uint256","name":"","type":"uint256"},{"internalType":"uint256","name":"","type":"uint256"},{"internalType":"uint256","name":"","type":"uint256"}],"stateMutability":"view","type":"function"},{"inputs":[{"internalType":"uint256","name":"amountIn","type":"uint256"},{"internalType":"bool","name":"isEthToToken","type":"bool"}],"name":"getSwapPrice","outputs":[{"internalType":"uint256","name":"amountOut","type":"uint256"}],"stateMutability":"view","type":"function"},{"inputs":[{"internalType":"uint256","name":"shares","type":"uint256"}],"name":"removeLiquidity","outputs":[],"stateMutability":"nonpayable","type":"function"},{"inputs":[],"name":"swapETHForToken","outputs":[],"stateMutability":"payable","type":"function"},{"inputs":[{"internalType":"uint256","name":"tokenIn","type":"uint256"}],"name":"swapTokenForETH","outputs":[],"stateMutability":"nonpayable","type":"function"}],"evm":{"bytecode":{"linkReferences":{},"object":"608060405234801561001057600080fd5b5060405161197d38038061197d8339818101604052810190610032919061011c565b336000806101000a81548173ffffffffffffffffffffffffffffffffffffffff021916908373ffffffffffffffffffffffffffffffffffffffff16021790555080600160006101000a81548173ffffffffffffffffffffffffffffffffffffffff021916908373ffffffffffffffffffffffffffffffffffffffff16021790555050610149565b600080fd5b600073ffffffffffffffffffffffffffffffffffffffff82169050919050565b60006100e9826100be565b9050919050565b6100f9816100de565b811461010457600080fd5b50565b600081519050610116816100f0565b92915050565b600060208284031215610132576101316100b9565b5b600061014084828501610107565b91505092915050565b611825806101586000396000f3fe6080604052600436106100dd5760003560e01c806398c39ca21161007f578063b0428da611610059578063b0428da6146102a3578063b2bdfa7b146102ce578063e11010d8146102f9578063ffbff8a914610324576100dd565b806398c39ca2146102245780639c8f9f231461024f578063aa83f57414610278576100dd565b80636e25e25a116100bb5780636e25e25a146101685780636fb84b74146101a5578063893d20e8146101ce5780639197ff29146101f9576100dd565b806351c6590a146100e257806360246c88146100fe57806367634f681461012b575b600080fd5b6100fc60048036038101906100f79190610fad565b61032e565b005b34801561010a57600080fd5b506101136105c6565b60405161012293929190610fe9565b60405180910390f35b34801561013757600080fd5b50610152600480360381019061014d919061107e565b6105df565b60405161015f91906110ab565b60405180910390f35b34801561017457600080fd5b5061018f600480360381019061018a91906110fe565b6105f7565b60405161019c91906110ab565b60405180910390f35b3480156101b157600080fd5b506101cc60048036038101906101c79190610fad565b6106ff565b005b3480156101da57600080fd5b506101e36109aa565b6040516101f0919061114d565b60405180910390f35b34801561020557600080fd5b5061020e6109d3565b60405161021b919061114d565b60405180910390f35b34801561023057600080fd5b506102396109fd565b60405161024691906110ab565b60405180910390f35b34801561025b57600080fd5b5061027660048036038101906102719190610fad565b610a03565b005b34801561028457600080fd5b5061028d610cb5565b60405161029a919061114d565b60405180910390f35b3480156102af57600080fd5b506102b8610cdb565b6040516102c591906110ab565b60405180910390f35b3480156102da57600080fd5b506102e3610ce1565b6040516102f0919061114d565b60405180910390f35b34801561030557600080fd5b5061030e610d05565b60405161031b91906110ab565b60405180910390f35b61032c610d0b565b005b60003411801561033e5750600081115b61037d576040517f08c379a0000000000000000000000000000000000000000000000000000000008152600401610374906111c5565b60405180910390fd5b600080349050600060055403610395573491506103e7565b6000600254600554836103a89190611214565b6103b29190611285565b90506000600354600554866103c79190611214565b6103d19190611285565b90508082106103e057806103e2565b815b935050505b6000600160009054906101000a900473ffffffffffffffffffffffffffffffffffffffff1690508073ffffffffffffffffffffffffffffffffffffffff166323b872dd3330876040518463ffffffff1660e01b815260040161044b939291906112b6565b6020604051808303816000875af115801561046a573d6000803e3d6000fd5b505050506040513d601f19601f8201168201806040525081019061048e9190611302565b6104cd576040517f08c379a00000000000000000000000000000000000000000000000000000000081526004016104c49061137b565b60405180910390fd5b81600260008282546104df919061139b565b9250508190555083600360008282546104f8919061139b565b9250508190555082600460003373ffffffffffffffffffffffffffffffffffffffff1673ffffffffffffffffffffffffffffffffffffffff168152602001908152602001600020600082825461054e919061139b565b925050819055508260056000828254610567919061139b565b925050819055503373ffffffffffffffffffffffffffffffffffffffff167fbeb3885786d637a474cbc287c0a44587231633a077f0bd30354d5a4b18996fce8386866040516105b893929190610fe9565b60405180910390a250505050565b6000806000600254600354600554925092509250909192565b60046020528060005260406000206000915090505481565b600080831161063b576040517f08c379a00000000000000000000000000000000000000000000000000000000081526004016106329061141b565b60405180910390fd5b6000600254148061064e57506000600354145b1561065c57600090506106f9565b81156106af5760006103e86103e5856106759190611214565b61067f9190611285565b90508060025461068f919061139b565b8160035461069d9190611214565b6106a79190611285565b9150506106f8565b60006103e86103e5856106c29190611214565b6106cc9190611285565b9050806003546106dc919061139b565b816002546106ea9190611214565b6106f49190611285565b9150505b5b92915050565b60008111610742576040517f08c379a000000000000000000000000000000000000000000000000000000000815260040161073990611487565b60405180910390fd5b600060025411801561075657506000600354115b610795576040517f08c379a000000000000000000000000000000000000000000000000000000000815260040161078c906114f3565b60405180910390fd5b60006103e86103e5836107a89190611214565b6107b29190611285565b90506000816003546107c4919061139b565b826002546107d29190611214565b6107dc9190611285565b90506000811180156107ef575060025481105b61082e576040517f08c379a00000000000000000000000000000000000000000000000000000000081526004016108259061155f565b60405180910390fd5b6000600160009054906101000a900473ffffffffffffffffffffffffffffffffffffffff1690508073ffffffffffffffffffffffffffffffffffffffff166323b872dd3330876040518463ffffffff1660e01b8152600401610892939291906112b6565b6020604051808303816000875af11580156108b1573d6000803e3d6000fd5b505050506040513d601f19601f820116820180604052508101906108d59190611302565b5083600360008282546108e8919061139b565b925050819055508160026000828254610901919061157f565b925050819055503373ffffffffffffffffffffffffffffffffffffffff166108fc839081150290604051600060405180830381858888f1935050505015801561094e573d6000803e3d6000fd5b503373ffffffffffffffffffffffffffffffffffffffff167f49926bbebe8474393f434dfa4f78694c0923efa07d19f2284518bfabd06eb737600080878660405161099c94939291906115f8565b60405180910390a250505050565b60008060009054906101000a900473ffffffffffffffffffffffffffffffffffffffff16905090565b6000600160009054906101000a900473ffffffffffffffffffffffffffffffffffffffff16905090565b60035481565b600081118015610a52575080600460003373ffffffffffffffffffffffffffffffffffffffff1673ffffffffffffffffffffffffffffffffffffffff1681526020019081526020016000205410155b610a91576040517f08c379a0000000000000000000000000000000000000000000000000000000008152600401610a8890611689565b60405180910390fd5b600060055460025483610aa49190611214565b610aae9190611285565b9050600060055460035484610ac39190611214565b610acd9190611285565b90508160026000828254610ae1919061157f565b925050819055508060036000828254610afa919061157f565b9250508190555082600460003373ffffffffffffffffffffffffffffffffffffffff1673ffffffffffffffffffffffffffffffffffffffff1681526020019081526020016000206000828254610b50919061157f565b925050819055508260056000828254610b69919061157f565b925050819055503373ffffffffffffffffffffffffffffffffffffffff166108fc839081150290604051600060405180830381858888f19350505050158015610bb6573d6000803e3d6000fd5b506000600160009054906101000a900473ffffffffffffffffffffffffffffffffffffffff1690508073ffffffffffffffffffffffffffffffffffffffff1663a9059cbb33846040518363ffffffff1660e01b8152600401610c199291906116a9565b6020604051808303816000875af1158015610c38573d6000803e3d6000fd5b505050506040513d601f19601f82011682018060405250810190610c5c9190611302565b503373ffffffffffffffffffffffffffffffffffffffff167f59c3a0b60c6ab7deb62e1440c9e72441db6db7dfe514dba8cb18e60c0d896efa848487604051610ca793929190610fe9565b60405180910390a250505050565b600160009054906101000a900473ffffffffffffffffffffffffffffffffffffffff1681565b60055481565b60008054906101000a900473ffffffffffffffffffffffffffffffffffffffff1681565b60025481565b60003411610d4e576040517f08c379a0000000000000000000000000000000000000000000000000000000008152600401610d459061171e565b60405180910390fd5b6000600254118015610d6257506000600354115b610da1576040517f08c379a0000000000000000000000000000000000000000000000000000000008152600401610d989061178a565b60405180910390fd5b600034905060006103e86103e583610db99190611214565b610dc39190611285565b9050600081600254610dd5919061139b565b82600354610de39190611214565b610ded9190611285565b9050600081118015610e00575060035481105b610e3f576040517f08c379a0000000000000000000000000000000000000000000000000000000008152600401610e369061155f565b60405180910390fd5b8260026000828254610e51919061139b565b925050819055508060036000828254610e6a919061157f565b925050819055506000600160009054906101000a900473ffffffffffffffffffffffffffffffffffffffff1690508073ffffffffffffffffffffffffffffffffffffffff1663a9059cbb33846040518363ffffffff1660e01b8152600401610ed39291906116a9565b6020604051808303816000875af1158015610ef2573d6000803e3d6000fd5b505050506040513d601f19601f82011682018060405250810190610f169190611302565b503373ffffffffffffffffffffffffffffffffffffffff167f49926bbebe8474393f434dfa4f78694c0923efa07d19f2284518bfabd06eb7378584600080604051610f6494939291906117aa565b60405180910390a250505050565b600080fd5b6000819050919050565b610f8a81610f77565b8114610f9557600080fd5b50565b600081359050610fa781610f81565b92915050565b600060208284031215610fc357610fc2610f72565b5b6000610fd184828501610f98565b91505092915050565b610fe381610f77565b82525050565b6000606082019050610ffe6000830186610fda565b61100b6020830185610fda565b6110186040830184610fda565b949350505050565b600073ffffffffffffffffffffffffffffffffffffffff82169050919050565b600061104b82611020565b9050919050565b61105b81611040565b811461106657600080fd5b50565b60008135905061107881611052565b92915050565b60006020828403121561109457611093610f72565b5b60006110a284828501611069565b91505092915050565b60006020820190506110c06000830184610fda565b92915050565b60008115159050919050565b6110db816110c6565b81146110e657600080fd5b50565b6000813590506110f8816110d2565b92915050565b6000806040838503121561111557611114610f72565b5b600061112385828601610f98565b9250506020611134858286016110e9565b9150509250929050565b61114781611040565b82525050565b6000602082019050611162600083018461113e565b92915050565b600082825260208201905092915050565b7f496e76616c696420616d6f756e74730000000000000000000000000000000000600082015250565b60006111af600f83611168565b91506111ba82611179565b602082019050919050565b600060208201905081810360008301526111de816111a2565b9050919050565b7f4e487b7100000000000000000000000000000000000000000000000000000000600052601160045260246000fd5b600061121f82610f77565b915061122a83610f77565b925082820261123881610f77565b9150828204841483151761124f5761124e6111e5565b5b5092915050565b7f4e487b7100000000000000000000000000000000000000000000000000000000600052601260045260246000fd5b600061129082610f77565b915061129b83610f77565b9250826112ab576112aa611256565b5b828204905092915050565b60006060820190506112cb600083018661113e565b6112d8602083018561113e565b6112e56040830184610fda565b949350505050565b6000815190506112fc816110d2565b92915050565b60006020828403121561131857611317610f72565b5b6000611326848285016112ed565b91505092915050565b7f546f6b656e207472616e73666572206661696c65640000000000000000000000600082015250565b6000611365601583611168565b91506113708261132f565b602082019050919050565b6000602082019050818103600083015261139481611358565b9050919050565b60006113a682610f77565b91506113b183610f77565b92508282019050808211156113c9576113c86111e5565b5b92915050565b7f496e76616c696420616d6f756e74000000000000000000000000000000000000600082015250565b6000611405600e83611168565b9150611410826113cf565b602082019050919050565b60006020820190508181036000830152611434816113f8565b9050919050565b7f496e76616c696420746f6b656e20616d6f756e74000000000000000000000000600082015250565b6000611471601483611168565b915061147c8261143b565b602082019050919050565b600060208201905081810360008301526114a081611464565b9050919050565b7f4e6f206c69717569646974790000000000000000000000000000000000000000600082015250565b60006114dd600c83611168565b91506114e8826114a7565b602082019050919050565b6000602082019050818103600083015261150c816114d0565b9050919050565b7f496e76616c696420737761700000000000000000000000000000000000000000600082015250565b6000611549600c83611168565b915061155482611513565b602082019050919050565b600060208201905081810360008301526115788161153c565b9050919050565b600061158a82610f77565b915061159583610f77565b92508282039050818111156115ad576115ac6111e5565b5b92915050565b6000819050919050565b6000819050919050565b60006115e26115dd6115d8846115b3565b6115bd565b610f77565b9050919050565b6115f2816115c7565b82525050565b600060808201905061160d60008301876115e9565b61161a60208301866115e9565b6116276040830185610fda565b6116346060830184610fda565b95945050505050565b7f496e76616c696420736861726573000000000000000000000000000000000000600082015250565b6000611673600e83611168565b915061167e8261163d565b602082019050919050565b600060208201905081810360008301526116a281611666565b9050919050565b60006040820190506116be600083018561113e565b6116cb6020830184610fda565b9392505050565b7f496e76616c69642045544820616d6f756e740000000000000000000000000000600082015250565b6000611708601283611168565b9150611713826116d2565b602082019050919050565b60006020820190508181036000830152611737816116fb565b9050919050565b7f496e73756666696369656e74206c697175696469747900000000000000000000600082015250565b6000611774601683611168565b915061177f8261173e565b602082019050919050565b600060208201905081810360008301526117a381611767565b9050919050565b60006080820190506117bf6000830187610fda565b6117cc6020830186610fda565b6117d960408301856115e9565b6117e660608301846115e9565b9594505050505056fea2646970667358221220558df49b310ee53ed79ee39c95603e071c6b9d1af8f4556e12832822c6ae559c64736f6c634300081c0033","opcodes":"PUSH1 0x80 PUSH1 0x40 MSTORE CALLVALUE DUP1 ISZERO PUSH2 0x10 JUMPI PUSH1 0x0 DUP1 REVERT JUMPDEST POP PUSH1 0x40 MLOAD PUSH2 0x197D CODESIZE SUB DUP1 PUSH2 0x197D DUP4 CODECOPY DUP2 DUP2 ADD PUSH1 0x40 MSTORE DUP2 ADD SWAP1 PUSH2 0x32 SWAP2 SWAP1 PUSH2 0x11C JUMP JUMPDEST CALLER PUSH1 0x0 DUP1 PUSH2 0x100 EXP DUP2 SLOAD DUP2 PUSH20 0xFFFFFFFFFFFFFFFFFFFFFFFFFFFFFFFFFFFFFFFF MUL NOT AND SWAP1 DUP4 PUSH20 0xFFFFFFFFFFFFFFFFFFFFFFFFFFFFFFFFFFFFFFFF AND MUL OR SWAP1 SSTORE POP DUP1 PUSH1 0x1 PUSH1 0x0 PUSH2 0x100 EXP DUP2 SLOAD DUP2 PUSH20 0xFFFFFFFFFFFFFFFFFFFFFFFFFFFFFFFFFFFFFFFF MUL NOT AND SWAP1 DUP4 PUSH20 0xFFFFFFFFFFFFFFFFFFFFFFFFFFFFFFFFFFFFFFFF AND MUL OR SWAP1 SSTORE POP POP PUSH2 0x149 JUMP JUMPDEST PUSH1 0x0 DUP1 REVERT JUMPDEST PUSH1 0x0 PUSH20 0xFFFFFFFFFFFFFFFFFFFFFFFFFFFFFFFFFFFFFFFF DUP3 AND SWAP1 POP SWAP2 SWAP1 POP JUMP JUMPDEST PUSH1 0x0 PUSH2 0xE9 DUP3 PUSH2 0xBE JUMP JUMPDEST SWAP1 POP SWAP2 SWAP1 POP JUMP JUMPDEST PUSH2 0xF9 DUP2 PUSH2 0xDE JUMP JUMPDEST DUP2 EQ PUSH2 0x104 JUMPI PUSH1 0x0 DUP1 REVERT JUMPDEST POP JUMP JUMPDEST PUSH1 0x0 DUP2 MLOAD SWAP1 POP PUSH2 0x116 DUP2 PUSH2 0xF0 JUMP JUMPDEST SWAP3 SWAP2 POP POP JUMP JUMPDEST PUSH1 0x0 PUSH1 0x20 DUP3 DUP5 SUB SLT ISZERO PUSH2 0x132 JUMPI PUSH2 0x131 PUSH2 0xB9 JUMP JUMPDEST JUMPDEST PUSH1 0x0 PUSH2 0x140 DUP5 DUP3 DUP6 ADD PUSH2 0x107 JUMP JUMPDEST SWAP2 POP POP SWAP3 SWAP2 POP POP JUMP JUMPDEST PUSH2 0x1825 DUP1 PUSH2 0x158 PUSH1 0x0 CODECOPY PUSH1 0x0 RETURN INVALID PUSH1 0x80 PUSH1 0x40 MSTORE PUSH1 0x4 CALLDATASIZE LT PUSH2 0xDD JUMPI PUSH1 0x0 CALLDATALOAD PUSH1 0xE0 SHR DUP1 PUSH4 0x98C39CA2 GT PUSH2 0x7F JUMPI DUP1 PUSH4 0xB0428DA6 GT PUSH2 0x59 JUMPI DUP1 PUSH4 0xB0428DA6 EQ PUSH2 0x2A3 JUMPI DUP1 PUSH4 0xB2BDFA7B EQ PUSH2 0x2CE JUMPI DUP1 PUSH4 0xE11010D8 EQ PUSH2 0x2F9 JUMPI DUP1 PUSH4 0xFFBFF8A9 EQ PUSH2 0x324 JUMPI PUSH2 0xDD JUMP JUMPDEST DUP1 PUSH4 0x98C39CA2 EQ PUSH2 0x224 JUMPI DUP1 PUSH4 0x9C8F9F23 EQ PUSH2 0x24F JUMPI DUP1 PUSH4 0xAA83F574 EQ PUSH2 0x278 JUMPI PUSH2 0xDD JUMP JUMPDEST DUP1 PUSH4 0x6E25E25A GT PUSH2 0xBB JUMPI DUP1 PUSH4 0x6E25E25A EQ PUSH2 0x168 JUMPI DUP1 PUSH4 0x6FB84B74 EQ PUSH2 0x1A5 JUMPI DUP1 PUSH4 0x893D20E8 EQ PUSH2 0x1CE JUMPI DUP1 PUSH4 0x9197FF29 EQ PUSH2 0x1F9 JUMPI PUSH2 0xDD JUMP JUMPDEST DUP1 PUSH4 0x51C6590A EQ PUSH2 0xE2 JUMPI DUP1 PUSH4 0x60246C88 EQ PUSH2 0xFE JUMPI DUP1 PUSH4 0x67634F68 EQ PUSH2 0x12B JUMPI JUMPDEST PUSH1 0x0 DUP1 REVERT JUMPDEST PUSH2 0xFC PUSH1 0x4 DUP1 CALLDATASIZE SUB DUP2 ADD SWAP1 PUSH2 0xF7 SWAP2 SWAP1 PUSH2 0xFAD JUMP JUMPDEST PUSH2 0x32E JUMP JUMPDEST STOP JUMPDEST CALLVALUE DUP1 ISZERO PUSH2 0x10A JUMPI PUSH1 0x0 DUP1 REVERT JUMPDEST POP PUSH2 0x113 PUSH2 0x5C6 JUMP JUMPDEST PUSH1 0x40 MLOAD PUSH2 0x122 SWAP4 SWAP3 SWAP2 SWAP1 PUSH2 0xFE9 JUMP JUMPDEST PUSH1 0x40 MLOAD DUP1 SWAP2 SUB SWAP1 RETURN JUMPDEST CALLVALUE DUP1 ISZERO PUSH2 0x137 JUMPI PUSH1 0x0 DUP1 REVERT JUMPDEST POP PUSH2 0x152 PUSH1 0x4 DUP1 CALLDATASIZE SUB DUP2 ADD SWAP1 PUSH2 0x14D SWAP2 SWAP1 PUSH2 0x107E JUMP JUMPDEST PUSH2 0x5DF JUMP JUMPDEST PUSH1 0x40 MLOAD PUSH2 0x15F SWAP2 SWAP1 PUSH2 0x10AB JUMP JUMPDEST PUSH1 0x40 MLOAD DUP1 SWAP2 SUB SWAP1 RETURN JUMPDEST CALLVALUE DUP1 ISZERO PUSH2 0x174 JUMPI PUSH1 0x0 DUP1 REVERT JUMPDEST POP PUSH2 0x18F PUSH1 0x4 DUP1 CALLDATASIZE SUB DUP2 ADD SWAP1 PUSH2 0x18A SWAP2 SWAP1 PUSH2 0x10FE JUMP JUMPDEST PUSH2 0x5F7 JUMP JUMPDEST PUSH1 0x40 MLOAD PUSH2 0x19C SWAP2 SWAP1 PUSH2 0x10AB JUMP JUMPDEST PUSH1 0x40 MLOAD DUP1 SWAP2 SUB SWAP1 RETURN JUMPDEST CALLVALUE DUP1 ISZERO PUSH2 0x1B1 JUMPI PUSH1 0x0 DUP1 REVERT JUMPDEST POP PUSH2 0x1CC PUSH1 0x4 DUP1 CALLDATASIZE SUB DUP2 ADD SWAP1 PUSH2 0x1C7 SWAP2 SWAP1 PUSH2 0xFAD JUMP JUMPDEST PUSH2 0x6FF JUMP JUMPDEST STOP JUMPDEST CALLVALUE DUP1 ISZERO PUSH2 0x1DA JUMPI PUSH1 0x0 DUP1 REVERT JUMPDEST POP PUSH2 0x1E3 PUSH2 0x9AA JUMP JUMPDEST PUSH1 0x40 MLOAD PUSH2 0x1F0 SWAP2 SWAP1 PUSH2 0x114D JUMP JUMPDEST PUSH1 0x40 MLOAD DUP1 SWAP2 SUB SWAP1 RETURN JUMPDEST CALLVALUE DUP1 ISZERO PUSH2 0x205 JUMPI PUSH1 0x0 DUP1 REVERT JUMPDEST POP PUSH2 0x20E PUSH2 0x9D3 JUMP JUMPDEST PUSH1 0x40 MLOAD PUSH2 0x21B SWAP2 SWAP1 PUSH2 0x114D JUMP JUMPDEST PUSH1 0x40 MLOAD DUP1 SWAP2 SUB SWAP1 RETURN JUMPDEST CALLVALUE DUP1 ISZERO PUSH2 0x230 JUMPI PUSH1 0x0 DUP1 REVERT JUMPDEST POP PUSH2 0x239 PUSH2 0x9FD JUMP JUMPDEST PUSH1 0x40 MLOAD PUSH2 0x246 SWAP2 SWAP1 PUSH2 0x10AB JUMP JUMPDEST PUSH1 0x40 MLOAD DUP1 SWAP2 SUB SWAP1 RETURN JUMPDEST CALLVALUE DUP1 ISZERO PUSH2 0x25B JUMPI PUSH1 0x0 DUP1 REVERT JUMPDEST POP PUSH2 0x276 PUSH1 0x4 DUP1 CALLDATASIZE SUB DUP2 ADD SWAP1 PUSH2 0x271 SWAP2 SWAP1 PUSH2 0xFAD JUMP JUMPDEST PUSH2 0xA03 JUMP JUMPDEST STOP JUMPDEST CALLVALUE DUP1 ISZERO PUSH2 0x284 JUMPI PUSH1 0x0 DUP1 REVERT JUMPDEST POP PUSH2 0x28D PUSH2 0xCB5 JUMP JUMPDEST PUSH1 0x40 MLOAD PUSH2 0x29A SWAP2 SWAP1 PUSH2 0x114D JUMP JUMPDEST PUSH1 0x40 MLOAD DUP1 SWAP2 SUB SWAP1 RETURN JUMPDEST CALLVALUE DUP1 ISZERO PUSH2 0x2AF JUMPI PUSH1 0x0 DUP1 REVERT JUMPDEST POP PUSH2 0x2B8 PUSH2 0xCDB JUMP JUMPDEST PUSH1 0x40 MLOAD PUSH2 0x2C5 SWAP2 SWAP1 PUSH2 0x10AB JUMP JUMPDEST PUSH1 0x40 MLOAD DUP1 SWAP2 SUB SWAP1 RETURN JUMPDEST CALLVALUE DUP1 ISZERO PUSH2 0x2DA JUMPI PUSH1 0x0 DUP1 REVERT JUMPDEST POP PUSH2 0x2E3 PUSH2 0xCE1 JUMP JUMPDEST PUSH1 0x40 MLOAD PUSH2 0x2F0 SWAP2 SWAP1 PUSH2 0x114D JUMP JUMPDEST PUSH1 0x40 MLOAD DUP1 SWAP2 SUB SWAP1 RETURN JUMPDEST CALLVALUE DUP1 ISZERO PUSH2 0x305 JUMPI PUSH1 0x0 DUP1 REVERT JUMPDEST POP PUSH2 0x30E PUSH2 0xD05 JUMP JUMPDEST PUSH1 0x40 MLOAD PUSH2 0x31B SWAP2 SWAP1 PUSH2 0x10AB JUMP JUMPDEST PUSH1 0x40 MLOAD DUP1 SWAP2 SUB SWAP1 RETURN JUMPDEST PUSH2 0x32C PUSH2 0xD0B JUMP JUMPDEST STOP JUMPDEST PUSH1 0x0 CALLVALUE GT DUP1 ISZERO PUSH2 0x33E JUMPI POP PUSH1 0x0 DUP2 GT JUMPDEST PUSH2 0x37D JUMPI PUSH1 0x40 MLOAD PUSH32 0x8C379A000000000000000000000000000000000000000000000000000000000 DUP2 MSTORE PUSH1 0x4 ADD PUSH2 0x374 SWAP1 PUSH2 0x11C5 JUMP JUMPDEST PUSH1 0x40 MLOAD DUP1 SWAP2 SUB SWAP1 REVERT JUMPDEST PUSH1 0x0 DUP1 CALLVALUE SWAP1 POP PUSH1 0x0 PUSH1 0x5 SLOAD SUB PUSH2 0x395 JUMPI CALLVALUE SWAP2 POP PUSH2 0x3E7 JUMP JUMPDEST PUSH1 0x0 PUSH1 0x2 SLOAD PUSH1 0x5 SLOAD DUP4 PUSH2 0x3A8 SWAP2 SWAP1 PUSH2 0x1214 JUMP JUMPDEST PUSH2 0x3B2 SWAP2 SWAP1 PUSH2 0x1285 JUMP JUMPDEST SWAP1 POP PUSH1 0x0 PUSH1 0x3 SLOAD PUSH1 0x5 SLOAD DUP7 PUSH2 0x3C7 SWAP2 SWAP1 PUSH2 0x1214 JUMP JUMPDEST PUSH2 0x3D1 SWAP2 SWAP1 PUSH2 0x1285 JUMP JUMPDEST SWAP1 POP DUP1 DUP3 LT PUSH2 0x3E0 JUMPI DUP1 PUSH2 0x3E2 JUMP JUMPDEST DUP2 JUMPDEST SWAP4 POP POP POP JUMPDEST PUSH1 0x0 PUSH1 0x1 PUSH1 0x0 SWAP1 SLOAD SWAP1 PUSH2 0x100 EXP SWAP1 DIV PUSH20 0xFFFFFFFFFFFFFFFFFFFFFFFFFFFFFFFFFFFFFFFF AND SWAP1 POP DUP1 PUSH20 0xFFFFFFFFFFFFFFFFFFFFFFFFFFFFFFFFFFFFFFFF AND PUSH4 0x23B872DD CALLER ADDRESS DUP8 PUSH1 0x40 MLOAD DUP5 PUSH4 0xFFFFFFFF AND PUSH1 0xE0 SHL DUP2 MSTORE PUSH1 0x4 ADD PUSH2 0x44B SWAP4 SWAP3 SWAP2 SWAP1 PUSH2 0x12B6 JUMP JUMPDEST PUSH1 0x20 PUSH1 0x40 MLOAD DUP1 DUP4 SUB DUP2 PUSH1 0x0 DUP8 GAS CALL ISZERO DUP1 ISZERO PUSH2 0x46A JUMPI RETURNDATASIZE PUSH1 0x0 DUP1 RETURNDATACOPY RETURNDATASIZE PUSH1 0x0 REVERT JUMPDEST POP POP POP POP PUSH1 0x40 MLOAD RETURNDATASIZE PUSH1 0x1F NOT PUSH1 0x1F DUP3 ADD AND DUP3 ADD DUP1 PUSH1 0x40 MSTORE POP DUP2 ADD SWAP1 PUSH2 0x48E SWAP2 SWAP1 PUSH2 0x1302 JUMP JUMPDEST PUSH2 0x4CD JUMPI PUSH1 0x40 MLOAD PUSH32 0x8C379A000000000000000000000000000000000000000000000000000000000 DUP2 MSTORE PUSH1 0x4 ADD PUSH2 0x4C4 SWAP1 PUSH2 0x137B JUMP JUMPDEST PUSH1 0x40 MLOAD DUP1 SWAP2 SUB SWAP1 REVERT JUMPDEST DUP2 PUSH1 0x2 PUSH1 0x0 DUP3 DUP3 SLOAD PUSH2 0x4DF SWAP2 SWAP1 PUSH2 0x139B JUMP JUMPDEST SWAP3 POP POP DUP2 SWAP1 SSTORE POP DUP4 PUSH1 0x3 PUSH1 0x0 DUP3 DUP3 SLOAD PUSH2 0x4F8 SWAP2 SWAP1 PUSH2 0x139B JUMP JUMPDEST SWAP3 POP POP DUP2 SWAP1 SSTORE POP DUP3 PUSH1 0x4 PUSH1 0x0 CALLER PUSH20 0xFFFFFFFFFFFFFFFFFFFFFFFFFFFFFFFFFFFFFFFF AND PUSH20 0xFFFFFFFFFFFFFFFFFFFFFFFFFFFFFFFFFFFFFFFF AND DUP2 MSTORE PUSH1 0x20 ADD SWAP1 DUP2 MSTORE PUSH1 0x20 ADD PUSH1 0x0 KECCAK256 PUSH1 0x0 DUP3 DUP3 SLOAD PUSH2 0x54E SWAP2 SWAP1 PUSH2 0x139B JUMP JUMPDEST SWAP3 POP POP DUP2 SWAP1 SSTORE POP DUP3 PUSH1 0x5 PUSH1 0x0 DUP3 DUP3 SLOAD PUSH2 0x567 SWAP2 SWAP1 PUSH2 0x139B JUMP JUMPDEST SWAP3 POP POP DUP2 SWAP1 SSTORE POP CALLER PUSH20 0xFFFFFFFFFFFFFFFFFFFFFFFFFFFFFFFFFFFFFFFF AND PUSH32 0xBEB3885786D637A474CBC287C0A44587231633A077F0BD30354D5A4B18996FCE DUP4 DUP7 DUP7 PUSH1 0x40 MLOAD PUSH2 0x5B8 SWAP4 SWAP3 SWAP2 SWAP1 PUSH2 0xFE9 JUMP JUMPDEST PUSH1 0x40 MLOAD DUP1 SWAP2 SUB SWAP1 LOG2 POP POP POP POP JUMP JUMPDEST PUSH1 0x0 DUP1 PUSH1 0x0 PUSH1 0x2 SLOAD PUSH1 0x3 SLOAD PUSH1 0x5 SLOAD SWAP3 POP SWAP3 POP SWAP3 POP SWAP1 SWAP2 SWAP3 JUMP JUMPDEST PUSH1 0x4 PUSH1 0x20 MSTORE DUP1 PUSH1 0x0 MSTORE PUSH1 0x40 PUSH1 0x0 KECCAK256 PUSH1 0x0 SWAP2 POP SWAP1 POP SLOAD DUP2 JUMP JUMPDEST PUSH1 0x0 DUP1 DUP4 GT PUSH2 0x63B JUMPI PUSH1 0x40 MLOAD PUSH32 0x8C379A000000000000000000000000000000000000000000000000000000000 DUP2 MSTORE PUSH1 0x4 ADD PUSH2 0x632 SWAP1 PUSH2 0x141B JUMP JUMPDEST PUSH1 0x40 MLOAD DUP1 SWAP2 SUB SWAP1 REVERT JUMPDEST PUSH1 0x0 PUSH1 0x2 SLOAD EQ DUP1 PUSH2 0x64E JUMPI POP PUSH1 0x0 PUSH1 0x3 SLOAD EQ JUMPDEST ISZERO PUSH2 0x65C JUMPI PUSH1 0x0 SWAP1 POP PUSH2 0x6F9 JUMP JUMPDEST DUP2 ISZERO PUSH2 0x6AF JUMPI PUSH1 0x0 PUSH2 0x3E8 PUSH2 0x3E5 DUP6 PUSH2 0x675 SWAP2 SWAP1 PUSH2 0x1214 JUMP JUMPDEST PUSH2 0x67F SWAP2 SWAP1 PUSH2 0x1285 JUMP JUMPDEST SWAP1 POP DUP1 PUSH1 0x2 SLOAD PUSH2 0x68F SWAP2 SWAP1 PUSH2 0x139B JUMP JUMPDEST DUP2 PUSH1 0x3 SLOAD PUSH2 0x69D SWAP2 SWAP1 PUSH2 0x1214 JUMP JUMPDEST PUSH2 0x6A7 SWAP2 SWAP1 PUSH2 0x1285 JUMP JUMPDEST SWAP2 POP POP PUSH2 0x6F8 JUMP JUMPDEST PUSH1 0x0 PUSH2 0x3E8 PUSH2 0x3E5 DUP6 PUSH2 0x6C2 SWAP2 SWAP1 PUSH2 0x1214 JUMP JUMPDEST PUSH2 0x6CC SWAP2 SWAP1 PUSH2 0x1285 JUMP JUMPDEST SWAP1 POP DUP1 PUSH1 0x3 SLOAD PUSH2 0x6DC SWAP2 SWAP1 PUSH2 0x139B JUMP JUMPDEST DUP2 PUSH1 0x2 SLOAD PUSH2 0x6EA SWAP2 SWAP1 PUSH2 0x1214 JUMP JUMPDEST PUSH2 0x6F4 SWAP2 SWAP1 PUSH2 0x1285 JUMP JUMPDEST SWAP2 POP POP JUMPDEST JUMPDEST SWAP3 SWAP2 POP POP JUMP JUMPDEST PUSH1 0x0 DUP2 GT PUSH2 0x742 JUMPI PUSH1 0x40 MLOAD PUSH32 0x8C379A000000000000000000000000000000000000000000000000000000000 DUP2 MSTORE PUSH1 0x4 ADD PUSH2 0x739 SWAP1 PUSH2 0x1487 JUMP JUMPDEST PUSH1 0x40 MLOAD DUP1 SWAP2 SUB SWAP1 REVERT JUMPDEST PUSH1 0x0 PUSH1 0x2 SLOAD GT DUP1 ISZERO PUSH2 0x756 JUMPI POP PUSH1 0x0 PUSH1 0x3 SLOAD GT JUMPDEST PUSH2 0x795 JUMPI PUSH1 0x40 MLOAD PUSH32 0x8C379A000000000000000000000000000000000000000000000000000000000 DUP2 MSTORE PUSH1 0x4 ADD PUSH2 0x78C SWAP1 PUSH2 0x14F3 JUMP JUMPDEST PUSH1 0x40 MLOAD DUP1 SWAP2 SUB SWAP1 REVERT JUMPDEST PUSH1 0x0 PUSH2 0x3E8 PUSH2 0x3E5 DUP4 PUSH2 0x7A8 SWAP2 SWAP1 PUSH2 0x1214 JUMP JUMPDEST PUSH2 0x7B2 SWAP2 SWAP1 PUSH2 0x1285 JUMP JUMPDEST SWAP1 POP PUSH1 0x0 DUP2 PUSH1 0x3 SLOAD PUSH2 0x7C4 SWAP2 SWAP1 PUSH2 0x139B JUMP JUMPDEST DUP3 PUSH1 0x2 SLOAD PUSH2 0x7D2 SWAP2 SWAP1 PUSH2 0x1214 JUMP JUMPDEST PUSH2 0x7DC SWAP2 SWAP1 PUSH2 0x1285 JUMP JUMPDEST SWAP1 POP PUSH1 0x0 DUP2 GT DUP1 ISZERO PUSH2 0x7EF JUMPI POP PUSH1 0x2 SLOAD DUP2 LT JUMPDEST PUSH2 0x82E JUMPI PUSH1 0x40 MLOAD PUSH32 0x8C379A000000000000000000000000000000000000000000000000000000000 DUP2 MSTORE PUSH1 0x4 ADD PUSH2 0x825 SWAP1 PUSH2 0x155F JUMP JUMPDEST PUSH1 0x40 MLOAD DUP1 SWAP2 SUB SWAP1 REVERT JUMPDEST PUSH1 0x0 PUSH1 0x1 PUSH1 0x0 SWAP1 SLOAD SWAP1 PUSH2 0x100 EXP SWAP1 DIV PUSH20 0xFFFFFFFFFFFFFFFFFFFFFFFFFFFFFFFFFFFFFFFF AND SWAP1 POP DUP1 PUSH20 0xFFFFFFFFFFFFFFFFFFFFFFFFFFFFFFFFFFFFFFFF AND PUSH4 0x23B872DD CALLER ADDRESS DUP8 PUSH1 0x40 MLOAD DUP5 PUSH4 0xFFFFFFFF AND PUSH1 0xE0 SHL DUP2 MSTORE PUSH1 0x4 ADD PUSH2 0x892 SWAP4 SWAP3 SWAP2 SWAP1 PUSH2 0x12B6 JUMP JUMPDEST PUSH1 0x20 PUSH1 0x40 MLOAD DUP1 DUP4 SUB DUP2 PUSH1 0x0 DUP8 GAS CALL ISZERO DUP1 ISZERO PUSH2 0x8B1 JUMPI RETURNDATASIZE PUSH1 0x0 DUP1 RETURNDATACOPY RETURNDATASIZE PUSH1 0x0 REVERT JUMPDEST POP POP POP POP PUSH1 0x40 MLOAD RETURNDATASIZE PUSH1 0x1F NOT PUSH1 0x1F DUP3 ADD AND DUP3 ADD DUP1 PUSH1 0x40 MSTORE POP DUP2 ADD SWAP1 PUSH2 0x8D5 SWAP2 SWAP1 PUSH2 0x1302 JUMP JUMPDEST POP DUP4 PUSH1 0x3 PUSH1 0x0 DUP3 DUP3 SLOAD PUSH2 0x8E8 SWAP2 SWAP1 PUSH2 0x139B JUMP JUMPDEST SWAP3 POP POP DUP2 SWAP1 SSTORE POP DUP2 PUSH1 0x2 PUSH1 0x0 DUP3 DUP3 SLOAD PUSH2 0x901 SWAP2 SWAP1 PUSH2 0x157F JUMP JUMPDEST SWAP3 POP POP DUP2 SWAP1 SSTORE POP CALLER PUSH20 0xFFFFFFFFFFFFFFFFFFFFFFFFFFFFFFFFFFFFFFFF AND PUSH2 0x8FC DUP4 SWAP1 DUP2 ISZERO MUL SWAP1 PUSH1 0x40 MLOAD PUSH1 0x0 PUSH1 0x40 MLOAD DUP1 DUP4 SUB DUP2 DUP6 DUP9 DUP9 CALL SWAP4 POP POP POP POP ISZERO DUP1 ISZERO PUSH2 0x94E JUMPI RETURNDATASIZE PUSH1 0x0 DUP1 RETURNDATACOPY RETURNDATASIZE PUSH1 0x0 REVERT JUMPDEST POP CALLER PUSH20 0xFFFFFFFFFFFFFFFFFFFFFFFFFFFFFFFFFFFFFFFF AND PUSH32 0x49926BBEBE8474393F434DFA4F78694C0923EFA07D19F2284518BFABD06EB737 PUSH1 0x0 DUP1 DUP8 DUP7 PUSH1 0x40 MLOAD PUSH2 0x99C SWAP5 SWAP4 SWAP3 SWAP2 SWAP1 PUSH2 0x15F8 JUMP JUMPDEST PUSH1 0x40 MLOAD DUP1 SWAP2 SUB SWAP1 LOG2 POP POP POP POP JUMP JUMPDEST PUSH1 0x0 DUP1 PUSH1 0x0 SWAP1 SLOAD SWAP1 PUSH2 0x100 EXP SWAP1 DIV PUSH20 0xFFFFFFFFFFFFFFFFFFFFFFFFFFFFFFFFFFFFFFFF AND SWAP1 POP SWAP1 JUMP JUMPDEST PUSH1 0x0 PUSH1 0x1 PUSH1 0x0 SWAP1 SLOAD SWAP1 PUSH2 0x100 EXP SWAP1 DIV PUSH20 0xFFFFFFFFFFFFFFFFFFFFFFFFFFFFFFFFFFFFFFFF AND SWAP1 POP SWAP1 JUMP JUMPDEST PUSH1 0x3 SLOAD DUP2 JUMP JUMPDEST PUSH1 0x0 DUP2 GT DUP1 ISZERO PUSH2 0xA52 JUMPI POP DUP1 PUSH1 0x4 PUSH1 0x0 CALLER PUSH20 0xFFFFFFFFFFFFFFFFFFFFFFFFFFFFFFFFFFFFFFFF AND PUSH20 0xFFFFFFFFFFFFFFFFFFFFFFFFFFFFFFFFFFFFFFFF AND DUP2 MSTORE PUSH1 0x20 ADD SWAP1 DUP2 MSTORE PUSH1 0x20 ADD PUSH1 0x0 KECCAK256 SLOAD LT ISZERO JUMPDEST PUSH2 0xA91 JUMPI PUSH1 0x40 MLOAD PUSH32 0x8C379A000000000000000000000000000000000000000000000000000000000 DUP2 MSTORE PUSH1 0x4 ADD PUSH2 0xA88 SWAP1 PUSH2 0x1689 JUMP JUMPDEST PUSH1 0x40 MLOAD DUP1 SWAP2 SUB SWAP1 REVERT JUMPDEST PUSH1 0x0 PUSH1 0x5 SLOAD PUSH1 0x2 SLOAD DUP4 PUSH2 0xAA4 SWAP2 SWAP1 PUSH2 0x1214 JUMP JUMPDEST PUSH2 0xAAE SWAP2 SWAP1 PUSH2 0x1285 JUMP JUMPDEST SWAP1 POP PUSH1 0x0 PUSH1 0x5 SLOAD PUSH1 0x3 SLOAD DUP5 PUSH2 0xAC3 SWAP2 SWAP1 PUSH2 0x1214 JUMP JUMPDEST PUSH2 0xACD SWAP2 SWAP1 PUSH2 0x1285 JUMP JUMPDEST SWAP1 POP DUP2 PUSH1 0x2 PUSH1 0x0 DUP3 DUP3 SLOAD PUSH2 0xAE1 SWAP2 SWAP1 PUSH2 0x157F JUMP JUMPDEST SWAP3 POP POP DUP2 SWAP1 SSTORE POP DUP1 PUSH1 0x3 PUSH1 0x0 DUP3 DUP3 SLOAD PUSH2 0xAFA SWAP2 SWAP1 PUSH2 0x157F JUMP JUMPDEST SWAP3 POP POP DUP2 SWAP1 SSTORE POP DUP3 PUSH1 0x4 PUSH1 0x0 CALLER PUSH20 0xFFFFFFFFFFFFFFFFFFFFFFFFFFFFFFFFFFFFFFFF AND PUSH20 0xFFFFFFFFFFFFFFFFFFFFFFFFFFFFFFFFFFFFFFFF AND DUP2 MSTORE PUSH1 0x20 ADD SWAP1 DUP2 MSTORE PUSH1 0x20 ADD PUSH1 0x0 KECCAK256 PUSH1 0x0 DUP3 DUP3 SLOAD PUSH2 0xB50 SWAP2 SWAP1 PUSH2 0x157F JUMP JUMPDEST SWAP3 POP POP DUP2 SWAP1 SSTORE POP DUP3 PUSH1 0x5 PUSH1 0x0 DUP3 DUP3 SLOAD PUSH2 0xB69 SWAP2 SWAP1 PUSH2 0x157F JUMP JUMPDEST SWAP3 POP POP DUP2 SWAP1 SSTORE POP CALLER PUSH20 0xFFFFFFFFFFFFFFFFFFFFFFFFFFFFFFFFFFFFFFFF AND PUSH2 0x8FC DUP4 SWAP1 DUP2 ISZERO MUL SWAP1 PUSH1 0x40 MLOAD PUSH1 0x0 PUSH1 0x40 MLOAD DUP1 DUP4 SUB DUP2 DUP6 DUP9 DUP9 CALL SWAP4 POP POP POP POP ISZERO DUP1 ISZERO PUSH2 0xBB6 JUMPI RETURNDATASIZE PUSH1 0x0 DUP1 RETURNDATACOPY RETURNDATASIZE PUSH1 0x0 REVERT JUMPDEST POP PUSH1 0x0 PUSH1 0x1 PUSH1 0x0 SWAP1 SLOAD SWAP1 PUSH2 0x100 EXP SWAP1 DIV PUSH20 0xFFFFFFFFFFFFFFFFFFFFFFFFFFFFFFFFFFFFFFFF AND SWAP1 POP DUP1 PUSH20 0xFFFFFFFFFFFFFFFFFFFFFFFFFFFFFFFFFFFFFFFF AND PUSH4 0xA9059CBB CALLER DUP5 PUSH1 0x40 MLOAD DUP4 PUSH4 0xFFFFFFFF AND PUSH1 0xE0 SHL DUP2 MSTORE PUSH1 0x4 ADD PUSH2 0xC19 SWAP3 SWAP2 SWAP1 PUSH2 0x16A9 JUMP JUMPDEST PUSH1 0x20 PUSH1 0x40 MLOAD DUP1 DUP4 SUB DUP2 PUSH1 0x0 DUP8 GAS CALL ISZERO DUP1 ISZERO PUSH2 0xC38 JUMPI RETURNDATASIZE PUSH1 0x0 DUP1 RETURNDATACOPY RETURNDATASIZE PUSH1 0x0 REVERT JUMPDEST POP POP POP POP PUSH1 0x40 MLOAD RETURNDATASIZE PUSH1 0x1F NOT PUSH1 0x1F DUP3 ADD AND DUP3 ADD DUP1 PUSH1 0x40 MSTORE POP DUP2 ADD SWAP1 PUSH2 0xC5C SWAP2 SWAP1 PUSH2 0x1302 JUMP JUMPDEST POP CALLER PUSH20 0xFFFFFFFFFFFFFFFFFFFFFFFFFFFFFFFFFFFFFFFF AND PUSH32 0x59C3A0B60C6AB7DEB62E1440C9E72441DB6DB7DFE514DBA8CB18E60C0D896EFA DUP5 DUP5 DUP8 PUSH1 0x40 MLOAD PUSH2 0xCA7 SWAP4 SWAP3 SWAP2 SWAP1 PUSH2 0xFE9 JUMP JUMPDEST PUSH1 0x40 MLOAD DUP1 SWAP2 SUB SWAP1 LOG2 POP POP POP POP JUMP JUMPDEST PUSH1 0x1 PUSH1 0x0 SWAP1 SLOAD SWAP1 PUSH2 0x100 EXP SWAP1 DIV PUSH20 0xFFFFFFFFFFFFFFFFFFFFFFFFFFFFFFFFFFFFFFFF AND DUP2 JUMP JUMPDEST PUSH1 0x5 SLOAD DUP2 JUMP JUMPDEST PUSH1 0x0 DUP1 SLOAD SWAP1 PUSH2 0x100 EXP SWAP1 DIV PUSH20 0xFFFFFFFFFFFFFFFFFFFFFFFFFFFFFFFFFFFFFFFF AND DUP2 JUMP JUMPDEST PUSH1 0x2 SLOAD DUP2 JUMP JUMPDEST PUSH1 0x0 CALLVALUE GT PUSH2 0xD4E JUMPI PUSH1 0x40 MLOAD PUSH32 0x8C379A000000000000000000000000000000000000000000000000000000000 DUP2 MSTORE PUSH1 0x4 ADD PUSH2 0xD45 SWAP1 PUSH2 0x171E JUMP JUMPDEST PUSH1 0x40 MLOAD DUP1 SWAP2 SUB SWAP1 REVERT JUMPDEST PUSH1 0x0 PUSH1 0x2 SLOAD GT DUP1 ISZERO PUSH2 0xD62 JUMPI POP PUSH1 0x0 PUSH1 0x3 SLOAD GT JUMPDEST PUSH2 0xDA1 JUMPI PUSH1 0x40 MLOAD PUSH32 0x8C379A000000000000000000000000000000000000000000000000000000000 DUP2 MSTORE PUSH1 0x4 ADD PUSH2 0xD98 SWAP1 PUSH2 0x178A JUMP JUMPDEST PUSH1 0x40 MLOAD DUP1 SWAP2 SUB SWAP1 REVERT JUMPDEST PUSH1 0x0 CALLVALUE SWAP1 POP PUSH1 0x0 PUSH2 0x3E8 PUSH2 0x3E5 DUP4 PUSH2 0xDB9 SWAP2 SWAP1 PUSH2 0x1214 JUMP JUMPDEST PUSH2 0xDC3 SWAP2 SWAP1 PUSH2 0x1285 JUMP JUMPDEST SWAP1 POP PUSH1 0x0 DUP2 PUSH1 0x2 SLOAD PUSH2 0xDD5 SWAP2 SWAP1 PUSH2 0x139B JUMP JUMPDEST DUP3 PUSH1 0x3 SLOAD PUSH2 0xDE3 SWAP2 SWAP1 PUSH2 0x1214 JUMP JUMPDEST PUSH2 0xDED SWAP2 SWAP1 PUSH2 0x1285 JUMP JUMPDEST SWAP1 POP PUSH1 0x0 DUP2 GT DUP1 ISZERO PUSH2 0xE00 JUMPI POP PUSH1 0x3 SLOAD DUP2 LT JUMPDEST PUSH2 0xE3F JUMPI PUSH1 0x40 MLOAD PUSH32 0x8C379A000000000000000000000000000000000000000000000000000000000 DUP2 MSTORE PUSH1 0x4 ADD PUSH2 0xE36 SWAP1 PUSH2 0x155F JUMP JUMPDEST PUSH1 0x40 MLOAD DUP1 SWAP2 SUB SWAP1 REVERT JUMPDEST DUP3 PUSH1 0x2 PUSH1 0x0 DUP3 DUP3 SLOAD PUSH2 0xE51 SWAP2 SWAP1 PUSH2 0x139B JUMP JUMPDEST SWAP3 POP POP DUP2 SWAP1 SSTORE POP DUP1 PUSH1 0x3 PUSH1 0x0 DUP3 DUP3 SLOAD PUSH2 0xE6A SWAP2 SWAP1 PUSH2 0x157F JUMP JUMPDEST SWAP3 POP POP DUP2 SWAP1 SSTORE POP PUSH1 0x0 PUSH1 0x1 PUSH1 0x0 SWAP1 SLOAD SWAP1 PUSH2 0x100 EXP SWAP1 DIV PUSH20 0xFFFFFFFFFFFFFFFFFFFFFFFFFFFFFFFFFFFFFFFF AND SWAP1 POP DUP1 PUSH20 0xFFFFFFFFFFFFFFFFFFFFFFFFFFFFFFFFFFFFFFFF AND PUSH4 0xA9059CBB CALLER DUP5 PUSH1 0x40 MLOAD DUP4 PUSH4 0xFFFFFFFF AND PUSH1 0xE0 SHL DUP2 MSTORE PUSH1 0x4 ADD PUSH2 0xED3 SWAP3 SWAP2 SWAP1 PUSH2 0x16A9 JUMP JUMPDEST PUSH1 0x20 PUSH1 0x40 MLOAD DUP1 DUP4 SUB DUP2 PUSH1 0x0 DUP8 GAS CALL ISZERO DUP1 ISZERO PUSH2 0xEF2 JUMPI RETURNDATASIZE PUSH1 0x0 DUP1 RETURNDATACOPY RETURNDATASIZE PUSH1 0x0 REVERT JUMPDEST POP POP POP POP PUSH1 0x40 MLOAD RETURNDATASIZE PUSH1 0x1F NOT PUSH1 0x1F DUP3 ADD AND DUP3 ADD DUP1 PUSH1 0x40 MSTORE POP DUP2 ADD SWAP1 PUSH2 0xF16 SWAP2 SWAP1 PUSH2 0x1302 JUMP JUMPDEST POP CALLER PUSH20 0xFFFFFFFFFFFFFFFFFFFFFFFFFFFFFFFFFFFFFFFF AND PUSH32 0x49926BBEBE8474393F434DFA4F78694C0923EFA07D19F2284518BFABD06EB737 DUP6 DUP5 PUSH1 0x0 DUP1 PUSH1 0x40 MLOAD PUSH2 0xF64 SWAP5 SWAP4 SWAP3 SWAP2 SWAP1 PUSH2 0x17AA JUMP JUMPDEST PUSH1 0x40 MLOAD DUP1 SWAP2 SUB SWAP1 LOG2 POP POP POP POP JUMP JUMPDEST PUSH1 0x0 DUP1 REVERT JUMPDEST PUSH1 0x0 DUP2 SWAP1 POP SWAP2 SWAP1 POP JUMP JUMPDEST PUSH2 0xF8A DUP2 PUSH2 0xF77 JUMP JUMPDEST DUP2 EQ PUSH2 0xF95 JUMPI PUSH1 0x0 DUP1 REVERT JUMPDEST POP JUMP JUMPDEST PUSH1 0x0 DUP2 CALLDATALOAD SWAP1 POP PUSH2 0xFA7 DUP2 PUSH2 0xF81 JUMP JUMPDEST SWAP3 SWAP2 POP POP JUMP JUMPDEST PUSH1 0x0 PUSH1 0x20 DUP3 DUP5 SUB SLT ISZERO PUSH2 0xFC3 JUMPI PUSH2 0xFC2 PUSH2 0xF72 JUMP JUMPDEST JUMPDEST PUSH1 0x0 PUSH2 0xFD1 DUP5 DUP3 DUP6 ADD PUSH2 0xF98 JUMP JUMPDEST SWAP2 POP POP SWAP3 SWAP2 POP POP JUMP JUMPDEST PUSH2 0xFE3 DUP2 PUSH2 0xF77 JUMP JUMPDEST DUP3 MSTORE POP POP JUMP JUMPDEST PUSH1 0x0 PUSH1 0x60 DUP3 ADD SWAP1 POP PUSH2 0xFFE PUSH1 0x0 DUP4 ADD DUP7 PUSH2 0xFDA JUMP JUMPDEST PUSH2 0x100B PUSH1 0x20 DUP4 ADD DUP6 PUSH2 0xFDA JUMP JUMPDEST PUSH2 0x1018 PUSH1 0x40 DUP4 ADD DUP5 PUSH2 0xFDA JUMP JUMPDEST SWAP5 SWAP4 POP POP POP POP JUMP JUMPDEST PUSH1 0x0 PUSH20 0xFFFFFFFFFFFFFFFFFFFFFFFFFFFFFFFFFFFFFFFF DUP3 AND SWAP1 POP SWAP2 SWAP1 POP JUMP JUMPDEST PUSH1 0x0 PUSH2 0x104B DUP3 PUSH2 0x1020 JUMP JUMPDEST SWAP1 POP SWAP2 SWAP1 POP JUMP JUMPDEST PUSH2 0x105B DUP2 PUSH2 0x1040 JUMP JUMPDEST DUP2 EQ PUSH2 0x1066 JUMPI PUSH1 0x0 DUP1 REVERT JUMPDEST POP JUMP JUMPDEST PUSH1 0x0 DUP2 CALLDATALOAD SWAP1 POP PUSH2 0x1078 DUP2 PUSH2 0x1052 JUMP JUMPDEST SWAP3 SWAP2 POP POP JUMP JUMPDEST PUSH1 0x0 PUSH1 0x20 DUP3 DUP5 SUB SLT ISZERO PUSH2 0x1094 JUMPI PUSH2 0x1093 PUSH2 0xF72 JUMP JUMPDEST JUMPDEST PUSH1 0x0 PUSH2 0x10A2 DUP5 DUP3 DUP6 ADD PUSH2 0x1069 JUMP JUMPDEST SWAP2 POP POP SWAP3 SWAP2 POP POP JUMP JUMPDEST PUSH1 0x0 PUSH1 0x20 DUP3 ADD SWAP1 POP PUSH2 0x10C0 PUSH1 0x0 DUP4 ADD DUP5 PUSH2 0xFDA JUMP JUMPDEST SWAP3 SWAP2 POP POP JUMP JUMPDEST PUSH1 0x0 DUP2 ISZERO ISZERO SWAP1 POP SWAP2 SWAP1 POP JUMP JUMPDEST PUSH2 0x10DB DUP2 PUSH2 0x10C6 JUMP JUMPDEST DUP2 EQ PUSH2 0x10E6 JUMPI PUSH1 0x0 DUP1 REVERT JUMPDEST POP JUMP JUMPDEST PUSH1 0x0 DUP2 CALLDATALOAD SWAP1 POP PUSH2 0x10F8 DUP2 PUSH2 0x10D2 JUMP JUMPDEST SWAP3 SWAP2 POP POP JUMP JUMPDEST PUSH1 0x0 DUP1 PUSH1 0x40 DUP4 DUP6 SUB SLT ISZERO PUSH2 0x1115 JUMPI PUSH2 0x1114 PUSH2 0xF72 JUMP JUMPDEST JUMPDEST PUSH1 0x0 PUSH2 0x1123 DUP6 DUP3 DUP7 ADD PUSH2 0xF98 JUMP JUMPDEST SWAP3 POP POP PUSH1 0x20 PUSH2 0x1134 DUP6 DUP3 DUP7 ADD PUSH2 0x10E9 JUMP JUMPDEST SWAP2 POP POP SWAP3 POP SWAP3 SWAP1 POP JUMP JUMPDEST PUSH2 0x1147 DUP2 PUSH2 0x1040 JUMP JUMPDEST DUP3 MSTORE POP POP JUMP JUMPDEST PUSH1 0x0 PUSH1 0x20 DUP3 ADD SWAP1 POP PUSH2 0x1162 PUSH1 0x0 DUP4 ADD DUP5 PUSH2 0x113E JUMP JUMPDEST SWAP3 SWAP2 POP POP JUMP JUMPDEST PUSH1 0x0 DUP3 DUP3 MSTORE PUSH1 0x20 DUP3 ADD SWAP1 POP SWAP3 SWAP2 POP POP JUMP JUMPDEST PUSH32 0x496E76616C696420616D6F756E74730000000000000000000000000000000000 PUSH1 0x0 DUP3 ADD MSTORE POP JUMP JUMPDEST PUSH1 0x0 PUSH2 0x11AF PUSH1 0xF DUP4 PUSH2 0x1168 JUMP JUMPDEST SWAP2 POP PUSH2 0x11BA DUP3 PUSH2 0x1179 JUMP JUMPDEST PUSH1 0x20 DUP3 ADD SWAP1 POP SWAP2 SWAP1 POP JUMP JUMPDEST PUSH1 0x0 PUSH1 0x20 DUP3 ADD SWAP1 POP DUP2 DUP2 SUB PUSH1 0x0 DUP4 ADD MSTORE PUSH2 0x11DE DUP2 PUSH2 0x11A2 JUMP JUMPDEST SWAP1 POP SWAP2 SWAP1 POP JUMP JUMPDEST PUSH32 0x4E487B7100000000000000000000000000000000000000000000000000000000 PUSH1 0x0 MSTORE PUSH1 0x11 PUSH1 0x4 MSTORE PUSH1 0x24 PUSH1 0x0 REVERT JUMPDEST PUSH1 0x0 PUSH2 0x121F DUP3 PUSH2 0xF77 JUMP JUMPDEST SWAP2 POP PUSH2 0x122A DUP4 PUSH2 0xF77 JUMP JUMPDEST SWAP3 POP DUP3 DUP3 MUL PUSH2 0x1238 DUP2 PUSH2 0xF77 JUMP JUMPDEST SWAP2 POP DUP3 DUP3 DIV DUP5 EQ DUP4 ISZERO OR PUSH2 0x124F JUMPI PUSH2 0x124E PUSH2 0x11E5 JUMP JUMPDEST JUMPDEST POP SWAP3 SWAP2 POP POP JUMP JUMPDEST PUSH32 0x4E487B7100000000000000000000000000000000000000000000000000000000 PUSH1 0x0 MSTORE PUSH1 0x12 PUSH1 0x4 MSTORE PUSH1 0x24 PUSH1 0x0 REVERT JUMPDEST PUSH1 0x0 PUSH2 0x1290 DUP3 PUSH2 0xF77 JUMP JUMPDEST SWAP2 POP PUSH2 0x129B DUP4 PUSH2 0xF77 JUMP JUMPDEST SWAP3 POP DUP3 PUSH2 0x12AB JUMPI PUSH2 0x12AA PUSH2 0x1256 JUMP JUMPDEST JUMPDEST DUP3 DUP3 DIV SWAP1 POP SWAP3 SWAP2 POP POP JUMP JUMPDEST PUSH1 0x0 PUSH1 0x60 DUP3 ADD SWAP1 POP PUSH2 0x12CB PUSH1 0x0 DUP4 ADD DUP7 PUSH2 0x113E JUMP JUMPDEST PUSH2 0x12D8 PUSH1 0x20 DUP4 ADD DUP6 PUSH2 0x113E JUMP JUMPDEST PUSH2 0x12E5 PUSH1 0x40 DUP4 ADD DUP5 PUSH2 0xFDA JUMP JUMPDEST SWAP5 SWAP4 POP POP POP POP JUMP JUMPDEST PUSH1 0x0 DUP2 MLOAD SWAP1 POP PUSH2 0x12FC DUP2 PUSH2 0x10D2 JUMP JUMPDEST SWAP3 SWAP2 POP POP JUMP JUMPDEST PUSH1 0x0 PUSH1 0x20 DUP3 DUP5 SUB SLT ISZERO PUSH2 0x1318 JUMPI PUSH2 0x1317 PUSH2 0xF72 JUMP JUMPDEST JUMPDEST PUSH1 0x0 PUSH2 0x1326 DUP5 DUP3 DUP6 ADD PUSH2 0x12ED JUMP JUMPDEST SWAP2 POP POP SWAP3 SWAP2 POP POP JUMP JUMPDEST PUSH32 0x546F6B656E207472616E73666572206661696C65640000000000000000000000 PUSH1 0x0 DUP3 ADD MSTORE POP JUMP JUMPDEST PUSH1 0x0 PUSH2 0x1365 PUSH1 0x15 DUP4 PUSH2 0x1168 JUMP JUMPDEST SWAP2 POP PUSH2 0x1370 DUP3 PUSH2 0x132F JUMP JUMPDEST PUSH1 0x20 DUP3 ADD SWAP1 POP SWAP2 SWAP1 POP JUMP JUMPDEST PUSH1 0x0 PUSH1 0x20 DUP3 ADD SWAP1 POP DUP2 DUP2 SUB PUSH1 0x0 DUP4 ADD MSTORE PUSH2 0x1394 DUP2 PUSH2 0x1358 JUMP JUMPDEST SWAP1 POP SWAP2 SWAP1 POP JUMP JUMPDEST PUSH1 0x0 PUSH2 0x13A6 DUP3 PUSH2 0xF77 JUMP JUMPDEST SWAP2 POP PUSH2 0x13B1 DUP4 PUSH2 0xF77 JUMP JUMPDEST SWAP3 POP DUP3 DUP3 ADD SWAP1 POP DUP1 DUP3 GT ISZERO PUSH2 0x13C9 JUMPI PUSH2 0x13C8 PUSH2 0x11E5 JUMP JUMPDEST JUMPDEST SWAP3 SWAP2 POP POP JUMP JUMPDEST PUSH32 0x496E76616C696420616D6F756E74000000000000000000000000000000000000 PUSH1 0x0 DUP3 ADD MSTORE POP JUMP JUMPDEST PUSH1 0x0 PUSH2 0x1405 PUSH1 0xE DUP4 PUSH2 0x1168 JUMP JUMPDEST SWAP2 POP PUSH2 0x1410 DUP3 PUSH2 0x13CF JUMP JUMPDEST PUSH1 0x20 DUP3 ADD SWAP1 POP SWAP2 SWAP1 POP JUMP JUMPDEST PUSH1 0x0 PUSH1 0x20 DUP3 ADD SWAP1 POP DUP2 DUP2 SUB PUSH1 0x0 DUP4 ADD MSTORE PUSH2 0x1434 DUP2 PUSH2 0x13F8 JUMP JUMPDEST SWAP1 POP SWAP2 SWAP1 POP JUMP JUMPDEST PUSH32 0x496E76616C696420746F6B656E20616D6F756E74000000000000000000000000 PUSH1 0x0 DUP3 ADD MSTORE POP JUMP JUMPDEST PUSH1 0x0 PUSH2 0x1471 PUSH1 0x14 DUP4 PUSH2 0x1168 JUMP JUMPDEST SWAP2 POP PUSH2 0x147C DUP3 PUSH2 0x143B JUMP JUMPDEST PUSH1 0x20 DUP3 ADD SWAP1 POP SWAP2 SWAP1 POP JUMP JUMPDEST PUSH1 0x0 PUSH1 0x20 DUP3 ADD SWAP1 POP DUP2 DUP2 SUB PUSH1 0x0 DUP4 ADD MSTORE PUSH2 0x14A0 DUP2 PUSH2 0x1464 JUMP JUMPDEST SWAP1 POP SWAP2 SWAP1 POP JUMP JUMPDEST PUSH32 0x4E6F206C69717569646974790000000000000000000000000000000000000000 PUSH1 0x0 DUP3 ADD MSTORE POP JUMP JUMPDEST PUSH1 0x0 PUSH2 0x14DD PUSH1 0xC DUP4 PUSH2 0x1168 JUMP JUMPDEST SWAP2 POP PUSH2 0x14E8 DUP3 PUSH2 0x14A7 JUMP JUMPDEST PUSH1 0x20 DUP3 ADD SWAP1 POP SWAP2 SWAP1 POP JUMP JUMPDEST PUSH1 0x0 PUSH1 0x20 DUP3 ADD SWAP1 POP DUP2 DUP2 SUB PUSH1 0x0 DUP4 ADD MSTORE PUSH2 0x150C DUP2 PUSH2 0x14D0 JUMP JUMPDEST SWAP1 POP SWAP2 SWAP1 POP JUMP JUMPDEST PUSH32 0x496E76616C696420737761700000000000000000000000000000000000000000 PUSH1 0x0 DUP3 ADD MSTORE POP JUMP JUMPDEST PUSH1 0x0 PUSH2 0x1549 PUSH1 0xC DUP4 PUSH2 0x1168 JUMP JUMPDEST SWAP2 POP PUSH2 0x1554 DUP3 PUSH2 0x1513 JUMP JUMPDEST PUSH1 0x20 DUP3 ADD SWAP1 POP SWAP2 SWAP1 POP JUMP JUMPDEST PUSH1 0x0 PUSH1 0x20 DUP3 ADD SWAP1 POP DUP2 DUP2 SUB PUSH1 0x0 DUP4 ADD MSTORE PUSH2 0x1578 DUP2 PUSH2 0x153C JUMP JUMPDEST SWAP1 POP SWAP2 SWAP1 POP JUMP JUMPDEST PUSH1 0x0 PUSH2 0x158A DUP3 PUSH2 0xF77 JUMP JUMPDEST SWAP2 POP PUSH2 0x1595 DUP4 PUSH2 0xF77 JUMP JUMPDEST SWAP3 POP DUP3 DUP3 SUB SWAP1 POP DUP2 DUP2 GT ISZERO PUSH2 0x15AD JUMPI PUSH2 0x15AC PUSH2 0x11E5 JUMP JUMPDEST JUMPDEST SWAP3 SWAP2 POP POP JUMP JUMPDEST PUSH1 0x0 DUP2 SWAP1 POP SWAP2 SWAP1 POP JUMP JUMPDEST PUSH1 0x0 DUP2 SWAP1 POP SWAP2 SWAP1 POP JUMP JUMPDEST PUSH1 0x0 PUSH2 0x15E2 PUSH2 0x15DD PUSH2 0x15D8 DUP5 PUSH2 0x15B3 JUMP JUMPDEST PUSH2 0x15BD JUMP JUMPDEST PUSH2 0xF77 JUMP JUMPDEST SWAP1 POP SWAP2 SWAP1 POP JUMP JUMPDEST PUSH2 0x15F2 DUP2 PUSH2 0x15C7 JUMP JUMPDEST DUP3 MSTORE POP POP JUMP JUMPDEST PUSH1 0x0 PUSH1 0x80 DUP3 ADD SWAP1 POP PUSH2 0x160D PUSH1 0x0 DUP4 ADD DUP8 PUSH2 0x15E9 JUMP JUMPDEST PUSH2 0x161A PUSH1 0x20 DUP4 ADD DUP7 PUSH2 0x15E9 JUMP JUMPDEST PUSH2 0x1627 PUSH1 0x40 DUP4 ADD DUP6 PUSH2 0xFDA JUMP JUMPDEST PUSH2 0x1634 PUSH1 0x60 DUP4 ADD DUP5 PUSH2 0xFDA JUMP JUMPDEST SWAP6 SWAP5 POP POP POP POP POP JUMP JUMPDEST PUSH32 0x496E76616C696420736861726573000000000000000000000000000000000000 PUSH1 0x0 DUP3 ADD MSTORE POP JUMP JUMPDEST PUSH1 0x0 PUSH2 0x1673 PUSH1 0xE DUP4 PUSH2 0x1168 JUMP JUMPDEST SWAP2 POP PUSH2 0x167E DUP3 PUSH2 0x163D JUMP JUMPDEST PUSH1 0x20 DUP3 ADD SWAP1 POP SWAP2 SWAP1 POP JUMP JUMPDEST PUSH1 0x0 PUSH1 0x20 DUP3 ADD SWAP1 POP DUP2 DUP2 SUB PUSH1 0x0 DUP4 ADD MSTORE PUSH2 0x16A2 DUP2 PUSH2 0x1666 JUMP JUMPDEST SWAP1 POP SWAP2 SWAP1 POP JUMP JUMPDEST PUSH1 0x0 PUSH1 0x40 DUP3 ADD SWAP1 POP PUSH2 0x16BE PUSH1 0x0 DUP4 ADD DUP6 PUSH2 0x113E JUMP JUMPDEST PUSH2 0x16CB PUSH1 0x20 DUP4 ADD DUP5 PUSH2 0xFDA JUMP JUMPDEST SWAP4 SWAP3 POP POP POP JUMP JUMPDEST PUSH32 0x496E76616C69642045544820616D6F756E740000000000000000000000000000 PUSH1 0x0 DUP3 ADD MSTORE POP JUMP JUMPDEST PUSH1 0x0 PUSH2 0x1708 PUSH1 0x12 DUP4 PUSH2 0x1168 JUMP JUMPDEST SWAP2 POP PUSH2 0x1713 DUP3 PUSH2 0x16D2 JUMP JUMPDEST PUSH1 0x20 DUP3 ADD SWAP1 POP SWAP2 SWAP1 POP JUMP JUMPDEST PUSH1 0x0 PUSH1 0x20 DUP3 ADD SWAP1 POP DUP2 DUP2 SUB PUSH1 0x0 DUP4 ADD MSTORE PUSH2 0x1737 DUP2 PUSH2 0x16FB JUMP JUMPDEST SWAP1 POP SWAP2 SWAP1 POP JUMP JUMPDEST PUSH32 0x496E73756666696369656E74206C697175696469747900000000000000000000 PUSH1 0x0 DUP3 ADD MSTORE POP JUMP JUMPDEST PUSH1 0x0 PUSH2 0x1774 PUSH1 0x16 DUP4 PUSH2 0x1168 JUMP JUMPDEST SWAP2 POP PUSH2 0x177F DUP3 PUSH2 0x173E JUMP JUMPDEST PUSH1 0x20 DUP3 ADD SWAP1 POP SWAP2 SWAP1 POP JUMP JUMPDEST PUSH1 0x0 PUSH1 0x20 DUP3 ADD SWAP1 POP DUP2 DUP2 SUB PUSH1 0x0 DUP4 ADD MSTORE PUSH2 0x17A3 DUP2 PUSH2 0x1767 JUMP JUMPDEST SWAP1 POP SWAP2 SWAP1 POP JUMP JUMPDEST PUSH1 0x0 PUSH1 0x80 DUP3 ADD SWAP1 POP PUSH2 0x17BF PUSH1 0x0 DUP4 ADD DUP8 PUSH2 0xFDA JUMP JUMPDEST PUSH2 0x17CC PUSH1 0x20 DUP4 ADD DUP7 PUSH2 0xFDA JUMP JUMPDEST PUSH2 0x17D9 PUSH1 0x40 DUP4 ADD DUP6 PUSH2 0x15E9 JUMP JUMPDEST PUSH2 0x17E6 PUSH1 0x60 DUP4 ADD DUP5 PUSH2 0x15E9 JUMP JUMPDEST SWAP6 SWAP5 POP POP POP POP POP JUMP INVALID LOG2 PUSH5 0x6970667358 0x22 SLT KECCAK256 SSTORE DUP14 DELEGATECALL SWAP12 BALANCE 0xE 0xE5 RETURNDATACOPY 0xD7 SWAP15 0xE3 SWAP13 SWAP6 PUSH1 0x3E SMOD SHR PUSH12 0x9D1AF8F4556E12832822C6AE SSTORE SWAP13 PUSH5 0x736F6C6343 STOP ADDMOD SHR STOP CALLER "},"methodIdentifiers":{"_ethReserve()":"e11010d8","_liquidityShares(address)":"67634f68","_memeToken()":"aa83f574","_owner()":"b2bdfa7b","_tokenReserve()":"98c39ca2","_totalShares()":"b0428da6","addLiquidity(uint256)":"51c6590a","getMemeToken()":"9197ff29","getOwner()":"893d20e8","getPoolInfo()":"60246c88","getSwapPrice(uint256,bool)":"6e25e25a","removeLiquidity(uint256)":"9c8f9f23","swapETHForToken()":"ffbff8a9","swapTokenForETH(uint256)":"6fb84b74"}}}}}