{
  "_format": "hh-sol-artifact-1",
  "contractName": "LiquidityPool",
  "sourceName": "contracts/LiquidityPool.sol",
  "abi": [
    {
      "inputs": [
        {
          "internalType": "address",
          "name": "memeToken",
          "type": "address"
        }
      ],
      "stateMutability": "nonpayable",
      "type": "constructor"
    },
    {
      "anonymous": false,
      "inputs": [
        {
          "indexed": true,
          "internalType": "address",
          "name": "provider",
          "type": "address"
        },
        {
          "indexed": false,
          "internalType": "uint256",
          "name": "ethAmount",
          "type": "uint256"
        },
        {
          "indexed": false,
          "internalType": "uint256",
          "name": "tokenAmount",
          "type": "uint256"
        },
        {
          "indexed": false,
          "internalType": "uint256",
          "name": "shares",
          "type": "uint256"
        }
      ],
      "name": "AddLiquidity",
      "type": "event"
    },
    {
      "anonymous": false,
      "inputs": [
        {
          "indexed": true,
          "internalType": "address",
          "name": "provider",
          "type": "address"
        },
        {
          "indexed": false,
          "internalType": "uint256",
          "name": "ethAmount",
          "type": "uint256"
        },
        {
          "indexed": false,
          "internalType": "uint256",
          "name": "tokenAmount",
          "type": "uint256"
        },
        {
          "indexed": false,
          "internalType": "uint256",
          "name": "shares",
          "type": "uint256"
        }
      ],
      "name": "RemoveLiquidity",
      "type": "event"
    },
    {
      "anonymous": false,
      "inputs": [
        {
          "indexed": true,
          "internalType": "address",
          "name": "swapper",
          "type": "address"
        },
        {
          "indexed": false,
          "internalType": "uint256",
          "name": "ethIn",
          "type": "uint256"
        },
        {
          "indexed": false,
          "internalType": "uint256",
          "name": "tokenOut",
          "type": "uint256"
        },
        {
          "indexed": false,
          "internalType": "uint256",
          "name": "tokenIn",
          "type": "uint256"
        },
        {
          "indexed": false,
          "internalType": "uint256",
          "name": "ethOut",
          "type": "uint256"
        }
      ],
      "name": "Swap",
      "type": "event"
    },
    {
      "inputs": [],
      "name": "_ethReserve",
      "outputs": [
        {
          "internalType": "uint256",
          "name": "",
          "type": "uint256"
        }
      ],
      "stateMutability": "view",
      "type": "function"
    },
    {
      "inputs": [
        {
          "internalType": "address",
          "name": "",
          "type": "address"
        }
      ],
      "name": "_liquidityShares",
      "outputs": [
        {
          "internalType": "uint256",
          "name": "",
          "type": "uint256"
        }
      ],
      "stateMutability": "view",
      "type": "function"
    },
    {
      "inputs": [],
      "name": "_memeToken",
      "outputs": [
        {
          "internalType": "address",
          "name": "",
          "type": "address"
        }
      ],
      "stateMutability": "view",
      "type": "function"
    },
    {
      "inputs": [],
      "name": "_owner",
      "outputs": [
        {
          "internalType": "address",
          "name": "",
          "type": "address"
        }
      ],
      "stateMutability": "view",
      "type": "function"
    },
    {
      "inputs": [],
      "name": "_tokenReserve",
      "outputs": [
        {
          "internalType": "uint256",
          "name": "",
          "type": "uint256"
        }
      ],
      "stateMutability": "view",
      "type": "function"
    },
    {
      "inputs": [],
      "name": "_totalShares",
      "outputs": [
        {
          "internalType": "uint256",
          "name": "",
          "type": "uint256"
        }
      ],
      "stateMutability": "view",
      "type": "function"
    },
    {
      "inputs": [
        {
          "internalType": "uint256",
          "name": "tokenAmount",
          "type": "uint256"
        }
      ],
      "name": "addLiquidity",
      "outputs": [],
      "stateMutability": "payable",
      "type": "function"
    },
    {
      "inputs": [],
      "name": "getMemeToken",
      "outputs": [
        {
          "internalType": "address",
          "name": "",
          "type": "address"
        }
      ],
      "stateMutability": "view",
      "type": "function"
    },
    {
      "inputs": [],
      "name": "getOwner",
      "outputs": [
        {
          "internalType": "address",
          "name": "",
          "type": "address"
        }
      ],
      "stateMutability": "view",
      "type": "function"
    },
    {
      "inputs": [],
      "name": "getPoolInfo",
      "outputs": [
        {
          "internalType": "uint256",
          "name": "",
          "type": "uint256"
        },
        {
          "internalType": "uint256",
          "name": "",
          "type": "uint256"
        },
        {
          "internalType": "uint256",
          "name": "",
          "type": "uint256"
        }
      ],
      "stateMutability": "view",
      "type": "function"
    },
    {
      "inputs": [
        {
          "internalType": "uint256",
          "name": "amountIn",
          "type": "uint256"
        },
        {
          "internalType": "bool",
          "name": "isEthToToken",
          "type": "bool"
        }
      ],
      "name": "getSwapPrice",
      "outputs": [
        {
          "internalType": "uint256",
          "name": "amountOut",
          "type": "uint256"
        }
      ],
      "stateMutability": "view",
      "type": "function"
    },
    {
      "inputs": [
        {
          "internalType": "uint256",
          "name": "shares",
          "type": "uint256"
        }
      ],
      "name": "removeLiquidity",
      "outputs": [],
      "stateMutability": "nonpayable",
      "type": "function"
    },
    {
      "inputs": [],
      "name": "swapETHForToken",
      "outputs": [],
      "stateMutability": "payable",
      "type": "function"
    },
    {
      "inputs": [
        {
          "internalType": "uint256",
          "name": "tokenIn",
          "type": "uint256"
        }
      ],
      "name": "swapTokenForETH",
      "outputs": [],
      "stateMutability": "nonpayable",
      "type": "function"
    }
  ],
  "bytecode": "0x608060405234801561001057600080fd5b5060405161197d38038061197d8339818101604052810190610032919061011c565b336000806101000a81548173ffffffffffffffffffffffffffffffffffffffff021916908373ffffffffffffffffffffffffffffffffffffffff16021790555080600160006101000a81548173ffffffffffffffffffffffffffffffffffffffff021916908373ffffffffffffffffffffffffffffffffffffffff16021790555050610149565b600080fd5b600073ffffffffffffffffffffffffffffffffffffffff82169050919050565b60006100e9826100be565b9050919050565b6100f9816100de565b811461010457600080fd5b50565b600081519050610116816100f0565b92915050565b600060208284031215610132576101316100b9565b5b600061014084828501610107565b91505092915050565b611825806101586000396000f3fe6080604052600436106100dd5760003560e01c806398c39ca21161007f578063b0428da611610059578063b0428da6146102a3578063b2bdfa7b146102ce578063e11010d8146102f9578063ffbff8a914610324576100dd565b806398c39ca2146102245780639c8f9f231461024f578063aa83f57414610278576100dd565b80636e25e25a116100bb5780636e25e25a146101685780636fb84b74146101a5578063893d20e8146101ce5780639197ff29146101f9576100dd565b806351c6590a146100e257806360246c88146100fe57806367634f681461012b575b600080fd5b6100fc60048036038101906100f79190610fad565b61032e565b005b34801561010a57600080fd5b506101136105c6565b60405161012293929190610fe9565b60405180910390f35b34801561013757600080fd5b50610152600480360381019061014d919061107e565b6105df565b60405161015f91906110ab565b60405180910390f35b34801561017457600080fd5b5061018f600480360381019061018a91906110fe565b6105f7565b60405161019c91906110ab565b60405180910390f35b3480156101b157600080fd5b506101cc60048036038101906101c79190610fad565b6106ff565b005b3480156101da57600080fd5b506101e36109aa565b6040516101f0919061114d565b60405180910390f35b34801561020557600080fd5b5061020e6109d3565b60405161021b919061114d565b60405180910390f35b34801561023057600080fd5b506102396109fd565b60405161024691906110ab565b60405180910390f35b34801561025b57600080fd5b5061027660048036038101906102719190610fad565b610a03565b005b34801561028457600080fd5b5061028d610cb5565b60405161029a919061114d565b60405180910390f35b3480156102af57600080fd5b506102b8610cdb565b6040516102c591906110ab565b60405180910390f35b3480156102da57600080fd5b506102e3610ce1565b6040516102f0919061114d565b60405180910390f35b34801561030557600080fd5b5061030e610d05565b60405161031b91906110ab565b60405180910390f35b61032c610d0b565b005b60003411801561033e5750600081115b61037d576040517f08c379a0000000000000000000000000000000000000000000000000000000008152600401610374906111c5565b60405180910390fd5b600080349050600060055403610395573491506103e7565b6000600254600554836103a89190611214565b6103b29190611285565b90506000600354600554866103c79190611214565b6103d19190611285565b90508082106103e057806103e2565b815b935050505b6000600160009054906101000a900473ffffffffffffffffffffffffffffffffffffffff1690508073ffffffffffffffffffffffffffffffffffffffff166323b872dd3330876040518463ffffffff1660e01b815260040161044b939291906112b6565b6020604051808303816000875af115801561046a573d6000803e3d6000fd5b505050506040513d601f19601f8201168201806040525081019061048e9190611302565b6104cd576040517f08c379a00000000000000000000000000000000000000000000000000000000081526004016104c49061137b565b60405180910390fd5b81600260008282546104df919061139b565b9250508190555083600360008282546104f8919061139b565b9250508190555082600460003373ffffffffffffffffffffffffffffffffffffffff1673ffffffffffffffffffffffffffffffffffffffff168152602001908152602001600020600082825461054e919061139b565b925050819055508260056000828254610567919061139b565b925050819055503373ffffffffffffffffffffffffffffffffffffffff167fbeb3885786d637a474cbc287c0a44587231633a077f0bd30354d5a4b18996fce8386866040516105b893929190610fe9565b60405180910390a250505050565b6000806000600254600354600554925092509250909192565b60046020528060005260406000206000915090505481565b600080831161063b576040517f08c379a00000000000000000000000000000000000000000000000000000000081526004016106329061141b565b60405180910390fd5b6000600254148061064e57506000600354145b1561065c57600090506106f9565b81156106af5760006103e86103e5856106759190611214565b61067f9190611285565b90508060025461068f919061139b565b8160035461069d9190611214565b6106a79190611285565b9150506106f8565b60006103e86103e5856106c29190611214565b6106cc9190611285565b9050806003546106dc919061139b565b816002546106ea9190611214565b6106f49190611285565b9150505b5b92915050565b60008111610742576040517f08c379a000000000000000000000000000000000000000000000000000000000815260040161073990611487565b60405180910390fd5b600060025411801561075657506000600354115b610795576040517f08c379a000000000000000000000000000000000000000000000000000000000815260040161078c906114f3565b60405180910390fd5b60006103e86103e5836107a89190611214565b6107b29190611285565b90506000816003546107c4919061139b565b826002546107d29190611214565b6107dc9190611285565b90506000811180156107ef575060025481105b61082e576040517f08c379a00000000000000000000000000000000000000000000000000000000081526004016108259061155f565b60405180910390fd5b6000600160009054906101000a900473ffffffffffffffffffffffffffffffffffffffff1690508073ffffffffffffffffffffffffffffffffffffffff166323b872dd3330876040518463ffffffff1660e01b8152600401610892939291906112b6565b6020604051808303816000875af11580156108b1573d6000803e3d6000fd5b505050506040513d601f19601f820116820180604052508101906108d59190611302565b5083600360008282546108e8919061139b565b925050819055508160026000828254610901919061157f565b925050819055503373ffffffffffffffffffffffffffffffffffffffff166108fc839081150290604051600060405180830381858888f1935050505015801561094e573d6000803e3d6000fd5b503373ffffffffffffffffffffffffffffffffffffffff167f49926bbebe8474393f434dfa4f78694c0923efa07d19f2284518bfabd06eb737600080878660405161099c94939291906115f8565b60405180910390a250505050565b60008060009054906101000a900473ffffffffffffffffffffffffffffffffffffffff16905090565b6000600160009054906101000a900473ffffffffffffffffffffffffffffffffffffffff16905090565b60035481565b600081118015610a52575080600460003373ffffffffffffffffffffffffffffffffffffffff1673ffffffffffffffffffffffffffffffffffffffff1681526020019081526020016000205410155b610a91576040517f08c379a0000000000000000000000000000000000000000000000000000000008152600401610a8890611689565b60405180910390fd5b600060055460025483610aa49190611214565b610aae9190611285565b9050600060055460035484610ac39190611214565b610acd9190611285565b90508160026000828254610ae1919061157f565b925050819055508060036000828254610afa919061157f565b9250508190555082600460003373ffffffffffffffffffffffffffffffffffffffff1673ffffffffffffffffffffffffffffffffffffffff1681526020019081526020016000206000828254610b50919061157f565b925050819055508260056000828254610b69919061157f565b925050819055503373ffffffffffffffffffffffffffffffffffffffff166108fc839081150290604051600060405180830381858888f19350505050158015610bb6573d6000803e3d6000fd5b506000600160009054906101000a900473ffffffffffffffffffffffffffffffffffffffff1690508073ffffffffffffffffffffffffffffffffffffffff1663a9059cbb33846040518363ffffffff1660e01b8152600401610c199291906116a9565b6020604051808303816000875af1158015610c38573d6000803e3d6000fd5b505050506040513d601f19601f82011682018060405250810190610c5c9190611302565b503373ffffffffffffffffffffffffffffffffffffffff167f59c3a0b60c6ab7deb62e1440c9e72441db6db7dfe514dba8cb18e60c0d896efa848487604051610ca793929190610fe9565b60405180910390a250505050565b600160009054906101000a900473ffffffffffffffffffffffffffffffffffffffff1681565b60055481565b60008054906101000a900473ffffffffffffffffffffffffffffffffffffffff1681565b60025481565b60003411610d4e576040517f08c379a0000000000000000000000000000000000000000000000000000000008152600401610d459061171e565b60405180910390fd5b6000600254118015610d6257506000600354115b610da1576040517f08c379a0000000000000000000000000000000000000000000000000000000008152600401610d989061178a565b60405180910390fd5b600034905060006103e86103e583610db99190611214565b610dc39190611285565b9050600081600254610dd5919061139b565b82600354610de39190611214565b610ded9190611285565b9050600081118015610e00575060035481105b610e3f576040517f08c379a0000000000000000000000000000000000000000000000000000000008152600401610e369061155f565b60405180910390fd5b8260026000828254610e51919061139b565b925050819055508060036000828254610e6a919061157f565b925050819055506000600160009054906101000a900473ffffffffffffffffffffffffffffffffffffffff1690508073ffffffffffffffffffffffffffffffffffffffff1663a9059cbb33846040518363ffffffff1660e01b8152600401610ed39291906116a9565b6020604051808303816000875af1158015610ef2573d6000803e3d6000fd5b505050506040513d601f19601f82011682018060405250810190610f169190611302565b503373ffffffffffffffffffffffffffffffffffffffff167f49926bbebe8474393f434dfa4f78694c0923efa07d19f2284518bfabd06eb7378584600080604051610f6494939291906117aa565b60405180910390a250505050565b600080fd5b6000819050919050565b610f8a81610f77565b8114610f9557600080fd5b50565b600081359050610fa781610f81565b92915050565b600060208284031215610fc357610fc2610f72565b5b6000610fd184828501610f98565b91505092915050565b610fe381610f77565b82525050565b6000606082019050610ffe6000830186610fda565b61100b6020830185610fda565b6110186040830184610fda565b949350505050565b600073ffffffffffffffffffffffffffffffffffffffff82169050919050565b600061104b82611020565b9050919050565b61105b81611040565b811461106657600080fd5b50565b60008135905061107881611052565b92915050565b60006020828403121561109457611093610f72565b5b60006110a284828501611069565b91505092915050565b60006020820190506110c06000830184610fda565b92915050565b60008115159050919050565b6110db816110c6565b81146110e657600080fd5b50565b6000813590506110f8816110d2565b92915050565b6000806040838503121561111557611114610f72565b5b600061112385828601610f98565b9250506020611134858286016110e9565b9150509250929050565b61114781611040565b82525050565b6000602082019050611162600083018461113e565b92915050565b600082825260208201905092915050565b7f496e76616c696420616d6f756e74730000000000000000000000000000000000600082015250565b60006111af600f83611168565b91506111ba82611179565b602082019050919050565b600060208201905081810360008301526111de816111a2565b9050919050565b7f4e487b7100000000000000000000000000000000000000000000000000000000600052601160045260246000fd5b600061121f82610f77565b915061122a83610f77565b925082820261123881610f77565b9150828204841483151761124f5761124e6111e5565b5b5092915050565b7f4e487b7100000000000000000000000000000000000000000000000000000000600052601260045260246000fd5b600061129082610f77565b915061129b83610f77565b9250826112ab576112aa611256565b5b828204905092915050565b60006060820190506112cb600083018661113e565b6112d8602083018561113e565b6112e56040830184610fda565b949350505050565b6000815190506112fc816110d2565b92915050565b60006020828403121561131857611317610f72565b5b6000611326848285016112ed565b91505092915050565b7f546f6b656e207472616e73666572206661696c65640000000000000000000000600082015250565b6000611365601583611168565b91506113708261132f565b602082019050919050565b6000602082019050818103600083015261139481611358565b9050919050565b60006113a682610f77565b91506113b183610f77565b92508282019050808211156113c9576113c86111e5565b5b92915050565b7f496e76616c696420616d6f756e74000000000000000000000000000000000000600082015250565b6000611405600e83611168565b9150611410826113cf565b602082019050919050565b60006020820190508181036000830152611434816113f8565b9050919050565b7f496e76616c696420746f6b656e20616d6f756e74000000000000000000000000600082015250565b6000611471601483611168565b915061147c8261143b565b602082019050919050565b600060208201905081810360008301526114a081611464565b9050919050565b7f4e6f206c69717569646974790000000000000000000000000000000000000000600082015250565b60006114dd600c83611168565b91506114e8826114a7565b602082019050919050565b6000602082019050818103600083015261150c816114d0565b9050919050565b7f496e76616c696420737761700000000000000000000000000000000000000000600082015250565b6000611549600c83611168565b915061155482611513565b602082019050919050565b600060208201905081810360008301526115788161153c565b9050919050565b600061158a82610f77565b915061159583610f77565b92508282039050818111156115ad576115ac6111e5565b5b92915050565b6000819050919050565b6000819050919050565b60006115e26115dd6115d8846115b3565b6115bd565b610f77565b9050919050565b6115f2816115c7565b82525050565b600060808201905061160d60008301876115e9565b61161a60208301866115e9565b6116276040830185610fda565b6116346060830184610fda565b95945050505050565b7f496e76616c696420736861726573000000000000000000000000000000000000600082015250565b6000611673600e83611168565b915061167e8261163d565b602082019050919050565b600060208201905081810360008301526116a281611666565b9050919050565b60006040820190506116be600083018561113e565b6116cb6020830184610fda565b9392505050565b7f496e76616c69642045544820616d6f756e740000000000000000000000000000600082015250565b6000611708601283611168565b9150611713826116d2565b602082019050919050565b60006020820190508181036000830152611737816116fb565b9050919050565b7f496e73756666696369656e74206c697175696469747900000000000000000000600082015250565b6000611774601683611168565b915061177f8261173e565b602082019050919050565b600060208201905081810360008301526117a381611767565b9050919050565b60006080820190506117bf6000830187610fda565b6117cc6020830186610fda565b6117d960408301856115e9565b6117e660608301846115e9565b9594505050505056fea2646970667358221220558df49b310ee53ed79ee39c95603e071c6b9d1af8f4556e12832822c6ae559c64736f6c634300081c0033",
  "linkReferences": {},
  "deployedLinkReferences": {}
}