{
  "_format": "hh-sol-artifact-1",
  "contractName": "MetaNodeStake",
  "sourceName": "contracts/MetaNodeStake.sol",
  "abi": [
    {
      "inputs": [],
      "name": "AccessControlBadConfirmation",
      "type": "error"
    },
    {
      "inputs": [
        {
          "internalType": "address",
          "name": "account",
          "type": "address"
        },
        {
          "internalType": "bytes32",
          "name": "neededRole",
          "type": "bytes32"
        }
      ],
      "name": "AccessControlUnauthorizedAccount",
      "type": "error"
    },
    {
      "inputs": [
        {
          "internalType": "address",
          "name": "target",
          "type": "address"
        }
      ],
      "name": "AddressEmptyCode",
      "type": "error"
    },
    {
      "inputs": [
        {
          "internalType": "address",
          "name": "implementation",
          "type": "address"
        }
      ],
      "name": "ERC1967InvalidImplementation",
      "type": "error"
    },
    {
      "inputs": [],
      "name": "ERC1967NonPayable",
      "type": "error"
    },
    {
      "inputs": [],
      "name": "EnforcedPause",
      "type": "error"
    },
    {
      "inputs": [],
      "name": "ExpectedPause",
      "type": "error"
    },
    {
      "inputs": [],
      "name": "FailedCall",
      "type": "error"
    },
    {
      "inputs": [],
      "name": "InvalidInitialization",
      "type": "error"
    },
    {
      "inputs": [],
      "name": "NotInitializing",
      "type": "error"
    },
    {
      "inputs": [
        {
          "internalType": "address",
          "name": "token",
          "type": "address"
        }
      ],
      "name": "SafeERC20FailedOperation",
      "type": "error"
    },
    {
      "inputs": [],
      "name": "UUPSUnauthorizedCallContext",
      "type": "error"
    },
    {
      "inputs": [
        {
          "internalType": "bytes32",
          "name": "slot",
          "type": "bytes32"
        }
      ],
      "name": "UUPSUnsupportedProxiableUUID",
      "type": "error"
    },
    {
      "anonymous": false,
      "inputs": [
        {
          "indexed": false,
          "internalType": "uint64",
          "name": "version",
          "type": "uint64"
        }
      ],
      "name": "Initialized",
      "type": "event"
    },
    {
      "anonymous": false,
      "inputs": [
        {
          "indexed": false,
          "internalType": "address",
          "name": "account",
          "type": "address"
        }
      ],
      "name": "Paused",
      "type": "event"
    },
    {
      "anonymous": false,
      "inputs": [
        {
          "indexed": true,
          "internalType": "bytes32",
          "name": "role",
          "type": "bytes32"
        },
        {
          "indexed": true,
          "internalType": "bytes32",
          "name": "previousAdminRole",
          "type": "bytes32"
        },
        {
          "indexed": true,
          "internalType": "bytes32",
          "name": "newAdminRole",
          "type": "bytes32"
        }
      ],
      "name": "RoleAdminChanged",
      "type": "event"
    },
    {
      "anonymous": false,
      "inputs": [
        {
          "indexed": true,
          "internalType": "bytes32",
          "name": "role",
          "type": "bytes32"
        },
        {
          "indexed": true,
          "internalType": "address",
          "name": "account",
          "type": "address"
        },
        {
          "indexed": true,
          "internalType": "address",
          "name": "sender",
          "type": "address"
        }
      ],
      "name": "RoleGranted",
      "type": "event"
    },
    {
      "anonymous": false,
      "inputs": [
        {
          "indexed": true,
          "internalType": "bytes32",
          "name": "role",
          "type": "bytes32"
        },
        {
          "indexed": true,
          "internalType": "address",
          "name": "account",
          "type": "address"
        },
        {
          "indexed": true,
          "internalType": "address",
          "name": "sender",
          "type": "address"
        }
      ],
      "name": "RoleRevoked",
      "type": "event"
    },
    {
      "anonymous": false,
      "inputs": [
        {
          "indexed": false,
          "internalType": "address",
          "name": "account",
          "type": "address"
        }
      ],
      "name": "Unpaused",
      "type": "event"
    },
    {
      "anonymous": false,
      "inputs": [
        {
          "indexed": true,
          "internalType": "address",
          "name": "implementation",
          "type": "address"
        }
      ],
      "name": "Upgraded",
      "type": "event"
    },
    {
      "inputs": [],
      "name": "ADMIN_ROLE",
      "outputs": [
        {
          "internalType": "bytes32",
          "name": "",
          "type": "bytes32"
        }
      ],
      "stateMutability": "view",
      "type": "function"
    },
    {
      "inputs": [],
      "name": "DEFAULT_ADMIN_ROLE",
      "outputs": [
        {
          "internalType": "bytes32",
          "name": "",
          "type": "bytes32"
        }
      ],
      "stateMutability": "view",
      "type": "function"
    },
    {
      "inputs": [],
      "name": "ETH_PID",
      "outputs": [
        {
          "internalType": "uint256",
          "name": "",
          "type": "uint256"
        }
      ],
      "stateMutability": "view",
      "type": "function"
    },
    {
      "inputs": [],
      "name": "MetaNode",
      "outputs": [
        {
          "internalType": "contract IERC20",
          "name": "",
          "type": "address"
        }
      ],
      "stateMutability": "view",
      "type": "function"
    },
    {
      "inputs": [],
      "name": "UPGRADER_ROLE",
      "outputs": [
        {
          "internalType": "bytes32",
          "name": "",
          "type": "bytes32"
        }
      ],
      "stateMutability": "view",
      "type": "function"
    },
    {
      "inputs": [],
      "name": "UPGRADE_INTERFACE_VERSION",
      "outputs": [
        {
          "internalType": "string",
          "name": "",
          "type": "string"
        }
      ],
      "stateMutability": "view",
      "type": "function"
    },
    {
      "inputs": [
        {
          "internalType": "address",
          "name": "poolAddress_",
          "type": "address"
        },
        {
          "internalType": "uint256",
          "name": "poolWeight_",
          "type": "uint256"
        },
        {
          "internalType": "uint256",
          "name": "minDepositAmount_",
          "type": "uint256"
        },
        {
          "internalType": "uint256",
          "name": "unstakeLockedBlocks_",
          "type": "uint256"
        }
      ],
      "name": "addPool",
      "outputs": [],
      "stateMutability": "nonpayable",
      "type": "function"
    },
    {
      "inputs": [
        {
          "internalType": "uint256",
          "name": "pid_",
          "type": "uint256"
        }
      ],
      "name": "claim",
      "outputs": [],
      "stateMutability": "nonpayable",
      "type": "function"
    },
    {
      "inputs": [],
      "name": "claimPaused",
      "outputs": [
        {
          "internalType": "bool",
          "name": "",
          "type": "bool"
        }
      ],
      "stateMutability": "view",
      "type": "function"
    },
    {
      "inputs": [
        {
          "internalType": "uint256",
          "name": "pid_",
          "type": "uint256"
        },
        {
          "internalType": "uint256",
          "name": "amount_",
          "type": "uint256"
        }
      ],
      "name": "deposit",
      "outputs": [],
      "stateMutability": "nonpayable",
      "type": "function"
    },
    {
      "inputs": [],
      "name": "depositETH",
      "outputs": [],
      "stateMutability": "payable",
      "type": "function"
    },
    {
      "inputs": [],
      "name": "endBlock",
      "outputs": [
        {
          "internalType": "uint256",
          "name": "",
          "type": "uint256"
        }
      ],
      "stateMutability": "view",
      "type": "function"
    },
    {
      "inputs": [
        {
          "internalType": "uint256",
          "name": "lastBlock_",
          "type": "uint256"
        },
        {
          "internalType": "uint256",
          "name": "startBlock_",
          "type": "uint256"
        }
      ],
      "name": "getMultiplier",
      "outputs": [
        {
          "internalType": "uint256",
          "name": "multiplier",
          "type": "uint256"
        }
      ],
      "stateMutability": "view",
      "type": "function"
    },
    {
      "inputs": [
        {
          "internalType": "bytes32",
          "name": "role",
          "type": "bytes32"
        }
      ],
      "name": "getRoleAdmin",
      "outputs": [
        {
          "internalType": "bytes32",
          "name": "",
          "type": "bytes32"
        }
      ],
      "stateMutability": "view",
      "type": "function"
    },
    {
      "inputs": [
        {
          "internalType": "bytes32",
          "name": "role",
          "type": "bytes32"
        },
        {
          "internalType": "address",
          "name": "account",
          "type": "address"
        }
      ],
      "name": "grantRole",
      "outputs": [],
      "stateMutability": "nonpayable",
      "type": "function"
    },
    {
      "inputs": [
        {
          "internalType": "bytes32",
          "name": "role",
          "type": "bytes32"
        },
        {
          "internalType": "address",
          "name": "account",
          "type": "address"
        }
      ],
      "name": "hasRole",
      "outputs": [
        {
          "internalType": "bool",
          "name": "",
          "type": "bool"
        }
      ],
      "stateMutability": "view",
      "type": "function"
    },
    {
      "inputs": [
        {
          "internalType": "address",
          "name": "metaNodeAddress_",
          "type": "address"
        },
        {
          "internalType": "uint256",
          "name": "startBlock_",
          "type": "uint256"
        },
        {
          "internalType": "uint256",
          "name": "endBlock_",
          "type": "uint256"
        },
        {
          "internalType": "uint256",
          "name": "metaNodePerBlock_",
          "type": "uint256"
        }
      ],
      "name": "initialize",
      "outputs": [],
      "stateMutability": "nonpayable",
      "type": "function"
    },
    {
      "inputs": [],
      "name": "massUpdatePools",
      "outputs": [],
      "stateMutability": "nonpayable",
      "type": "function"
    },
    {
      "inputs": [],
      "name": "metaNodePerBlock",
      "outputs": [
        {
          "internalType": "uint256",
          "name": "",
          "type": "uint256"
        }
      ],
      "stateMutability": "view",
      "type": "function"
    },
    {
      "inputs": [],
      "name": "pauseClaim",
      "outputs": [],
      "stateMutability": "nonpayable",
      "type": "function"
    },
    {
      "inputs": [],
      "name": "paused",
      "outputs": [
        {
          "internalType": "bool",
          "name": "",
          "type": "bool"
        }
      ],
      "stateMutability": "view",
      "type": "function"
    },
    {
      "inputs": [],
      "name": "pausedWithdraw",
      "outputs": [],
      "stateMutability": "nonpayable",
      "type": "function"
    },
    {
      "inputs": [
        {
          "internalType": "uint256",
          "name": "pid_",
          "type": "uint256"
        },
        {
          "internalType": "address",
          "name": "user_",
          "type": "address"
        }
      ],
      "name": "pendingMetaNode",
      "outputs": [
        {
          "internalType": "uint256",
          "name": "",
          "type": "uint256"
        }
      ],
      "stateMutability": "view",
      "type": "function"
    },
    {
      "inputs": [
        {
          "internalType": "uint256",
          "name": "pid_",
          "type": "uint256"
        },
        {
          "internalType": "address",
          "name": "user_",
          "type": "address"
        },
        {
          "internalType": "uint256",
          "name": "blockNumber_",
          "type": "uint256"
        }
      ],
      "name": "pendingMetaNodeByBlockNumber",
      "outputs": [
        {
          "internalType": "uint256",
          "name": "",
          "type": "uint256"
        }
      ],
      "stateMutability": "view",
      "type": "function"
    },
    {
      "inputs": [],
      "name": "poolLength",
      "outputs": [
        {
          "internalType": "uint256",
          "name": "",
          "type": "uint256"
        }
      ],
      "stateMutability": "view",
      "type": "function"
    },
    {
      "inputs": [
        {
          "internalType": "uint256",
          "name": "",
          "type": "uint256"
        }
      ],
      "name": "pools",
      "outputs": [
        {
          "internalType": "address",
          "name": "poolAddress",
          "type": "address"
        },
        {
          "internalType": "uint256",
          "name": "poolWeight",
          "type": "uint256"
        },
        {
          "internalType": "uint256",
          "name": "minDepositAmount",
          "type": "uint256"
        },
        {
          "internalType": "uint256",
          "name": "lastRewardBlock",
          "type": "uint256"
        },
        {
          "internalType": "uint256",
          "name": "accMetaNodePerST",
          "type": "uint256"
        },
        {
          "internalType": "uint256",
          "name": "stTokenAmount",
          "type": "uint256"
        },
        {
          "internalType": "uint256",
          "name": "unstakeLockedBlocks",
          "type": "uint256"
        }
      ],
      "stateMutability": "view",
      "type": "function"
    },
    {
      "inputs": [],
      "name": "proxiableUUID",
      "outputs": [
        {
          "internalType": "bytes32",
          "name": "",
          "type": "bytes32"
        }
      ],
      "stateMutability": "view",
      "type": "function"
    },
    {
      "inputs": [
        {
          "internalType": "bytes32",
          "name": "role",
          "type": "bytes32"
        },
        {
          "internalType": "address",
          "name": "callerConfirmation",
          "type": "address"
        }
      ],
      "name": "renounceRole",
      "outputs": [],
      "stateMutability": "nonpayable",
      "type": "function"
    },
    {
      "inputs": [
        {
          "internalType": "bytes32",
          "name": "role",
          "type": "bytes32"
        },
        {
          "internalType": "address",
          "name": "account",
          "type": "address"
        }
      ],
      "name": "revokeRole",
      "outputs": [],
      "stateMutability": "nonpayable",
      "type": "function"
    },
    {
      "inputs": [
        {
          "internalType": "uint256",
          "name": "endBlock_",
          "type": "uint256"
        }
      ],
      "name": "setEndBlock",
      "outputs": [],
      "stateMutability": "nonpayable",
      "type": "function"
    },
    {
      "inputs": [
        {
          "internalType": "address",
          "name": "metaNodeAddress_",
          "type": "address"
        }
      ],
      "name": "setMetaNode",
      "outputs": [],
      "stateMutability": "nonpayable",
      "type": "function"
    },
    {
      "inputs": [
        {
          "internalType": "uint256",
          "name": "metaNodePerBlock_",
          "type": "uint256"
        }
      ],
      "name": "setMetaNodePerBlock",
      "outputs": [],
      "stateMutability": "nonpayable",
      "type": "function"
    },
    {
      "inputs": [
        {
          "internalType": "uint256",
          "name": "pid_",
          "type": "uint256"
        },
        {
          "internalType": "uint256",
          "name": "poolWeight_",
          "type": "uint256"
        },
        {
          "internalType": "bool",
          "name": "withUpdate_",
          "type": "bool"
        }
      ],
      "name": "setPoolWeight",
      "outputs": [],
      "stateMutability": "nonpayable",
      "type": "function"
    },
    {
      "inputs": [
        {
          "internalType": "uint256",
          "name": "startBlock_",
          "type": "uint256"
        }
      ],
      "name": "setStartBlock",
      "outputs": [],
      "stateMutability": "nonpayable",
      "type": "function"
    },
    {
      "inputs": [
        {
          "internalType": "uint256",
          "name": "pid_",
          "type": "uint256"
        },
        {
          "internalType": "address",
          "name": "user_",
          "type": "address"
        }
      ],
      "name": "stakingBalance",
      "outputs": [
        {
          "internalType": "uint256",
          "name": "",
          "type": "uint256"
        }
      ],
      "stateMutability": "view",
      "type": "function"
    },
    {
      "inputs": [],
      "name": "startBlock",
      "outputs": [
        {
          "internalType": "uint256",
          "name": "",
          "type": "uint256"
        }
      ],
      "stateMutability": "view",
      "type": "function"
    },
    {
      "inputs": [
        {
          "internalType": "bytes4",
          "name": "interfaceId",
          "type": "bytes4"
        }
      ],
      "name": "supportsInterface",
      "outputs": [
        {
          "internalType": "bool",
          "name": "",
          "type": "bool"
        }
      ],
      "stateMutability": "view",
      "type": "function"
    },
    {
      "inputs": [],
      "name": "totalWeight",
      "outputs": [
        {
          "internalType": "uint256",
          "name": "",
          "type": "uint256"
        }
      ],
      "stateMutability": "view",
      "type": "function"
    },
    {
      "inputs": [],
      "name": "unpauseClaim",
      "outputs": [],
      "stateMutability": "nonpayable",
      "type": "function"
    },
    {
      "inputs": [],
      "name": "unpauseWithdraw",
      "outputs": [],
      "stateMutability": "nonpayable",
      "type": "function"
    },
    {
      "inputs": [
        {
          "internalType": "uint256",
          "name": "pid_",
          "type": "uint256"
        },
        {
          "internalType": "uint256",
          "name": "amount_",
          "type": "uint256"
        }
      ],
      "name": "unstake",
      "outputs": [],
      "stateMutability": "nonpayable",
      "type": "function"
    },
    {
      "inputs": [
        {
          "internalType": "uint256",
          "name": "pid_",
          "type": "uint256"
        },
        {
          "internalType": "uint256",
          "name": "minDepositAmount_",
          "type": "uint256"
        },
        {
          "internalType": "uint256",
          "name": "unstakeLockedBlocks_",
          "type": "uint256"
        }
      ],
      "name": "updatePool",
      "outputs": [],
      "stateMutability": "nonpayable",
      "type": "function"
    },
    {
      "inputs": [
        {
          "internalType": "address",
          "name": "newImplementation",
          "type": "address"
        },
        {
          "internalType": "bytes",
          "name": "data",
          "type": "bytes"
        }
      ],
      "name": "upgradeToAndCall",
      "outputs": [],
      "stateMutability": "payable",
      "type": "function"
    },
    {
      "inputs": [
        {
          "internalType": "uint256",
          "name": "",
          "type": "uint256"
        },
        {
          "internalType": "address",
          "name": "",
          "type": "address"
        }
      ],
      "name": "users",
      "outputs": [
        {
          "internalType": "uint256",
          "name": "amount",
          "type": "uint256"
        },
        {
          "internalType": "uint256",
          "name": "finishedMetaNode",
          "type": "uint256"
        },
        {
          "internalType": "uint256",
          "name": "pendingMetaNode",
          "type": "uint256"
        }
      ],
      "stateMutability": "view",
      "type": "function"
    },
    {
      "inputs": [
        {
          "internalType": "uint256",
          "name": "pid_",
          "type": "uint256"
        }
      ],
      "name": "withdraw",
      "outputs": [],
      "stateMutability": "nonpayable",
      "type": "function"
    },
    {
      "inputs": [
        {
          "internalType": "uint256",
          "name": "pid_",
          "type": "uint256"
        },
        {
          "internalType": "address",
          "name": "user_",
          "type": "address"
        }
      ],
      "name": "withdrawAmount",
      "outputs": [
        {
          "internalType": "uint256",
          "name": "requestAmount",
          "type": "uint256"
        },
        {
          "internalType": "uint256",
          "name": "pendingWithdrawAmount",
          "type": "uint256"
        }
      ],
      "stateMutability": "view",
      "type": "function"
    },
    {
      "inputs": [],
      "name": "withdrawPaused",
      "outputs": [
        {
          "internalType": "bool",
          "name": "",
          "type": "bool"
        }
      ],
      "stateMutability": "view",
      "type": "function"
    }
  ],
  "bytecode": "0x60a06040523073ffffffffffffffffffffffffffffffffffffffff1660809073ffffffffffffffffffffffffffffffffffffffff16815250348015604257600080fd5b506080516156bc61006c600039600081816130d70152818161312c015261330a01526156bc6000f3fe6080604052600436106102885760003560e01c80638ff095f91161015a578063d22f1d80116100c1578063ea5c219d1161007a578063ea5c219d1461097b578063f35e4a6e146109b8578063f6326fb3146109e1578063f72c0d8b146109eb578063fad07ece14610a16578063ff42335714610a3f57610288565b8063d22f1d8014610895578063d547741f146108c0578063d7bc1769146108e9578063d86c044414610912578063de065caa1461093b578063e2bbb1581461095257610288565b8063ab5e124a11610113578063ab5e124a14610769578063ac4afa3814610794578063ad3cb1cc146107d7578063b9d02df414610802578063bfc3ebba14610841578063c713aa941461086c57610288565b80638ff095f91461067f57806391d148541461069657806396c82e57146106d35780639e2c8a5b146106fe578063a217fddf14610727578063a25088c61461075257610288565b80634ec81af1116101fe57806361a9a03d116101b757806361a9a03d1461056f578063630b5ba1146105985780636325d5bc146105af5780637276d925146105ec57806375b238fc146106175780638dbb1e3a1461064257610288565b80634ec81af1146104945780634f1ef286146104bd57806352d1902d146104d95780635a4ec0ca146105045780635bb6d0071461052d5780635c975abb1461054457610288565b80632e1a7d4d116102505780632e1a7d4d1461039a5780632f2ff15d146103c35780632f3ffb9f146103ec57806336568abe14610417578063379607f51461044057806348cd4cb11461046957610288565b806301ffc9a71461028d578063081e3eda146102ca578063083c6323146102f55780631154823414610320578063248a9ca31461035d575b600080fd5b34801561029957600080fd5b506102b460048036038101906102af9190613d4b565b610a7d565b6040516102c19190613d93565b60405180910390f35b3480156102d657600080fd5b506102df610af7565b6040516102ec9190613dc7565b60405180910390f35b34801561030157600080fd5b5061030a610b03565b6040516103179190613dc7565b60405180910390f35b34801561032c57600080fd5b5061034760048036038101906103429190613e6c565b610b09565b6040516103549190613dc7565b60405180910390f35b34801561036957600080fd5b50610384600480360381019061037f9190613ee2565b610bb0565b6040516103919190613f1e565b60405180910390f35b3480156103a657600080fd5b506103c160048036038101906103bc9190613f39565b610bde565b005b3480156103cf57600080fd5b506103ea60048036038101906103e59190613f66565b610f37565b005b3480156103f857600080fd5b50610401610f59565b60405161040e9190613d93565b60405180910390f35b34801561042357600080fd5b5061043e60048036038101906104399190613f66565b610f6c565b005b34801561044c57600080fd5b5061046760048036038101906104629190613f39565b610fe7565b005b34801561047557600080fd5b5061047e61119e565b60405161048b9190613dc7565b60405180910390f35b3480156104a057600080fd5b506104bb60048036038101906104b69190613fa6565b6111a4565b005b6104d760048036038101906104d29190614153565b6113b9565b005b3480156104e557600080fd5b506104ee6113d8565b6040516104fb9190613f1e565b60405180910390f35b34801561051057600080fd5b5061052b60048036038101906105269190613fa6565b61140b565b005b34801561053957600080fd5b50610542611659565b005b34801561055057600080fd5b506105596116f0565b6040516105669190613d93565b60405180910390f35b34801561057b57600080fd5b50610596600480360381019061059191906141af565b611715565b005b3480156105a457600080fd5b506105ad611784565b005b3480156105bb57600080fd5b506105d660048036038101906105d191906141dc565b6117b2565b6040516105e39190613dc7565b60405180910390f35b3480156105f857600080fd5b50610601611944565b60405161060e9190613dc7565b60405180910390f35b34801561062357600080fd5b5061062c61194a565b6040516106399190613f1e565b60405180910390f35b34801561064e57600080fd5b506106696004803603810190610664919061422f565b61196e565b6040516106769190613dc7565b60405180910390f35b34801561068b57600080fd5b50610694611a86565b005b3480156106a257600080fd5b506106bd60048036038101906106b89190613f66565b611b1e565b6040516106ca9190613d93565b60405180910390f35b3480156106df57600080fd5b506106e8611b97565b6040516106f59190613dc7565b60405180910390f35b34801561070a57600080fd5b506107256004803603810190610720919061422f565b611b9d565b005b34801561073357600080fd5b5061073c611dd9565b6040516107499190613f1e565b60405180910390f35b34801561075e57600080fd5b50610767611de0565b005b34801561077557600080fd5b5061077e611e78565b60405161078b9190613d93565b60405180910390f35b3480156107a057600080fd5b506107bb60048036038101906107b69190613f39565b611e8b565b6040516107ce979695949392919061427e565b60405180910390f35b3480156107e357600080fd5b506107ec611efd565b6040516107f9919061436c565b60405180910390f35b34801561080e57600080fd5b5061082960048036038101906108249190613e6c565b611f36565b6040516108389392919061438e565b60405180910390f35b34801561084d57600080fd5b50610856611f6d565b6040516108639190613dc7565b60405180910390f35b34801561087857600080fd5b50610893600480360381019061088e9190613f39565b611f72565b005b3480156108a157600080fd5b506108aa611fec565b6040516108b79190614424565b60405180910390f35b3480156108cc57600080fd5b506108e760048036038101906108e29190613f66565b612012565b005b3480156108f557600080fd5b50610910600480360381019061090b9190613f39565b612034565b005b34801561091e57600080fd5b506109396004803603810190610934919061443f565b612069565b005b34801561094757600080fd5b50610950612136565b005b34801561095e57600080fd5b506109796004803603810190610974919061422f565b6121cd565b005b34801561098757600080fd5b506109a2600480360381019061099d9190613e6c565b61232e565b6040516109af9190613dc7565b60405180910390f35b3480156109c457600080fd5b506109df60048036038101906109da9190613f39565b61238c565b005b6109e9612406565b005b3480156109f757600080fd5b50610a0061251a565b604051610a0d9190613f1e565b60405180910390f35b348015610a2257600080fd5b50610a3d6004803603810190610a3891906144be565b61253e565b005b348015610a4b57600080fd5b50610a666004803603810190610a619190613e6c565b612677565b604051610a74929190614511565b60405180910390f35b60007f7965db0b000000000000000000000000000000000000000000000000000000007bffffffffffffffffffffffffffffffffffffffffffffffffffffffff1916827bffffffffffffffffffffffffffffffffffffffffffffffffffffffff19161480610af05750610aef826127d9565b5b9050919050565b60008080549050905090565b60025481565b6000826000805490508110610b53576040517f08c379a0000000000000000000000000000000000000000000000000000000008152600401610b4a90614586565b60405180910390fd5b6007600085815260200190815260200160002060008473ffffffffffffffffffffffffffffffffffffffff1673ffffffffffffffffffffffffffffffffffffffff1681526020019081526020016000206000015491505092915050565b600080610bbb612843565b905080600001600084815260200190815260200160002060010154915050919050565b806000805490508110610c26576040517f08c379a0000000000000000000000000000000000000000000000000000000008152600401610c1d90614586565b60405180910390fd5b600460009054906101000a900460ff1615610c76576040517f08c379a0000000000000000000000000000000000000000000000000000000008152600401610c6d906145f2565b60405180910390fd5b6000808381548110610c8b57610c8a614612565b5b9060005260206000209060070201905060006007600085815260200190815260200160002060003373ffffffffffffffffffffffffffffffffffffffff1673ffffffffffffffffffffffffffffffffffffffff168152602001908152602001600020905060008060005b8360030180549050811015610d825743846003018281548110610d1b57610d1a614612565b5b90600052602060002090600202016001015411610d8257836003018181548110610d4857610d47614612565b5b90600052602060002090600202016000015483610d659190614670565b92508180610d72906146a4565b9250508080600101915050610cf5565b5060005b818460030180549050610d9991906146ec565b811015610e1757836003018282610db09190614670565b81548110610dc157610dc0614612565b5b9060005260206000209060020201846003018281548110610de557610de4614612565b5b906000526020600020906002020160008201548160000155600182015481600101559050508080600101915050610d86565b5060005b81811015610e6d5783600301805480610e3757610e36614720565b5b60019003818190600052602060002090600202016000808201600090556001820160009055505090558080600101915050610e1b565b506000821115610f2f57600073ffffffffffffffffffffffffffffffffffffffff168460000160009054906101000a900473ffffffffffffffffffffffffffffffffffffffff1673ffffffffffffffffffffffffffffffffffffffff1603610ede57610ed9338361286b565b610f2e565b610f2d33838660000160009054906101000a900473ffffffffffffffffffffffffffffffffffffffff1673ffffffffffffffffffffffffffffffffffffffff1661297d9092919063ffffffff16565b5b5b505050505050565b610f4082610bb0565b610f49816129fc565b610f538383612a10565b50505050565b600460009054906101000a900460ff1681565b610f74612b11565b73ffffffffffffffffffffffffffffffffffffffff168173ffffffffffffffffffffffffffffffffffffffff1614610fd8576040517f6697b23200000000000000000000000000000000000000000000000000000000815260040160405180910390fd5b610fe28282612b19565b505050565b80600080549050811061102f576040517f08c379a000000000000000000000000000000000000000000000000000000000815260040161102690614586565b60405180910390fd5b600460019054906101000a900460ff161561107f576040517f08c379a00000000000000000000000000000000000000000000000000000000081526004016110769061479b565b60405180910390fd5b600080838154811061109457611093614612565b5b9060005260206000209060070201905060006007600085815260200190815260200160002060003373ffffffffffffffffffffffffffffffffffffffff1673ffffffffffffffffffffffffffffffffffffffff168152602001908152602001600020905061110184612c1b565b600081600201548260010154670de0b6b3a76400008560040154856000015461112a91906147bb565b611134919061482c565b61113e91906146ec565b6111489190614670565b9050600081111561116857600082600201819055506111673382612eae565b5b670de0b6b3a76400008360040154836000015461118591906147bb565b61118f919061482c565b82600101819055505050505050565b60015481565b60006111ae6130a3565b905060008160000160089054906101000a900460ff1615905060008260000160009054906101000a900467ffffffffffffffff1690506000808267ffffffffffffffff161480156111fc5750825b9050600060018367ffffffffffffffff16148015611231575060003073ffffffffffffffffffffffffffffffffffffffff163b145b90508115801561123f575080155b15611276576040517ff92ee8a900000000000000000000000000000000000000000000000000000000815260040160405180910390fd5b60018560000160006101000a81548167ffffffffffffffff021916908367ffffffffffffffff16021790555083156112c65760018560000160086101000a81548160ff0219169083151502179055505b6112ce6130b7565b6112d66130c1565b6112de6130cb565b6113087fa49807205ce4d355092ef5a8a18f56e8913cf4a201fbe287825b095693c2177533612a10565b506113337f189ab7a9244df0848122154315af71fe140f3db0fe014031783b0946b8c9d2e333612a10565b5061133d89611715565b87600181905550866002819055508560038190555083156113ae5760008560000160086101000a81548160ff0219169083151502179055507fc7f505b2f371ae2175ee4913f4499e1f2633a7b5936321eed1cdaeb6115181d260016040516113a591906148ac565b60405180910390a15b505050505050505050565b6113c16130d5565b6113ca826131bb565b6113d482826131e9565b5050565b60006113e2613308565b7f360894a13ba1a3210667c828492db98dca3e2076cc3735a920a3ca505d382bbc60001b905090565b7fa49807205ce4d355092ef5a8a18f56e8913cf4a201fbe287825b095693c21775611435816129fc565b6000808054905011156114b657600073ffffffffffffffffffffffffffffffffffffffff168573ffffffffffffffffffffffffffffffffffffffff16036114b1576040517f08c379a00000000000000000000000000000000000000000000000000000000081526004016114a890614913565b60405180910390fd5b611526565b600073ffffffffffffffffffffffffffffffffffffffff168573ffffffffffffffffffffffffffffffffffffffff1614611525576040517f08c379a000000000000000000000000000000000000000000000000000000000815260040161151c90614913565b60405180910390fd5b5b600060015443116115395760015461153b565b435b9050846005600082825461154f9190614670565b9250508190555060006040518060e001604052808873ffffffffffffffffffffffffffffffffffffffff168152602001878152602001868152602001838152602001600081526020016000815260200185815250908060018154018082558091505060019003906000526020600020906007020160009091909190915060008201518160000160006101000a81548173ffffffffffffffffffffffffffffffffffffffff021916908373ffffffffffffffffffffffffffffffffffffffff1602179055506020820151816001015560408201518160020155606082015181600301556080820151816004015560a0820151816005015560c082015181600601555050505050505050565b7fa49807205ce4d355092ef5a8a18f56e8913cf4a201fbe287825b095693c21775611683816129fc565b600460009054906101000a900460ff166116d2576040517f08c379a00000000000000000000000000000000000000000000000000000000081526004016116c99061497f565b60405180910390fd5b6000600460006101000a81548160ff02191690831515021790555050565b6000806116fb61338f565b90508060000160009054906101000a900460ff1691505090565b7fa49807205ce4d355092ef5a8a18f56e8913cf4a201fbe287825b095693c2177561173f816129fc565b81600660006101000a81548173ffffffffffffffffffffffffffffffffffffffff021916908373ffffffffffffffffffffffffffffffffffffffff1602179055505050565b60008080549050905060005b818110156117ae576117a181612c1b565b8080600101915050611790565b5050565b60008360008054905081106117fc576040517f08c379a00000000000000000000000000000000000000000000000000000000081526004016117f390614586565b60405180910390fd5b600080868154811061181157611810614612565b5b9060005260206000209060070201905060006007600088815260200190815260200160002060008773ffffffffffffffffffffffffffffffffffffffff1673ffffffffffffffffffffffffffffffffffffffff168152602001908152602001600020905060008260040154905060008360050154905083600301548711156118f55760006118a388866003015461196e565b905060006005548660010154836118ba91906147bb565b6118c4919061482c565b905082670de0b6b3a7640000826118db91906147bb565b6118e5919061482c565b846118f09190614670565b935050505b82600201548360010154670de0b6b3a764000084866000015461191891906147bb565b611922919061482c565b61192c91906146ec565b6119369190614670565b955050505050509392505050565b60035481565b7fa49807205ce4d355092ef5a8a18f56e8913cf4a201fbe287825b095693c2177581565b6000818310156119b3576040517f08c379a00000000000000000000000000000000000000000000000000000000081526004016119aa90614a11565b60405180910390fd5b6002548311156119c35760025492505b6001548210156119d35760015491505b828210611a15576040517f08c379a0000000000000000000000000000000000000000000000000000000008152600401611a0c90614aa3565b60405180910390fd5b6000611a376003548486611a2991906146ec565b6133b790919063ffffffff16565b809350819250505080611a7f576040517f08c379a0000000000000000000000000000000000000000000000000000000008152600401611a7690614b0f565b60405180910390fd5b5092915050565b7fa49807205ce4d355092ef5a8a18f56e8913cf4a201fbe287825b095693c21775611ab0816129fc565b600460019054906101000a900460ff1615611b00576040517f08c379a0000000000000000000000000000000000000000000000000000000008152600401611af790614b7b565b60405180910390fd5b6001600460016101000a81548160ff02191690831515021790555050565b600080611b29612843565b905080600001600085815260200190815260200160002060000160008473ffffffffffffffffffffffffffffffffffffffff1673ffffffffffffffffffffffffffffffffffffffff16815260200190815260200160002060009054906101000a900460ff1691505092915050565b60055481565b816000805490508110611be5576040517f08c379a0000000000000000000000000000000000000000000000000000000008152600401611bdc90614586565b60405180910390fd5b6000808481548110611bfa57611bf9614612565b5b9060005260206000209060070201905060006007600086815260200190815260200160002060003373ffffffffffffffffffffffffffffffffffffffff1673ffffffffffffffffffffffffffffffffffffffff16815260200190815260200160002090508060000154841115611ca5576040517f08c379a0000000000000000000000000000000000000000000000000000000008152600401611c9c90614c0d565b60405180910390fd5b611cae85612c1b565b60008160010154670de0b6b3a764000084600401548460000154611cd291906147bb565b611cdc919061482c565b611ce691906146ec565b90506000811115611cfb578082600201819055505b6000851115611d875784826000016000828254611d1891906146ec565b92505081905550816003016040518060400160405280878152602001856006015443611d449190614670565b8152509080600181540180825580915050600190039060005260206000209060020201600090919091909150600082015181600001556020820151816001015550505b84836005016000828254611d9b91906146ec565b92505081905550670de0b6b3a764000083600401548360000154611dbf91906147bb565b611dc9919061482c565b8260010181905550505050505050565b6000801b81565b7fa49807205ce4d355092ef5a8a18f56e8913cf4a201fbe287825b095693c21775611e0a816129fc565b600460009054906101000a900460ff1615611e5a576040517f08c379a0000000000000000000000000000000000000000000000000000000008152600401611e5190614c79565b60405180910390fd5b6001600460006101000a81548160ff02191690831515021790555050565b600460019054906101000a900460ff1681565b60008181548110611e9b57600080fd5b90600052602060002090600702016000915090508060000160009054906101000a900473ffffffffffffffffffffffffffffffffffffffff16908060010154908060020154908060030154908060040154908060050154908060060154905087565b6040518060400160405280600581526020017f352e302e3000000000000000000000000000000000000000000000000000000081525081565b6007602052816000526040600020602052806000526040600020600091509150508060000154908060010154908060020154905083565b600081565b7fa49807205ce4d355092ef5a8a18f56e8913cf4a201fbe287825b095693c21775611f9c816129fc565b600154821015611fe1576040517f08c379a0000000000000000000000000000000000000000000000000000000008152600401611fd890614d0b565b60405180910390fd5b816002819055505050565b600660009054906101000a900473ffffffffffffffffffffffffffffffffffffffff1681565b61201b82610bb0565b612024816129fc565b61202e8383612b19565b50505050565b7fa49807205ce4d355092ef5a8a18f56e8913cf4a201fbe287825b095693c2177561205e816129fc565b816003819055505050565b7fa49807205ce4d355092ef5a8a18f56e8913cf4a201fbe287825b095693c21775612093816129fc565b8360008054905081106120db576040517f08c379a00000000000000000000000000000000000000000000000000000000081526004016120d290614586565b60405180910390fd5b83600086815481106120f0576120ef614612565b5b906000526020600020906007020160020181905550826000868154811061211a57612119614612565b5b9060005260206000209060070201600601819055505050505050565b7fa49807205ce4d355092ef5a8a18f56e8913cf4a201fbe287825b095693c21775612160816129fc565b600460019054906101000a900460ff166121af576040517f08c379a00000000000000000000000000000000000000000000000000000000081526004016121a690614d77565b60405180910390fd5b6000600460016101000a81548160ff02191690831515021790555050565b816000805490508110612215576040517f08c379a000000000000000000000000000000000000000000000000000000000815260040161220c90614586565b60405180910390fd5b60008303612258576040517f08c379a000000000000000000000000000000000000000000000000000000000815260040161224f90614de3565b60405180910390fd5b600080848154811061226d5761226c614612565b5b90600052602060002090600702019050806002015483116122c3576040517f08c379a00000000000000000000000000000000000000000000000000000000081526004016122ba90614e75565b60405180910390fd5b600083111561231e5761231d3330858460000160009054906101000a900473ffffffffffffffffffffffffffffffffffffffff1673ffffffffffffffffffffffffffffffffffffffff166133e0909392919063ffffffff16565b5b6123288484613462565b50505050565b6000826000805490508110612378576040517f08c379a000000000000000000000000000000000000000000000000000000000815260040161236f90614586565b60405180910390fd5b6123838484436117b2565b91505092915050565b7fa49807205ce4d355092ef5a8a18f56e8913cf4a201fbe287825b095693c217756123b6816129fc565b6002548211156123fb576040517f08c379a00000000000000000000000000000000000000000000000000000000081526004016123f290614f07565b60405180910390fd5b816001819055505050565b60008060008154811061241c5761241b614612565b5b90600052602060002090600702019050600073ffffffffffffffffffffffffffffffffffffffff168160000160009054906101000a900473ffffffffffffffffffffffffffffffffffffffff1673ffffffffffffffffffffffffffffffffffffffff16146124bf576040517f08c379a00000000000000000000000000000000000000000000000000000000081526004016124b690614f73565b60405180910390fd5b6000349050816002015481101561250b576040517f08c379a000000000000000000000000000000000000000000000000000000000815260040161250290614e75565b60405180910390fd5b612516600082613462565b5050565b7f189ab7a9244df0848122154315af71fe140f3db0fe014031783b0946b8c9d2e381565b7fa49807205ce4d355092ef5a8a18f56e8913cf4a201fbe287825b095693c21775612568816129fc565b8360008054905081106125b0576040517f08c379a00000000000000000000000000000000000000000000000000000000081526004016125a790614586565b60405180910390fd5b600084116125f3576040517f08c379a00000000000000000000000000000000000000000000000000000000081526004016125ea90615005565b60405180910390fd5b821561260257612601611784565b5b836000868154811061261757612616614612565b5b90600052602060002090600702016001015460055461263691906146ec565b6126409190614670565b600581905550836000868154811061265b5761265a614612565b5b9060005260206000209060070201600101819055505050505050565b6000808360008054905081106126c2576040517f08c379a00000000000000000000000000000000000000000000000000000000081526004016126b990614586565b60405180910390fd5b60006007600087815260200190815260200160002060008673ffffffffffffffffffffffffffffffffffffffff1673ffffffffffffffffffffffffffffffffffffffff168152602001908152602001600020905060005b81600301805490508110156127cf574382600301828154811061273f5761273e614612565b5b906000526020600020906002020160010154101561278d5781600301818154811061276d5761276c614612565b5b9060005260206000209060020201600001548461278a9190614670565b93505b8160030181815481106127a3576127a2614612565b5b906000526020600020906002020160000154856127c09190614670565b94508080600101915050612719565b5050509250929050565b60007f01ffc9a7000000000000000000000000000000000000000000000000000000007bffffffffffffffffffffffffffffffffffffffffffffffffffffffff1916827bffffffffffffffffffffffffffffffffffffffffffffffffffffffff1916149050919050565b60007f02dd7bc7dec4dceedda775e58dd541e08a116c6c53815c0bd028192f7b626800905090565b6000808373ffffffffffffffffffffffffffffffffffffffff168360405161289290615056565b60006040518083038185875af1925050503d80600081146128cf576040519150601f19603f3d011682016040523d82523d6000602084013e6128d4565b606091505b509150915081612919576040517f08c379a0000000000000000000000000000000000000000000000000000000008152600401612910906150b7565b60405180910390fd5b600081511115612977578080602001905181019061293791906150ec565b612976576040517f08c379a000000000000000000000000000000000000000000000000000000000815260040161296d9061518b565b60405180910390fd5b5b50505050565b6129f7838473ffffffffffffffffffffffffffffffffffffffff1663a9059cbb85856040516024016129b09291906151ab565b604051602081830303815290604052915060e01b6020820180517bffffffffffffffffffffffffffffffffffffffffffffffffffffffff83818316178352505050506137c1565b505050565b612a0d81612a08612b11565b613863565b50565b600080612a1b612843565b9050612a278484611b1e565b612b0557600181600001600086815260200190815260200160002060000160008573ffffffffffffffffffffffffffffffffffffffff1673ffffffffffffffffffffffffffffffffffffffff16815260200190815260200160002060006101000a81548160ff021916908315150217905550612aa1612b11565b73ffffffffffffffffffffffffffffffffffffffff168373ffffffffffffffffffffffffffffffffffffffff16857f2f8788117e7eff1d82e926ec794901d17c78024a50270940304540a733656f0d60405160405180910390a46001915050612b0b565b60009150505b92915050565b600033905090565b600080612b24612843565b9050612b308484611b1e565b15612c0f57600081600001600086815260200190815260200160002060000160008573ffffffffffffffffffffffffffffffffffffffff1673ffffffffffffffffffffffffffffffffffffffff16815260200190815260200160002060006101000a81548160ff021916908315150217905550612bab612b11565b73ffffffffffffffffffffffffffffffffffffffff168373ffffffffffffffffffffffffffffffffffffffff16857ff6391f5c32d9c69d2a47ea670b442974b53935d1edc7fd64eb21e047a839171b60405160405180910390a46001915050612c15565b60009150505b92915050565b806000805490508110612c63576040517f08c379a0000000000000000000000000000000000000000000000000000000008152600401612c5a90614586565b60405180910390fd5b6000808381548110612c7857612c77614612565b5b9060005260206000209060070201905080600301544311612c995750612eaa565b600080612cc08360010154612cb243866003015461196e565b6133b790919063ffffffff16565b9150915081612d04576040517f08c379a0000000000000000000000000000000000000000000000000000000008152600401612cfb90614b0f565b60405180910390fd5b612d19600554826138b490919063ffffffff16565b809250819350505081612d61576040517f08c379a0000000000000000000000000000000000000000000000000000000008152600401612d5890615220565b60405180910390fd5b6000836005015490506000811115612e9c57600080612d91670de0b6b3a7640000856133b790919063ffffffff16565b9150915081612dd5576040517f08c379a0000000000000000000000000000000000000000000000000000000008152600401612dcc9061528c565b60405180910390fd5b612de883826138b490919063ffffffff16565b809250819350505081612e30576040517f08c379a0000000000000000000000000000000000000000000000000000000008152600401612e2790615220565b60405180910390fd5b600080612e4a8389600401546138c990919063ffffffff16565b9150915081612e8e576040517f08c379a0000000000000000000000000000000000000000000000000000000008152600401612e85906152f8565b60405180910390fd5b808860040181905550505050505b438460030181905550505050505b5050565b6000600660009054906101000a900473ffffffffffffffffffffffffffffffffffffffff1673ffffffffffffffffffffffffffffffffffffffff166370a08231306040518263ffffffff1660e01b8152600401612f0b9190615318565b602060405180830381865afa158015612f28573d6000803e3d6000fd5b505050506040513d601f19601f82011682018060405250810190612f4c9190615348565b905080821115612ffc57600660009054906101000a900473ffffffffffffffffffffffffffffffffffffffff1673ffffffffffffffffffffffffffffffffffffffff1663a9059cbb84836040518363ffffffff1660e01b8152600401612fb39291906151ab565b6020604051808303816000875af1158015612fd2573d6000803e3d6000fd5b505050506040513d601f19601f82011682018060405250810190612ff691906150ec565b5061309e565b600660009054906101000a900473ffffffffffffffffffffffffffffffffffffffff1673ffffffffffffffffffffffffffffffffffffffff1663a9059cbb84846040518363ffffffff1660e01b81526004016130599291906151ab565b6020604051808303816000875af1158015613078573d6000803e3d6000fd5b505050506040513d601f19601f8201168201806040525081019061309c91906150ec565b505b505050565b6000806130ae6138ee565b90508091505090565b6130bf613919565b565b6130c9613919565b565b6130d3613919565b565b7f000000000000000000000000000000000000000000000000000000000000000073ffffffffffffffffffffffffffffffffffffffff163073ffffffffffffffffffffffffffffffffffffffff16148061318257507f000000000000000000000000000000000000000000000000000000000000000073ffffffffffffffffffffffffffffffffffffffff16613169613959565b73ffffffffffffffffffffffffffffffffffffffff1614155b156131b9576040517fe07c8dba00000000000000000000000000000000000000000000000000000000815260040160405180910390fd5b565b7f189ab7a9244df0848122154315af71fe140f3db0fe014031783b0946b8c9d2e36131e5816129fc565b5050565b8173ffffffffffffffffffffffffffffffffffffffff166352d1902d6040518163ffffffff1660e01b8152600401602060405180830381865afa92505050801561325157506040513d601f19601f8201168201806040525081019061324e919061538a565b60015b61329257816040517f4c9c8ce30000000000000000000000000000000000000000000000000000000081526004016132899190615318565b60405180910390fd5b7f360894a13ba1a3210667c828492db98dca3e2076cc3735a920a3ca505d382bbc60001b81146132f957806040517faa1d49a40000000000000000000000000000000000000000000000000000000081526004016132f09190613f1e565b60405180910390fd5b61330383836139b0565b505050565b7f000000000000000000000000000000000000000000000000000000000000000073ffffffffffffffffffffffffffffffffffffffff163073ffffffffffffffffffffffffffffffffffffffff161461338d576040517fe07c8dba00000000000000000000000000000000000000000000000000000000815260040160405180910390fd5b565b60007fcd5ed15c6e187e77e9aee88184c21f4f2182ab5827cb3b7e07fbedcd63f03300905090565b60008060008385029050841584868304141792506133d483613a23565b81029150509250929050565b61345c848573ffffffffffffffffffffffffffffffffffffffff166323b872dd868686604051602401613415939291906153b7565b604051602081830303815290604052915060e01b6020820180517bffffffffffffffffffffffffffffffffffffffffffffffffffffffff83818316178352505050506137c1565b50505050565b8160008054905081106134aa576040517f08c379a00000000000000000000000000000000000000000000000000000000081526004016134a190614586565b60405180910390fd5b60008084815481106134bf576134be614612565b5b9060005260206000209060070201905060006007600086815260200190815260200160002060003373ffffffffffffffffffffffffffffffffffffffff1673ffffffffffffffffffffffffffffffffffffffff168152602001908152602001600020905061352c85612c1b565b60008160000154111561367157600080613557846004015484600001546133b790919063ffffffff16565b915091508161359b576040517f08c379a00000000000000000000000000000000000000000000000000000000081526004016135929061543a565b60405180910390fd5b6000806135b5856001015484613a2f90919063ffffffff16565b91509150816135f9576040517f08c379a00000000000000000000000000000000000000000000000000000000081526004016135f0906154a6565b60405180910390fd5b600081111561366c5760008061361c8760020154846138c990919063ffffffff16565b9150915081613660576040517f08c379a000000000000000000000000000000000000000000000000000000000815260040161365790615512565b60405180910390fd5b80876002018190555050505b505050505b60008411156136e4576000806136948360000154876138c990919063ffffffff16565b91509150816136d8576040517f08c379a00000000000000000000000000000000000000000000000000000000081526004016136cf9061557e565b60405180910390fd5b80836000018190555050505b6000806136fe8460050154876138c990919063ffffffff16565b9150915081613742576040517f08c379a0000000000000000000000000000000000000000000000000000000008152600401613739906155ea565b60405180910390fd5b808460050181905550600080613769866004015486600001546133b790919063ffffffff16565b91509150816137ad576040517f08c379a00000000000000000000000000000000000000000000000000000000081526004016137a4906152f8565b60405180910390fd5b808560010181905550505050505050505050565b600080602060008451602086016000885af1806137e4576040513d6000823e3d81fd5b3d9250600051915050600082146137ff57600181141561381b565b60008473ffffffffffffffffffffffffffffffffffffffff163b145b1561385d57836040517f5274afe70000000000000000000000000000000000000000000000000000000081526004016138549190615318565b60405180910390fd5b50505050565b61386d8282611b1e565b6138b05780826040517fe2517d3f0000000000000000000000000000000000000000000000000000000081526004016138a792919061560a565b60405180910390fd5b5050565b60008060008311915082840490509250929050565b600080600083850190508481101592506138e283613a23565b81029150509250929050565b60007ff0c57e16840df040f15088dc2f81fe391c3923bec73e23a9662efc9c229c6a0060001b905090565b613921613a54565b613957576040517fd7e6bcf800000000000000000000000000000000000000000000000000000000815260040160405180910390fd5b565b60006139877f360894a13ba1a3210667c828492db98dca3e2076cc3735a920a3ca505d382bbc60001b613a74565b60000160009054906101000a900473ffffffffffffffffffffffffffffffffffffffff16905090565b6139b982613a7e565b8173ffffffffffffffffffffffffffffffffffffffff167fbc7cd75a20ee27fd9adebab32041f755214dbc6bffa90cc0225b39da2e5c2d3b60405160405180910390a2600081511115613a1657613a108282613b4b565b50613a1f565b613a1e613bcf565b5b5050565b60008115159050919050565b60008060008385039050848111159250613a4883613a23565b81029150509250929050565b6000613a5e6130a3565b60000160089054906101000a900460ff16905090565b6000819050919050565b60008173ffffffffffffffffffffffffffffffffffffffff163b03613ada57806040517f4c9c8ce3000000000000000000000000000000000000000000000000000000008152600401613ad19190615318565b60405180910390fd5b80613b077f360894a13ba1a3210667c828492db98dca3e2076cc3735a920a3ca505d382bbc60001b613a74565b60000160006101000a81548173ffffffffffffffffffffffffffffffffffffffff021916908373ffffffffffffffffffffffffffffffffffffffff16021790555050565b60606000808473ffffffffffffffffffffffffffffffffffffffff1684604051613b75919061566f565b600060405180830381855af49150503d8060008114613bb0576040519150601f19603f3d011682016040523d82523d6000602084013e613bb5565b606091505b5091509150613bc5858383613c0c565b9250505092915050565b6000341115613c0a576040517fb398979f00000000000000000000000000000000000000000000000000000000815260040160405180910390fd5b565b606082613c2157613c1c82613c9b565b613c93565b60008251148015613c49575060008473ffffffffffffffffffffffffffffffffffffffff163b145b15613c8b57836040517f9996b315000000000000000000000000000000000000000000000000000000008152600401613c829190615318565b60405180910390fd5b819050613c94565b5b9392505050565b600081511115613cad57805160208201fd5b6040517fd6bda27500000000000000000000000000000000000000000000000000000000815260040160405180910390fd5b6000604051905090565b600080fd5b600080fd5b60007fffffffff0000000000000000000000000000000000000000000000000000000082169050919050565b613d2881613cf3565b8114613d3357600080fd5b50565b600081359050613d4581613d1f565b92915050565b600060208284031215613d6157613d60613ce9565b5b6000613d6f84828501613d36565b91505092915050565b60008115159050919050565b613d8d81613d78565b82525050565b6000602082019050613da86000830184613d84565b92915050565b6000819050919050565b613dc181613dae565b82525050565b6000602082019050613ddc6000830184613db8565b92915050565b613deb81613dae565b8114613df657600080fd5b50565b600081359050613e0881613de2565b92915050565b600073ffffffffffffffffffffffffffffffffffffffff82169050919050565b6000613e3982613e0e565b9050919050565b613e4981613e2e565b8114613e5457600080fd5b50565b600081359050613e6681613e40565b92915050565b60008060408385031215613e8357613e82613ce9565b5b6000613e9185828601613df9565b9250506020613ea285828601613e57565b9150509250929050565b6000819050919050565b613ebf81613eac565b8114613eca57600080fd5b50565b600081359050613edc81613eb6565b92915050565b600060208284031215613ef857613ef7613ce9565b5b6000613f0684828501613ecd565b91505092915050565b613f1881613eac565b82525050565b6000602082019050613f336000830184613f0f565b92915050565b600060208284031215613f4f57613f4e613ce9565b5b6000613f5d84828501613df9565b91505092915050565b60008060408385031215613f7d57613f7c613ce9565b5b6000613f8b85828601613ecd565b9250506020613f9c85828601613e57565b9150509250929050565b60008060008060808587031215613fc057613fbf613ce9565b5b6000613fce87828801613e57565b9450506020613fdf87828801613df9565b9350506040613ff087828801613df9565b925050606061400187828801613df9565b91505092959194509250565b600080fd5b600080fd5b6000601f19601f8301169050919050565b7f4e487b7100000000000000000000000000000000000000000000000000000000600052604160045260246000fd5b61406082614017565b810181811067ffffffffffffffff8211171561407f5761407e614028565b5b80604052505050565b6000614092613cdf565b905061409e8282614057565b919050565b600067ffffffffffffffff8211156140be576140bd614028565b5b6140c782614017565b9050602081019050919050565b82818337600083830152505050565b60006140f66140f1846140a3565b614088565b90508281526020810184848401111561411257614111614012565b5b61411d8482856140d4565b509392505050565b600082601f83011261413a5761413961400d565b5b813561414a8482602086016140e3565b91505092915050565b6000806040838503121561416a57614169613ce9565b5b600061417885828601613e57565b925050602083013567ffffffffffffffff81111561419957614198613cee565b5b6141a585828601614125565b9150509250929050565b6000602082840312156141c5576141c4613ce9565b5b60006141d384828501613e57565b91505092915050565b6000806000606084860312156141f5576141f4613ce9565b5b600061420386828701613df9565b935050602061421486828701613e57565b925050604061422586828701613df9565b9150509250925092565b6000806040838503121561424657614245613ce9565b5b600061425485828601613df9565b925050602061426585828601613df9565b9150509250929050565b61427881613e2e565b82525050565b600060e082019050614293600083018a61426f565b6142a06020830189613db8565b6142ad6040830188613db8565b6142ba6060830187613db8565b6142c76080830186613db8565b6142d460a0830185613db8565b6142e160c0830184613db8565b98975050505050505050565b600081519050919050565b600082825260208201905092915050565b60005b8381101561432757808201518184015260208101905061430c565b60008484015250505050565b600061433e826142ed565b61434881856142f8565b9350614358818560208601614309565b61436181614017565b840191505092915050565b600060208201905081810360008301526143868184614333565b905092915050565b60006060820190506143a36000830186613db8565b6143b06020830185613db8565b6143bd6040830184613db8565b949350505050565b6000819050919050565b60006143ea6143e56143e084613e0e565b6143c5565b613e0e565b9050919050565b60006143fc826143cf565b9050919050565b600061440e826143f1565b9050919050565b61441e81614403565b82525050565b60006020820190506144396000830184614415565b92915050565b60008060006060848603121561445857614457613ce9565b5b600061446686828701613df9565b935050602061447786828701613df9565b925050604061448886828701613df9565b9150509250925092565b61449b81613d78565b81146144a657600080fd5b50565b6000813590506144b881614492565b92915050565b6000806000606084860312156144d7576144d6613ce9565b5b60006144e586828701613df9565b93505060206144f686828701613df9565b9250506040614507868287016144a9565b9150509250925092565b60006040820190506145266000830185613db8565b6145336020830184613db8565b9392505050565b7f496e76616c696420706964000000000000000000000000000000000000000000600082015250565b6000614570600b836142f8565b915061457b8261453a565b602082019050919050565b6000602082019050818103600083015261459f81614563565b9050919050565b7f5769746864726177206973207061757365640000000000000000000000000000600082015250565b60006145dc6012836142f8565b91506145e7826145a6565b602082019050919050565b6000602082019050818103600083015261460b816145cf565b9050919050565b7f4e487b7100000000000000000000000000000000000000000000000000000000600052603260045260246000fd5b7f4e487b7100000000000000000000000000000000000000000000000000000000600052601160045260246000fd5b600061467b82613dae565b915061468683613dae565b925082820190508082111561469e5761469d614641565b5b92915050565b60006146af82613dae565b91507fffffffffffffffffffffffffffffffffffffffffffffffffffffffffffffffff82036146e1576146e0614641565b5b600182019050919050565b60006146f782613dae565b915061470283613dae565b925082820390508181111561471a57614719614641565b5b92915050565b7f4e487b7100000000000000000000000000000000000000000000000000000000600052603160045260246000fd5b7f436c61696d206973207061757365640000000000000000000000000000000000600082015250565b6000614785600f836142f8565b91506147908261474f565b602082019050919050565b600060208201905081810360008301526147b481614778565b9050919050565b60006147c682613dae565b91506147d183613dae565b92508282026147df81613dae565b915082820484148315176147f6576147f5614641565b5b5092915050565b7f4e487b7100000000000000000000000000000000000000000000000000000000600052601260045260246000fd5b600061483782613dae565b915061484283613dae565b925082614852576148516147fd565b5b828204905092915050565b6000819050919050565b600067ffffffffffffffff82169050919050565b600061489661489161488c8461485d565b6143c5565b614867565b9050919050565b6148a68161487b565b82525050565b60006020820190506148c1600083018461489d565b92915050565b7f506f6f6c20616464726573732063616e6e6f74206265207a65726f0000000000600082015250565b60006148fd601b836142f8565b9150614908826148c7565b602082019050919050565b6000602082019050818103600083015261492c816148f0565b9050919050565b7f5769746864726177206973206e6f742070617573656400000000000000000000600082015250565b60006149696016836142f8565b915061497482614933565b602082019050919050565b600060208201905081810360008301526149988161495c565b9050919050565b7f4c61737420626c6f636b206d7573742062652067726561746572207468616e2060008201527f737461727420626c6f636b000000000000000000000000000000000000000000602082015250565b60006149fb602b836142f8565b9150614a068261499f565b604082019050919050565b60006020820190508181036000830152614a2a816149ee565b9050919050565b7f537461727420626c6f636b206d757374206265206c657373207468616e206c6160008201527f737420626c6f636b000000000000000000000000000000000000000000000000602082015250565b6000614a8d6028836142f8565b9150614a9882614a31565b604082019050919050565b60006020820190508181036000830152614abc81614a80565b9050919050565b7f4d756c7469706c696572206f766572666c6f7700000000000000000000000000600082015250565b6000614af96013836142f8565b9150614b0482614ac3565b602082019050919050565b60006020820190508181036000830152614b2881614aec565b9050919050565b7f436c61696d20697320616c726561647920706175736564000000000000000000600082015250565b6000614b656017836142f8565b9150614b7082614b2f565b602082019050919050565b60006020820190508181036000830152614b9481614b58565b9050919050565b7f416d6f756e74206d7573742062652067726561746572207468616e207573657260008201527f20616d6f756e7400000000000000000000000000000000000000000000000000602082015250565b6000614bf76027836142f8565b9150614c0282614b9b565b604082019050919050565b60006020820190508181036000830152614c2681614bea565b9050919050565b7f576974686472617720697320616c726561647920706175736564000000000000600082015250565b6000614c63601a836142f8565b9150614c6e82614c2d565b602082019050919050565b60006020820190508181036000830152614c9281614c56565b9050919050565b7f456e6420626c6f636b206d7573742062652067726561746572207468616e206360008201527f757272656e7420656e6420626c6f636b00000000000000000000000000000000602082015250565b6000614cf56030836142f8565b9150614d0082614c99565b604082019050919050565b60006020820190508181036000830152614d2481614ce8565b9050919050565b7f436c61696d206973206e6f742070617573656400000000000000000000000000600082015250565b6000614d616013836142f8565b9150614d6c82614d2b565b602082019050919050565b60006020820190508181036000830152614d9081614d54565b9050919050565b7f6465706f736974206e6f7420737570706f727420455448207374616b696e6700600082015250565b6000614dcd601f836142f8565b9150614dd882614d97565b602082019050919050565b60006020820190508181036000830152614dfc81614dc0565b9050919050565b7f416d6f756e74206d7573742062652067726561746572207468616e206d696e2060008201527f6465706f73697420616d6f756e74000000000000000000000000000000000000602082015250565b6000614e5f602e836142f8565b9150614e6a82614e03565b604082019050919050565b60006020820190508181036000830152614e8e81614e52565b9050919050565b7f537461727420626c6f636b206d7573742062652067726561746572207468616e60008201527f2063757272656e7420737461727420626c6f636b000000000000000000000000602082015250565b6000614ef16034836142f8565b9150614efc82614e95565b604082019050919050565b60006020820190508181036000830152614f2081614ee4565b9050919050565b7f455448207374616b696e672069732066756c6c00000000000000000000000000600082015250565b6000614f5d6013836142f8565b9150614f6882614f27565b602082019050919050565b60006020820190508181036000830152614f8c81614f50565b9050919050565b7f506f6f6c20776569676874206d7573742062652067726561746572207468616e60008201527f2030000000000000000000000000000000000000000000000000000000000000602082015250565b6000614fef6022836142f8565b9150614ffa82614f93565b604082019050919050565b6000602082019050818103600083015261501e81614fe2565b9050919050565b600081905092915050565b50565b6000615040600083615025565b915061504b82615030565b600082019050919050565b600061506182615033565b9150819050919050565b7f455448207472616e666572206661696c65640000000000000000000000000000600082015250565b60006150a16012836142f8565b91506150ac8261506b565b602082019050919050565b600060208201905081810360008301526150d081615094565b9050919050565b6000815190506150e681614492565b92915050565b60006020828403121561510257615101613ce9565b5b6000615110848285016150d7565b91505092915050565b7f455448207472616e666572206f7065726174696f6e20646964206e6f7420737560008201527f6363656564000000000000000000000000000000000000000000000000000000602082015250565b60006151756025836142f8565b915061518082615119565b604082019050919050565b600060208201905081810360008301526151a481615168565b9050919050565b60006040820190506151c0600083018561426f565b6151cd6020830184613db8565b9392505050565b7f4d6574614e6f64655065725354206f766572666c6f7700000000000000000000600082015250565b600061520a6016836142f8565b9150615215826151d4565b602082019050919050565b60006020820190508181036000830152615239816151fd565b9050919050565b7f546f74616c4d6574614e6f6465206f766572666c6f7700000000000000000000600082015250565b60006152766016836142f8565b915061528182615240565b602082019050919050565b600060208201905081810360008301526152a581615269565b9050919050565b7f4163634d6574614e6f64655065725354206f766572666c6f7700000000000000600082015250565b60006152e26019836142f8565b91506152ed826152ac565b602082019050919050565b60006020820190508181036000830152615311816152d5565b9050919050565b600060208201905061532d600083018461426f565b92915050565b60008151905061534281613de2565b92915050565b60006020828403121561535e5761535d613ce9565b5b600061536c84828501615333565b91505092915050565b60008151905061538481613eb6565b92915050565b6000602082840312156153a05761539f613ce9565b5b60006153ae84828501615375565b91505092915050565b60006060820190506153cc600083018661426f565b6153d9602083018561426f565b6153e66040830184613db8565b949350505050565b7f4163635354416d6f756e74206f766572666c6f77000000000000000000000000600082015250565b60006154246014836142f8565b915061542f826153ee565b602082019050919050565b6000602082019050818103600083015261545381615417565b9050919050565b7f50656e64696e67206f766572666c6f7700000000000000000000000000000000600082015250565b60006154906010836142f8565b915061549b8261545a565b602082019050919050565b600060208201905081810360008301526154bf81615483565b9050919050565b7f50656e64696e674d6574614e6f6465206f766572666c6f770000000000000000600082015250565b60006154fc6018836142f8565b9150615507826154c6565b602082019050919050565b6000602082019050818103600083015261552b816154ef565b9050919050565b7f55736572416d6f756e74206f766572666c6f7700000000000000000000000000600082015250565b60006155686013836142f8565b915061557382615532565b602082019050919050565b600060208201905081810360008301526155978161555b565b9050919050565b7f5374546f6b656e416d6f756e74206f766572666c6f7700000000000000000000600082015250565b60006155d46016836142f8565b91506155df8261559e565b602082019050919050565b60006020820190508181036000830152615603816155c7565b9050919050565b600060408201905061561f600083018561426f565b61562c6020830184613f0f565b9392505050565b600081519050919050565b600061564982615633565b6156538185615025565b9350615663818560208601614309565b80840191505092915050565b600061567b828461563e565b91508190509291505056fea2646970667358221220320a633de2f12e3fd7a4eca3b590414c15fec9fb8bf64845917bca7a03fe4aa864736f6c634300081c0033",
  "linkReferences": {},
  "deployedLinkReferences": {}
}