{
	"data": {
		"bytecode": {
			"linkReferences": {},
			"object": "6080604052348015600e575f5ffd5b506105158061001c5f395ff3fe608060405234801561000f575f5ffd5b5060043610610029575f3560e01c8063f7c43cb91461002d575b5f5ffd5b61004760048036038101906100429190610318565b61005e565b60405161005592919061039b565b60405180910390f35b5f5f5f61006b85856100b0565b90507fffffffffffffffffffffffffffffffffffffffffffffffffffffffffffffffff81036100a0575f5f92509250506100a9565b60018192509250505b9250929050565b5f5f5f90505f600185516100c491906103ef565b90505b808211610158575f600283836100dd91906103ef565b6100e7919061044f565b836100f2919061047f565b90505f868281518110610108576101076104b2565b5b60200260200101519050858103610125578194505050505061017e565b858110156101415760018261013a919061047f565b9350610151565b60018261014e91906103ef565b92505b50506100c7565b7fffffffffffffffffffffffffffffffffffffffffffffffffffffffffffffffff925050505b92915050565b5f604051905090565b5f5ffd5b5f5ffd5b5f5ffd5b5f601f19601f8301169050919050565b7f4e487b71000000000000000000000000000000000000000000000000000000005f52604160045260245ffd5b6101df82610199565b810181811067ffffffffffffffff821117156101fe576101fd6101a9565b5b80604052505050565b5f610210610184565b905061021c82826101d6565b919050565b5f67ffffffffffffffff82111561023b5761023a6101a9565b5b602082029050602081019050919050565b5f5ffd5b5f819050919050565b61026281610250565b811461026c575f5ffd5b50565b5f8135905061027d81610259565b92915050565b5f61029561029084610221565b610207565b905080838252602082019050602084028301858111156102b8576102b761024c565b5b835b818110156102e157806102cd888261026f565b8452602084019350506020810190506102ba565b5050509392505050565b5f82601f8301126102ff576102fe610195565b5b813561030f848260208601610283565b91505092915050565b5f5f6040838503121561032e5761032d61018d565b5b5f83013567ffffffffffffffff81111561034b5761034a610191565b5b610357858286016102eb565b92505060206103688582860161026f565b9150509250929050565b5f8115159050919050565b61038681610372565b82525050565b61039581610250565b82525050565b5f6040820190506103ae5f83018561037d565b6103bb602083018461038c565b9392505050565b7f4e487b71000000000000000000000000000000000000000000000000000000005f52601160045260245ffd5b5f6103f982610250565b915061040483610250565b925082820390508181111561041c5761041b6103c2565b5b92915050565b7f4e487b71000000000000000000000000000000000000000000000000000000005f52601260045260245ffd5b5f61045982610250565b915061046483610250565b92508261047457610473610422565b5b828204905092915050565b5f61048982610250565b915061049483610250565b92508282019050808211156104ac576104ab6103c2565b5b92915050565b7f4e487b71000000000000000000000000000000000000000000000000000000005f52603260045260245ffdfea2646970667358221220b7ae7454185aaedd09be1826dd7c0cab780ff48fa0fbf5c5c5db95bfef5b791f64736f6c634300081e0033",
			"opcodes": "PUSH1 0x80 PUSH1 0x40 MSTORE CALLVALUE DUP1 ISZERO PUSH1 0xE JUMPI PUSH0 PUSH0 REVERT JUMPDEST POP PUSH2 0x515 DUP1 PUSH2 0x1C PUSH0 CODECOPY PUSH0 RETURN INVALID PUSH1 0x80 PUSH1 0x40 MSTORE CALLVALUE DUP1 ISZERO PUSH2 0xF JUMPI PUSH0 PUSH0 REVERT JUMPDEST POP PUSH1 0x4 CALLDATASIZE LT PUSH2 0x29 JUMPI PUSH0 CALLDATALOAD PUSH1 0xE0 SHR DUP1 PUSH4 0xF7C43CB9 EQ PUSH2 0x2D JUMPI JUMPDEST PUSH0 PUSH0 REVERT JUMPDEST PUSH2 0x47 PUSH1 0x4 DUP1 CALLDATASIZE SUB DUP2 ADD SWAP1 PUSH2 0x42 SWAP2 SWAP1 PUSH2 0x318 JUMP JUMPDEST PUSH2 0x5E JUMP JUMPDEST PUSH1 0x40 MLOAD PUSH2 0x55 SWAP3 SWAP2 SWAP1 PUSH2 0x39B JUMP JUMPDEST PUSH1 0x40 MLOAD DUP1 SWAP2 SUB SWAP1 RETURN JUMPDEST PUSH0 PUSH0 PUSH0 PUSH2 0x6B DUP6 DUP6 PUSH2 0xB0 JUMP JUMPDEST SWAP1 POP PUSH32 0xFFFFFFFFFFFFFFFFFFFFFFFFFFFFFFFFFFFFFFFFFFFFFFFFFFFFFFFFFFFFFFFF DUP2 SUB PUSH2 0xA0 JUMPI PUSH0 PUSH0 SWAP3 POP SWAP3 POP POP PUSH2 0xA9 JUMP JUMPDEST PUSH1 0x1 DUP2 SWAP3 POP SWAP3 POP POP JUMPDEST SWAP3 POP SWAP3 SWAP1 POP JUMP JUMPDEST PUSH0 PUSH0 PUSH0 SWAP1 POP PUSH0 PUSH1 0x1 DUP6 MLOAD PUSH2 0xC4 SWAP2 SWAP1 PUSH2 0x3EF JUMP JUMPDEST SWAP1 POP JUMPDEST DUP1 DUP3 GT PUSH2 0x158 JUMPI PUSH0 PUSH1 0x2 DUP4 DUP4 PUSH2 0xDD SWAP2 SWAP1 PUSH2 0x3EF JUMP JUMPDEST PUSH2 0xE7 SWAP2 SWAP1 PUSH2 0x44F JUMP JUMPDEST DUP4 PUSH2 0xF2 SWAP2 SWAP1 PUSH2 0x47F JUMP JUMPDEST SWAP1 POP PUSH0 DUP7 DUP3 DUP2 MLOAD DUP2 LT PUSH2 0x108 JUMPI PUSH2 0x107 PUSH2 0x4B2 JUMP JUMPDEST JUMPDEST PUSH1 0x20 MUL PUSH1 0x20 ADD ADD MLOAD SWAP1 POP DUP6 DUP2 SUB PUSH2 0x125 JUMPI DUP2 SWAP5 POP POP POP POP POP PUSH2 0x17E JUMP JUMPDEST DUP6 DUP2 LT ISZERO PUSH2 0x141 JUMPI PUSH1 0x1 DUP3 PUSH2 0x13A SWAP2 SWAP1 PUSH2 0x47F JUMP JUMPDEST SWAP4 POP PUSH2 0x151 JUMP JUMPDEST PUSH1 0x1 DUP3 PUSH2 0x14E SWAP2 SWAP1 PUSH2 0x3EF JUMP JUMPDEST SWAP3 POP JUMPDEST POP POP PUSH2 0xC7 JUMP JUMPDEST PUSH32 0xFFFFFFFFFFFFFFFFFFFFFFFFFFFFFFFFFFFFFFFFFFFFFFFFFFFFFFFFFFFFFFFF SWAP3 POP POP POP JUMPDEST SWAP3 SWAP2 POP POP JUMP JUMPDEST PUSH0 PUSH1 0x40 MLOAD SWAP1 POP SWAP1 JUMP JUMPDEST PUSH0 PUSH0 REVERT JUMPDEST PUSH0 PUSH0 REVERT JUMPDEST PUSH0 PUSH0 REVERT JUMPDEST PUSH0 PUSH1 0x1F NOT PUSH1 0x1F DUP4 ADD AND SWAP1 POP SWAP2 SWAP1 POP JUMP JUMPDEST PUSH32 0x4E487B7100000000000000000000000000000000000000000000000000000000 PUSH0 MSTORE PUSH1 0x41 PUSH1 0x4 MSTORE PUSH1 0x24 PUSH0 REVERT JUMPDEST PUSH2 0x1DF DUP3 PUSH2 0x199 JUMP JUMPDEST DUP2 ADD DUP2 DUP2 LT PUSH8 0xFFFFFFFFFFFFFFFF DUP3 GT OR ISZERO PUSH2 0x1FE JUMPI PUSH2 0x1FD PUSH2 0x1A9 JUMP JUMPDEST JUMPDEST DUP1 PUSH1 0x40 MSTORE POP POP POP JUMP JUMPDEST PUSH0 PUSH2 0x210 PUSH2 0x184 JUMP JUMPDEST SWAP1 POP PUSH2 0x21C DUP3 DUP3 PUSH2 0x1D6 JUMP JUMPDEST SWAP2 SWAP1 POP JUMP JUMPDEST PUSH0 PUSH8 0xFFFFFFFFFFFFFFFF DUP3 GT ISZERO PUSH2 0x23B JUMPI PUSH2 0x23A PUSH2 0x1A9 JUMP JUMPDEST JUMPDEST PUSH1 0x20 DUP3 MUL SWAP1 POP PUSH1 0x20 DUP2 ADD SWAP1 POP SWAP2 SWAP1 POP JUMP JUMPDEST PUSH0 PUSH0 REVERT JUMPDEST PUSH0 DUP2 SWAP1 POP SWAP2 SWAP1 POP JUMP JUMPDEST PUSH2 0x262 DUP2 PUSH2 0x250 JUMP JUMPDEST DUP2 EQ PUSH2 0x26C JUMPI PUSH0 PUSH0 REVERT JUMPDEST POP JUMP JUMPDEST PUSH0 DUP2 CALLDATALOAD SWAP1 POP PUSH2 0x27D DUP2 PUSH2 0x259 JUMP JUMPDEST SWAP3 SWAP2 POP POP JUMP JUMPDEST PUSH0 PUSH2 0x295 PUSH2 0x290 DUP5 PUSH2 0x221 JUMP JUMPDEST PUSH2 0x207 JUMP JUMPDEST SWAP1 POP DUP1 DUP4 DUP3 MSTORE PUSH1 0x20 DUP3 ADD SWAP1 POP PUSH1 0x20 DUP5 MUL DUP4 ADD DUP6 DUP2 GT ISZERO PUSH2 0x2B8 JUMPI PUSH2 0x2B7 PUSH2 0x24C JUMP JUMPDEST JUMPDEST DUP4 JUMPDEST DUP2 DUP2 LT ISZERO PUSH2 0x2E1 JUMPI DUP1 PUSH2 0x2CD DUP9 DUP3 PUSH2 0x26F JUMP JUMPDEST DUP5 MSTORE PUSH1 0x20 DUP5 ADD SWAP4 POP POP PUSH1 0x20 DUP2 ADD SWAP1 POP PUSH2 0x2BA JUMP JUMPDEST POP POP POP SWAP4 SWAP3 POP POP POP JUMP JUMPDEST PUSH0 DUP3 PUSH1 0x1F DUP4 ADD SLT PUSH2 0x2FF JUMPI PUSH2 0x2FE PUSH2 0x195 JUMP JUMPDEST JUMPDEST DUP2 CALLDATALOAD PUSH2 0x30F DUP5 DUP3 PUSH1 0x20 DUP7 ADD PUSH2 0x283 JUMP JUMPDEST SWAP2 POP POP SWAP3 SWAP2 POP POP JUMP JUMPDEST PUSH0 PUSH0 PUSH1 0x40 DUP4 DUP6 SUB SLT ISZERO PUSH2 0x32E JUMPI PUSH2 0x32D PUSH2 0x18D JUMP JUMPDEST JUMPDEST PUSH0 DUP4 ADD CALLDATALOAD PUSH8 0xFFFFFFFFFFFFFFFF DUP2 GT ISZERO PUSH2 0x34B JUMPI PUSH2 0x34A PUSH2 0x191 JUMP JUMPDEST JUMPDEST PUSH2 0x357 DUP6 DUP3 DUP7 ADD PUSH2 0x2EB JUMP JUMPDEST SWAP3 POP POP PUSH1 0x20 PUSH2 0x368 DUP6 DUP3 DUP7 ADD PUSH2 0x26F JUMP JUMPDEST SWAP2 POP POP SWAP3 POP SWAP3 SWAP1 POP JUMP JUMPDEST PUSH0 DUP2 ISZERO ISZERO SWAP1 POP SWAP2 SWAP1 POP JUMP JUMPDEST PUSH2 0x386 DUP2 PUSH2 0x372 JUMP JUMPDEST DUP3 MSTORE POP POP JUMP JUMPDEST PUSH2 0x395 DUP2 PUSH2 0x250 JUMP JUMPDEST DUP3 MSTORE POP POP JUMP JUMPDEST PUSH0 PUSH1 0x40 DUP3 ADD SWAP1 POP PUSH2 0x3AE PUSH0 DUP4 ADD DUP6 PUSH2 0x37D JUMP JUMPDEST PUSH2 0x3BB PUSH1 0x20 DUP4 ADD DUP5 PUSH2 0x38C JUMP JUMPDEST SWAP4 SWAP3 POP POP POP JUMP JUMPDEST PUSH32 0x4E487B7100000000000000000000000000000000000000000000000000000000 PUSH0 MSTORE PUSH1 0x11 PUSH1 0x4 MSTORE PUSH1 0x24 PUSH0 REVERT JUMPDEST PUSH0 PUSH2 0x3F9 DUP3 PUSH2 0x250 JUMP JUMPDEST SWAP2 POP PUSH2 0x404 DUP4 PUSH2 0x250 JUMP JUMPDEST SWAP3 POP DUP3 DUP3 SUB SWAP1 POP DUP2 DUP2 GT ISZERO PUSH2 0x41C JUMPI PUSH2 0x41B PUSH2 0x3C2 JUMP JUMPDEST JUMPDEST SWAP3 SWAP2 POP POP JUMP JUMPDEST PUSH32 0x4E487B7100000000000000000000000000000000000000000000000000000000 PUSH0 MSTORE PUSH1 0x12 PUSH1 0x4 MSTORE PUSH1 0x24 PUSH0 REVERT JUMPDEST PUSH0 PUSH2 0x459 DUP3 PUSH2 0x250 JUMP JUMPDEST SWAP2 POP PUSH2 0x464 DUP4 PUSH2 0x250 JUMP JUMPDEST SWAP3 POP DUP3 PUSH2 0x474 JUMPI PUSH2 0x473 PUSH2 0x422 JUMP JUMPDEST JUMPDEST DUP3 DUP3 DIV SWAP1 POP SWAP3 SWAP2 POP POP JUMP JUMPDEST PUSH0 PUSH2 0x489 DUP3 PUSH2 0x250 JUMP JUMPDEST SWAP2 POP PUSH2 0x494 DUP4 PUSH2 0x250 JUMP JUMPDEST SWAP3 POP DUP3 DUP3 ADD SWAP1 POP DUP1 DUP3 GT ISZERO PUSH2 0x4AC JUMPI PUSH2 0x4AB PUSH2 0x3C2 JUMP JUMPDEST JUMPDEST SWAP3 SWAP2 POP POP JUMP JUMPDEST PUSH32 0x4E487B7100000000000000000000000000000000000000000000000000000000 PUSH0 MSTORE PUSH1 0x32 PUSH1 0x4 MSTORE PUSH1 0x24 PUSH0 REVERT INVALID LOG2 PUSH5 0x6970667358 0x22 SLT KECCAK256 0xB7 0xAE PUSH21 0x54185AAEDD09BE1826DD7C0CAB780FF48FA0FBF5C5 0xC5 0xDB SWAP6 0xBF 0xEF JUMPDEST PUSH26 0x1F64736F6C634300081E00330000000000000000000000000000 "
		},
		"gasEstimates": {
			"creation": {
				"codeDepositCost": "260200",
				"executionCost": "298",
				"totalCost": "260498"
			},
			"external": {
				"searchResult(uint256[],uint256)": "infinite"
			},
			"internal": {
				"binarySearch(uint256[] memory,uint256)": "infinite"
			}
		},
		"methodIdentifiers": {
			"searchResult(uint256[],uint256)": "f7c43cb9"
		}
	},
	"abi": [
		{
			"inputs": [
				{
					"internalType": "uint256[]",
					"name": "_sortedArr",
					"type": "uint256[]"
				},
				{
					"internalType": "uint256",
					"name": "_target",
					"type": "uint256"
				}
			],
			"name": "searchResult",
			"outputs": [
				{
					"internalType": "bool",
					"name": "found",
					"type": "bool"
				},
				{
					"internalType": "uint256",
					"name": "index",
					"type": "uint256"
				}
			],
			"stateMutability": "pure",
			"type": "function"
		}
	]
}