{
  "_format": "hh-sol-artifact-1",
  "contractName": "Meme",
  "sourceName": "contracts/Meme.sol",
  "abi": [
    {
      "inputs": [
        {
          "internalType": "string",
          "name": "name_",
          "type": "string"
        },
        {
          "internalType": "string",
          "name": "symbol_",
          "type": "string"
        },
        {
          "internalType": "uint8",
          "name": "decimals_",
          "type": "uint8"
        },
        {
          "internalType": "uint256",
          "name": "totalSupply_",
          "type": "uint256"
        }
      ],
      "stateMutability": "nonpayable",
      "type": "constructor"
    },
    {
      "anonymous": false,
      "inputs": [
        {
          "indexed": true,
          "internalType": "address",
          "name": "owner",
          "type": "address"
        },
        {
          "indexed": true,
          "internalType": "address",
          "name": "spender",
          "type": "address"
        },
        {
          "indexed": false,
          "internalType": "uint256",
          "name": "value",
          "type": "uint256"
        }
      ],
      "name": "Approval",
      "type": "event"
    },
    {
      "anonymous": false,
      "inputs": [
        {
          "indexed": true,
          "internalType": "address",
          "name": "from",
          "type": "address"
        },
        {
          "indexed": true,
          "internalType": "address",
          "name": "to",
          "type": "address"
        },
        {
          "indexed": false,
          "internalType": "uint256",
          "name": "value",
          "type": "uint256"
        }
      ],
      "name": "Transfer",
      "type": "event"
    },
    {
      "inputs": [],
      "name": "TOTAL_TAX_RATE",
      "outputs": [
        {
          "internalType": "uint256",
          "name": "",
          "type": "uint256"
        }
      ],
      "stateMutability": "view",
      "type": "function"
    },
    {
      "inputs": [
        {
          "internalType": "address",
          "name": "account",
          "type": "address"
        }
      ],
      "name": "addExcludedFromFees",
      "outputs": [
        {
          "internalType": "bool",
          "name": "success",
          "type": "bool"
        }
      ],
      "stateMutability": "nonpayable",
      "type": "function"
    },
    {
      "inputs": [
        {
          "internalType": "address",
          "name": "owner",
          "type": "address"
        },
        {
          "internalType": "address",
          "name": "spender",
          "type": "address"
        }
      ],
      "name": "allowance",
      "outputs": [
        {
          "internalType": "uint256",
          "name": "",
          "type": "uint256"
        }
      ],
      "stateMutability": "view",
      "type": "function"
    },
    {
      "inputs": [
        {
          "internalType": "address",
          "name": "spender",
          "type": "address"
        },
        {
          "internalType": "uint256",
          "name": "value",
          "type": "uint256"
        }
      ],
      "name": "approve",
      "outputs": [
        {
          "internalType": "bool",
          "name": "success",
          "type": "bool"
        }
      ],
      "stateMutability": "nonpayable",
      "type": "function"
    },
    {
      "inputs": [
        {
          "internalType": "address",
          "name": "account",
          "type": "address"
        }
      ],
      "name": "balanceOf",
      "outputs": [
        {
          "internalType": "uint256",
          "name": "",
          "type": "uint256"
        }
      ],
      "stateMutability": "view",
      "type": "function"
    },
    {
      "inputs": [
        {
          "internalType": "uint256",
          "name": "value",
          "type": "uint256"
        }
      ],
      "name": "burn",
      "outputs": [
        {
          "internalType": "bool",
          "name": "success",
          "type": "bool"
        }
      ],
      "stateMutability": "nonpayable",
      "type": "function"
    },
    {
      "inputs": [
        {
          "internalType": "address",
          "name": "account",
          "type": "address"
        }
      ],
      "name": "getIsExcludedFromFees",
      "outputs": [
        {
          "internalType": "bool",
          "name": "",
          "type": "bool"
        }
      ],
      "stateMutability": "view",
      "type": "function"
    },
    {
      "inputs": [],
      "name": "getTotalSupply",
      "outputs": [
        {
          "internalType": "uint256",
          "name": "",
          "type": "uint256"
        }
      ],
      "stateMutability": "view",
      "type": "function"
    },
    {
      "inputs": [
        {
          "internalType": "address",
          "name": "to",
          "type": "address"
        },
        {
          "internalType": "uint256",
          "name": "value",
          "type": "uint256"
        }
      ],
      "name": "mint",
      "outputs": [
        {
          "internalType": "bool",
          "name": "success",
          "type": "bool"
        }
      ],
      "stateMutability": "nonpayable",
      "type": "function"
    },
    {
      "inputs": [
        {
          "internalType": "address",
          "name": "account",
          "type": "address"
        }
      ],
      "name": "removeExcludedFromFees",
      "outputs": [
        {
          "internalType": "bool",
          "name": "success",
          "type": "bool"
        }
      ],
      "stateMutability": "nonpayable",
      "type": "function"
    },
    {
      "inputs": [
        {
          "internalType": "address",
          "name": "user",
          "type": "address"
        },
        {
          "internalType": "bool",
          "name": "exempt",
          "type": "bool"
        }
      ],
      "name": "setExemption",
      "outputs": [],
      "stateMutability": "nonpayable",
      "type": "function"
    },
    {
      "inputs": [
        {
          "internalType": "address",
          "name": "to",
          "type": "address"
        },
        {
          "internalType": "uint256",
          "name": "value",
          "type": "uint256"
        }
      ],
      "name": "transfer",
      "outputs": [
        {
          "internalType": "bool",
          "name": "success",
          "type": "bool"
        }
      ],
      "stateMutability": "nonpayable",
      "type": "function"
    },
    {
      "inputs": [
        {
          "internalType": "address",
          "name": "from",
          "type": "address"
        },
        {
          "internalType": "address",
          "name": "to",
          "type": "address"
        },
        {
          "internalType": "uint256",
          "name": "value",
          "type": "uint256"
        }
      ],
      "name": "transferFrom",
      "outputs": [
        {
          "internalType": "bool",
          "name": "success",
          "type": "bool"
        }
      ],
      "stateMutability": "nonpayable",
      "type": "function"
    }
  ],
  "bytecode": "0x608060405234801561001057600080fd5b5060405161261c38038061261c833981810160405281019061003291906102f9565b836000908161004191906105af565b50826001908161005191906105af565b5081600260006101000a81548160ff021916908360ff1602179055508060038190555033600460006101000a81548173ffffffffffffffffffffffffffffffffffffffff021916908373ffffffffffffffffffffffffffffffffffffffff16021790555080600560003373ffffffffffffffffffffffffffffffffffffffff1673ffffffffffffffffffffffffffffffffffffffff168152602001908152602001600020819055506305f5e100600881905550600560098190555050505050610681565b6000604051905090565b600080fd5b600080fd5b600080fd5b600080fd5b6000601f19601f8301169050919050565b7f4e487b7100000000000000000000000000000000000000000000000000000000600052604160045260246000fd5b61017c82610133565b810181811067ffffffffffffffff8211171561019b5761019a610144565b5b80604052505050565b60006101ae610115565b90506101ba8282610173565b919050565b600067ffffffffffffffff8211156101da576101d9610144565b5b6101e382610133565b9050602081019050919050565b60005b8381101561020e5780820151818401526020810190506101f3565b60008484015250505050565b600061022d610228846101bf565b6101a4565b9050828152602081018484840111156102495761024861012e565b5b6102548482856101f0565b509392505050565b600082601f83011261027157610270610129565b5b815161028184826020860161021a565b91505092915050565b600060ff82169050919050565b6102a08161028a565b81146102ab57600080fd5b50565b6000815190506102bd81610297565b92915050565b6000819050919050565b6102d6816102c3565b81146102e157600080fd5b50565b6000815190506102f3816102cd565b92915050565b600080600080608085870312156103135761031261011f565b5b600085015167ffffffffffffffff81111561033157610330610124565b5b61033d8782880161025c565b945050602085015167ffffffffffffffff81111561035e5761035d610124565b5b61036a8782880161025c565b935050604061037b878288016102ae565b925050606061038c878288016102e4565b91505092959194509250565b600081519050919050565b7f4e487b7100000000000000000000000000000000000000000000000000000000600052602260045260246000fd5b600060028204905060018216806103ea57607f821691505b6020821081036103fd576103fc6103a3565b5b50919050565b60008190508160005260206000209050919050565b60006020601f8301049050919050565b600082821b905092915050565b6000600883026104657fffffffffffffffffffffffffffffffffffffffffffffffffffffffffffffffff82610428565b61046f8683610428565b95508019841693508086168417925050509392505050565b6000819050919050565b60006104ac6104a76104a2846102c3565b610487565b6102c3565b9050919050565b6000819050919050565b6104c683610491565b6104da6104d2826104b3565b848454610435565b825550505050565b600090565b6104ef6104e2565b6104fa8184846104bd565b505050565b5b8181101561051e576105136000826104e7565b600181019050610500565b5050565b601f8211156105635761053481610403565b61053d84610418565b8101602085101561054c578190505b61056061055885610418565b8301826104ff565b50505b505050565b600082821c905092915050565b600061058660001984600802610568565b1980831691505092915050565b600061059f8383610575565b9150826002028217905092915050565b6105b882610398565b67ffffffffffffffff8111156105d1576105d0610144565b5b6105db82546103d2565b6105e6828285610522565b600060209050601f8311600181146106195760008415610607578287015190505b6106118582610593565b865550610679565b601f19841661062786610403565b60005b8281101561064f5784890151825560018201915060208501945060208101905061062a565b8683101561066c5784890151610668601f891682610575565b8355505b6001600288020188555050505b505050505050565b611f8c806106906000396000f3fe608060405234801561001057600080fd5b50600436106100cf5760003560e01c806342966c681161008c578063a9059cbb11610066578063a9059cbb1461025e578063c4e41b221461028e578063c83af00e146102ac578063dd62ed3e146102dc576100cf565b806342966c68146101ce57806370a08231146101fe5780637b16cea01461022e576100cf565b8063091f5948146100d4578063095ea7b3146100f257806323b872dd1461012257806334d14c2d146101525780633ea6e0711461018257806340c10f191461019e575b600080fd5b6100dc61030c565b6040516100e991906116c3565b60405180910390f35b61010c6004803603810190610107919061176d565b610312565b60405161011991906117c8565b60405180910390f35b61013c600480360381019061013791906117e3565b6104b5565b60405161014991906117c8565b60405180910390f35b61016c60048036038101906101679190611836565b61096d565b60405161017991906117c8565b60405180910390f35b61019c6004803603810190610197919061188f565b610a60565b005b6101b860048036038101906101b3919061176d565b610b4b565b6040516101c591906117c8565b60405180910390f35b6101e860048036038101906101e391906118cf565b610d6e565b6040516101f591906117c8565b60405180910390f35b61021860048036038101906102139190611836565b610fa3565b60405161022591906116c3565b60405180910390f35b61024860048036038101906102439190611836565b610fec565b60405161025591906117c8565b60405180910390f35b6102786004803603810190610273919061176d565b611042565b60405161028591906117c8565b60405180910390f35b6102966112d8565b6040516102a391906116c3565b60405180910390f35b6102c660048036038101906102c19190611836565b6112e2565b6040516102d391906117c8565b60405180910390f35b6102f660048036038101906102f191906118fc565b6113d5565b60405161030391906116c3565b60405180910390f35b6101f481565b60008073ffffffffffffffffffffffffffffffffffffffff168373ffffffffffffffffffffffffffffffffffffffff1603610382576040517f08c379a000000000000000000000000000000000000000000000000000000000815260040161037990611999565b60405180910390fd5b600082116103c5576040517f08c379a00000000000000000000000000000000000000000000000000000000081526004016103bc90611a05565b60405180910390fd5b81600660003373ffffffffffffffffffffffffffffffffffffffff1673ffffffffffffffffffffffffffffffffffffffff16815260200190815260200160002060008573ffffffffffffffffffffffffffffffffffffffff1673ffffffffffffffffffffffffffffffffffffffff168152602001908152602001600020819055508273ffffffffffffffffffffffffffffffffffffffff163373ffffffffffffffffffffffffffffffffffffffff167f8c5be1e5ebec7d5bd14f71427d1e84f3dd0314c0f7b2291e5b200ac8c7c3b925846040516104a391906116c3565b60405180910390a36001905092915050565b600081600560008673ffffffffffffffffffffffffffffffffffffffff1673ffffffffffffffffffffffffffffffffffffffff1681526020019081526020016000205410158015610582575081600660008673ffffffffffffffffffffffffffffffffffffffff1673ffffffffffffffffffffffffffffffffffffffff16815260200190815260200160002060003373ffffffffffffffffffffffffffffffffffffffff1673ffffffffffffffffffffffffffffffffffffffff1681526020019081526020016000205410155b6105c1576040517f08c379a00000000000000000000000000000000000000000000000000000000081526004016105b890611a71565b60405180910390fd5b600073ffffffffffffffffffffffffffffffffffffffff168373ffffffffffffffffffffffffffffffffffffffff1603610630576040517f08c379a000000000000000000000000000000000000000000000000000000000815260040161062790611999565b60405180910390fd5b60008211610673576040517f08c379a000000000000000000000000000000000000000000000000000000000815260040161066a90611a05565b60405180910390fd5b61067d848361145c565b61068784836115de565b6000600760008673ffffffffffffffffffffffffffffffffffffffff1673ffffffffffffffffffffffffffffffffffffffff16815260200190815260200160002060009054906101000a900460ff168061072a5750600760008573ffffffffffffffffffffffffffffffffffffffff1673ffffffffffffffffffffffffffffffffffffffff16815260200190815260200160002060009054906101000a900460ff165b61074c576127106101f48461073f9190611ac0565b6107499190611b31565b90505b60008111156107ac5780600560003073ffffffffffffffffffffffffffffffffffffffff1673ffffffffffffffffffffffffffffffffffffffff16815260200190815260200160002060008282546107a49190611b62565b925050819055505b600081846107ba9190611b96565b905083600560008873ffffffffffffffffffffffffffffffffffffffff1673ffffffffffffffffffffffffffffffffffffffff168152602001908152602001600020600082825461080b9190611b96565b9250508190555080600560008773ffffffffffffffffffffffffffffffffffffffff1673ffffffffffffffffffffffffffffffffffffffff16815260200190815260200160002060008282546108619190611b62565b9250508190555083600660008873ffffffffffffffffffffffffffffffffffffffff1673ffffffffffffffffffffffffffffffffffffffff16815260200190815260200160002060003373ffffffffffffffffffffffffffffffffffffffff1673ffffffffffffffffffffffffffffffffffffffff16815260200190815260200160002060008282546108f49190611b96565b925050819055508473ffffffffffffffffffffffffffffffffffffffff168673ffffffffffffffffffffffffffffffffffffffff167fddf252ad1be2c89b69c2b068fc378daa952ba7f163c4a11628f55a4df523b3ef8360405161095891906116c3565b60405180910390a36001925050509392505050565b6000600460009054906101000a900473ffffffffffffffffffffffffffffffffffffffff1673ffffffffffffffffffffffffffffffffffffffff163373ffffffffffffffffffffffffffffffffffffffff16146109ff576040517f08c379a00000000000000000000000000000000000000000000000000000000081526004016109f690611c3c565b60405180910390fd5b6001600760008473ffffffffffffffffffffffffffffffffffffffff1673ffffffffffffffffffffffffffffffffffffffff16815260200190815260200160002060006101000a81548160ff02191690831515021790555060019050919050565b600460009054906101000a900473ffffffffffffffffffffffffffffffffffffffff1673ffffffffffffffffffffffffffffffffffffffff163373ffffffffffffffffffffffffffffffffffffffff1614610af0576040517f08c379a0000000000000000000000000000000000000000000000000000000008152600401610ae790611ca8565b60405180910390fd5b80600760008473ffffffffffffffffffffffffffffffffffffffff1673ffffffffffffffffffffffffffffffffffffffff16815260200190815260200160002060006101000a81548160ff0219169083151502179055505050565b6000600460009054906101000a900473ffffffffffffffffffffffffffffffffffffffff1673ffffffffffffffffffffffffffffffffffffffff163373ffffffffffffffffffffffffffffffffffffffff1614610bdd576040517f08c379a0000000000000000000000000000000000000000000000000000000008152600401610bd490611d14565b60405180910390fd5b600073ffffffffffffffffffffffffffffffffffffffff168373ffffffffffffffffffffffffffffffffffffffff1603610c4c576040517f08c379a0000000000000000000000000000000000000000000000000000000008152600401610c4390611999565b60405180910390fd5b60008211610c8f576040517f08c379a0000000000000000000000000000000000000000000000000000000008152600401610c8690611a05565b60405180910390fd5b8160036000828254610ca19190611b62565b9250508190555081600560008573ffffffffffffffffffffffffffffffffffffffff1673ffffffffffffffffffffffffffffffffffffffff1681526020019081526020016000206000828254610cf79190611b62565b925050819055508273ffffffffffffffffffffffffffffffffffffffff16600073ffffffffffffffffffffffffffffffffffffffff167fddf252ad1be2c89b69c2b068fc378daa952ba7f163c4a11628f55a4df523b3ef84604051610d5c91906116c3565b60405180910390a36001905092915050565b6000600460009054906101000a900473ffffffffffffffffffffffffffffffffffffffff1673ffffffffffffffffffffffffffffffffffffffff163373ffffffffffffffffffffffffffffffffffffffff1614610e00576040517f08c379a0000000000000000000000000000000000000000000000000000000008152600401610df790611d80565b60405180910390fd5b60008211610e43576040517f08c379a0000000000000000000000000000000000000000000000000000000008152600401610e3a90611a05565b60405180910390fd5b81600560003373ffffffffffffffffffffffffffffffffffffffff1673ffffffffffffffffffffffffffffffffffffffff168152602001908152602001600020541015610ec5576040517f08c379a0000000000000000000000000000000000000000000000000000000008152600401610ebc90611a71565b60405180910390fd5b8160036000828254610ed79190611b96565b9250508190555081600560003373ffffffffffffffffffffffffffffffffffffffff1673ffffffffffffffffffffffffffffffffffffffff1681526020019081526020016000206000828254610f2d9190611b96565b92505081905550600073ffffffffffffffffffffffffffffffffffffffff163373ffffffffffffffffffffffffffffffffffffffff167fddf252ad1be2c89b69c2b068fc378daa952ba7f163c4a11628f55a4df523b3ef84604051610f9291906116c3565b60405180910390a360019050919050565b6000600560008373ffffffffffffffffffffffffffffffffffffffff1673ffffffffffffffffffffffffffffffffffffffff168152602001908152602001600020549050919050565b6000600760008373ffffffffffffffffffffffffffffffffffffffff1673ffffffffffffffffffffffffffffffffffffffff16815260200190815260200160002060009054906101000a900460ff169050919050565b600081600560003373ffffffffffffffffffffffffffffffffffffffff1673ffffffffffffffffffffffffffffffffffffffff1681526020019081526020016000205410156110c6576040517f08c379a00000000000000000000000000000000000000000000000000000000081526004016110bd90611a71565b60405180910390fd5b600073ffffffffffffffffffffffffffffffffffffffff168373ffffffffffffffffffffffffffffffffffffffff1603611135576040517f08c379a000000000000000000000000000000000000000000000000000000000815260040161112c90611999565b60405180910390fd5b60008211611178576040517f08c379a000000000000000000000000000000000000000000000000000000000815260040161116f90611a05565b60405180910390fd5b611182338361145c565b61118c33836115de565b60006127106101f48461119f9190611ac0565b6111a99190611b31565b9050600081846111b99190611b96565b905080600560003373ffffffffffffffffffffffffffffffffffffffff1673ffffffffffffffffffffffffffffffffffffffff168152602001908152602001600020600082825461120a9190611b96565b9250508190555080600560008773ffffffffffffffffffffffffffffffffffffffff1673ffffffffffffffffffffffffffffffffffffffff16815260200190815260200160002060008282546112609190611b62565b925050819055508473ffffffffffffffffffffffffffffffffffffffff163373ffffffffffffffffffffffffffffffffffffffff167fddf252ad1be2c89b69c2b068fc378daa952ba7f163c4a11628f55a4df523b3ef836040516112c491906116c3565b60405180910390a360019250505092915050565b6000600354905090565b6000600460009054906101000a900473ffffffffffffffffffffffffffffffffffffffff1673ffffffffffffffffffffffffffffffffffffffff163373ffffffffffffffffffffffffffffffffffffffff1614611374576040517f08c379a000000000000000000000000000000000000000000000000000000000815260040161136b90611e12565b60405180910390fd5b6000600760008473ffffffffffffffffffffffffffffffffffffffff1673ffffffffffffffffffffffffffffffffffffffff16815260200190815260200160002060006101000a81548160ff02191690831515021790555060019050919050565b6000600660008473ffffffffffffffffffffffffffffffffffffffff1673ffffffffffffffffffffffffffffffffffffffff16815260200190815260200160002060008373ffffffffffffffffffffffffffffffffffffffff1673ffffffffffffffffffffffffffffffffffffffff16815260200190815260200160002054905092915050565b600b60008373ffffffffffffffffffffffffffffffffffffffff1673ffffffffffffffffffffffffffffffffffffffff16815260200190815260200160002060009054906101000a900460ff166115da576000600a60008473ffffffffffffffffffffffffffffffffffffffff1673ffffffffffffffffffffffffffffffffffffffff168152602001908152602001600020905060006114fa611694565b9050600081836002015410611513578260010154611516565b60005b905060008284600201541061152f578360000154611532565b60005b90506009546001836115449190611b62565b1115611585576040517f08c379a000000000000000000000000000000000000000000000000000000000815260040161157c90611ea4565b60405180910390fd5b60085485826115949190611b62565b11156115d5576040517f08c379a00000000000000000000000000000000000000000000000000000000081526004016115cc90611f36565b60405180910390fd5b505050505b5050565b60006115e8611694565b90506000600a60008573ffffffffffffffffffffffffffffffffffffffff1673ffffffffffffffffffffffffffffffffffffffff168152602001908152602001600020905081816002015410156116575760008160010181905550600081600001819055508181600201819055505b600181600101600082825461166c9190611b62565b92505081905550828160000160008282546116879190611b62565b9250508190555050505050565b600062015180426116a59190611b31565b905090565b6000819050919050565b6116bd816116aa565b82525050565b60006020820190506116d860008301846116b4565b92915050565b600080fd5b600073ffffffffffffffffffffffffffffffffffffffff82169050919050565b600061170e826116e3565b9050919050565b61171e81611703565b811461172957600080fd5b50565b60008135905061173b81611715565b92915050565b61174a816116aa565b811461175557600080fd5b50565b60008135905061176781611741565b92915050565b60008060408385031215611784576117836116de565b5b60006117928582860161172c565b92505060206117a385828601611758565b9150509250929050565b60008115159050919050565b6117c2816117ad565b82525050565b60006020820190506117dd60008301846117b9565b92915050565b6000806000606084860312156117fc576117fb6116de565b5b600061180a8682870161172c565b935050602061181b8682870161172c565b925050604061182c86828701611758565b9150509250925092565b60006020828403121561184c5761184b6116de565b5b600061185a8482850161172c565b91505092915050565b61186c816117ad565b811461187757600080fd5b50565b60008135905061188981611863565b92915050565b600080604083850312156118a6576118a56116de565b5b60006118b48582860161172c565b92505060206118c58582860161187a565b9150509250929050565b6000602082840312156118e5576118e46116de565b5b60006118f384828501611758565b91505092915050565b60008060408385031215611913576119126116de565b5b60006119218582860161172c565b92505060206119328582860161172c565b9150509250929050565b600082825260208201905092915050565b7f496e76616c696420616464726573730000000000000000000000000000000000600082015250565b6000611983600f8361193c565b915061198e8261194d565b602082019050919050565b600060208201905081810360008301526119b281611976565b9050919050565b7f496e76616c69642076616c756500000000000000000000000000000000000000600082015250565b60006119ef600d8361193c565b91506119fa826119b9565b602082019050919050565b60006020820190508181036000830152611a1e816119e2565b9050919050565b7f496e73756666696369656e742062616c616e6365000000000000000000000000600082015250565b6000611a5b60148361193c565b9150611a6682611a25565b602082019050919050565b60006020820190508181036000830152611a8a81611a4e565b9050919050565b7f4e487b7100000000000000000000000000000000000000000000000000000000600052601160045260246000fd5b6000611acb826116aa565b9150611ad6836116aa565b9250828202611ae4816116aa565b91508282048414831517611afb57611afa611a91565b5b5092915050565b7f4e487b7100000000000000000000000000000000000000000000000000000000600052601260045260246000fd5b6000611b3c826116aa565b9150611b47836116aa565b925082611b5757611b56611b02565b5b828204905092915050565b6000611b6d826116aa565b9150611b78836116aa565b9250828201905080821115611b9057611b8f611a91565b5b92915050565b6000611ba1826116aa565b9150611bac836116aa565b9250828203905081811115611bc457611bc3611a91565b5b92915050565b7f4f6e6c79206f776e65722063616e20616464206578636c75646564206164647260008201527f6573730000000000000000000000000000000000000000000000000000000000602082015250565b6000611c2660238361193c565b9150611c3182611bca565b604082019050919050565b60006020820190508181036000830152611c5581611c19565b9050919050565b7f4f6e6c79206f776e65722063616e20736574206578656d7074696f6e00000000600082015250565b6000611c92601c8361193c565b9150611c9d82611c5c565b602082019050919050565b60006020820190508181036000830152611cc181611c85565b9050919050565b7f4f6e6c79206f776e65722063616e206d696e7400000000000000000000000000600082015250565b6000611cfe60138361193c565b9150611d0982611cc8565b602082019050919050565b60006020820190508181036000830152611d2d81611cf1565b9050919050565b7f4f6e6c79206f776e65722063616e206275726e00000000000000000000000000600082015250565b6000611d6a60138361193c565b9150611d7582611d34565b602082019050919050565b60006020820190508181036000830152611d9981611d5d565b9050919050565b7f4f6e6c79206f776e65722063616e2072656d6f7665206578636c75646564206160008201527f6464726573730000000000000000000000000000000000000000000000000000602082015250565b6000611dfc60268361193c565b9150611e0782611da0565b604082019050919050565b60006020820190508181036000830152611e2b81611def565b9050919050565b7f4578636565646564206d617820747261646520636f756e7420666f7220746f6460008201527f6179000000000000000000000000000000000000000000000000000000000000602082015250565b6000611e8e60228361193c565b9150611e9982611e32565b604082019050919050565b60006020820190508181036000830152611ebd81611e81565b9050919050565b7f4578636565646564206d617820747261646520616d6f756e7420666f7220746f60008201527f6461790000000000000000000000000000000000000000000000000000000000602082015250565b6000611f2060238361193c565b9150611f2b82611ec4565b604082019050919050565b60006020820190508181036000830152611f4f81611f13565b905091905056fea2646970667358221220c1fa1bffad34dd9fd75b43d25f204f36aed7084249069e391861d6e607ad355964736f6c634300081c0033",
  "linkReferences": {},
  "deployedLinkReferences": {}
}