{"contracts/MetaNodeStake.sol":{"MetaNodeStake":{"abi":[{"inputs":[],"name":"AccessControlBadConfirmation","type":"error"},{"inputs":[{"internalType":"address","name":"account","type":"address"},{"internalType":"bytes32","name":"neededRole","type":"bytes32"}],"name":"AccessControlUnauthorizedAccount","type":"error"},{"inputs":[{"internalType":"address","name":"target","type":"address"}],"name":"AddressEmptyCode","type":"error"},{"inputs":[{"internalType":"address","name":"implementation","type":"address"}],"name":"ERC1967InvalidImplementation","type":"error"},{"inputs":[],"name":"ERC1967NonPayable","type":"error"},{"inputs":[],"name":"EnforcedPause","type":"error"},{"inputs":[],"name":"ExpectedPause","type":"error"},{"inputs":[],"name":"FailedCall","type":"error"},{"inputs":[],"name":"InvalidInitialization","type":"error"},{"inputs":[],"name":"NotInitializing","type":"error"},{"inputs":[{"internalType":"address","name":"token","type":"address"}],"name":"SafeERC20FailedOperation","type":"error"},{"inputs":[],"name":"UUPSUnauthorizedCallContext","type":"error"},{"inputs":[{"internalType":"bytes32","name":"slot","type":"bytes32"}],"name":"UUPSUnsupportedProxiableUUID","type":"error"},{"anonymous":false,"inputs":[{"indexed":false,"internalType":"uint64","name":"version","type":"uint64"}],"name":"Initialized","type":"event"},{"anonymous":false,"inputs":[{"indexed":false,"internalType":"address","name":"account","type":"address"}],"name":"Paused","type":"event"},{"anonymous":false,"inputs":[{"indexed":true,"internalType":"bytes32","name":"role","type":"bytes32"},{"indexed":true,"internalType":"bytes32","name":"previousAdminRole","type":"bytes32"},{"indexed":true,"internalType":"bytes32","name":"newAdminRole","type":"bytes32"}],"name":"RoleAdminChanged","type":"event"},{"anonymous":false,"inputs":[{"indexed":true,"internalType":"bytes32","name":"role","type":"bytes32"},{"indexed":true,"internalType":"address","name":"account","type":"address"},{"indexed":true,"internalType":"address","name":"sender","type":"address"}],"name":"RoleGranted","type":"event"},{"anonymous":false,"inputs":[{"indexed":true,"internalType":"bytes32","name":"role","type":"bytes32"},{"indexed":true,"internalType":"address","name":"account","type":"address"},{"indexed":true,"internalType":"address","name":"sender","type":"address"}],"name":"RoleRevoked","type":"event"},{"anonymous":false,"inputs":[{"indexed":false,"internalType":"address","name":"account","type":"address"}],"name":"Unpaused","type":"event"},{"anonymous":false,"inputs":[{"indexed":true,"internalType":"address","name":"implementation","type":"address"}],"name":"Upgraded","type":"event"},{"inputs":[],"name":"ADMIN_ROLE","outputs":[{"internalType":"bytes32","name":"","type":"bytes32"}],"stateMutability":"view","type":"function"},{"inputs":[],"name":"DEFAULT_ADMIN_ROLE","outputs":[{"internalType":"bytes32","name":"","type":"bytes32"}],"stateMutability":"view","type":"function"},{"inputs":[],"name":"ETH_PID","outputs":[{"internalType":"uint256","name":"","type":"uint256"}],"stateMutability":"view","type":"function"},{"inputs":[],"name":"MetaNode","outputs":[{"internalType":"contract IERC20","name":"","type":"address"}],"stateMutability":"view","type":"function"},{"inputs":[],"name":"UPGRADER_ROLE","outputs":[{"internalType":"bytes32","name":"","type":"bytes32"}],"stateMutability":"view","type":"function"},{"inputs":[],"name":"UPGRADE_INTERFACE_VERSION","outputs":[{"internalType":"string","name":"","type":"string"}],"stateMutability":"view","type":"function"},{"inputs":[{"internalType":"address","name":"poolAddress_","type":"address"},{"internalType":"uint256","name":"poolWeight_","type":"uint256"},{"internalType":"uint256","name":"minDepositAmount_","type":"uint256"},{"internalType":"uint256","name":"unstakeLockedBlocks_","type":"uint256"}],"name":"addPool","outputs":[],"stateMutability":"nonpayable","type":"function"},{"inputs":[{"internalType":"uint256","name":"pid_","type":"uint256"}],"name":"claim","outputs":[],"stateMutability":"nonpayable","type":"function"},{"inputs":[],"name":"claimPaused","outputs":[{"internalType":"bool","name":"","type":"bool"}],"stateMutability":"view","type":"function"},{"inputs":[{"internalType":"uint256","name":"pid_","type":"uint256"},{"internalType":"uint256","name":"amount_","type":"uint256"}],"name":"deposit","outputs":[],"stateMutability":"nonpayable","type":"function"},{"inputs":[],"name":"depositETH","outputs":[],"stateMutability":"payable","type":"function"},{"inputs":[],"name":"endBlock","outputs":[{"internalType":"uint256","name":"","type":"uint256"}],"stateMutability":"view","type":"function"},{"inputs":[{"internalType":"uint256","name":"lastBlock_","type":"uint256"},{"internalType":"uint256","name":"startBlock_","type":"uint256"}],"name":"getMultiplier","outputs":[{"internalType":"uint256","name":"multiplier","type":"uint256"}],"stateMutability":"view","type":"function"},{"inputs":[{"internalType":"bytes32","name":"role","type":"bytes32"}],"name":"getRoleAdmin","outputs":[{"internalType":"bytes32","name":"","type":"bytes32"}],"stateMutability":"view","type":"function"},{"inputs":[{"internalType":"bytes32","name":"role","type":"bytes32"},{"internalType":"address","name":"account","type":"address"}],"name":"grantRole","outputs":[],"stateMutability":"nonpayable","type":"function"},{"inputs":[{"internalType":"bytes32","name":"role","type":"bytes32"},{"internalType":"address","name":"account","type":"address"}],"name":"hasRole","outputs":[{"internalType":"bool","name":"","type":"bool"}],"stateMutability":"view","type":"function"},{"inputs":[{"internalType":"address","name":"metaNodeAddress_","type":"address"},{"internalType":"uint256","name":"startBlock_","type":"uint256"},{"internalType":"uint256","name":"endBlock_","type":"uint256"},{"internalType":"uint256","name":"metaNodePerBlock_","type":"uint256"}],"name":"initialize","outputs":[],"stateMutability":"nonpayable","type":"function"},{"inputs":[],"name":"massUpdatePools","outputs":[],"stateMutability":"nonpayable","type":"function"},{"inputs":[],"name":"metaNodePerBlock","outputs":[{"internalType":"uint256","name":"","type":"uint256"}],"stateMutability":"view","type":"function"},{"inputs":[],"name":"pauseClaim","outputs":[],"stateMutability":"nonpayable","type":"function"},{"inputs":[],"name":"paused","outputs":[{"internalType":"bool","name":"","type":"bool"}],"stateMutability":"view","type":"function"},{"inputs":[],"name":"pausedWithdraw","outputs":[],"stateMutability":"nonpayable","type":"function"},{"inputs":[{"internalType":"uint256","name":"pid_","type":"uint256"},{"internalType":"address","name":"user_","type":"address"}],"name":"pendingMetaNode","outputs":[{"internalType":"uint256","name":"","type":"uint256"}],"stateMutability":"view","type":"function"},{"inputs":[{"internalType":"uint256","name":"pid_","type":"uint256"},{"internalType":"address","name":"user_","type":"address"},{"internalType":"uint256","name":"blockNumber_","type":"uint256"}],"name":"pendingMetaNodeByBlockNumber","outputs":[{"internalType":"uint256","name":"","type":"uint256"}],"stateMutability":"view","type":"function"},{"inputs":[],"name":"poolLength","outputs":[{"internalType":"uint256","name":"","type":"uint256"}],"stateMutability":"view","type":"function"},{"inputs":[{"internalType":"uint256","name":"","type":"uint256"}],"name":"pools","outputs":[{"internalType":"address","name":"poolAddress","type":"address"},{"internalType":"uint256","name":"poolWeight","type":"uint256"},{"internalType":"uint256","name":"minDepositAmount","type":"uint256"},{"internalType":"uint256","name":"lastRewardBlock","type":"uint256"},{"internalType":"uint256","name":"accMetaNodePerST","type":"uint256"},{"internalType":"uint256","name":"stTokenAmount","type":"uint256"},{"internalType":"uint256","name":"unstakeLockedBlocks","type":"uint256"}],"stateMutability":"view","type":"function"},{"inputs":[],"name":"proxiableUUID","outputs":[{"internalType":"bytes32","name":"","type":"bytes32"}],"stateMutability":"view","type":"function"},{"inputs":[{"internalType":"bytes32","name":"role","type":"bytes32"},{"internalType":"address","name":"callerConfirmation","type":"address"}],"name":"renounceRole","outputs":[],"stateMutability":"nonpayable","type":"function"},{"inputs":[{"internalType":"bytes32","name":"role","type":"bytes32"},{"internalType":"address","name":"account","type":"address"}],"name":"revokeRole","outputs":[],"stateMutability":"nonpayable","type":"function"},{"inputs":[{"internalType":"uint256","name":"endBlock_","type":"uint256"}],"name":"setEndBlock","outputs":[],"stateMutability":"nonpayable","type":"function"},{"inputs":[{"internalType":"address","name":"metaNodeAddress_","type":"address"}],"name":"setMetaNode","outputs":[],"stateMutability":"nonpayable","type":"function"},{"inputs":[{"internalType":"uint256","name":"metaNodePerBlock_","type":"uint256"}],"name":"setMetaNodePerBlock","outputs":[],"stateMutability":"nonpayable","type":"function"},{"inputs":[{"internalType":"uint256","name":"pid_","type":"uint256"},{"internalType":"uint256","name":"poolWeight_","type":"uint256"},{"internalType":"bool","name":"withUpdate_","type":"bool"}],"name":"setPoolWeight","outputs":[],"stateMutability":"nonpayable","type":"function"},{"inputs":[{"internalType":"uint256","name":"startBlock_","type":"uint256"}],"name":"setStartBlock","outputs":[],"stateMutability":"nonpayable","type":"function"},{"inputs":[{"internalType":"uint256","name":"pid_","type":"uint256"},{"internalType":"address","name":"user_","type":"address"}],"name":"stakingBalance","outputs":[{"internalType":"uint256","name":"","type":"uint256"}],"stateMutability":"view","type":"function"},{"inputs":[],"name":"startBlock","outputs":[{"internalType":"uint256","name":"","type":"uint256"}],"stateMutability":"view","type":"function"},{"inputs":[{"internalType":"bytes4","name":"interfaceId","type":"bytes4"}],"name":"supportsInterface","outputs":[{"internalType":"bool","name":"","type":"bool"}],"stateMutability":"view","type":"function"},{"inputs":[],"name":"totalWeight","outputs":[{"internalType":"uint256","name":"","type":"uint256"}],"stateMutability":"view","type":"function"},{"inputs":[],"name":"unpauseClaim","outputs":[],"stateMutability":"nonpayable","type":"function"},{"inputs":[],"name":"unpauseWithdraw","outputs":[],"stateMutability":"nonpayable","type":"function"},{"inputs":[{"internalType":"uint256","name":"pid_","type":"uint256"},{"internalType":"uint256","name":"amount_","type":"uint256"}],"name":"unstake","outputs":[],"stateMutability":"nonpayable","type":"function"},{"inputs":[{"internalType":"uint256","name":"pid_","type":"uint256"},{"internalType":"uint256","name":"minDepositAmount_","type":"uint256"},{"internalType":"uint256","name":"unstakeLockedBlocks_","type":"uint256"}],"name":"updatePool","outputs":[],"stateMutability":"nonpayable","type":"function"},{"inputs":[{"internalType":"address","name":"newImplementation","type":"address"},{"internalType":"bytes","name":"data","type":"bytes"}],"name":"upgradeToAndCall","outputs":[],"stateMutability":"payable","type":"function"},{"inputs":[{"internalType":"uint256","name":"","type":"uint256"},{"internalType":"address","name":"","type":"address"}],"name":"users","outputs":[{"internalType":"uint256","name":"amount","type":"uint256"},{"internalType":"uint256","name":"finishedMetaNode","type":"uint256"},{"internalType":"uint256","name":"pendingMetaNode","type":"uint256"}],"stateMutability":"view","type":"function"},{"inputs":[{"internalType":"uint256","name":"pid_","type":"uint256"}],"name":"withdraw","outputs":[],"stateMutability":"nonpayable","type":"function"},{"inputs":[{"internalType":"uint256","name":"pid_","type":"uint256"},{"internalType":"address","name":"user_","type":"address"}],"name":"withdrawAmount","outputs":[{"internalType":"uint256","name":"requestAmount","type":"uint256"},{"internalType":"uint256","name":"pendingWithdrawAmount","type":"uint256"}],"stateMutability":"view","type":"function"},{"inputs":[],"name":"withdrawPaused","outputs":[{"internalType":"bool","name":"","type":"bool"}],"stateMutability":"view","type":"function"}],"evm":{"bytecode":{"linkReferences":{},"object":"60a06040523073ffffffffffffffffffffffffffffffffffffffff1660809073ffffffffffffffffffffffffffffffffffffffff16815250348015604257600080fd5b506080516156bc61006c600039600081816130d70152818161312c015261330a01526156bc6000f3fe6080604052600436106102885760003560e01c80638ff095f91161015a578063d22f1d80116100c1578063ea5c219d1161007a578063ea5c219d1461097b578063f35e4a6e146109b8578063f6326fb3146109e1578063f72c0d8b146109eb578063fad07ece14610a16578063ff42335714610a3f57610288565b8063d22f1d8014610895578063d547741f146108c0578063d7bc1769146108e9578063d86c044414610912578063de065caa1461093b578063e2bbb1581461095257610288565b8063ab5e124a11610113578063ab5e124a14610769578063ac4afa3814610794578063ad3cb1cc146107d7578063b9d02df414610802578063bfc3ebba14610841578063c713aa941461086c57610288565b80638ff095f91461067f57806391d148541461069657806396c82e57146106d35780639e2c8a5b146106fe578063a217fddf14610727578063a25088c61461075257610288565b80634ec81af1116101fe57806361a9a03d116101b757806361a9a03d1461056f578063630b5ba1146105985780636325d5bc146105af5780637276d925146105ec57806375b238fc146106175780638dbb1e3a1461064257610288565b80634ec81af1146104945780634f1ef286146104bd57806352d1902d146104d95780635a4ec0ca146105045780635bb6d0071461052d5780635c975abb1461054457610288565b80632e1a7d4d116102505780632e1a7d4d1461039a5780632f2ff15d146103c35780632f3ffb9f146103ec57806336568abe14610417578063379607f51461044057806348cd4cb11461046957610288565b806301ffc9a71461028d578063081e3eda146102ca578063083c6323146102f55780631154823414610320578063248a9ca31461035d575b600080fd5b34801561029957600080fd5b506102b460048036038101906102af9190613d4b565b610a7d565b6040516102c19190613d93565b60405180910390f35b3480156102d657600080fd5b506102df610af7565b6040516102ec9190613dc7565b60405180910390f35b34801561030157600080fd5b5061030a610b03565b6040516103179190613dc7565b60405180910390f35b34801561032c57600080fd5b5061034760048036038101906103429190613e6c565b610b09565b6040516103549190613dc7565b60405180910390f35b34801561036957600080fd5b50610384600480360381019061037f9190613ee2565b610bb0565b6040516103919190613f1e565b60405180910390f35b3480156103a657600080fd5b506103c160048036038101906103bc9190613f39565b610bde565b005b3480156103cf57600080fd5b506103ea60048036038101906103e59190613f66565b610f37565b005b3480156103f857600080fd5b50610401610f59565b60405161040e9190613d93565b60405180910390f35b34801561042357600080fd5b5061043e60048036038101906104399190613f66565b610f6c565b005b34801561044c57600080fd5b5061046760048036038101906104629190613f39565b610fe7565b005b34801561047557600080fd5b5061047e61119e565b60405161048b9190613dc7565b60405180910390f35b3480156104a057600080fd5b506104bb60048036038101906104b69190613fa6565b6111a4565b005b6104d760048036038101906104d29190614153565b6113b9565b005b3480156104e557600080fd5b506104ee6113d8565b6040516104fb9190613f1e565b60405180910390f35b34801561051057600080fd5b5061052b60048036038101906105269190613fa6565b61140b565b005b34801561053957600080fd5b50610542611659565b005b34801561055057600080fd5b506105596116f0565b6040516105669190613d93565b60405180910390f35b34801561057b57600080fd5b50610596600480360381019061059191906141af565b611715565b005b3480156105a457600080fd5b506105ad611784565b005b3480156105bb57600080fd5b506105d660048036038101906105d191906141dc565b6117b2565b6040516105e39190613dc7565b60405180910390f35b3480156105f857600080fd5b50610601611944565b60405161060e9190613dc7565b60405180910390f35b34801561062357600080fd5b5061062c61194a565b6040516106399190613f1e565b60405180910390f35b34801561064e57600080fd5b506106696004803603810190610664919061422f565b61196e565b6040516106769190613dc7565b60405180910390f35b34801561068b57600080fd5b50610694611a86565b005b3480156106a257600080fd5b506106bd60048036038101906106b89190613f66565b611b1e565b6040516106ca9190613d93565b60405180910390f35b3480156106df57600080fd5b506106e8611b97565b6040516106f59190613dc7565b60405180910390f35b34801561070a57600080fd5b506107256004803603810190610720919061422f565b611b9d565b005b34801561073357600080fd5b5061073c611dd9565b6040516107499190613f1e565b60405180910390f35b34801561075e57600080fd5b50610767611de0565b005b34801561077557600080fd5b5061077e611e78565b60405161078b9190613d93565b60405180910390f35b3480156107a057600080fd5b506107bb60048036038101906107b69190613f39565b611e8b565b6040516107ce979695949392919061427e565b60405180910390f35b3480156107e357600080fd5b506107ec611efd565b6040516107f9919061436c565b60405180910390f35b34801561080e57600080fd5b5061082960048036038101906108249190613e6c565b611f36565b6040516108389392919061438e565b60405180910390f35b34801561084d57600080fd5b50610856611f6d565b6040516108639190613dc7565b60405180910390f35b34801561087857600080fd5b50610893600480360381019061088e9190613f39565b611f72565b005b3480156108a157600080fd5b506108aa611fec565b6040516108b79190614424565b60405180910390f35b3480156108cc57600080fd5b506108e760048036038101906108e29190613f66565b612012565b005b3480156108f557600080fd5b50610910600480360381019061090b9190613f39565b612034565b005b34801561091e57600080fd5b506109396004803603810190610934919061443f565b612069565b005b34801561094757600080fd5b50610950612136565b005b34801561095e57600080fd5b506109796004803603810190610974919061422f565b6121cd565b005b34801561098757600080fd5b506109a2600480360381019061099d9190613e6c565b61232e565b6040516109af9190613dc7565b60405180910390f35b3480156109c457600080fd5b506109df60048036038101906109da9190613f39565b61238c565b005b6109e9612406565b005b3480156109f757600080fd5b50610a0061251a565b604051610a0d9190613f1e565b60405180910390f35b348015610a2257600080fd5b50610a3d6004803603810190610a3891906144be565b61253e565b005b348015610a4b57600080fd5b50610a666004803603810190610a619190613e6c565b612677565b604051610a74929190614511565b60405180910390f35b60007f7965db0b000000000000000000000000000000000000000000000000000000007bffffffffffffffffffffffffffffffffffffffffffffffffffffffff1916827bffffffffffffffffffffffffffffffffffffffffffffffffffffffff19161480610af05750610aef826127d9565b5b9050919050565b60008080549050905090565b60025481565b6000826000805490508110610b53576040517f08c379a0000000000000000000000000000000000000000000000000000000008152600401610b4a90614586565b60405180910390fd5b6007600085815260200190815260200160002060008473ffffffffffffffffffffffffffffffffffffffff1673ffffffffffffffffffffffffffffffffffffffff1681526020019081526020016000206000015491505092915050565b600080610bbb612843565b905080600001600084815260200190815260200160002060010154915050919050565b806000805490508110610c26576040517f08c379a0000000000000000000000000000000000000000000000000000000008152600401610c1d90614586565b60405180910390fd5b600460009054906101000a900460ff1615610c76576040517f08c379a0000000000000000000000000000000000000000000000000000000008152600401610c6d906145f2565b60405180910390fd5b6000808381548110610c8b57610c8a614612565b5b9060005260206000209060070201905060006007600085815260200190815260200160002060003373ffffffffffffffffffffffffffffffffffffffff1673ffffffffffffffffffffffffffffffffffffffff168152602001908152602001600020905060008060005b8360030180549050811015610d825743846003018281548110610d1b57610d1a614612565b5b90600052602060002090600202016001015411610d8257836003018181548110610d4857610d47614612565b5b90600052602060002090600202016000015483610d659190614670565b92508180610d72906146a4565b9250508080600101915050610cf5565b5060005b818460030180549050610d9991906146ec565b811015610e1757836003018282610db09190614670565b81548110610dc157610dc0614612565b5b9060005260206000209060020201846003018281548110610de557610de4614612565b5b906000526020600020906002020160008201548160000155600182015481600101559050508080600101915050610d86565b5060005b81811015610e6d5783600301805480610e3757610e36614720565b5b60019003818190600052602060002090600202016000808201600090556001820160009055505090558080600101915050610e1b565b506000821115610f2f57600073ffffffffffffffffffffffffffffffffffffffff168460000160009054906101000a900473ffffffffffffffffffffffffffffffffffffffff1673ffffffffffffffffffffffffffffffffffffffff1603610ede57610ed9338361286b565b610f2e565b610f2d33838660000160009054906101000a900473ffffffffffffffffffffffffffffffffffffffff1673ffffffffffffffffffffffffffffffffffffffff1661297d9092919063ffffffff16565b5b5b505050505050565b610f4082610bb0565b610f49816129fc565b610f538383612a10565b50505050565b600460009054906101000a900460ff1681565b610f74612b11565b73ffffffffffffffffffffffffffffffffffffffff168173ffffffffffffffffffffffffffffffffffffffff1614610fd8576040517f6697b23200000000000000000000000000000000000000000000000000000000815260040160405180910390fd5b610fe28282612b19565b505050565b80600080549050811061102f576040517f08c379a000000000000000000000000000000000000000000000000000000000815260040161102690614586565b60405180910390fd5b600460019054906101000a900460ff161561107f576040517f08c379a00000000000000000000000000000000000000000000000000000000081526004016110769061479b565b60405180910390fd5b600080838154811061109457611093614612565b5b9060005260206000209060070201905060006007600085815260200190815260200160002060003373ffffffffffffffffffffffffffffffffffffffff1673ffffffffffffffffffffffffffffffffffffffff168152602001908152602001600020905061110184612c1b565b600081600201548260010154670de0b6b3a76400008560040154856000015461112a91906147bb565b611134919061482c565b61113e91906146ec565b6111489190614670565b9050600081111561116857600082600201819055506111673382612eae565b5b670de0b6b3a76400008360040154836000015461118591906147bb565b61118f919061482c565b82600101819055505050505050565b60015481565b60006111ae6130a3565b905060008160000160089054906101000a900460ff1615905060008260000160009054906101000a900467ffffffffffffffff1690506000808267ffffffffffffffff161480156111fc5750825b9050600060018367ffffffffffffffff16148015611231575060003073ffffffffffffffffffffffffffffffffffffffff163b145b90508115801561123f575080155b15611276576040517ff92ee8a900000000000000000000000000000000000000000000000000000000815260040160405180910390fd5b60018560000160006101000a81548167ffffffffffffffff021916908367ffffffffffffffff16021790555083156112c65760018560000160086101000a81548160ff0219169083151502179055505b6112ce6130b7565b6112d66130c1565b6112de6130cb565b6113087fa49807205ce4d355092ef5a8a18f56e8913cf4a201fbe287825b095693c2177533612a10565b506113337f189ab7a9244df0848122154315af71fe140f3db0fe014031783b0946b8c9d2e333612a10565b5061133d89611715565b87600181905550866002819055508560038190555083156113ae5760008560000160086101000a81548160ff0219169083151502179055507fc7f505b2f371ae2175ee4913f4499e1f2633a7b5936321eed1cdaeb6115181d260016040516113a591906148ac565b60405180910390a15b505050505050505050565b6113c16130d5565b6113ca826131bb565b6113d482826131e9565b5050565b60006113e2613308565b7f360894a13ba1a3210667c828492db98dca3e2076cc3735a920a3ca505d382bbc60001b905090565b7fa49807205ce4d355092ef5a8a18f56e8913cf4a201fbe287825b095693c21775611435816129fc565b6000808054905011156114b657600073ffffffffffffffffffffffffffffffffffffffff168573ffffffffffffffffffffffffffffffffffffffff16036114b1576040517f08c379a00000000000000000000000000000000000000000000000000000000081526004016114a890614913565b60405180910390fd5b611526565b600073ffffffffffffffffffffffffffffffffffffffff168573ffffffffffffffffffffffffffffffffffffffff1614611525576040517f08c379a000000000000000000000000000000000000000000000000000000000815260040161151c90614913565b60405180910390fd5b5b600060015443116115395760015461153b565b435b9050846005600082825461154f9190614670565b9250508190555060006040518060e001604052808873ffffffffffffffffffffffffffffffffffffffff168152602001878152602001868152602001838152602001600081526020016000815260200185815250908060018154018082558091505060019003906000526020600020906007020160009091909190915060008201518160000160006101000a81548173ffffffffffffffffffffffffffffffffffffffff021916908373ffffffffffffffffffffffffffffffffffffffff1602179055506020820151816001015560408201518160020155606082015181600301556080820151816004015560a0820151816005015560c082015181600601555050505050505050565b7fa49807205ce4d355092ef5a8a18f56e8913cf4a201fbe287825b095693c21775611683816129fc565b600460009054906101000a900460ff166116d2576040517f08c379a00000000000000000000000000000000000000000000000000000000081526004016116c99061497f565b60405180910390fd5b6000600460006101000a81548160ff02191690831515021790555050565b6000806116fb61338f565b90508060000160009054906101000a900460ff1691505090565b7fa49807205ce4d355092ef5a8a18f56e8913cf4a201fbe287825b095693c2177561173f816129fc565b81600660006101000a81548173ffffffffffffffffffffffffffffffffffffffff021916908373ffffffffffffffffffffffffffffffffffffffff1602179055505050565b60008080549050905060005b818110156117ae576117a181612c1b565b8080600101915050611790565b5050565b60008360008054905081106117fc576040517f08c379a00000000000000000000000000000000000000000000000000000000081526004016117f390614586565b60405180910390fd5b600080868154811061181157611810614612565b5b9060005260206000209060070201905060006007600088815260200190815260200160002060008773ffffffffffffffffffffffffffffffffffffffff1673ffffffffffffffffffffffffffffffffffffffff168152602001908152602001600020905060008260040154905060008360050154905083600301548711156118f55760006118a388866003015461196e565b905060006005548660010154836118ba91906147bb565b6118c4919061482c565b905082670de0b6b3a7640000826118db91906147bb565b6118e5919061482c565b846118f09190614670565b935050505b82600201548360010154670de0b6b3a764000084866000015461191891906147bb565b611922919061482c565b61192c91906146ec565b6119369190614670565b955050505050509392505050565b60035481565b7fa49807205ce4d355092ef5a8a18f56e8913cf4a201fbe287825b095693c2177581565b6000818310156119b3576040517f08c379a00000000000000000000000000000000000000000000000000000000081526004016119aa90614a11565b60405180910390fd5b6002548311156119c35760025492505b6001548210156119d35760015491505b828210611a15576040517f08c379a0000000000000000000000000000000000000000000000000000000008152600401611a0c90614aa3565b60405180910390fd5b6000611a376003548486611a2991906146ec565b6133b790919063ffffffff16565b809350819250505080611a7f576040517f08c379a0000000000000000000000000000000000000000000000000000000008152600401611a7690614b0f565b60405180910390fd5b5092915050565b7fa49807205ce4d355092ef5a8a18f56e8913cf4a201fbe287825b095693c21775611ab0816129fc565b600460019054906101000a900460ff1615611b00576040517f08c379a0000000000000000000000000000000000000000000000000000000008152600401611af790614b7b565b60405180910390fd5b6001600460016101000a81548160ff02191690831515021790555050565b600080611b29612843565b905080600001600085815260200190815260200160002060000160008473ffffffffffffffffffffffffffffffffffffffff1673ffffffffffffffffffffffffffffffffffffffff16815260200190815260200160002060009054906101000a900460ff1691505092915050565b60055481565b816000805490508110611be5576040517f08c379a0000000000000000000000000000000000000000000000000000000008152600401611bdc90614586565b60405180910390fd5b6000808481548110611bfa57611bf9614612565b5b9060005260206000209060070201905060006007600086815260200190815260200160002060003373ffffffffffffffffffffffffffffffffffffffff1673ffffffffffffffffffffffffffffffffffffffff16815260200190815260200160002090508060000154841115611ca5576040517f08c379a0000000000000000000000000000000000000000000000000000000008152600401611c9c90614c0d565b60405180910390fd5b611cae85612c1b565b60008160010154670de0b6b3a764000084600401548460000154611cd291906147bb565b611cdc919061482c565b611ce691906146ec565b90506000811115611cfb578082600201819055505b6000851115611d875784826000016000828254611d1891906146ec565b92505081905550816003016040518060400160405280878152602001856006015443611d449190614670565b8152509080600181540180825580915050600190039060005260206000209060020201600090919091909150600082015181600001556020820151816001015550505b84836005016000828254611d9b91906146ec565b92505081905550670de0b6b3a764000083600401548360000154611dbf91906147bb565b611dc9919061482c565b8260010181905550505050505050565b6000801b81565b7fa49807205ce4d355092ef5a8a18f56e8913cf4a201fbe287825b095693c21775611e0a816129fc565b600460009054906101000a900460ff1615611e5a576040517f08c379a0000000000000000000000000000000000000000000000000000000008152600401611e5190614c79565b60405180910390fd5b6001600460006101000a81548160ff02191690831515021790555050565b600460019054906101000a900460ff1681565b60008181548110611e9b57600080fd5b90600052602060002090600702016000915090508060000160009054906101000a900473ffffffffffffffffffffffffffffffffffffffff16908060010154908060020154908060030154908060040154908060050154908060060154905087565b6040518060400160405280600581526020017f352e302e3000000000000000000000000000000000000000000000000000000081525081565b6007602052816000526040600020602052806000526040600020600091509150508060000154908060010154908060020154905083565b600081565b7fa49807205ce4d355092ef5a8a18f56e8913cf4a201fbe287825b095693c21775611f9c816129fc565b600154821015611fe1576040517f08c379a0000000000000000000000000000000000000000000000000000000008152600401611fd890614d0b565b60405180910390fd5b816002819055505050565b600660009054906101000a900473ffffffffffffffffffffffffffffffffffffffff1681565b61201b82610bb0565b612024816129fc565b61202e8383612b19565b50505050565b7fa49807205ce4d355092ef5a8a18f56e8913cf4a201fbe287825b095693c2177561205e816129fc565b816003819055505050565b7fa49807205ce4d355092ef5a8a18f56e8913cf4a201fbe287825b095693c21775612093816129fc565b8360008054905081106120db576040517f08c379a00000000000000000000000000000000000000000000000000000000081526004016120d290614586565b60405180910390fd5b83600086815481106120f0576120ef614612565b5b906000526020600020906007020160020181905550826000868154811061211a57612119614612565b5b9060005260206000209060070201600601819055505050505050565b7fa49807205ce4d355092ef5a8a18f56e8913cf4a201fbe287825b095693c21775612160816129fc565b600460019054906101000a900460ff166121af576040517f08c379a00000000000000000000000000000000000000000000000000000000081526004016121a690614d77565b60405180910390fd5b6000600460016101000a81548160ff02191690831515021790555050565b816000805490508110612215576040517f08c379a000000000000000000000000000000000000000000000000000000000815260040161220c90614586565b60405180910390fd5b60008303612258576040517f08c379a000000000000000000000000000000000000000000000000000000000815260040161224f90614de3565b60405180910390fd5b600080848154811061226d5761226c614612565b5b90600052602060002090600702019050806002015483116122c3576040517f08c379a00000000000000000000000000000000000000000000000000000000081526004016122ba90614e75565b60405180910390fd5b600083111561231e5761231d3330858460000160009054906101000a900473ffffffffffffffffffffffffffffffffffffffff1673ffffffffffffffffffffffffffffffffffffffff166133e0909392919063ffffffff16565b5b6123288484613462565b50505050565b6000826000805490508110612378576040517f08c379a000000000000000000000000000000000000000000000000000000000815260040161236f90614586565b60405180910390fd5b6123838484436117b2565b91505092915050565b7fa49807205ce4d355092ef5a8a18f56e8913cf4a201fbe287825b095693c217756123b6816129fc565b6002548211156123fb576040517f08c379a00000000000000000000000000000000000000000000000000000000081526004016123f290614f07565b60405180910390fd5b816001819055505050565b60008060008154811061241c5761241b614612565b5b90600052602060002090600702019050600073ffffffffffffffffffffffffffffffffffffffff168160000160009054906101000a900473ffffffffffffffffffffffffffffffffffffffff1673ffffffffffffffffffffffffffffffffffffffff16146124bf576040517f08c379a00000000000000000000000000000000000000000000000000000000081526004016124b690614f73565b60405180910390fd5b6000349050816002015481101561250b576040517f08c379a000000000000000000000000000000000000000000000000000000000815260040161250290614e75565b60405180910390fd5b612516600082613462565b5050565b7f189ab7a9244df0848122154315af71fe140f3db0fe014031783b0946b8c9d2e381565b7fa49807205ce4d355092ef5a8a18f56e8913cf4a201fbe287825b095693c21775612568816129fc565b8360008054905081106125b0576040517f08c379a00000000000000000000000000000000000000000000000000000000081526004016125a790614586565b60405180910390fd5b600084116125f3576040517f08c379a00000000000000000000000000000000000000000000000000000000081526004016125ea90615005565b60405180910390fd5b821561260257612601611784565b5b836000868154811061261757612616614612565b5b90600052602060002090600702016001015460055461263691906146ec565b6126409190614670565b600581905550836000868154811061265b5761265a614612565b5b9060005260206000209060070201600101819055505050505050565b6000808360008054905081106126c2576040517f08c379a00000000000000000000000000000000000000000000000000000000081526004016126b990614586565b60405180910390fd5b60006007600087815260200190815260200160002060008673ffffffffffffffffffffffffffffffffffffffff1673ffffffffffffffffffffffffffffffffffffffff168152602001908152602001600020905060005b81600301805490508110156127cf574382600301828154811061273f5761273e614612565b5b906000526020600020906002020160010154101561278d5781600301818154811061276d5761276c614612565b5b9060005260206000209060020201600001548461278a9190614670565b93505b8160030181815481106127a3576127a2614612565b5b906000526020600020906002020160000154856127c09190614670565b94508080600101915050612719565b5050509250929050565b60007f01ffc9a7000000000000000000000000000000000000000000000000000000007bffffffffffffffffffffffffffffffffffffffffffffffffffffffff1916827bffffffffffffffffffffffffffffffffffffffffffffffffffffffff1916149050919050565b60007f02dd7bc7dec4dceedda775e58dd541e08a116c6c53815c0bd028192f7b626800905090565b6000808373ffffffffffffffffffffffffffffffffffffffff168360405161289290615056565b60006040518083038185875af1925050503d80600081146128cf576040519150601f19603f3d011682016040523d82523d6000602084013e6128d4565b606091505b509150915081612919576040517f08c379a0000000000000000000000000000000000000000000000000000000008152600401612910906150b7565b60405180910390fd5b600081511115612977578080602001905181019061293791906150ec565b612976576040517f08c379a000000000000000000000000000000000000000000000000000000000815260040161296d9061518b565b60405180910390fd5b5b50505050565b6129f7838473ffffffffffffffffffffffffffffffffffffffff1663a9059cbb85856040516024016129b09291906151ab565b604051602081830303815290604052915060e01b6020820180517bffffffffffffffffffffffffffffffffffffffffffffffffffffffff83818316178352505050506137c1565b505050565b612a0d81612a08612b11565b613863565b50565b600080612a1b612843565b9050612a278484611b1e565b612b0557600181600001600086815260200190815260200160002060000160008573ffffffffffffffffffffffffffffffffffffffff1673ffffffffffffffffffffffffffffffffffffffff16815260200190815260200160002060006101000a81548160ff021916908315150217905550612aa1612b11565b73ffffffffffffffffffffffffffffffffffffffff168373ffffffffffffffffffffffffffffffffffffffff16857f2f8788117e7eff1d82e926ec794901d17c78024a50270940304540a733656f0d60405160405180910390a46001915050612b0b565b60009150505b92915050565b600033905090565b600080612b24612843565b9050612b308484611b1e565b15612c0f57600081600001600086815260200190815260200160002060000160008573ffffffffffffffffffffffffffffffffffffffff1673ffffffffffffffffffffffffffffffffffffffff16815260200190815260200160002060006101000a81548160ff021916908315150217905550612bab612b11565b73ffffffffffffffffffffffffffffffffffffffff168373ffffffffffffffffffffffffffffffffffffffff16857ff6391f5c32d9c69d2a47ea670b442974b53935d1edc7fd64eb21e047a839171b60405160405180910390a46001915050612c15565b60009150505b92915050565b806000805490508110612c63576040517f08c379a0000000000000000000000000000000000000000000000000000000008152600401612c5a90614586565b60405180910390fd5b6000808381548110612c7857612c77614612565b5b9060005260206000209060070201905080600301544311612c995750612eaa565b600080612cc08360010154612cb243866003015461196e565b6133b790919063ffffffff16565b9150915081612d04576040517f08c379a0000000000000000000000000000000000000000000000000000000008152600401612cfb90614b0f565b60405180910390fd5b612d19600554826138b490919063ffffffff16565b809250819350505081612d61576040517f08c379a0000000000000000000000000000000000000000000000000000000008152600401612d5890615220565b60405180910390fd5b6000836005015490506000811115612e9c57600080612d91670de0b6b3a7640000856133b790919063ffffffff16565b9150915081612dd5576040517f08c379a0000000000000000000000000000000000000000000000000000000008152600401612dcc9061528c565b60405180910390fd5b612de883826138b490919063ffffffff16565b809250819350505081612e30576040517f08c379a0000000000000000000000000000000000000000000000000000000008152600401612e2790615220565b60405180910390fd5b600080612e4a8389600401546138c990919063ffffffff16565b9150915081612e8e576040517f08c379a0000000000000000000000000000000000000000000000000000000008152600401612e85906152f8565b60405180910390fd5b808860040181905550505050505b438460030181905550505050505b5050565b6000600660009054906101000a900473ffffffffffffffffffffffffffffffffffffffff1673ffffffffffffffffffffffffffffffffffffffff166370a08231306040518263ffffffff1660e01b8152600401612f0b9190615318565b602060405180830381865afa158015612f28573d6000803e3d6000fd5b505050506040513d601f19601f82011682018060405250810190612f4c9190615348565b905080821115612ffc57600660009054906101000a900473ffffffffffffffffffffffffffffffffffffffff1673ffffffffffffffffffffffffffffffffffffffff1663a9059cbb84836040518363ffffffff1660e01b8152600401612fb39291906151ab565b6020604051808303816000875af1158015612fd2573d6000803e3d6000fd5b505050506040513d601f19601f82011682018060405250810190612ff691906150ec565b5061309e565b600660009054906101000a900473ffffffffffffffffffffffffffffffffffffffff1673ffffffffffffffffffffffffffffffffffffffff1663a9059cbb84846040518363ffffffff1660e01b81526004016130599291906151ab565b6020604051808303816000875af1158015613078573d6000803e3d6000fd5b505050506040513d601f19601f8201168201806040525081019061309c91906150ec565b505b505050565b6000806130ae6138ee565b90508091505090565b6130bf613919565b565b6130c9613919565b565b6130d3613919565b565b7f000000000000000000000000000000000000000000000000000000000000000073ffffffffffffffffffffffffffffffffffffffff163073ffffffffffffffffffffffffffffffffffffffff16148061318257507f000000000000000000000000000000000000000000000000000000000000000073ffffffffffffffffffffffffffffffffffffffff16613169613959565b73ffffffffffffffffffffffffffffffffffffffff1614155b156131b9576040517fe07c8dba00000000000000000000000000000000000000000000000000000000815260040160405180910390fd5b565b7f189ab7a9244df0848122154315af71fe140f3db0fe014031783b0946b8c9d2e36131e5816129fc565b5050565b8173ffffffffffffffffffffffffffffffffffffffff166352d1902d6040518163ffffffff1660e01b8152600401602060405180830381865afa92505050801561325157506040513d601f19601f8201168201806040525081019061324e919061538a565b60015b61329257816040517f4c9c8ce30000000000000000000000000000000000000000000000000000000081526004016132899190615318565b60405180910390fd5b7f360894a13ba1a3210667c828492db98dca3e2076cc3735a920a3ca505d382bbc60001b81146132f957806040517faa1d49a40000000000000000000000000000000000000000000000000000000081526004016132f09190613f1e565b60405180910390fd5b61330383836139b0565b505050565b7f000000000000000000000000000000000000000000000000000000000000000073ffffffffffffffffffffffffffffffffffffffff163073ffffffffffffffffffffffffffffffffffffffff161461338d576040517fe07c8dba00000000000000000000000000000000000000000000000000000000815260040160405180910390fd5b565b60007fcd5ed15c6e187e77e9aee88184c21f4f2182ab5827cb3b7e07fbedcd63f03300905090565b60008060008385029050841584868304141792506133d483613a23565b81029150509250929050565b61345c848573ffffffffffffffffffffffffffffffffffffffff166323b872dd868686604051602401613415939291906153b7565b604051602081830303815290604052915060e01b6020820180517bffffffffffffffffffffffffffffffffffffffffffffffffffffffff83818316178352505050506137c1565b50505050565b8160008054905081106134aa576040517f08c379a00000000000000000000000000000000000000000000000000000000081526004016134a190614586565b60405180910390fd5b60008084815481106134bf576134be614612565b5b9060005260206000209060070201905060006007600086815260200190815260200160002060003373ffffffffffffffffffffffffffffffffffffffff1673ffffffffffffffffffffffffffffffffffffffff168152602001908152602001600020905061352c85612c1b565b60008160000154111561367157600080613557846004015484600001546133b790919063ffffffff16565b915091508161359b576040517f08c379a00000000000000000000000000000000000000000000000000000000081526004016135929061543a565b60405180910390fd5b6000806135b5856001015484613a2f90919063ffffffff16565b91509150816135f9576040517f08c379a00000000000000000000000000000000000000000000000000000000081526004016135f0906154a6565b60405180910390fd5b600081111561366c5760008061361c8760020154846138c990919063ffffffff16565b9150915081613660576040517f08c379a000000000000000000000000000000000000000000000000000000000815260040161365790615512565b60405180910390fd5b80876002018190555050505b505050505b60008411156136e4576000806136948360000154876138c990919063ffffffff16565b91509150816136d8576040517f08c379a00000000000000000000000000000000000000000000000000000000081526004016136cf9061557e565b60405180910390fd5b80836000018190555050505b6000806136fe8460050154876138c990919063ffffffff16565b9150915081613742576040517f08c379a0000000000000000000000000000000000000000000000000000000008152600401613739906155ea565b60405180910390fd5b808460050181905550600080613769866004015486600001546133b790919063ffffffff16565b91509150816137ad576040517f08c379a00000000000000000000000000000000000000000000000000000000081526004016137a4906152f8565b60405180910390fd5b808560010181905550505050505050505050565b600080602060008451602086016000885af1806137e4576040513d6000823e3d81fd5b3d9250600051915050600082146137ff57600181141561381b565b60008473ffffffffffffffffffffffffffffffffffffffff163b145b1561385d57836040517f5274afe70000000000000000000000000000000000000000000000000000000081526004016138549190615318565b60405180910390fd5b50505050565b61386d8282611b1e565b6138b05780826040517fe2517d3f0000000000000000000000000000000000000000000000000000000081526004016138a792919061560a565b60405180910390fd5b5050565b60008060008311915082840490509250929050565b600080600083850190508481101592506138e283613a23565b81029150509250929050565b60007ff0c57e16840df040f15088dc2f81fe391c3923bec73e23a9662efc9c229c6a0060001b905090565b613921613a54565b613957576040517fd7e6bcf800000000000000000000000000000000000000000000000000000000815260040160405180910390fd5b565b60006139877f360894a13ba1a3210667c828492db98dca3e2076cc3735a920a3ca505d382bbc60001b613a74565b60000160009054906101000a900473ffffffffffffffffffffffffffffffffffffffff16905090565b6139b982613a7e565b8173ffffffffffffffffffffffffffffffffffffffff167fbc7cd75a20ee27fd9adebab32041f755214dbc6bffa90cc0225b39da2e5c2d3b60405160405180910390a2600081511115613a1657613a108282613b4b565b50613a1f565b613a1e613bcf565b5b5050565b60008115159050919050565b60008060008385039050848111159250613a4883613a23565b81029150509250929050565b6000613a5e6130a3565b60000160089054906101000a900460ff16905090565b6000819050919050565b60008173ffffffffffffffffffffffffffffffffffffffff163b03613ada57806040517f4c9c8ce3000000000000000000000000000000000000000000000000000000008152600401613ad19190615318565b60405180910390fd5b80613b077f360894a13ba1a3210667c828492db98dca3e2076cc3735a920a3ca505d382bbc60001b613a74565b60000160006101000a81548173ffffffffffffffffffffffffffffffffffffffff021916908373ffffffffffffffffffffffffffffffffffffffff16021790555050565b60606000808473ffffffffffffffffffffffffffffffffffffffff1684604051613b75919061566f565b600060405180830381855af49150503d8060008114613bb0576040519150601f19603f3d011682016040523d82523d6000602084013e613bb5565b606091505b5091509150613bc5858383613c0c565b9250505092915050565b6000341115613c0a576040517fb398979f00000000000000000000000000000000000000000000000000000000815260040160405180910390fd5b565b606082613c2157613c1c82613c9b565b613c93565b60008251148015613c49575060008473ffffffffffffffffffffffffffffffffffffffff163b145b15613c8b57836040517f9996b315000000000000000000000000000000000000000000000000000000008152600401613c829190615318565b60405180910390fd5b819050613c94565b5b9392505050565b600081511115613cad57805160208201fd5b6040517fd6bda27500000000000000000000000000000000000000000000000000000000815260040160405180910390fd5b6000604051905090565b600080fd5b600080fd5b60007fffffffff0000000000000000000000000000000000000000000000000000000082169050919050565b613d2881613cf3565b8114613d3357600080fd5b50565b600081359050613d4581613d1f565b92915050565b600060208284031215613d6157613d60613ce9565b5b6000613d6f84828501613d36565b91505092915050565b60008115159050919050565b613d8d81613d78565b82525050565b6000602082019050613da86000830184613d84565b92915050565b6000819050919050565b613dc181613dae565b82525050565b6000602082019050613ddc6000830184613db8565b92915050565b613deb81613dae565b8114613df657600080fd5b50565b600081359050613e0881613de2565b92915050565b600073ffffffffffffffffffffffffffffffffffffffff82169050919050565b6000613e3982613e0e565b9050919050565b613e4981613e2e565b8114613e5457600080fd5b50565b600081359050613e6681613e40565b92915050565b60008060408385031215613e8357613e82613ce9565b5b6000613e9185828601613df9565b9250506020613ea285828601613e57565b9150509250929050565b6000819050919050565b613ebf81613eac565b8114613eca57600080fd5b50565b600081359050613edc81613eb6565b92915050565b600060208284031215613ef857613ef7613ce9565b5b6000613f0684828501613ecd565b91505092915050565b613f1881613eac565b82525050565b6000602082019050613f336000830184613f0f565b92915050565b600060208284031215613f4f57613f4e613ce9565b5b6000613f5d84828501613df9565b91505092915050565b60008060408385031215613f7d57613f7c613ce9565b5b6000613f8b85828601613ecd565b9250506020613f9c85828601613e57565b9150509250929050565b60008060008060808587031215613fc057613fbf613ce9565b5b6000613fce87828801613e57565b9450506020613fdf87828801613df9565b9350506040613ff087828801613df9565b925050606061400187828801613df9565b91505092959194509250565b600080fd5b600080fd5b6000601f19601f8301169050919050565b7f4e487b7100000000000000000000000000000000000000000000000000000000600052604160045260246000fd5b61406082614017565b810181811067ffffffffffffffff8211171561407f5761407e614028565b5b80604052505050565b6000614092613cdf565b905061409e8282614057565b919050565b600067ffffffffffffffff8211156140be576140bd614028565b5b6140c782614017565b9050602081019050919050565b82818337600083830152505050565b60006140f66140f1846140a3565b614088565b90508281526020810184848401111561411257614111614012565b5b61411d8482856140d4565b509392505050565b600082601f83011261413a5761413961400d565b5b813561414a8482602086016140e3565b91505092915050565b6000806040838503121561416a57614169613ce9565b5b600061417885828601613e57565b925050602083013567ffffffffffffffff81111561419957614198613cee565b5b6141a585828601614125565b9150509250929050565b6000602082840312156141c5576141c4613ce9565b5b60006141d384828501613e57565b91505092915050565b6000806000606084860312156141f5576141f4613ce9565b5b600061420386828701613df9565b935050602061421486828701613e57565b925050604061422586828701613df9565b9150509250925092565b6000806040838503121561424657614245613ce9565b5b600061425485828601613df9565b925050602061426585828601613df9565b9150509250929050565b61427881613e2e565b82525050565b600060e082019050614293600083018a61426f565b6142a06020830189613db8565b6142ad6040830188613db8565b6142ba6060830187613db8565b6142c76080830186613db8565b6142d460a0830185613db8565b6142e160c0830184613db8565b98975050505050505050565b600081519050919050565b600082825260208201905092915050565b60005b8381101561432757808201518184015260208101905061430c565b60008484015250505050565b600061433e826142ed565b61434881856142f8565b9350614358818560208601614309565b61436181614017565b840191505092915050565b600060208201905081810360008301526143868184614333565b905092915050565b60006060820190506143a36000830186613db8565b6143b06020830185613db8565b6143bd6040830184613db8565b949350505050565b6000819050919050565b60006143ea6143e56143e084613e0e565b6143c5565b613e0e565b9050919050565b60006143fc826143cf565b9050919050565b600061440e826143f1565b9050919050565b61441e81614403565b82525050565b60006020820190506144396000830184614415565b92915050565b60008060006060848603121561445857614457613ce9565b5b600061446686828701613df9565b935050602061447786828701613df9565b925050604061448886828701613df9565b9150509250925092565b61449b81613d78565b81146144a657600080fd5b50565b6000813590506144b881614492565b92915050565b6000806000606084860312156144d7576144d6613ce9565b5b60006144e586828701613df9565b93505060206144f686828701613df9565b9250506040614507868287016144a9565b9150509250925092565b60006040820190506145266000830185613db8565b6145336020830184613db8565b9392505050565b7f496e76616c696420706964000000000000000000000000000000000000000000600082015250565b6000614570600b836142f8565b915061457b8261453a565b602082019050919050565b6000602082019050818103600083015261459f81614563565b9050919050565b7f5769746864726177206973207061757365640000000000000000000000000000600082015250565b60006145dc6012836142f8565b91506145e7826145a6565b602082019050919050565b6000602082019050818103600083015261460b816145cf565b9050919050565b7f4e487b7100000000000000000000000000000000000000000000000000000000600052603260045260246000fd5b7f4e487b7100000000000000000000000000000000000000000000000000000000600052601160045260246000fd5b600061467b82613dae565b915061468683613dae565b925082820190508082111561469e5761469d614641565b5b92915050565b60006146af82613dae565b91507fffffffffffffffffffffffffffffffffffffffffffffffffffffffffffffffff82036146e1576146e0614641565b5b600182019050919050565b60006146f782613dae565b915061470283613dae565b925082820390508181111561471a57614719614641565b5b92915050565b7f4e487b7100000000000000000000000000000000000000000000000000000000600052603160045260246000fd5b7f436c61696d206973207061757365640000000000000000000000000000000000600082015250565b6000614785600f836142f8565b91506147908261474f565b602082019050919050565b600060208201905081810360008301526147b481614778565b9050919050565b60006147c682613dae565b91506147d183613dae565b92508282026147df81613dae565b915082820484148315176147f6576147f5614641565b5b5092915050565b7f4e487b7100000000000000000000000000000000000000000000000000000000600052601260045260246000fd5b600061483782613dae565b915061484283613dae565b925082614852576148516147fd565b5b828204905092915050565b6000819050919050565b600067ffffffffffffffff82169050919050565b600061489661489161488c8461485d565b6143c5565b614867565b9050919050565b6148a68161487b565b82525050565b60006020820190506148c1600083018461489d565b92915050565b7f506f6f6c20616464726573732063616e6e6f74206265207a65726f0000000000600082015250565b60006148fd601b836142f8565b9150614908826148c7565b602082019050919050565b6000602082019050818103600083015261492c816148f0565b9050919050565b7f5769746864726177206973206e6f742070617573656400000000000000000000600082015250565b60006149696016836142f8565b915061497482614933565b602082019050919050565b600060208201905081810360008301526149988161495c565b9050919050565b7f4c61737420626c6f636b206d7573742062652067726561746572207468616e2060008201527f737461727420626c6f636b000000000000000000000000000000000000000000602082015250565b60006149fb602b836142f8565b9150614a068261499f565b604082019050919050565b60006020820190508181036000830152614a2a816149ee565b9050919050565b7f537461727420626c6f636b206d757374206265206c657373207468616e206c6160008201527f737420626c6f636b000000000000000000000000000000000000000000000000602082015250565b6000614a8d6028836142f8565b9150614a9882614a31565b604082019050919050565b60006020820190508181036000830152614abc81614a80565b9050919050565b7f4d756c7469706c696572206f766572666c6f7700000000000000000000000000600082015250565b6000614af96013836142f8565b9150614b0482614ac3565b602082019050919050565b60006020820190508181036000830152614b2881614aec565b9050919050565b7f436c61696d20697320616c726561647920706175736564000000000000000000600082015250565b6000614b656017836142f8565b9150614b7082614b2f565b602082019050919050565b60006020820190508181036000830152614b9481614b58565b9050919050565b7f416d6f756e74206d7573742062652067726561746572207468616e207573657260008201527f20616d6f756e7400000000000000000000000000000000000000000000000000602082015250565b6000614bf76027836142f8565b9150614c0282614b9b565b604082019050919050565b60006020820190508181036000830152614c2681614bea565b9050919050565b7f576974686472617720697320616c726561647920706175736564000000000000600082015250565b6000614c63601a836142f8565b9150614c6e82614c2d565b602082019050919050565b60006020820190508181036000830152614c9281614c56565b9050919050565b7f456e6420626c6f636b206d7573742062652067726561746572207468616e206360008201527f757272656e7420656e6420626c6f636b00000000000000000000000000000000602082015250565b6000614cf56030836142f8565b9150614d0082614c99565b604082019050919050565b60006020820190508181036000830152614d2481614ce8565b9050919050565b7f436c61696d206973206e6f742070617573656400000000000000000000000000600082015250565b6000614d616013836142f8565b9150614d6c82614d2b565b602082019050919050565b60006020820190508181036000830152614d9081614d54565b9050919050565b7f6465706f736974206e6f7420737570706f727420455448207374616b696e6700600082015250565b6000614dcd601f836142f8565b9150614dd882614d97565b602082019050919050565b60006020820190508181036000830152614dfc81614dc0565b9050919050565b7f416d6f756e74206d7573742062652067726561746572207468616e206d696e2060008201527f6465706f73697420616d6f756e74000000000000000000000000000000000000602082015250565b6000614e5f602e836142f8565b9150614e6a82614e03565b604082019050919050565b60006020820190508181036000830152614e8e81614e52565b9050919050565b7f537461727420626c6f636b206d7573742062652067726561746572207468616e60008201527f2063757272656e7420737461727420626c6f636b000000000000000000000000602082015250565b6000614ef16034836142f8565b9150614efc82614e95565b604082019050919050565b60006020820190508181036000830152614f2081614ee4565b9050919050565b7f455448207374616b696e672069732066756c6c00000000000000000000000000600082015250565b6000614f5d6013836142f8565b9150614f6882614f27565b602082019050919050565b60006020820190508181036000830152614f8c81614f50565b9050919050565b7f506f6f6c20776569676874206d7573742062652067726561746572207468616e60008201527f2030000000000000000000000000000000000000000000000000000000000000602082015250565b6000614fef6022836142f8565b9150614ffa82614f93565b604082019050919050565b6000602082019050818103600083015261501e81614fe2565b9050919050565b600081905092915050565b50565b6000615040600083615025565b915061504b82615030565b600082019050919050565b600061506182615033565b9150819050919050565b7f455448207472616e666572206661696c65640000000000000000000000000000600082015250565b60006150a16012836142f8565b91506150ac8261506b565b602082019050919050565b600060208201905081810360008301526150d081615094565b9050919050565b6000815190506150e681614492565b92915050565b60006020828403121561510257615101613ce9565b5b6000615110848285016150d7565b91505092915050565b7f455448207472616e666572206f7065726174696f6e20646964206e6f7420737560008201527f6363656564000000000000000000000000000000000000000000000000000000602082015250565b60006151756025836142f8565b915061518082615119565b604082019050919050565b600060208201905081810360008301526151a481615168565b9050919050565b60006040820190506151c0600083018561426f565b6151cd6020830184613db8565b9392505050565b7f4d6574614e6f64655065725354206f766572666c6f7700000000000000000000600082015250565b600061520a6016836142f8565b9150615215826151d4565b602082019050919050565b60006020820190508181036000830152615239816151fd565b9050919050565b7f546f74616c4d6574614e6f6465206f766572666c6f7700000000000000000000600082015250565b60006152766016836142f8565b915061528182615240565b602082019050919050565b600060208201905081810360008301526152a581615269565b9050919050565b7f4163634d6574614e6f64655065725354206f766572666c6f7700000000000000600082015250565b60006152e26019836142f8565b91506152ed826152ac565b602082019050919050565b60006020820190508181036000830152615311816152d5565b9050919050565b600060208201905061532d600083018461426f565b92915050565b60008151905061534281613de2565b92915050565b60006020828403121561535e5761535d613ce9565b5b600061536c84828501615333565b91505092915050565b60008151905061538481613eb6565b92915050565b6000602082840312156153a05761539f613ce9565b5b60006153ae84828501615375565b91505092915050565b60006060820190506153cc600083018661426f565b6153d9602083018561426f565b6153e66040830184613db8565b949350505050565b7f4163635354416d6f756e74206f766572666c6f77000000000000000000000000600082015250565b60006154246014836142f8565b915061542f826153ee565b602082019050919050565b6000602082019050818103600083015261545381615417565b9050919050565b7f50656e64696e67206f766572666c6f7700000000000000000000000000000000600082015250565b60006154906010836142f8565b915061549b8261545a565b602082019050919050565b600060208201905081810360008301526154bf81615483565b9050919050565b7f50656e64696e674d6574614e6f6465206f766572666c6f770000000000000000600082015250565b60006154fc6018836142f8565b9150615507826154c6565b602082019050919050565b6000602082019050818103600083015261552b816154ef565b9050919050565b7f55736572416d6f756e74206f766572666c6f7700000000000000000000000000600082015250565b60006155686013836142f8565b915061557382615532565b602082019050919050565b600060208201905081810360008301526155978161555b565b9050919050565b7f5374546f6b656e416d6f756e74206f766572666c6f7700000000000000000000600082015250565b60006155d46016836142f8565b91506155df8261559e565b602082019050919050565b60006020820190508181036000830152615603816155c7565b9050919050565b600060408201905061561f600083018561426f565b61562c6020830184613f0f565b9392505050565b600081519050919050565b600061564982615633565b6156538185615025565b9350615663818560208601614309565b80840191505092915050565b600061567b828461563e565b91508190509291505056fea2646970667358221220320a633de2f12e3fd7a4eca3b590414c15fec9fb8bf64845917bca7a03fe4aa864736f6c634300081c0033","opcodes":"PUSH1 0xA0 PUSH1 0x40 MSTORE ADDRESS PUSH20 0xFFFFFFFFFFFFFFFFFFFFFFFFFFFFFFFFFFFFFFFF AND PUSH1 0x80 SWAP1 PUSH20 0xFFFFFFFFFFFFFFFFFFFFFFFFFFFFFFFFFFFFFFFF AND DUP2 MSTORE POP CALLVALUE DUP1 ISZERO PUSH1 0x42 JUMPI PUSH1 0x0 DUP1 REVERT JUMPDEST POP PUSH1 0x80 MLOAD PUSH2 0x56BC PUSH2 0x6C PUSH1 0x0 CODECOPY PUSH1 0x0 DUP2 DUP2 PUSH2 0x30D7 ADD MSTORE DUP2 DUP2 PUSH2 0x312C ADD MSTORE PUSH2 0x330A ADD MSTORE PUSH2 0x56BC PUSH1 0x0 RETURN INVALID PUSH1 0x80 PUSH1 0x40 MSTORE PUSH1 0x4 CALLDATASIZE LT PUSH2 0x288 JUMPI PUSH1 0x0 CALLDATALOAD PUSH1 0xE0 SHR DUP1 PUSH4 0x8FF095F9 GT PUSH2 0x15A JUMPI DUP1 PUSH4 0xD22F1D80 GT PUSH2 0xC1 JUMPI DUP1 PUSH4 0xEA5C219D GT PUSH2 0x7A JUMPI DUP1 PUSH4 0xEA5C219D EQ PUSH2 0x97B JUMPI DUP1 PUSH4 0xF35E4A6E EQ PUSH2 0x9B8 JUMPI DUP1 PUSH4 0xF6326FB3 EQ PUSH2 0x9E1 JUMPI DUP1 PUSH4 0xF72C0D8B EQ PUSH2 0x9EB JUMPI DUP1 PUSH4 0xFAD07ECE EQ PUSH2 0xA16 JUMPI DUP1 PUSH4 0xFF423357 EQ PUSH2 0xA3F JUMPI PUSH2 0x288 JUMP JUMPDEST DUP1 PUSH4 0xD22F1D80 EQ PUSH2 0x895 JUMPI DUP1 PUSH4 0xD547741F EQ PUSH2 0x8C0 JUMPI DUP1 PUSH4 0xD7BC1769 EQ PUSH2 0x8E9 JUMPI DUP1 PUSH4 0xD86C0444 EQ PUSH2 0x912 JUMPI DUP1 PUSH4 0xDE065CAA EQ PUSH2 0x93B JUMPI DUP1 PUSH4 0xE2BBB158 EQ PUSH2 0x952 JUMPI PUSH2 0x288 JUMP JUMPDEST DUP1 PUSH4 0xAB5E124A GT PUSH2 0x113 JUMPI DUP1 PUSH4 0xAB5E124A EQ PUSH2 0x769 JUMPI DUP1 PUSH4 0xAC4AFA38 EQ PUSH2 0x794 JUMPI DUP1 PUSH4 0xAD3CB1CC EQ PUSH2 0x7D7 JUMPI DUP1 PUSH4 0xB9D02DF4 EQ PUSH2 0x802 JUMPI DUP1 PUSH4 0xBFC3EBBA EQ PUSH2 0x841 JUMPI DUP1 PUSH4 0xC713AA94 EQ PUSH2 0x86C JUMPI PUSH2 0x288 JUMP JUMPDEST DUP1 PUSH4 0x8FF095F9 EQ PUSH2 0x67F JUMPI DUP1 PUSH4 0x91D14854 EQ PUSH2 0x696 JUMPI DUP1 PUSH4 0x96C82E57 EQ PUSH2 0x6D3 JUMPI DUP1 PUSH4 0x9E2C8A5B EQ PUSH2 0x6FE JUMPI DUP1 PUSH4 0xA217FDDF EQ PUSH2 0x727 JUMPI DUP1 PUSH4 0xA25088C6 EQ PUSH2 0x752 JUMPI PUSH2 0x288 JUMP JUMPDEST DUP1 PUSH4 0x4EC81AF1 GT PUSH2 0x1FE JUMPI DUP1 PUSH4 0x61A9A03D GT PUSH2 0x1B7 JUMPI DUP1 PUSH4 0x61A9A03D EQ PUSH2 0x56F JUMPI DUP1 PUSH4 0x630B5BA1 EQ PUSH2 0x598 JUMPI DUP1 PUSH4 0x6325D5BC EQ PUSH2 0x5AF JUMPI DUP1 PUSH4 0x7276D925 EQ PUSH2 0x5EC JUMPI DUP1 PUSH4 0x75B238FC EQ PUSH2 0x617 JUMPI DUP1 PUSH4 0x8DBB1E3A EQ PUSH2 0x642 JUMPI PUSH2 0x288 JUMP JUMPDEST DUP1 PUSH4 0x4EC81AF1 EQ PUSH2 0x494 JUMPI DUP1 PUSH4 0x4F1EF286 EQ PUSH2 0x4BD JUMPI DUP1 PUSH4 0x52D1902D EQ PUSH2 0x4D9 JUMPI DUP1 PUSH4 0x5A4EC0CA EQ PUSH2 0x504 JUMPI DUP1 PUSH4 0x5BB6D007 EQ PUSH2 0x52D JUMPI DUP1 PUSH4 0x5C975ABB EQ PUSH2 0x544 JUMPI PUSH2 0x288 JUMP JUMPDEST DUP1 PUSH4 0x2E1A7D4D GT PUSH2 0x250 JUMPI DUP1 PUSH4 0x2E1A7D4D EQ PUSH2 0x39A JUMPI DUP1 PUSH4 0x2F2FF15D EQ PUSH2 0x3C3 JUMPI DUP1 PUSH4 0x2F3FFB9F EQ PUSH2 0x3EC JUMPI DUP1 PUSH4 0x36568ABE EQ PUSH2 0x417 JUMPI DUP1 PUSH4 0x379607F5 EQ PUSH2 0x440 JUMPI DUP1 PUSH4 0x48CD4CB1 EQ PUSH2 0x469 JUMPI PUSH2 0x288 JUMP JUMPDEST DUP1 PUSH4 0x1FFC9A7 EQ PUSH2 0x28D JUMPI DUP1 PUSH4 0x81E3EDA EQ PUSH2 0x2CA JUMPI DUP1 PUSH4 0x83C6323 EQ PUSH2 0x2F5 JUMPI DUP1 PUSH4 0x11548234 EQ PUSH2 0x320 JUMPI DUP1 PUSH4 0x248A9CA3 EQ PUSH2 0x35D JUMPI JUMPDEST PUSH1 0x0 DUP1 REVERT JUMPDEST CALLVALUE DUP1 ISZERO PUSH2 0x299 JUMPI PUSH1 0x0 DUP1 REVERT JUMPDEST POP PUSH2 0x2B4 PUSH1 0x4 DUP1 CALLDATASIZE SUB DUP2 ADD SWAP1 PUSH2 0x2AF SWAP2 SWAP1 PUSH2 0x3D4B JUMP JUMPDEST PUSH2 0xA7D JUMP JUMPDEST PUSH1 0x40 MLOAD PUSH2 0x2C1 SWAP2 SWAP1 PUSH2 0x3D93 JUMP JUMPDEST PUSH1 0x40 MLOAD DUP1 SWAP2 SUB SWAP1 RETURN JUMPDEST CALLVALUE DUP1 ISZERO PUSH2 0x2D6 JUMPI PUSH1 0x0 DUP1 REVERT JUMPDEST POP PUSH2 0x2DF PUSH2 0xAF7 JUMP JUMPDEST PUSH1 0x40 MLOAD PUSH2 0x2EC SWAP2 SWAP1 PUSH2 0x3DC7 JUMP JUMPDEST PUSH1 0x40 MLOAD DUP1 SWAP2 SUB SWAP1 RETURN JUMPDEST CALLVALUE DUP1 ISZERO PUSH2 0x301 JUMPI PUSH1 0x0 DUP1 REVERT JUMPDEST POP PUSH2 0x30A PUSH2 0xB03 JUMP JUMPDEST PUSH1 0x40 MLOAD PUSH2 0x317 SWAP2 SWAP1 PUSH2 0x3DC7 JUMP JUMPDEST PUSH1 0x40 MLOAD DUP1 SWAP2 SUB SWAP1 RETURN JUMPDEST CALLVALUE DUP1 ISZERO PUSH2 0x32C JUMPI PUSH1 0x0 DUP1 REVERT JUMPDEST POP PUSH2 0x347 PUSH1 0x4 DUP1 CALLDATASIZE SUB DUP2 ADD SWAP1 PUSH2 0x342 SWAP2 SWAP1 PUSH2 0x3E6C JUMP JUMPDEST PUSH2 0xB09 JUMP JUMPDEST PUSH1 0x40 MLOAD PUSH2 0x354 SWAP2 SWAP1 PUSH2 0x3DC7 JUMP JUMPDEST PUSH1 0x40 MLOAD DUP1 SWAP2 SUB SWAP1 RETURN JUMPDEST CALLVALUE DUP1 ISZERO PUSH2 0x369 JUMPI PUSH1 0x0 DUP1 REVERT JUMPDEST POP PUSH2 0x384 PUSH1 0x4 DUP1 CALLDATASIZE SUB DUP2 ADD SWAP1 PUSH2 0x37F SWAP2 SWAP1 PUSH2 0x3EE2 JUMP JUMPDEST PUSH2 0xBB0 JUMP JUMPDEST PUSH1 0x40 MLOAD PUSH2 0x391 SWAP2 SWAP1 PUSH2 0x3F1E JUMP JUMPDEST PUSH1 0x40 MLOAD DUP1 SWAP2 SUB SWAP1 RETURN JUMPDEST CALLVALUE DUP1 ISZERO PUSH2 0x3A6 JUMPI PUSH1 0x0 DUP1 REVERT JUMPDEST POP PUSH2 0x3C1 PUSH1 0x4 DUP1 CALLDATASIZE SUB DUP2 ADD SWAP1 PUSH2 0x3BC SWAP2 SWAP1 PUSH2 0x3F39 JUMP JUMPDEST PUSH2 0xBDE JUMP JUMPDEST STOP JUMPDEST CALLVALUE DUP1 ISZERO PUSH2 0x3CF JUMPI PUSH1 0x0 DUP1 REVERT JUMPDEST POP PUSH2 0x3EA PUSH1 0x4 DUP1 CALLDATASIZE SUB DUP2 ADD SWAP1 PUSH2 0x3E5 SWAP2 SWAP1 PUSH2 0x3F66 JUMP JUMPDEST PUSH2 0xF37 JUMP JUMPDEST STOP JUMPDEST CALLVALUE DUP1 ISZERO PUSH2 0x3F8 JUMPI PUSH1 0x0 DUP1 REVERT JUMPDEST POP PUSH2 0x401 PUSH2 0xF59 JUMP JUMPDEST PUSH1 0x40 MLOAD PUSH2 0x40E SWAP2 SWAP1 PUSH2 0x3D93 JUMP JUMPDEST PUSH1 0x40 MLOAD DUP1 SWAP2 SUB SWAP1 RETURN JUMPDEST CALLVALUE DUP1 ISZERO PUSH2 0x423 JUMPI PUSH1 0x0 DUP1 REVERT JUMPDEST POP PUSH2 0x43E PUSH1 0x4 DUP1 CALLDATASIZE SUB DUP2 ADD SWAP1 PUSH2 0x439 SWAP2 SWAP1 PUSH2 0x3F66 JUMP JUMPDEST PUSH2 0xF6C JUMP JUMPDEST STOP JUMPDEST CALLVALUE DUP1 ISZERO PUSH2 0x44C JUMPI PUSH1 0x0 DUP1 REVERT JUMPDEST POP PUSH2 0x467 PUSH1 0x4 DUP1 CALLDATASIZE SUB DUP2 ADD SWAP1 PUSH2 0x462 SWAP2 SWAP1 PUSH2 0x3F39 JUMP JUMPDEST PUSH2 0xFE7 JUMP JUMPDEST STOP JUMPDEST CALLVALUE DUP1 ISZERO PUSH2 0x475 JUMPI PUSH1 0x0 DUP1 REVERT JUMPDEST POP PUSH2 0x47E PUSH2 0x119E JUMP JUMPDEST PUSH1 0x40 MLOAD PUSH2 0x48B SWAP2 SWAP1 PUSH2 0x3DC7 JUMP JUMPDEST PUSH1 0x40 MLOAD DUP1 SWAP2 SUB SWAP1 RETURN JUMPDEST CALLVALUE DUP1 ISZERO PUSH2 0x4A0 JUMPI PUSH1 0x0 DUP1 REVERT JUMPDEST POP PUSH2 0x4BB PUSH1 0x4 DUP1 CALLDATASIZE SUB DUP2 ADD SWAP1 PUSH2 0x4B6 SWAP2 SWAP1 PUSH2 0x3FA6 JUMP JUMPDEST PUSH2 0x11A4 JUMP JUMPDEST STOP JUMPDEST PUSH2 0x4D7 PUSH1 0x4 DUP1 CALLDATASIZE SUB DUP2 ADD SWAP1 PUSH2 0x4D2 SWAP2 SWAP1 PUSH2 0x4153 JUMP JUMPDEST PUSH2 0x13B9 JUMP JUMPDEST STOP JUMPDEST CALLVALUE DUP1 ISZERO PUSH2 0x4E5 JUMPI PUSH1 0x0 DUP1 REVERT JUMPDEST POP PUSH2 0x4EE PUSH2 0x13D8 JUMP JUMPDEST PUSH1 0x40 MLOAD PUSH2 0x4FB SWAP2 SWAP1 PUSH2 0x3F1E JUMP JUMPDEST PUSH1 0x40 MLOAD DUP1 SWAP2 SUB SWAP1 RETURN JUMPDEST CALLVALUE DUP1 ISZERO PUSH2 0x510 JUMPI PUSH1 0x0 DUP1 REVERT JUMPDEST POP PUSH2 0x52B PUSH1 0x4 DUP1 CALLDATASIZE SUB DUP2 ADD SWAP1 PUSH2 0x526 SWAP2 SWAP1 PUSH2 0x3FA6 JUMP JUMPDEST PUSH2 0x140B JUMP JUMPDEST STOP JUMPDEST CALLVALUE DUP1 ISZERO PUSH2 0x539 JUMPI PUSH1 0x0 DUP1 REVERT JUMPDEST POP PUSH2 0x542 PUSH2 0x1659 JUMP JUMPDEST STOP JUMPDEST CALLVALUE DUP1 ISZERO PUSH2 0x550 JUMPI PUSH1 0x0 DUP1 REVERT JUMPDEST POP PUSH2 0x559 PUSH2 0x16F0 JUMP JUMPDEST PUSH1 0x40 MLOAD PUSH2 0x566 SWAP2 SWAP1 PUSH2 0x3D93 JUMP JUMPDEST PUSH1 0x40 MLOAD DUP1 SWAP2 SUB SWAP1 RETURN JUMPDEST CALLVALUE DUP1 ISZERO PUSH2 0x57B JUMPI PUSH1 0x0 DUP1 REVERT JUMPDEST POP PUSH2 0x596 PUSH1 0x4 DUP1 CALLDATASIZE SUB DUP2 ADD SWAP1 PUSH2 0x591 SWAP2 SWAP1 PUSH2 0x41AF JUMP JUMPDEST PUSH2 0x1715 JUMP JUMPDEST STOP JUMPDEST CALLVALUE DUP1 ISZERO PUSH2 0x5A4 JUMPI PUSH1 0x0 DUP1 REVERT JUMPDEST POP PUSH2 0x5AD PUSH2 0x1784 JUMP JUMPDEST STOP JUMPDEST CALLVALUE DUP1 ISZERO PUSH2 0x5BB JUMPI PUSH1 0x0 DUP1 REVERT JUMPDEST POP PUSH2 0x5D6 PUSH1 0x4 DUP1 CALLDATASIZE SUB DUP2 ADD SWAP1 PUSH2 0x5D1 SWAP2 SWAP1 PUSH2 0x41DC JUMP JUMPDEST PUSH2 0x17B2 JUMP JUMPDEST PUSH1 0x40 MLOAD PUSH2 0x5E3 SWAP2 SWAP1 PUSH2 0x3DC7 JUMP JUMPDEST PUSH1 0x40 MLOAD DUP1 SWAP2 SUB SWAP1 RETURN JUMPDEST CALLVALUE DUP1 ISZERO PUSH2 0x5F8 JUMPI PUSH1 0x0 DUP1 REVERT JUMPDEST POP PUSH2 0x601 PUSH2 0x1944 JUMP JUMPDEST PUSH1 0x40 MLOAD PUSH2 0x60E SWAP2 SWAP1 PUSH2 0x3DC7 JUMP JUMPDEST PUSH1 0x40 MLOAD DUP1 SWAP2 SUB SWAP1 RETURN JUMPDEST CALLVALUE DUP1 ISZERO PUSH2 0x623 JUMPI PUSH1 0x0 DUP1 REVERT JUMPDEST POP PUSH2 0x62C PUSH2 0x194A JUMP JUMPDEST PUSH1 0x40 MLOAD PUSH2 0x639 SWAP2 SWAP1 PUSH2 0x3F1E JUMP JUMPDEST PUSH1 0x40 MLOAD DUP1 SWAP2 SUB SWAP1 RETURN JUMPDEST CALLVALUE DUP1 ISZERO PUSH2 0x64E JUMPI PUSH1 0x0 DUP1 REVERT JUMPDEST POP PUSH2 0x669 PUSH1 0x4 DUP1 CALLDATASIZE SUB DUP2 ADD SWAP1 PUSH2 0x664 SWAP2 SWAP1 PUSH2 0x422F JUMP JUMPDEST PUSH2 0x196E JUMP JUMPDEST PUSH1 0x40 MLOAD PUSH2 0x676 SWAP2 SWAP1 PUSH2 0x3DC7 JUMP JUMPDEST PUSH1 0x40 MLOAD DUP1 SWAP2 SUB SWAP1 RETURN JUMPDEST CALLVALUE DUP1 ISZERO PUSH2 0x68B JUMPI PUSH1 0x0 DUP1 REVERT JUMPDEST POP PUSH2 0x694 PUSH2 0x1A86 JUMP JUMPDEST STOP JUMPDEST CALLVALUE DUP1 ISZERO PUSH2 0x6A2 JUMPI PUSH1 0x0 DUP1 REVERT JUMPDEST POP PUSH2 0x6BD PUSH1 0x4 DUP1 CALLDATASIZE SUB DUP2 ADD SWAP1 PUSH2 0x6B8 SWAP2 SWAP1 PUSH2 0x3F66 JUMP JUMPDEST PUSH2 0x1B1E JUMP JUMPDEST PUSH1 0x40 MLOAD PUSH2 0x6CA SWAP2 SWAP1 PUSH2 0x3D93 JUMP JUMPDEST PUSH1 0x40 MLOAD DUP1 SWAP2 SUB SWAP1 RETURN JUMPDEST CALLVALUE DUP1 ISZERO PUSH2 0x6DF JUMPI PUSH1 0x0 DUP1 REVERT JUMPDEST POP PUSH2 0x6E8 PUSH2 0x1B97 JUMP JUMPDEST PUSH1 0x40 MLOAD PUSH2 0x6F5 SWAP2 SWAP1 PUSH2 0x3DC7 JUMP JUMPDEST PUSH1 0x40 MLOAD DUP1 SWAP2 SUB SWAP1 RETURN JUMPDEST CALLVALUE DUP1 ISZERO PUSH2 0x70A JUMPI PUSH1 0x0 DUP1 REVERT JUMPDEST POP PUSH2 0x725 PUSH1 0x4 DUP1 CALLDATASIZE SUB DUP2 ADD SWAP1 PUSH2 0x720 SWAP2 SWAP1 PUSH2 0x422F JUMP JUMPDEST PUSH2 0x1B9D JUMP JUMPDEST STOP JUMPDEST CALLVALUE DUP1 ISZERO PUSH2 0x733 JUMPI PUSH1 0x0 DUP1 REVERT JUMPDEST POP PUSH2 0x73C PUSH2 0x1DD9 JUMP JUMPDEST PUSH1 0x40 MLOAD PUSH2 0x749 SWAP2 SWAP1 PUSH2 0x3F1E JUMP JUMPDEST PUSH1 0x40 MLOAD DUP1 SWAP2 SUB SWAP1 RETURN JUMPDEST CALLVALUE DUP1 ISZERO PUSH2 0x75E JUMPI PUSH1 0x0 DUP1 REVERT JUMPDEST POP PUSH2 0x767 PUSH2 0x1DE0 JUMP JUMPDEST STOP JUMPDEST CALLVALUE DUP1 ISZERO PUSH2 0x775 JUMPI PUSH1 0x0 DUP1 REVERT JUMPDEST POP PUSH2 0x77E PUSH2 0x1E78 JUMP JUMPDEST PUSH1 0x40 MLOAD PUSH2 0x78B SWAP2 SWAP1 PUSH2 0x3D93 JUMP JUMPDEST PUSH1 0x40 MLOAD DUP1 SWAP2 SUB SWAP1 RETURN JUMPDEST CALLVALUE DUP1 ISZERO PUSH2 0x7A0 JUMPI PUSH1 0x0 DUP1 REVERT JUMPDEST POP PUSH2 0x7BB PUSH1 0x4 DUP1 CALLDATASIZE SUB DUP2 ADD SWAP1 PUSH2 0x7B6 SWAP2 SWAP1 PUSH2 0x3F39 JUMP JUMPDEST PUSH2 0x1E8B JUMP JUMPDEST PUSH1 0x40 MLOAD PUSH2 0x7CE SWAP8 SWAP7 SWAP6 SWAP5 SWAP4 SWAP3 SWAP2 SWAP1 PUSH2 0x427E JUMP JUMPDEST PUSH1 0x40 MLOAD DUP1 SWAP2 SUB SWAP1 RETURN JUMPDEST CALLVALUE DUP1 ISZERO PUSH2 0x7E3 JUMPI PUSH1 0x0 DUP1 REVERT JUMPDEST POP PUSH2 0x7EC PUSH2 0x1EFD JUMP JUMPDEST PUSH1 0x40 MLOAD PUSH2 0x7F9 SWAP2 SWAP1 PUSH2 0x436C JUMP JUMPDEST PUSH1 0x40 MLOAD DUP1 SWAP2 SUB SWAP1 RETURN JUMPDEST CALLVALUE DUP1 ISZERO PUSH2 0x80E JUMPI PUSH1 0x0 DUP1 REVERT JUMPDEST POP PUSH2 0x829 PUSH1 0x4 DUP1 CALLDATASIZE SUB DUP2 ADD SWAP1 PUSH2 0x824 SWAP2 SWAP1 PUSH2 0x3E6C JUMP JUMPDEST PUSH2 0x1F36 JUMP JUMPDEST PUSH1 0x40 MLOAD PUSH2 0x838 SWAP4 SWAP3 SWAP2 SWAP1 PUSH2 0x438E JUMP JUMPDEST PUSH1 0x40 MLOAD DUP1 SWAP2 SUB SWAP1 RETURN JUMPDEST CALLVALUE DUP1 ISZERO PUSH2 0x84D JUMPI PUSH1 0x0 DUP1 REVERT JUMPDEST POP PUSH2 0x856 PUSH2 0x1F6D JUMP JUMPDEST PUSH1 0x40 MLOAD PUSH2 0x863 SWAP2 SWAP1 PUSH2 0x3DC7 JUMP JUMPDEST PUSH1 0x40 MLOAD DUP1 SWAP2 SUB SWAP1 RETURN JUMPDEST CALLVALUE DUP1 ISZERO PUSH2 0x878 JUMPI PUSH1 0x0 DUP1 REVERT JUMPDEST POP PUSH2 0x893 PUSH1 0x4 DUP1 CALLDATASIZE SUB DUP2 ADD SWAP1 PUSH2 0x88E SWAP2 SWAP1 PUSH2 0x3F39 JUMP JUMPDEST PUSH2 0x1F72 JUMP JUMPDEST STOP JUMPDEST CALLVALUE DUP1 ISZERO PUSH2 0x8A1 JUMPI PUSH1 0x0 DUP1 REVERT JUMPDEST POP PUSH2 0x8AA PUSH2 0x1FEC JUMP JUMPDEST PUSH1 0x40 MLOAD PUSH2 0x8B7 SWAP2 SWAP1 PUSH2 0x4424 JUMP JUMPDEST PUSH1 0x40 MLOAD DUP1 SWAP2 SUB SWAP1 RETURN JUMPDEST CALLVALUE DUP1 ISZERO PUSH2 0x8CC JUMPI PUSH1 0x0 DUP1 REVERT JUMPDEST POP PUSH2 0x8E7 PUSH1 0x4 DUP1 CALLDATASIZE SUB DUP2 ADD SWAP1 PUSH2 0x8E2 SWAP2 SWAP1 PUSH2 0x3F66 JUMP JUMPDEST PUSH2 0x2012 JUMP JUMPDEST STOP JUMPDEST CALLVALUE DUP1 ISZERO PUSH2 0x8F5 JUMPI PUSH1 0x0 DUP1 REVERT JUMPDEST POP PUSH2 0x910 PUSH1 0x4 DUP1 CALLDATASIZE SUB DUP2 ADD SWAP1 PUSH2 0x90B SWAP2 SWAP1 PUSH2 0x3F39 JUMP JUMPDEST PUSH2 0x2034 JUMP JUMPDEST STOP JUMPDEST CALLVALUE DUP1 ISZERO PUSH2 0x91E JUMPI PUSH1 0x0 DUP1 REVERT JUMPDEST POP PUSH2 0x939 PUSH1 0x4 DUP1 CALLDATASIZE SUB DUP2 ADD SWAP1 PUSH2 0x934 SWAP2 SWAP1 PUSH2 0x443F JUMP JUMPDEST PUSH2 0x2069 JUMP JUMPDEST STOP JUMPDEST CALLVALUE DUP1 ISZERO PUSH2 0x947 JUMPI PUSH1 0x0 DUP1 REVERT JUMPDEST POP PUSH2 0x950 PUSH2 0x2136 JUMP JUMPDEST STOP JUMPDEST CALLVALUE DUP1 ISZERO PUSH2 0x95E JUMPI PUSH1 0x0 DUP1 REVERT JUMPDEST POP PUSH2 0x979 PUSH1 0x4 DUP1 CALLDATASIZE SUB DUP2 ADD SWAP1 PUSH2 0x974 SWAP2 SWAP1 PUSH2 0x422F JUMP JUMPDEST PUSH2 0x21CD JUMP JUMPDEST STOP JUMPDEST CALLVALUE DUP1 ISZERO PUSH2 0x987 JUMPI PUSH1 0x0 DUP1 REVERT JUMPDEST POP PUSH2 0x9A2 PUSH1 0x4 DUP1 CALLDATASIZE SUB DUP2 ADD SWAP1 PUSH2 0x99D SWAP2 SWAP1 PUSH2 0x3E6C JUMP JUMPDEST PUSH2 0x232E JUMP JUMPDEST PUSH1 0x40 MLOAD PUSH2 0x9AF SWAP2 SWAP1 PUSH2 0x3DC7 JUMP JUMPDEST PUSH1 0x40 MLOAD DUP1 SWAP2 SUB SWAP1 RETURN JUMPDEST CALLVALUE DUP1 ISZERO PUSH2 0x9C4 JUMPI PUSH1 0x0 DUP1 REVERT JUMPDEST POP PUSH2 0x9DF PUSH1 0x4 DUP1 CALLDATASIZE SUB DUP2 ADD SWAP1 PUSH2 0x9DA SWAP2 SWAP1 PUSH2 0x3F39 JUMP JUMPDEST PUSH2 0x238C JUMP JUMPDEST STOP JUMPDEST PUSH2 0x9E9 PUSH2 0x2406 JUMP JUMPDEST STOP JUMPDEST CALLVALUE DUP1 ISZERO PUSH2 0x9F7 JUMPI PUSH1 0x0 DUP1 REVERT JUMPDEST POP PUSH2 0xA00 PUSH2 0x251A JUMP JUMPDEST PUSH1 0x40 MLOAD PUSH2 0xA0D SWAP2 SWAP1 PUSH2 0x3F1E JUMP JUMPDEST PUSH1 0x40 MLOAD DUP1 SWAP2 SUB SWAP1 RETURN JUMPDEST CALLVALUE DUP1 ISZERO PUSH2 0xA22 JUMPI PUSH1 0x0 DUP1 REVERT JUMPDEST POP PUSH2 0xA3D PUSH1 0x4 DUP1 CALLDATASIZE SUB DUP2 ADD SWAP1 PUSH2 0xA38 SWAP2 SWAP1 PUSH2 0x44BE JUMP JUMPDEST PUSH2 0x253E JUMP JUMPDEST STOP JUMPDEST CALLVALUE DUP1 ISZERO PUSH2 0xA4B JUMPI PUSH1 0x0 DUP1 REVERT JUMPDEST POP PUSH2 0xA66 PUSH1 0x4 DUP1 CALLDATASIZE SUB DUP2 ADD SWAP1 PUSH2 0xA61 SWAP2 SWAP1 PUSH2 0x3E6C JUMP JUMPDEST PUSH2 0x2677 JUMP JUMPDEST PUSH1 0x40 MLOAD PUSH2 0xA74 SWAP3 SWAP2 SWAP1 PUSH2 0x4511 JUMP JUMPDEST PUSH1 0x40 MLOAD DUP1 SWAP2 SUB SWAP1 RETURN JUMPDEST PUSH1 0x0 PUSH32 0x7965DB0B00000000000000000000000000000000000000000000000000000000 PUSH28 0xFFFFFFFFFFFFFFFFFFFFFFFFFFFFFFFFFFFFFFFFFFFFFFFFFFFFFFFF NOT AND DUP3 PUSH28 0xFFFFFFFFFFFFFFFFFFFFFFFFFFFFFFFFFFFFFFFFFFFFFFFFFFFFFFFF NOT AND EQ DUP1 PUSH2 0xAF0 JUMPI POP PUSH2 0xAEF DUP3 PUSH2 0x27D9 JUMP JUMPDEST JUMPDEST SWAP1 POP SWAP2 SWAP1 POP JUMP JUMPDEST PUSH1 0x0 DUP1 DUP1 SLOAD SWAP1 POP SWAP1 POP SWAP1 JUMP JUMPDEST PUSH1 0x2 SLOAD DUP2 JUMP JUMPDEST PUSH1 0x0 DUP3 PUSH1 0x0 DUP1 SLOAD SWAP1 POP DUP2 LT PUSH2 0xB53 JUMPI PUSH1 0x40 MLOAD PUSH32 0x8C379A000000000000000000000000000000000000000000000000000000000 DUP2 MSTORE PUSH1 0x4 ADD PUSH2 0xB4A SWAP1 PUSH2 0x4586 JUMP JUMPDEST PUSH1 0x40 MLOAD DUP1 SWAP2 SUB SWAP1 REVERT JUMPDEST PUSH1 0x7 PUSH1 0x0 DUP6 DUP2 MSTORE PUSH1 0x20 ADD SWAP1 DUP2 MSTORE PUSH1 0x20 ADD PUSH1 0x0 KECCAK256 PUSH1 0x0 DUP5 PUSH20 0xFFFFFFFFFFFFFFFFFFFFFFFFFFFFFFFFFFFFFFFF AND PUSH20 0xFFFFFFFFFFFFFFFFFFFFFFFFFFFFFFFFFFFFFFFF AND DUP2 MSTORE PUSH1 0x20 ADD SWAP1 DUP2 MSTORE PUSH1 0x20 ADD PUSH1 0x0 KECCAK256 PUSH1 0x0 ADD SLOAD SWAP2 POP POP SWAP3 SWAP2 POP POP JUMP JUMPDEST PUSH1 0x0 DUP1 PUSH2 0xBBB PUSH2 0x2843 JUMP JUMPDEST SWAP1 POP DUP1 PUSH1 0x0 ADD PUSH1 0x0 DUP5 DUP2 MSTORE PUSH1 0x20 ADD SWAP1 DUP2 MSTORE PUSH1 0x20 ADD PUSH1 0x0 KECCAK256 PUSH1 0x1 ADD SLOAD SWAP2 POP POP SWAP2 SWAP1 POP JUMP JUMPDEST DUP1 PUSH1 0x0 DUP1 SLOAD SWAP1 POP DUP2 LT PUSH2 0xC26 JUMPI PUSH1 0x40 MLOAD PUSH32 0x8C379A000000000000000000000000000000000000000000000000000000000 DUP2 MSTORE PUSH1 0x4 ADD PUSH2 0xC1D SWAP1 PUSH2 0x4586 JUMP JUMPDEST PUSH1 0x40 MLOAD DUP1 SWAP2 SUB SWAP1 REVERT JUMPDEST PUSH1 0x4 PUSH1 0x0 SWAP1 SLOAD SWAP1 PUSH2 0x100 EXP SWAP1 DIV PUSH1 0xFF AND ISZERO PUSH2 0xC76 JUMPI PUSH1 0x40 MLOAD PUSH32 0x8C379A000000000000000000000000000000000000000000000000000000000 DUP2 MSTORE PUSH1 0x4 ADD PUSH2 0xC6D SWAP1 PUSH2 0x45F2 JUMP JUMPDEST PUSH1 0x40 MLOAD DUP1 SWAP2 SUB SWAP1 REVERT JUMPDEST PUSH1 0x0 DUP1 DUP4 DUP2 SLOAD DUP2 LT PUSH2 0xC8B JUMPI PUSH2 0xC8A PUSH2 0x4612 JUMP JUMPDEST JUMPDEST SWAP1 PUSH1 0x0 MSTORE PUSH1 0x20 PUSH1 0x0 KECCAK256 SWAP1 PUSH1 0x7 MUL ADD SWAP1 POP PUSH1 0x0 PUSH1 0x7 PUSH1 0x0 DUP6 DUP2 MSTORE PUSH1 0x20 ADD SWAP1 DUP2 MSTORE PUSH1 0x20 ADD PUSH1 0x0 KECCAK256 PUSH1 0x0 CALLER PUSH20 0xFFFFFFFFFFFFFFFFFFFFFFFFFFFFFFFFFFFFFFFF AND PUSH20 0xFFFFFFFFFFFFFFFFFFFFFFFFFFFFFFFFFFFFFFFF AND DUP2 MSTORE PUSH1 0x20 ADD SWAP1 DUP2 MSTORE PUSH1 0x20 ADD PUSH1 0x0 KECCAK256 SWAP1 POP PUSH1 0x0 DUP1 PUSH1 0x0 JUMPDEST DUP4 PUSH1 0x3 ADD DUP1 SLOAD SWAP1 POP DUP2 LT ISZERO PUSH2 0xD82 JUMPI NUMBER DUP5 PUSH1 0x3 ADD DUP3 DUP2 SLOAD DUP2 LT PUSH2 0xD1B JUMPI PUSH2 0xD1A PUSH2 0x4612 JUMP JUMPDEST JUMPDEST SWAP1 PUSH1 0x0 MSTORE PUSH1 0x20 PUSH1 0x0 KECCAK256 SWAP1 PUSH1 0x2 MUL ADD PUSH1 0x1 ADD SLOAD GT PUSH2 0xD82 JUMPI DUP4 PUSH1 0x3 ADD DUP2 DUP2 SLOAD DUP2 LT PUSH2 0xD48 JUMPI PUSH2 0xD47 PUSH2 0x4612 JUMP JUMPDEST JUMPDEST SWAP1 PUSH1 0x0 MSTORE PUSH1 0x20 PUSH1 0x0 KECCAK256 SWAP1 PUSH1 0x2 MUL ADD PUSH1 0x0 ADD SLOAD DUP4 PUSH2 0xD65 SWAP2 SWAP1 PUSH2 0x4670 JUMP JUMPDEST SWAP3 POP DUP2 DUP1 PUSH2 0xD72 SWAP1 PUSH2 0x46A4 JUMP JUMPDEST SWAP3 POP POP DUP1 DUP1 PUSH1 0x1 ADD SWAP2 POP POP PUSH2 0xCF5 JUMP JUMPDEST POP PUSH1 0x0 JUMPDEST DUP2 DUP5 PUSH1 0x3 ADD DUP1 SLOAD SWAP1 POP PUSH2 0xD99 SWAP2 SWAP1 PUSH2 0x46EC JUMP JUMPDEST DUP2 LT ISZERO PUSH2 0xE17 JUMPI DUP4 PUSH1 0x3 ADD DUP3 DUP3 PUSH2 0xDB0 SWAP2 SWAP1 PUSH2 0x4670 JUMP JUMPDEST DUP2 SLOAD DUP2 LT PUSH2 0xDC1 JUMPI PUSH2 0xDC0 PUSH2 0x4612 JUMP JUMPDEST JUMPDEST SWAP1 PUSH1 0x0 MSTORE PUSH1 0x20 PUSH1 0x0 KECCAK256 SWAP1 PUSH1 0x2 MUL ADD DUP5 PUSH1 0x3 ADD DUP3 DUP2 SLOAD DUP2 LT PUSH2 0xDE5 JUMPI PUSH2 0xDE4 PUSH2 0x4612 JUMP JUMPDEST JUMPDEST SWAP1 PUSH1 0x0 MSTORE PUSH1 0x20 PUSH1 0x0 KECCAK256 SWAP1 PUSH1 0x2 MUL ADD PUSH1 0x0 DUP3 ADD SLOAD DUP2 PUSH1 0x0 ADD SSTORE PUSH1 0x1 DUP3 ADD SLOAD DUP2 PUSH1 0x1 ADD SSTORE SWAP1 POP POP DUP1 DUP1 PUSH1 0x1 ADD SWAP2 POP POP PUSH2 0xD86 JUMP JUMPDEST POP PUSH1 0x0 JUMPDEST DUP2 DUP2 LT ISZERO PUSH2 0xE6D JUMPI DUP4 PUSH1 0x3 ADD DUP1 SLOAD DUP1 PUSH2 0xE37 JUMPI PUSH2 0xE36 PUSH2 0x4720 JUMP JUMPDEST JUMPDEST PUSH1 0x1 SWAP1 SUB DUP2 DUP2 SWAP1 PUSH1 0x0 MSTORE PUSH1 0x20 PUSH1 0x0 KECCAK256 SWAP1 PUSH1 0x2 MUL ADD PUSH1 0x0 DUP1 DUP3 ADD PUSH1 0x0 SWAP1 SSTORE PUSH1 0x1 DUP3 ADD PUSH1 0x0 SWAP1 SSTORE POP POP SWAP1 SSTORE DUP1 DUP1 PUSH1 0x1 ADD SWAP2 POP POP PUSH2 0xE1B JUMP JUMPDEST POP PUSH1 0x0 DUP3 GT ISZERO PUSH2 0xF2F JUMPI PUSH1 0x0 PUSH20 0xFFFFFFFFFFFFFFFFFFFFFFFFFFFFFFFFFFFFFFFF AND DUP5 PUSH1 0x0 ADD PUSH1 0x0 SWAP1 SLOAD SWAP1 PUSH2 0x100 EXP SWAP1 DIV PUSH20 0xFFFFFFFFFFFFFFFFFFFFFFFFFFFFFFFFFFFFFFFF AND PUSH20 0xFFFFFFFFFFFFFFFFFFFFFFFFFFFFFFFFFFFFFFFF AND SUB PUSH2 0xEDE JUMPI PUSH2 0xED9 CALLER DUP4 PUSH2 0x286B JUMP JUMPDEST PUSH2 0xF2E JUMP JUMPDEST PUSH2 0xF2D CALLER DUP4 DUP7 PUSH1 0x0 ADD PUSH1 0x0 SWAP1 SLOAD SWAP1 PUSH2 0x100 EXP SWAP1 DIV PUSH20 0xFFFFFFFFFFFFFFFFFFFFFFFFFFFFFFFFFFFFFFFF AND PUSH20 0xFFFFFFFFFFFFFFFFFFFFFFFFFFFFFFFFFFFFFFFF AND PUSH2 0x297D SWAP1 SWAP3 SWAP2 SWAP1 PUSH4 0xFFFFFFFF AND JUMP JUMPDEST JUMPDEST JUMPDEST POP POP POP POP POP POP JUMP JUMPDEST PUSH2 0xF40 DUP3 PUSH2 0xBB0 JUMP JUMPDEST PUSH2 0xF49 DUP2 PUSH2 0x29FC JUMP JUMPDEST PUSH2 0xF53 DUP4 DUP4 PUSH2 0x2A10 JUMP JUMPDEST POP POP POP POP JUMP JUMPDEST PUSH1 0x4 PUSH1 0x0 SWAP1 SLOAD SWAP1 PUSH2 0x100 EXP SWAP1 DIV PUSH1 0xFF AND DUP2 JUMP JUMPDEST PUSH2 0xF74 PUSH2 0x2B11 JUMP JUMPDEST PUSH20 0xFFFFFFFFFFFFFFFFFFFFFFFFFFFFFFFFFFFFFFFF AND DUP2 PUSH20 0xFFFFFFFFFFFFFFFFFFFFFFFFFFFFFFFFFFFFFFFF AND EQ PUSH2 0xFD8 JUMPI PUSH1 0x40 MLOAD PUSH32 0x6697B23200000000000000000000000000000000000000000000000000000000 DUP2 MSTORE PUSH1 0x4 ADD PUSH1 0x40 MLOAD DUP1 SWAP2 SUB SWAP1 REVERT JUMPDEST PUSH2 0xFE2 DUP3 DUP3 PUSH2 0x2B19 JUMP JUMPDEST POP POP POP JUMP JUMPDEST DUP1 PUSH1 0x0 DUP1 SLOAD SWAP1 POP DUP2 LT PUSH2 0x102F JUMPI PUSH1 0x40 MLOAD PUSH32 0x8C379A000000000000000000000000000000000000000000000000000000000 DUP2 MSTORE PUSH1 0x4 ADD PUSH2 0x1026 SWAP1 PUSH2 0x4586 JUMP JUMPDEST PUSH1 0x40 MLOAD DUP1 SWAP2 SUB SWAP1 REVERT JUMPDEST PUSH1 0x4 PUSH1 0x1 SWAP1 SLOAD SWAP1 PUSH2 0x100 EXP SWAP1 DIV PUSH1 0xFF AND ISZERO PUSH2 0x107F JUMPI PUSH1 0x40 MLOAD PUSH32 0x8C379A000000000000000000000000000000000000000000000000000000000 DUP2 MSTORE PUSH1 0x4 ADD PUSH2 0x1076 SWAP1 PUSH2 0x479B JUMP JUMPDEST PUSH1 0x40 MLOAD DUP1 SWAP2 SUB SWAP1 REVERT JUMPDEST PUSH1 0x0 DUP1 DUP4 DUP2 SLOAD DUP2 LT PUSH2 0x1094 JUMPI PUSH2 0x1093 PUSH2 0x4612 JUMP JUMPDEST JUMPDEST SWAP1 PUSH1 0x0 MSTORE PUSH1 0x20 PUSH1 0x0 KECCAK256 SWAP1 PUSH1 0x7 MUL ADD SWAP1 POP PUSH1 0x0 PUSH1 0x7 PUSH1 0x0 DUP6 DUP2 MSTORE PUSH1 0x20 ADD SWAP1 DUP2 MSTORE PUSH1 0x20 ADD PUSH1 0x0 KECCAK256 PUSH1 0x0 CALLER PUSH20 0xFFFFFFFFFFFFFFFFFFFFFFFFFFFFFFFFFFFFFFFF AND PUSH20 0xFFFFFFFFFFFFFFFFFFFFFFFFFFFFFFFFFFFFFFFF AND DUP2 MSTORE PUSH1 0x20 ADD SWAP1 DUP2 MSTORE PUSH1 0x20 ADD PUSH1 0x0 KECCAK256 SWAP1 POP PUSH2 0x1101 DUP5 PUSH2 0x2C1B JUMP JUMPDEST PUSH1 0x0 DUP2 PUSH1 0x2 ADD SLOAD DUP3 PUSH1 0x1 ADD SLOAD PUSH8 0xDE0B6B3A7640000 DUP6 PUSH1 0x4 ADD SLOAD DUP6 PUSH1 0x0 ADD SLOAD PUSH2 0x112A SWAP2 SWAP1 PUSH2 0x47BB JUMP JUMPDEST PUSH2 0x1134 SWAP2 SWAP1 PUSH2 0x482C JUMP JUMPDEST PUSH2 0x113E SWAP2 SWAP1 PUSH2 0x46EC JUMP JUMPDEST PUSH2 0x1148 SWAP2 SWAP1 PUSH2 0x4670 JUMP JUMPDEST SWAP1 POP PUSH1 0x0 DUP2 GT ISZERO PUSH2 0x1168 JUMPI PUSH1 0x0 DUP3 PUSH1 0x2 ADD DUP2 SWAP1 SSTORE POP PUSH2 0x1167 CALLER DUP3 PUSH2 0x2EAE JUMP JUMPDEST JUMPDEST PUSH8 0xDE0B6B3A7640000 DUP4 PUSH1 0x4 ADD SLOAD DUP4 PUSH1 0x0 ADD SLOAD PUSH2 0x1185 SWAP2 SWAP1 PUSH2 0x47BB JUMP JUMPDEST PUSH2 0x118F SWAP2 SWAP1 PUSH2 0x482C JUMP JUMPDEST DUP3 PUSH1 0x1 ADD DUP2 SWAP1 SSTORE POP POP POP POP POP POP JUMP JUMPDEST PUSH1 0x1 SLOAD DUP2 JUMP JUMPDEST PUSH1 0x0 PUSH2 0x11AE PUSH2 0x30A3 JUMP JUMPDEST SWAP1 POP PUSH1 0x0 DUP2 PUSH1 0x0 ADD PUSH1 0x8 SWAP1 SLOAD SWAP1 PUSH2 0x100 EXP SWAP1 DIV PUSH1 0xFF AND ISZERO SWAP1 POP PUSH1 0x0 DUP3 PUSH1 0x0 ADD PUSH1 0x0 SWAP1 SLOAD SWAP1 PUSH2 0x100 EXP SWAP1 DIV PUSH8 0xFFFFFFFFFFFFFFFF AND SWAP1 POP PUSH1 0x0 DUP1 DUP3 PUSH8 0xFFFFFFFFFFFFFFFF AND EQ DUP1 ISZERO PUSH2 0x11FC JUMPI POP DUP3 JUMPDEST SWAP1 POP PUSH1 0x0 PUSH1 0x1 DUP4 PUSH8 0xFFFFFFFFFFFFFFFF AND EQ DUP1 ISZERO PUSH2 0x1231 JUMPI POP PUSH1 0x0 ADDRESS PUSH20 0xFFFFFFFFFFFFFFFFFFFFFFFFFFFFFFFFFFFFFFFF AND EXTCODESIZE EQ JUMPDEST SWAP1 POP DUP2 ISZERO DUP1 ISZERO PUSH2 0x123F JUMPI POP DUP1 ISZERO JUMPDEST ISZERO PUSH2 0x1276 JUMPI PUSH1 0x40 MLOAD PUSH32 0xF92EE8A900000000000000000000000000000000000000000000000000000000 DUP2 MSTORE PUSH1 0x4 ADD PUSH1 0x40 MLOAD DUP1 SWAP2 SUB SWAP1 REVERT JUMPDEST PUSH1 0x1 DUP6 PUSH1 0x0 ADD PUSH1 0x0 PUSH2 0x100 EXP DUP2 SLOAD DUP2 PUSH8 0xFFFFFFFFFFFFFFFF MUL NOT AND SWAP1 DUP4 PUSH8 0xFFFFFFFFFFFFFFFF AND MUL OR SWAP1 SSTORE POP DUP4 ISZERO PUSH2 0x12C6 JUMPI PUSH1 0x1 DUP6 PUSH1 0x0 ADD PUSH1 0x8 PUSH2 0x100 EXP DUP2 SLOAD DUP2 PUSH1 0xFF MUL NOT AND SWAP1 DUP4 ISZERO ISZERO MUL OR SWAP1 SSTORE POP JUMPDEST PUSH2 0x12CE PUSH2 0x30B7 JUMP JUMPDEST PUSH2 0x12D6 PUSH2 0x30C1 JUMP JUMPDEST PUSH2 0x12DE PUSH2 0x30CB JUMP JUMPDEST PUSH2 0x1308 PUSH32 0xA49807205CE4D355092EF5A8A18F56E8913CF4A201FBE287825B095693C21775 CALLER PUSH2 0x2A10 JUMP JUMPDEST POP PUSH2 0x1333 PUSH32 0x189AB7A9244DF0848122154315AF71FE140F3DB0FE014031783B0946B8C9D2E3 CALLER PUSH2 0x2A10 JUMP JUMPDEST POP PUSH2 0x133D DUP10 PUSH2 0x1715 JUMP JUMPDEST DUP8 PUSH1 0x1 DUP2 SWAP1 SSTORE POP DUP7 PUSH1 0x2 DUP2 SWAP1 SSTORE POP DUP6 PUSH1 0x3 DUP2 SWAP1 SSTORE POP DUP4 ISZERO PUSH2 0x13AE JUMPI PUSH1 0x0 DUP6 PUSH1 0x0 ADD PUSH1 0x8 PUSH2 0x100 EXP DUP2 SLOAD DUP2 PUSH1 0xFF MUL NOT AND SWAP1 DUP4 ISZERO ISZERO MUL OR SWAP1 SSTORE POP PUSH32 0xC7F505B2F371AE2175EE4913F4499E1F2633A7B5936321EED1CDAEB6115181D2 PUSH1 0x1 PUSH1 0x40 MLOAD PUSH2 0x13A5 SWAP2 SWAP1 PUSH2 0x48AC JUMP JUMPDEST PUSH1 0x40 MLOAD DUP1 SWAP2 SUB SWAP1 LOG1 JUMPDEST POP POP POP POP POP POP POP POP POP JUMP JUMPDEST PUSH2 0x13C1 PUSH2 0x30D5 JUMP JUMPDEST PUSH2 0x13CA DUP3 PUSH2 0x31BB JUMP JUMPDEST PUSH2 0x13D4 DUP3 DUP3 PUSH2 0x31E9 JUMP JUMPDEST POP POP JUMP JUMPDEST PUSH1 0x0 PUSH2 0x13E2 PUSH2 0x3308 JUMP JUMPDEST PUSH32 0x360894A13BA1A3210667C828492DB98DCA3E2076CC3735A920A3CA505D382BBC PUSH1 0x0 SHL SWAP1 POP SWAP1 JUMP JUMPDEST PUSH32 0xA49807205CE4D355092EF5A8A18F56E8913CF4A201FBE287825B095693C21775 PUSH2 0x1435 DUP2 PUSH2 0x29FC JUMP JUMPDEST PUSH1 0x0 DUP1 DUP1 SLOAD SWAP1 POP GT ISZERO PUSH2 0x14B6 JUMPI PUSH1 0x0 PUSH20 0xFFFFFFFFFFFFFFFFFFFFFFFFFFFFFFFFFFFFFFFF AND DUP6 PUSH20 0xFFFFFFFFFFFFFFFFFFFFFFFFFFFFFFFFFFFFFFFF AND SUB PUSH2 0x14B1 JUMPI PUSH1 0x40 MLOAD PUSH32 0x8C379A000000000000000000000000000000000000000000000000000000000 DUP2 MSTORE PUSH1 0x4 ADD PUSH2 0x14A8 SWAP1 PUSH2 0x4913 JUMP JUMPDEST PUSH1 0x40 MLOAD DUP1 SWAP2 SUB SWAP1 REVERT JUMPDEST PUSH2 0x1526 JUMP JUMPDEST PUSH1 0x0 PUSH20 0xFFFFFFFFFFFFFFFFFFFFFFFFFFFFFFFFFFFFFFFF AND DUP6 PUSH20 0xFFFFFFFFFFFFFFFFFFFFFFFFFFFFFFFFFFFFFFFF AND EQ PUSH2 0x1525 JUMPI PUSH1 0x40 MLOAD PUSH32 0x8C379A000000000000000000000000000000000000000000000000000000000 DUP2 MSTORE PUSH1 0x4 ADD PUSH2 0x151C SWAP1 PUSH2 0x4913 JUMP JUMPDEST PUSH1 0x40 MLOAD DUP1 SWAP2 SUB SWAP1 REVERT JUMPDEST JUMPDEST PUSH1 0x0 PUSH1 0x1 SLOAD NUMBER GT PUSH2 0x1539 JUMPI PUSH1 0x1 SLOAD PUSH2 0x153B JUMP JUMPDEST NUMBER JUMPDEST SWAP1 POP DUP5 PUSH1 0x5 PUSH1 0x0 DUP3 DUP3 SLOAD PUSH2 0x154F SWAP2 SWAP1 PUSH2 0x4670 JUMP JUMPDEST SWAP3 POP POP DUP2 SWAP1 SSTORE POP PUSH1 0x0 PUSH1 0x40 MLOAD DUP1 PUSH1 0xE0 ADD PUSH1 0x40 MSTORE DUP1 DUP9 PUSH20 0xFFFFFFFFFFFFFFFFFFFFFFFFFFFFFFFFFFFFFFFF AND DUP2 MSTORE PUSH1 0x20 ADD DUP8 DUP2 MSTORE PUSH1 0x20 ADD DUP7 DUP2 MSTORE PUSH1 0x20 ADD DUP4 DUP2 MSTORE PUSH1 0x20 ADD PUSH1 0x0 DUP2 MSTORE PUSH1 0x20 ADD PUSH1 0x0 DUP2 MSTORE PUSH1 0x20 ADD DUP6 DUP2 MSTORE POP SWAP1 DUP1 PUSH1 0x1 DUP2 SLOAD ADD DUP1 DUP3 SSTORE DUP1 SWAP2 POP POP PUSH1 0x1 SWAP1 SUB SWAP1 PUSH1 0x0 MSTORE PUSH1 0x20 PUSH1 0x0 KECCAK256 SWAP1 PUSH1 0x7 MUL ADD PUSH1 0x0 SWAP1 SWAP2 SWAP1 SWAP2 SWAP1 SWAP2 POP PUSH1 0x0 DUP3 ADD MLOAD DUP2 PUSH1 0x0 ADD PUSH1 0x0 PUSH2 0x100 EXP DUP2 SLOAD DUP2 PUSH20 0xFFFFFFFFFFFFFFFFFFFFFFFFFFFFFFFFFFFFFFFF MUL NOT AND SWAP1 DUP4 PUSH20 0xFFFFFFFFFFFFFFFFFFFFFFFFFFFFFFFFFFFFFFFF AND MUL OR SWAP1 SSTORE POP PUSH1 0x20 DUP3 ADD MLOAD DUP2 PUSH1 0x1 ADD SSTORE PUSH1 0x40 DUP3 ADD MLOAD DUP2 PUSH1 0x2 ADD SSTORE PUSH1 0x60 DUP3 ADD MLOAD DUP2 PUSH1 0x3 ADD SSTORE PUSH1 0x80 DUP3 ADD MLOAD DUP2 PUSH1 0x4 ADD SSTORE PUSH1 0xA0 DUP3 ADD MLOAD DUP2 PUSH1 0x5 ADD SSTORE PUSH1 0xC0 DUP3 ADD MLOAD DUP2 PUSH1 0x6 ADD SSTORE POP POP POP POP POP POP POP POP JUMP JUMPDEST PUSH32 0xA49807205CE4D355092EF5A8A18F56E8913CF4A201FBE287825B095693C21775 PUSH2 0x1683 DUP2 PUSH2 0x29FC JUMP JUMPDEST PUSH1 0x4 PUSH1 0x0 SWAP1 SLOAD SWAP1 PUSH2 0x100 EXP SWAP1 DIV PUSH1 0xFF AND PUSH2 0x16D2 JUMPI PUSH1 0x40 MLOAD PUSH32 0x8C379A000000000000000000000000000000000000000000000000000000000 DUP2 MSTORE PUSH1 0x4 ADD PUSH2 0x16C9 SWAP1 PUSH2 0x497F JUMP JUMPDEST PUSH1 0x40 MLOAD DUP1 SWAP2 SUB SWAP1 REVERT JUMPDEST PUSH1 0x0 PUSH1 0x4 PUSH1 0x0 PUSH2 0x100 EXP DUP2 SLOAD DUP2 PUSH1 0xFF MUL NOT AND SWAP1 DUP4 ISZERO ISZERO MUL OR SWAP1 SSTORE POP POP JUMP JUMPDEST PUSH1 0x0 DUP1 PUSH2 0x16FB PUSH2 0x338F JUMP JUMPDEST SWAP1 POP DUP1 PUSH1 0x0 ADD PUSH1 0x0 SWAP1 SLOAD SWAP1 PUSH2 0x100 EXP SWAP1 DIV PUSH1 0xFF AND SWAP2 POP POP SWAP1 JUMP JUMPDEST PUSH32 0xA49807205CE4D355092EF5A8A18F56E8913CF4A201FBE287825B095693C21775 PUSH2 0x173F DUP2 PUSH2 0x29FC JUMP JUMPDEST DUP2 PUSH1 0x6 PUSH1 0x0 PUSH2 0x100 EXP DUP2 SLOAD DUP2 PUSH20 0xFFFFFFFFFFFFFFFFFFFFFFFFFFFFFFFFFFFFFFFF MUL NOT AND SWAP1 DUP4 PUSH20 0xFFFFFFFFFFFFFFFFFFFFFFFFFFFFFFFFFFFFFFFF AND MUL OR SWAP1 SSTORE POP POP POP JUMP JUMPDEST PUSH1 0x0 DUP1 DUP1 SLOAD SWAP1 POP SWAP1 POP PUSH1 0x0 JUMPDEST DUP2 DUP2 LT ISZERO PUSH2 0x17AE JUMPI PUSH2 0x17A1 DUP2 PUSH2 0x2C1B JUMP JUMPDEST DUP1 DUP1 PUSH1 0x1 ADD SWAP2 POP POP PUSH2 0x1790 JUMP JUMPDEST POP POP JUMP JUMPDEST PUSH1 0x0 DUP4 PUSH1 0x0 DUP1 SLOAD SWAP1 POP DUP2 LT PUSH2 0x17FC JUMPI PUSH1 0x40 MLOAD PUSH32 0x8C379A000000000000000000000000000000000000000000000000000000000 DUP2 MSTORE PUSH1 0x4 ADD PUSH2 0x17F3 SWAP1 PUSH2 0x4586 JUMP JUMPDEST PUSH1 0x40 MLOAD DUP1 SWAP2 SUB SWAP1 REVERT JUMPDEST PUSH1 0x0 DUP1 DUP7 DUP2 SLOAD DUP2 LT PUSH2 0x1811 JUMPI PUSH2 0x1810 PUSH2 0x4612 JUMP JUMPDEST JUMPDEST SWAP1 PUSH1 0x0 MSTORE PUSH1 0x20 PUSH1 0x0 KECCAK256 SWAP1 PUSH1 0x7 MUL ADD SWAP1 POP PUSH1 0x0 PUSH1 0x7 PUSH1 0x0 DUP9 DUP2 MSTORE PUSH1 0x20 ADD SWAP1 DUP2 MSTORE PUSH1 0x20 ADD PUSH1 0x0 KECCAK256 PUSH1 0x0 DUP8 PUSH20 0xFFFFFFFFFFFFFFFFFFFFFFFFFFFFFFFFFFFFFFFF AND PUSH20 0xFFFFFFFFFFFFFFFFFFFFFFFFFFFFFFFFFFFFFFFF AND DUP2 MSTORE PUSH1 0x20 ADD SWAP1 DUP2 MSTORE PUSH1 0x20 ADD PUSH1 0x0 KECCAK256 SWAP1 POP PUSH1 0x0 DUP3 PUSH1 0x4 ADD SLOAD SWAP1 POP PUSH1 0x0 DUP4 PUSH1 0x5 ADD SLOAD SWAP1 POP DUP4 PUSH1 0x3 ADD SLOAD DUP8 GT ISZERO PUSH2 0x18F5 JUMPI PUSH1 0x0 PUSH2 0x18A3 DUP9 DUP7 PUSH1 0x3 ADD SLOAD PUSH2 0x196E JUMP JUMPDEST SWAP1 POP PUSH1 0x0 PUSH1 0x5 SLOAD DUP7 PUSH1 0x1 ADD SLOAD DUP4 PUSH2 0x18BA SWAP2 SWAP1 PUSH2 0x47BB JUMP JUMPDEST PUSH2 0x18C4 SWAP2 SWAP1 PUSH2 0x482C JUMP JUMPDEST SWAP1 POP DUP3 PUSH8 0xDE0B6B3A7640000 DUP3 PUSH2 0x18DB SWAP2 SWAP1 PUSH2 0x47BB JUMP JUMPDEST PUSH2 0x18E5 SWAP2 SWAP1 PUSH2 0x482C JUMP JUMPDEST DUP5 PUSH2 0x18F0 SWAP2 SWAP1 PUSH2 0x4670 JUMP JUMPDEST SWAP4 POP POP POP JUMPDEST DUP3 PUSH1 0x2 ADD SLOAD DUP4 PUSH1 0x1 ADD SLOAD PUSH8 0xDE0B6B3A7640000 DUP5 DUP7 PUSH1 0x0 ADD SLOAD PUSH2 0x1918 SWAP2 SWAP1 PUSH2 0x47BB JUMP JUMPDEST PUSH2 0x1922 SWAP2 SWAP1 PUSH2 0x482C JUMP JUMPDEST PUSH2 0x192C SWAP2 SWAP1 PUSH2 0x46EC JUMP JUMPDEST PUSH2 0x1936 SWAP2 SWAP1 PUSH2 0x4670 JUMP JUMPDEST SWAP6 POP POP POP POP POP POP SWAP4 SWAP3 POP POP POP JUMP JUMPDEST PUSH1 0x3 SLOAD DUP2 JUMP JUMPDEST PUSH32 0xA49807205CE4D355092EF5A8A18F56E8913CF4A201FBE287825B095693C21775 DUP2 JUMP JUMPDEST PUSH1 0x0 DUP2 DUP4 LT ISZERO PUSH2 0x19B3 JUMPI PUSH1 0x40 MLOAD PUSH32 0x8C379A000000000000000000000000000000000000000000000000000000000 DUP2 MSTORE PUSH1 0x4 ADD PUSH2 0x19AA SWAP1 PUSH2 0x4A11 JUMP JUMPDEST PUSH1 0x40 MLOAD DUP1 SWAP2 SUB SWAP1 REVERT JUMPDEST PUSH1 0x2 SLOAD DUP4 GT ISZERO PUSH2 0x19C3 JUMPI PUSH1 0x2 SLOAD SWAP3 POP JUMPDEST PUSH1 0x1 SLOAD DUP3 LT ISZERO PUSH2 0x19D3 JUMPI PUSH1 0x1 SLOAD SWAP2 POP JUMPDEST DUP3 DUP3 LT PUSH2 0x1A15 JUMPI PUSH1 0x40 MLOAD PUSH32 0x8C379A000000000000000000000000000000000000000000000000000000000 DUP2 MSTORE PUSH1 0x4 ADD PUSH2 0x1A0C SWAP1 PUSH2 0x4AA3 JUMP JUMPDEST PUSH1 0x40 MLOAD DUP1 SWAP2 SUB SWAP1 REVERT JUMPDEST PUSH1 0x0 PUSH2 0x1A37 PUSH1 0x3 SLOAD DUP5 DUP7 PUSH2 0x1A29 SWAP2 SWAP1 PUSH2 0x46EC JUMP JUMPDEST PUSH2 0x33B7 SWAP1 SWAP2 SWAP1 PUSH4 0xFFFFFFFF AND JUMP JUMPDEST DUP1 SWAP4 POP DUP2 SWAP3 POP POP POP DUP1 PUSH2 0x1A7F JUMPI PUSH1 0x40 MLOAD PUSH32 0x8C379A000000000000000000000000000000000000000000000000000000000 DUP2 MSTORE PUSH1 0x4 ADD PUSH2 0x1A76 SWAP1 PUSH2 0x4B0F JUMP JUMPDEST PUSH1 0x40 MLOAD DUP1 SWAP2 SUB SWAP1 REVERT JUMPDEST POP SWAP3 SWAP2 POP POP JUMP JUMPDEST PUSH32 0xA49807205CE4D355092EF5A8A18F56E8913CF4A201FBE287825B095693C21775 PUSH2 0x1AB0 DUP2 PUSH2 0x29FC JUMP JUMPDEST PUSH1 0x4 PUSH1 0x1 SWAP1 SLOAD SWAP1 PUSH2 0x100 EXP SWAP1 DIV PUSH1 0xFF AND ISZERO PUSH2 0x1B00 JUMPI PUSH1 0x40 MLOAD PUSH32 0x8C379A000000000000000000000000000000000000000000000000000000000 DUP2 MSTORE PUSH1 0x4 ADD PUSH2 0x1AF7 SWAP1 PUSH2 0x4B7B JUMP JUMPDEST PUSH1 0x40 MLOAD DUP1 SWAP2 SUB SWAP1 REVERT JUMPDEST PUSH1 0x1 PUSH1 0x4 PUSH1 0x1 PUSH2 0x100 EXP DUP2 SLOAD DUP2 PUSH1 0xFF MUL NOT AND SWAP1 DUP4 ISZERO ISZERO MUL OR SWAP1 SSTORE POP POP JUMP JUMPDEST PUSH1 0x0 DUP1 PUSH2 0x1B29 PUSH2 0x2843 JUMP JUMPDEST SWAP1 POP DUP1 PUSH1 0x0 ADD PUSH1 0x0 DUP6 DUP2 MSTORE PUSH1 0x20 ADD SWAP1 DUP2 MSTORE PUSH1 0x20 ADD PUSH1 0x0 KECCAK256 PUSH1 0x0 ADD PUSH1 0x0 DUP5 PUSH20 0xFFFFFFFFFFFFFFFFFFFFFFFFFFFFFFFFFFFFFFFF AND PUSH20 0xFFFFFFFFFFFFFFFFFFFFFFFFFFFFFFFFFFFFFFFF AND DUP2 MSTORE PUSH1 0x20 ADD SWAP1 DUP2 MSTORE PUSH1 0x20 ADD PUSH1 0x0 KECCAK256 PUSH1 0x0 SWAP1 SLOAD SWAP1 PUSH2 0x100 EXP SWAP1 DIV PUSH1 0xFF AND SWAP2 POP POP SWAP3 SWAP2 POP POP JUMP JUMPDEST PUSH1 0x5 SLOAD DUP2 JUMP JUMPDEST DUP2 PUSH1 0x0 DUP1 SLOAD SWAP1 POP DUP2 LT PUSH2 0x1BE5 JUMPI PUSH1 0x40 MLOAD PUSH32 0x8C379A000000000000000000000000000000000000000000000000000000000 DUP2 MSTORE PUSH1 0x4 ADD PUSH2 0x1BDC SWAP1 PUSH2 0x4586 JUMP JUMPDEST PUSH1 0x40 MLOAD DUP1 SWAP2 SUB SWAP1 REVERT JUMPDEST PUSH1 0x0 DUP1 DUP5 DUP2 SLOAD DUP2 LT PUSH2 0x1BFA JUMPI PUSH2 0x1BF9 PUSH2 0x4612 JUMP JUMPDEST JUMPDEST SWAP1 PUSH1 0x0 MSTORE PUSH1 0x20 PUSH1 0x0 KECCAK256 SWAP1 PUSH1 0x7 MUL ADD SWAP1 POP PUSH1 0x0 PUSH1 0x7 PUSH1 0x0 DUP7 DUP2 MSTORE PUSH1 0x20 ADD SWAP1 DUP2 MSTORE PUSH1 0x20 ADD PUSH1 0x0 KECCAK256 PUSH1 0x0 CALLER PUSH20 0xFFFFFFFFFFFFFFFFFFFFFFFFFFFFFFFFFFFFFFFF AND PUSH20 0xFFFFFFFFFFFFFFFFFFFFFFFFFFFFFFFFFFFFFFFF AND DUP2 MSTORE PUSH1 0x20 ADD SWAP1 DUP2 MSTORE PUSH1 0x20 ADD PUSH1 0x0 KECCAK256 SWAP1 POP DUP1 PUSH1 0x0 ADD SLOAD DUP5 GT ISZERO PUSH2 0x1CA5 JUMPI PUSH1 0x40 MLOAD PUSH32 0x8C379A000000000000000000000000000000000000000000000000000000000 DUP2 MSTORE PUSH1 0x4 ADD PUSH2 0x1C9C SWAP1 PUSH2 0x4C0D JUMP JUMPDEST PUSH1 0x40 MLOAD DUP1 SWAP2 SUB SWAP1 REVERT JUMPDEST PUSH2 0x1CAE DUP6 PUSH2 0x2C1B JUMP JUMPDEST PUSH1 0x0 DUP2 PUSH1 0x1 ADD SLOAD PUSH8 0xDE0B6B3A7640000 DUP5 PUSH1 0x4 ADD SLOAD DUP5 PUSH1 0x0 ADD SLOAD PUSH2 0x1CD2 SWAP2 SWAP1 PUSH2 0x47BB JUMP JUMPDEST PUSH2 0x1CDC SWAP2 SWAP1 PUSH2 0x482C JUMP JUMPDEST PUSH2 0x1CE6 SWAP2 SWAP1 PUSH2 0x46EC JUMP JUMPDEST SWAP1 POP PUSH1 0x0 DUP2 GT ISZERO PUSH2 0x1CFB JUMPI DUP1 DUP3 PUSH1 0x2 ADD DUP2 SWAP1 SSTORE POP JUMPDEST PUSH1 0x0 DUP6 GT ISZERO PUSH2 0x1D87 JUMPI DUP5 DUP3 PUSH1 0x0 ADD PUSH1 0x0 DUP3 DUP3 SLOAD PUSH2 0x1D18 SWAP2 SWAP1 PUSH2 0x46EC JUMP JUMPDEST SWAP3 POP POP DUP2 SWAP1 SSTORE POP DUP2 PUSH1 0x3 ADD PUSH1 0x40 MLOAD DUP1 PUSH1 0x40 ADD PUSH1 0x40 MSTORE DUP1 DUP8 DUP2 MSTORE PUSH1 0x20 ADD DUP6 PUSH1 0x6 ADD SLOAD NUMBER PUSH2 0x1D44 SWAP2 SWAP1 PUSH2 0x4670 JUMP JUMPDEST DUP2 MSTORE POP SWAP1 DUP1 PUSH1 0x1 DUP2 SLOAD ADD DUP1 DUP3 SSTORE DUP1 SWAP2 POP POP PUSH1 0x1 SWAP1 SUB SWAP1 PUSH1 0x0 MSTORE PUSH1 0x20 PUSH1 0x0 KECCAK256 SWAP1 PUSH1 0x2 MUL ADD PUSH1 0x0 SWAP1 SWAP2 SWAP1 SWAP2 SWAP1 SWAP2 POP PUSH1 0x0 DUP3 ADD MLOAD DUP2 PUSH1 0x0 ADD SSTORE PUSH1 0x20 DUP3 ADD MLOAD DUP2 PUSH1 0x1 ADD SSTORE POP POP JUMPDEST DUP5 DUP4 PUSH1 0x5 ADD PUSH1 0x0 DUP3 DUP3 SLOAD PUSH2 0x1D9B SWAP2 SWAP1 PUSH2 0x46EC JUMP JUMPDEST SWAP3 POP POP DUP2 SWAP1 SSTORE POP PUSH8 0xDE0B6B3A7640000 DUP4 PUSH1 0x4 ADD SLOAD DUP4 PUSH1 0x0 ADD SLOAD PUSH2 0x1DBF SWAP2 SWAP1 PUSH2 0x47BB JUMP JUMPDEST PUSH2 0x1DC9 SWAP2 SWAP1 PUSH2 0x482C JUMP JUMPDEST DUP3 PUSH1 0x1 ADD DUP2 SWAP1 SSTORE POP POP POP POP POP POP POP JUMP JUMPDEST PUSH1 0x0 DUP1 SHL DUP2 JUMP JUMPDEST PUSH32 0xA49807205CE4D355092EF5A8A18F56E8913CF4A201FBE287825B095693C21775 PUSH2 0x1E0A DUP2 PUSH2 0x29FC JUMP JUMPDEST PUSH1 0x4 PUSH1 0x0 SWAP1 SLOAD SWAP1 PUSH2 0x100 EXP SWAP1 DIV PUSH1 0xFF AND ISZERO PUSH2 0x1E5A JUMPI PUSH1 0x40 MLOAD PUSH32 0x8C379A000000000000000000000000000000000000000000000000000000000 DUP2 MSTORE PUSH1 0x4 ADD PUSH2 0x1E51 SWAP1 PUSH2 0x4C79 JUMP JUMPDEST PUSH1 0x40 MLOAD DUP1 SWAP2 SUB SWAP1 REVERT JUMPDEST PUSH1 0x1 PUSH1 0x4 PUSH1 0x0 PUSH2 0x100 EXP DUP2 SLOAD DUP2 PUSH1 0xFF MUL NOT AND SWAP1 DUP4 ISZERO ISZERO MUL OR SWAP1 SSTORE POP POP JUMP JUMPDEST PUSH1 0x4 PUSH1 0x1 SWAP1 SLOAD SWAP1 PUSH2 0x100 EXP SWAP1 DIV PUSH1 0xFF AND DUP2 JUMP JUMPDEST PUSH1 0x0 DUP2 DUP2 SLOAD DUP2 LT PUSH2 0x1E9B JUMPI PUSH1 0x0 DUP1 REVERT JUMPDEST SWAP1 PUSH1 0x0 MSTORE PUSH1 0x20 PUSH1 0x0 KECCAK256 SWAP1 PUSH1 0x7 MUL ADD PUSH1 0x0 SWAP2 POP SWAP1 POP DUP1 PUSH1 0x0 ADD PUSH1 0x0 SWAP1 SLOAD SWAP1 PUSH2 0x100 EXP SWAP1 DIV PUSH20 0xFFFFFFFFFFFFFFFFFFFFFFFFFFFFFFFFFFFFFFFF AND SWAP1 DUP1 PUSH1 0x1 ADD SLOAD SWAP1 DUP1 PUSH1 0x2 ADD SLOAD SWAP1 DUP1 PUSH1 0x3 ADD SLOAD SWAP1 DUP1 PUSH1 0x4 ADD SLOAD SWAP1 DUP1 PUSH1 0x5 ADD SLOAD SWAP1 DUP1 PUSH1 0x6 ADD SLOAD SWAP1 POP DUP8 JUMP JUMPDEST PUSH1 0x40 MLOAD DUP1 PUSH1 0x40 ADD PUSH1 0x40 MSTORE DUP1 PUSH1 0x5 DUP2 MSTORE PUSH1 0x20 ADD PUSH32 0x352E302E30000000000000000000000000000000000000000000000000000000 DUP2 MSTORE POP DUP2 JUMP JUMPDEST PUSH1 0x7 PUSH1 0x20 MSTORE DUP2 PUSH1 0x0 MSTORE PUSH1 0x40 PUSH1 0x0 KECCAK256 PUSH1 0x20 MSTORE DUP1 PUSH1 0x0 MSTORE PUSH1 0x40 PUSH1 0x0 KECCAK256 PUSH1 0x0 SWAP2 POP SWAP2 POP POP DUP1 PUSH1 0x0 ADD SLOAD SWAP1 DUP1 PUSH1 0x1 ADD SLOAD SWAP1 DUP1 PUSH1 0x2 ADD SLOAD SWAP1 POP DUP4 JUMP JUMPDEST PUSH1 0x0 DUP2 JUMP JUMPDEST PUSH32 0xA49807205CE4D355092EF5A8A18F56E8913CF4A201FBE287825B095693C21775 PUSH2 0x1F9C DUP2 PUSH2 0x29FC JUMP JUMPDEST PUSH1 0x1 SLOAD DUP3 LT ISZERO PUSH2 0x1FE1 JUMPI PUSH1 0x40 MLOAD PUSH32 0x8C379A000000000000000000000000000000000000000000000000000000000 DUP2 MSTORE PUSH1 0x4 ADD PUSH2 0x1FD8 SWAP1 PUSH2 0x4D0B JUMP JUMPDEST PUSH1 0x40 MLOAD DUP1 SWAP2 SUB SWAP1 REVERT JUMPDEST DUP2 PUSH1 0x2 DUP2 SWAP1 SSTORE POP POP POP JUMP JUMPDEST PUSH1 0x6 PUSH1 0x0 SWAP1 SLOAD SWAP1 PUSH2 0x100 EXP SWAP1 DIV PUSH20 0xFFFFFFFFFFFFFFFFFFFFFFFFFFFFFFFFFFFFFFFF AND DUP2 JUMP JUMPDEST PUSH2 0x201B DUP3 PUSH2 0xBB0 JUMP JUMPDEST PUSH2 0x2024 DUP2 PUSH2 0x29FC JUMP JUMPDEST PUSH2 0x202E DUP4 DUP4 PUSH2 0x2B19 JUMP JUMPDEST POP POP POP POP JUMP JUMPDEST PUSH32 0xA49807205CE4D355092EF5A8A18F56E8913CF4A201FBE287825B095693C21775 PUSH2 0x205E DUP2 PUSH2 0x29FC JUMP JUMPDEST DUP2 PUSH1 0x3 DUP2 SWAP1 SSTORE POP POP POP JUMP JUMPDEST PUSH32 0xA49807205CE4D355092EF5A8A18F56E8913CF4A201FBE287825B095693C21775 PUSH2 0x2093 DUP2 PUSH2 0x29FC JUMP JUMPDEST DUP4 PUSH1 0x0 DUP1 SLOAD SWAP1 POP DUP2 LT PUSH2 0x20DB JUMPI PUSH1 0x40 MLOAD PUSH32 0x8C379A000000000000000000000000000000000000000000000000000000000 DUP2 MSTORE PUSH1 0x4 ADD PUSH2 0x20D2 SWAP1 PUSH2 0x4586 JUMP JUMPDEST PUSH1 0x40 MLOAD DUP1 SWAP2 SUB SWAP1 REVERT JUMPDEST DUP4 PUSH1 0x0 DUP7 DUP2 SLOAD DUP2 LT PUSH2 0x20F0 JUMPI PUSH2 0x20EF PUSH2 0x4612 JUMP JUMPDEST JUMPDEST SWAP1 PUSH1 0x0 MSTORE PUSH1 0x20 PUSH1 0x0 KECCAK256 SWAP1 PUSH1 0x7 MUL ADD PUSH1 0x2 ADD DUP2 SWAP1 SSTORE POP DUP3 PUSH1 0x0 DUP7 DUP2 SLOAD DUP2 LT PUSH2 0x211A JUMPI PUSH2 0x2119 PUSH2 0x4612 JUMP JUMPDEST JUMPDEST SWAP1 PUSH1 0x0 MSTORE PUSH1 0x20 PUSH1 0x0 KECCAK256 SWAP1 PUSH1 0x7 MUL ADD PUSH1 0x6 ADD DUP2 SWAP1 SSTORE POP POP POP POP POP POP JUMP JUMPDEST PUSH32 0xA49807205CE4D355092EF5A8A18F56E8913CF4A201FBE287825B095693C21775 PUSH2 0x2160 DUP2 PUSH2 0x29FC JUMP JUMPDEST PUSH1 0x4 PUSH1 0x1 SWAP1 SLOAD SWAP1 PUSH2 0x100 EXP SWAP1 DIV PUSH1 0xFF AND PUSH2 0x21AF JUMPI PUSH1 0x40 MLOAD PUSH32 0x8C379A000000000000000000000000000000000000000000000000000000000 DUP2 MSTORE PUSH1 0x4 ADD PUSH2 0x21A6 SWAP1 PUSH2 0x4D77 JUMP JUMPDEST PUSH1 0x40 MLOAD DUP1 SWAP2 SUB SWAP1 REVERT JUMPDEST PUSH1 0x0 PUSH1 0x4 PUSH1 0x1 PUSH2 0x100 EXP DUP2 SLOAD DUP2 PUSH1 0xFF MUL NOT AND SWAP1 DUP4 ISZERO ISZERO MUL OR SWAP1 SSTORE POP POP JUMP JUMPDEST DUP2 PUSH1 0x0 DUP1 SLOAD SWAP1 POP DUP2 LT PUSH2 0x2215 JUMPI PUSH1 0x40 MLOAD PUSH32 0x8C379A000000000000000000000000000000000000000000000000000000000 DUP2 MSTORE PUSH1 0x4 ADD PUSH2 0x220C SWAP1 PUSH2 0x4586 JUMP JUMPDEST PUSH1 0x40 MLOAD DUP1 SWAP2 SUB SWAP1 REVERT JUMPDEST PUSH1 0x0 DUP4 SUB PUSH2 0x2258 JUMPI PUSH1 0x40 MLOAD PUSH32 0x8C379A000000000000000000000000000000000000000000000000000000000 DUP2 MSTORE PUSH1 0x4 ADD PUSH2 0x224F SWAP1 PUSH2 0x4DE3 JUMP JUMPDEST PUSH1 0x40 MLOAD DUP1 SWAP2 SUB SWAP1 REVERT JUMPDEST PUSH1 0x0 DUP1 DUP5 DUP2 SLOAD DUP2 LT PUSH2 0x226D JUMPI PUSH2 0x226C PUSH2 0x4612 JUMP JUMPDEST JUMPDEST SWAP1 PUSH1 0x0 MSTORE PUSH1 0x20 PUSH1 0x0 KECCAK256 SWAP1 PUSH1 0x7 MUL ADD SWAP1 POP DUP1 PUSH1 0x2 ADD SLOAD DUP4 GT PUSH2 0x22C3 JUMPI PUSH1 0x40 MLOAD PUSH32 0x8C379A000000000000000000000000000000000000000000000000000000000 DUP2 MSTORE PUSH1 0x4 ADD PUSH2 0x22BA SWAP1 PUSH2 0x4E75 JUMP JUMPDEST PUSH1 0x40 MLOAD DUP1 SWAP2 SUB SWAP1 REVERT JUMPDEST PUSH1 0x0 DUP4 GT ISZERO PUSH2 0x231E JUMPI PUSH2 0x231D CALLER ADDRESS DUP6 DUP5 PUSH1 0x0 ADD PUSH1 0x0 SWAP1 SLOAD SWAP1 PUSH2 0x100 EXP SWAP1 DIV PUSH20 0xFFFFFFFFFFFFFFFFFFFFFFFFFFFFFFFFFFFFFFFF AND PUSH20 0xFFFFFFFFFFFFFFFFFFFFFFFFFFFFFFFFFFFFFFFF AND PUSH2 0x33E0 SWAP1 SWAP4 SWAP3 SWAP2 SWAP1 PUSH4 0xFFFFFFFF AND JUMP JUMPDEST JUMPDEST PUSH2 0x2328 DUP5 DUP5 PUSH2 0x3462 JUMP JUMPDEST POP POP POP POP JUMP JUMPDEST PUSH1 0x0 DUP3 PUSH1 0x0 DUP1 SLOAD SWAP1 POP DUP2 LT PUSH2 0x2378 JUMPI PUSH1 0x40 MLOAD PUSH32 0x8C379A000000000000000000000000000000000000000000000000000000000 DUP2 MSTORE PUSH1 0x4 ADD PUSH2 0x236F SWAP1 PUSH2 0x4586 JUMP JUMPDEST PUSH1 0x40 MLOAD DUP1 SWAP2 SUB SWAP1 REVERT JUMPDEST PUSH2 0x2383 DUP5 DUP5 NUMBER PUSH2 0x17B2 JUMP JUMPDEST SWAP2 POP POP SWAP3 SWAP2 POP POP JUMP JUMPDEST PUSH32 0xA49807205CE4D355092EF5A8A18F56E8913CF4A201FBE287825B095693C21775 PUSH2 0x23B6 DUP2 PUSH2 0x29FC JUMP JUMPDEST PUSH1 0x2 SLOAD DUP3 GT ISZERO PUSH2 0x23FB JUMPI PUSH1 0x40 MLOAD PUSH32 0x8C379A000000000000000000000000000000000000000000000000000000000 DUP2 MSTORE PUSH1 0x4 ADD PUSH2 0x23F2 SWAP1 PUSH2 0x4F07 JUMP JUMPDEST PUSH1 0x40 MLOAD DUP1 SWAP2 SUB SWAP1 REVERT JUMPDEST DUP2 PUSH1 0x1 DUP2 SWAP1 SSTORE POP POP POP JUMP JUMPDEST PUSH1 0x0 DUP1 PUSH1 0x0 DUP2 SLOAD DUP2 LT PUSH2 0x241C JUMPI PUSH2 0x241B PUSH2 0x4612 JUMP JUMPDEST JUMPDEST SWAP1 PUSH1 0x0 MSTORE PUSH1 0x20 PUSH1 0x0 KECCAK256 SWAP1 PUSH1 0x7 MUL ADD SWAP1 POP PUSH1 0x0 PUSH20 0xFFFFFFFFFFFFFFFFFFFFFFFFFFFFFFFFFFFFFFFF AND DUP2 PUSH1 0x0 ADD PUSH1 0x0 SWAP1 SLOAD SWAP1 PUSH2 0x100 EXP SWAP1 DIV PUSH20 0xFFFFFFFFFFFFFFFFFFFFFFFFFFFFFFFFFFFFFFFF AND PUSH20 0xFFFFFFFFFFFFFFFFFFFFFFFFFFFFFFFFFFFFFFFF AND EQ PUSH2 0x24BF JUMPI PUSH1 0x40 MLOAD PUSH32 0x8C379A000000000000000000000000000000000000000000000000000000000 DUP2 MSTORE PUSH1 0x4 ADD PUSH2 0x24B6 SWAP1 PUSH2 0x4F73 JUMP JUMPDEST PUSH1 0x40 MLOAD DUP1 SWAP2 SUB SWAP1 REVERT JUMPDEST PUSH1 0x0 CALLVALUE SWAP1 POP DUP2 PUSH1 0x2 ADD SLOAD DUP2 LT ISZERO PUSH2 0x250B JUMPI PUSH1 0x40 MLOAD PUSH32 0x8C379A000000000000000000000000000000000000000000000000000000000 DUP2 MSTORE PUSH1 0x4 ADD PUSH2 0x2502 SWAP1 PUSH2 0x4E75 JUMP JUMPDEST PUSH1 0x40 MLOAD DUP1 SWAP2 SUB SWAP1 REVERT JUMPDEST PUSH2 0x2516 PUSH1 0x0 DUP3 PUSH2 0x3462 JUMP JUMPDEST POP POP JUMP JUMPDEST PUSH32 0x189AB7A9244DF0848122154315AF71FE140F3DB0FE014031783B0946B8C9D2E3 DUP2 JUMP JUMPDEST PUSH32 0xA49807205CE4D355092EF5A8A18F56E8913CF4A201FBE287825B095693C21775 PUSH2 0x2568 DUP2 PUSH2 0x29FC JUMP JUMPDEST DUP4 PUSH1 0x0 DUP1 SLOAD SWAP1 POP DUP2 LT PUSH2 0x25B0 JUMPI PUSH1 0x40 MLOAD PUSH32 0x8C379A000000000000000000000000000000000000000000000000000000000 DUP2 MSTORE PUSH1 0x4 ADD PUSH2 0x25A7 SWAP1 PUSH2 0x4586 JUMP JUMPDEST PUSH1 0x40 MLOAD DUP1 SWAP2 SUB SWAP1 REVERT JUMPDEST PUSH1 0x0 DUP5 GT PUSH2 0x25F3 JUMPI PUSH1 0x40 MLOAD PUSH32 0x8C379A000000000000000000000000000000000000000000000000000000000 DUP2 MSTORE PUSH1 0x4 ADD PUSH2 0x25EA SWAP1 PUSH2 0x5005 JUMP JUMPDEST PUSH1 0x40 MLOAD DUP1 SWAP2 SUB SWAP1 REVERT JUMPDEST DUP3 ISZERO PUSH2 0x2602 JUMPI PUSH2 0x2601 PUSH2 0x1784 JUMP JUMPDEST JUMPDEST DUP4 PUSH1 0x0 DUP7 DUP2 SLOAD DUP2 LT PUSH2 0x2617 JUMPI PUSH2 0x2616 PUSH2 0x4612 JUMP JUMPDEST JUMPDEST SWAP1 PUSH1 0x0 MSTORE PUSH1 0x20 PUSH1 0x0 KECCAK256 SWAP1 PUSH1 0x7 MUL ADD PUSH1 0x1 ADD SLOAD PUSH1 0x5 SLOAD PUSH2 0x2636 SWAP2 SWAP1 PUSH2 0x46EC JUMP JUMPDEST PUSH2 0x2640 SWAP2 SWAP1 PUSH2 0x4670 JUMP JUMPDEST PUSH1 0x5 DUP2 SWAP1 SSTORE POP DUP4 PUSH1 0x0 DUP7 DUP2 SLOAD DUP2 LT PUSH2 0x265B JUMPI PUSH2 0x265A PUSH2 0x4612 JUMP JUMPDEST JUMPDEST SWAP1 PUSH1 0x0 MSTORE PUSH1 0x20 PUSH1 0x0 KECCAK256 SWAP1 PUSH1 0x7 MUL ADD PUSH1 0x1 ADD DUP2 SWAP1 SSTORE POP POP POP POP POP POP JUMP JUMPDEST PUSH1 0x0 DUP1 DUP4 PUSH1 0x0 DUP1 SLOAD SWAP1 POP DUP2 LT PUSH2 0x26C2 JUMPI PUSH1 0x40 MLOAD PUSH32 0x8C379A000000000000000000000000000000000000000000000000000000000 DUP2 MSTORE PUSH1 0x4 ADD PUSH2 0x26B9 SWAP1 PUSH2 0x4586 JUMP JUMPDEST PUSH1 0x40 MLOAD DUP1 SWAP2 SUB SWAP1 REVERT JUMPDEST PUSH1 0x0 PUSH1 0x7 PUSH1 0x0 DUP8 DUP2 MSTORE PUSH1 0x20 ADD SWAP1 DUP2 MSTORE PUSH1 0x20 ADD PUSH1 0x0 KECCAK256 PUSH1 0x0 DUP7 PUSH20 0xFFFFFFFFFFFFFFFFFFFFFFFFFFFFFFFFFFFFFFFF AND PUSH20 0xFFFFFFFFFFFFFFFFFFFFFFFFFFFFFFFFFFFFFFFF AND DUP2 MSTORE PUSH1 0x20 ADD SWAP1 DUP2 MSTORE PUSH1 0x20 ADD PUSH1 0x0 KECCAK256 SWAP1 POP PUSH1 0x0 JUMPDEST DUP2 PUSH1 0x3 ADD DUP1 SLOAD SWAP1 POP DUP2 LT ISZERO PUSH2 0x27CF JUMPI NUMBER DUP3 PUSH1 0x3 ADD DUP3 DUP2 SLOAD DUP2 LT PUSH2 0x273F JUMPI PUSH2 0x273E PUSH2 0x4612 JUMP JUMPDEST JUMPDEST SWAP1 PUSH1 0x0 MSTORE PUSH1 0x20 PUSH1 0x0 KECCAK256 SWAP1 PUSH1 0x2 MUL ADD PUSH1 0x1 ADD SLOAD LT ISZERO PUSH2 0x278D JUMPI DUP2 PUSH1 0x3 ADD DUP2 DUP2 SLOAD DUP2 LT PUSH2 0x276D JUMPI PUSH2 0x276C PUSH2 0x4612 JUMP JUMPDEST JUMPDEST SWAP1 PUSH1 0x0 MSTORE PUSH1 0x20 PUSH1 0x0 KECCAK256 SWAP1 PUSH1 0x2 MUL ADD PUSH1 0x0 ADD SLOAD DUP5 PUSH2 0x278A SWAP2 SWAP1 PUSH2 0x4670 JUMP JUMPDEST SWAP4 POP JUMPDEST DUP2 PUSH1 0x3 ADD DUP2 DUP2 SLOAD DUP2 LT PUSH2 0x27A3 JUMPI PUSH2 0x27A2 PUSH2 0x4612 JUMP JUMPDEST JUMPDEST SWAP1 PUSH1 0x0 MSTORE PUSH1 0x20 PUSH1 0x0 KECCAK256 SWAP1 PUSH1 0x2 MUL ADD PUSH1 0x0 ADD SLOAD DUP6 PUSH2 0x27C0 SWAP2 SWAP1 PUSH2 0x4670 JUMP JUMPDEST SWAP5 POP DUP1 DUP1 PUSH1 0x1 ADD SWAP2 POP POP PUSH2 0x2719 JUMP JUMPDEST POP POP POP SWAP3 POP SWAP3 SWAP1 POP JUMP JUMPDEST PUSH1 0x0 PUSH32 0x1FFC9A700000000000000000000000000000000000000000000000000000000 PUSH28 0xFFFFFFFFFFFFFFFFFFFFFFFFFFFFFFFFFFFFFFFFFFFFFFFFFFFFFFFF NOT AND DUP3 PUSH28 0xFFFFFFFFFFFFFFFFFFFFFFFFFFFFFFFFFFFFFFFFFFFFFFFFFFFFFFFF NOT AND EQ SWAP1 POP SWAP2 SWAP1 POP JUMP JUMPDEST PUSH1 0x0 PUSH32 0x2DD7BC7DEC4DCEEDDA775E58DD541E08A116C6C53815C0BD028192F7B626800 SWAP1 POP SWAP1 JUMP JUMPDEST PUSH1 0x0 DUP1 DUP4 PUSH20 0xFFFFFFFFFFFFFFFFFFFFFFFFFFFFFFFFFFFFFFFF AND DUP4 PUSH1 0x40 MLOAD PUSH2 0x2892 SWAP1 PUSH2 0x5056 JUMP JUMPDEST PUSH1 0x0 PUSH1 0x40 MLOAD DUP1 DUP4 SUB DUP2 DUP6 DUP8 GAS CALL SWAP3 POP POP POP RETURNDATASIZE DUP1 PUSH1 0x0 DUP2 EQ PUSH2 0x28CF JUMPI PUSH1 0x40 MLOAD SWAP2 POP PUSH1 0x1F NOT PUSH1 0x3F RETURNDATASIZE ADD AND DUP3 ADD PUSH1 0x40 MSTORE RETURNDATASIZE DUP3 MSTORE RETURNDATASIZE PUSH1 0x0 PUSH1 0x20 DUP5 ADD RETURNDATACOPY PUSH2 0x28D4 JUMP JUMPDEST PUSH1 0x60 SWAP2 POP JUMPDEST POP SWAP2 POP SWAP2 POP DUP2 PUSH2 0x2919 JUMPI PUSH1 0x40 MLOAD PUSH32 0x8C379A000000000000000000000000000000000000000000000000000000000 DUP2 MSTORE PUSH1 0x4 ADD PUSH2 0x2910 SWAP1 PUSH2 0x50B7 JUMP JUMPDEST PUSH1 0x40 MLOAD DUP1 SWAP2 SUB SWAP1 REVERT JUMPDEST PUSH1 0x0 DUP2 MLOAD GT ISZERO PUSH2 0x2977 JUMPI DUP1 DUP1 PUSH1 0x20 ADD SWAP1 MLOAD DUP2 ADD SWAP1 PUSH2 0x2937 SWAP2 SWAP1 PUSH2 0x50EC JUMP JUMPDEST PUSH2 0x2976 JUMPI PUSH1 0x40 MLOAD PUSH32 0x8C379A000000000000000000000000000000000000000000000000000000000 DUP2 MSTORE PUSH1 0x4 ADD PUSH2 0x296D SWAP1 PUSH2 0x518B JUMP JUMPDEST PUSH1 0x40 MLOAD DUP1 SWAP2 SUB SWAP1 REVERT JUMPDEST JUMPDEST POP POP POP POP JUMP JUMPDEST PUSH2 0x29F7 DUP4 DUP5 PUSH20 0xFFFFFFFFFFFFFFFFFFFFFFFFFFFFFFFFFFFFFFFF AND PUSH4 0xA9059CBB DUP6 DUP6 PUSH1 0x40 MLOAD PUSH1 0x24 ADD PUSH2 0x29B0 SWAP3 SWAP2 SWAP1 PUSH2 0x51AB JUMP JUMPDEST PUSH1 0x40 MLOAD PUSH1 0x20 DUP2 DUP4 SUB SUB DUP2 MSTORE SWAP1 PUSH1 0x40 MSTORE SWAP2 POP PUSH1 0xE0 SHL PUSH1 0x20 DUP3 ADD DUP1 MLOAD PUSH28 0xFFFFFFFFFFFFFFFFFFFFFFFFFFFFFFFFFFFFFFFFFFFFFFFFFFFFFFFF DUP4 DUP2 DUP4 AND OR DUP4 MSTORE POP POP POP POP PUSH2 0x37C1 JUMP JUMPDEST POP POP POP JUMP JUMPDEST PUSH2 0x2A0D DUP2 PUSH2 0x2A08 PUSH2 0x2B11 JUMP JUMPDEST PUSH2 0x3863 JUMP JUMPDEST POP JUMP JUMPDEST PUSH1 0x0 DUP1 PUSH2 0x2A1B PUSH2 0x2843 JUMP JUMPDEST SWAP1 POP PUSH2 0x2A27 DUP5 DUP5 PUSH2 0x1B1E JUMP JUMPDEST PUSH2 0x2B05 JUMPI PUSH1 0x1 DUP2 PUSH1 0x0 ADD PUSH1 0x0 DUP7 DUP2 MSTORE PUSH1 0x20 ADD SWAP1 DUP2 MSTORE PUSH1 0x20 ADD PUSH1 0x0 KECCAK256 PUSH1 0x0 ADD PUSH1 0x0 DUP6 PUSH20 0xFFFFFFFFFFFFFFFFFFFFFFFFFFFFFFFFFFFFFFFF AND PUSH20 0xFFFFFFFFFFFFFFFFFFFFFFFFFFFFFFFFFFFFFFFF AND DUP2 MSTORE PUSH1 0x20 ADD SWAP1 DUP2 MSTORE PUSH1 0x20 ADD PUSH1 0x0 KECCAK256 PUSH1 0x0 PUSH2 0x100 EXP DUP2 SLOAD DUP2 PUSH1 0xFF MUL NOT AND SWAP1 DUP4 ISZERO ISZERO MUL OR SWAP1 SSTORE POP PUSH2 0x2AA1 PUSH2 0x2B11 JUMP JUMPDEST PUSH20 0xFFFFFFFFFFFFFFFFFFFFFFFFFFFFFFFFFFFFFFFF AND DUP4 PUSH20 0xFFFFFFFFFFFFFFFFFFFFFFFFFFFFFFFFFFFFFFFF AND DUP6 PUSH32 0x2F8788117E7EFF1D82E926EC794901D17C78024A50270940304540A733656F0D PUSH1 0x40 MLOAD PUSH1 0x40 MLOAD DUP1 SWAP2 SUB SWAP1 LOG4 PUSH1 0x1 SWAP2 POP POP PUSH2 0x2B0B JUMP JUMPDEST PUSH1 0x0 SWAP2 POP POP JUMPDEST SWAP3 SWAP2 POP POP JUMP JUMPDEST PUSH1 0x0 CALLER SWAP1 POP SWAP1 JUMP JUMPDEST PUSH1 0x0 DUP1 PUSH2 0x2B24 PUSH2 0x2843 JUMP JUMPDEST SWAP1 POP PUSH2 0x2B30 DUP5 DUP5 PUSH2 0x1B1E JUMP JUMPDEST ISZERO PUSH2 0x2C0F JUMPI PUSH1 0x0 DUP2 PUSH1 0x0 ADD PUSH1 0x0 DUP7 DUP2 MSTORE PUSH1 0x20 ADD SWAP1 DUP2 MSTORE PUSH1 0x20 ADD PUSH1 0x0 KECCAK256 PUSH1 0x0 ADD PUSH1 0x0 DUP6 PUSH20 0xFFFFFFFFFFFFFFFFFFFFFFFFFFFFFFFFFFFFFFFF AND PUSH20 0xFFFFFFFFFFFFFFFFFFFFFFFFFFFFFFFFFFFFFFFF AND DUP2 MSTORE PUSH1 0x20 ADD SWAP1 DUP2 MSTORE PUSH1 0x20 ADD PUSH1 0x0 KECCAK256 PUSH1 0x0 PUSH2 0x100 EXP DUP2 SLOAD DUP2 PUSH1 0xFF MUL NOT AND SWAP1 DUP4 ISZERO ISZERO MUL OR SWAP1 SSTORE POP PUSH2 0x2BAB PUSH2 0x2B11 JUMP JUMPDEST PUSH20 0xFFFFFFFFFFFFFFFFFFFFFFFFFFFFFFFFFFFFFFFF AND DUP4 PUSH20 0xFFFFFFFFFFFFFFFFFFFFFFFFFFFFFFFFFFFFFFFF AND DUP6 PUSH32 0xF6391F5C32D9C69D2A47EA670B442974B53935D1EDC7FD64EB21E047A839171B PUSH1 0x40 MLOAD PUSH1 0x40 MLOAD DUP1 SWAP2 SUB SWAP1 LOG4 PUSH1 0x1 SWAP2 POP POP PUSH2 0x2C15 JUMP JUMPDEST PUSH1 0x0 SWAP2 POP POP JUMPDEST SWAP3 SWAP2 POP POP JUMP JUMPDEST DUP1 PUSH1 0x0 DUP1 SLOAD SWAP1 POP DUP2 LT PUSH2 0x2C63 JUMPI PUSH1 0x40 MLOAD PUSH32 0x8C379A000000000000000000000000000000000000000000000000000000000 DUP2 MSTORE PUSH1 0x4 ADD PUSH2 0x2C5A SWAP1 PUSH2 0x4586 JUMP JUMPDEST PUSH1 0x40 MLOAD DUP1 SWAP2 SUB SWAP1 REVERT JUMPDEST PUSH1 0x0 DUP1 DUP4 DUP2 SLOAD DUP2 LT PUSH2 0x2C78 JUMPI PUSH2 0x2C77 PUSH2 0x4612 JUMP JUMPDEST JUMPDEST SWAP1 PUSH1 0x0 MSTORE PUSH1 0x20 PUSH1 0x0 KECCAK256 SWAP1 PUSH1 0x7 MUL ADD SWAP1 POP DUP1 PUSH1 0x3 ADD SLOAD NUMBER GT PUSH2 0x2C99 JUMPI POP PUSH2 0x2EAA JUMP JUMPDEST PUSH1 0x0 DUP1 PUSH2 0x2CC0 DUP4 PUSH1 0x1 ADD SLOAD PUSH2 0x2CB2 NUMBER DUP7 PUSH1 0x3 ADD SLOAD PUSH2 0x196E JUMP JUMPDEST PUSH2 0x33B7 SWAP1 SWAP2 SWAP1 PUSH4 0xFFFFFFFF AND JUMP JUMPDEST SWAP2 POP SWAP2 POP DUP2 PUSH2 0x2D04 JUMPI PUSH1 0x40 MLOAD PUSH32 0x8C379A000000000000000000000000000000000000000000000000000000000 DUP2 MSTORE PUSH1 0x4 ADD PUSH2 0x2CFB SWAP1 PUSH2 0x4B0F JUMP JUMPDEST PUSH1 0x40 MLOAD DUP1 SWAP2 SUB SWAP1 REVERT JUMPDEST PUSH2 0x2D19 PUSH1 0x5 SLOAD DUP3 PUSH2 0x38B4 SWAP1 SWAP2 SWAP1 PUSH4 0xFFFFFFFF AND JUMP JUMPDEST DUP1 SWAP3 POP DUP2 SWAP4 POP POP POP DUP2 PUSH2 0x2D61 JUMPI PUSH1 0x40 MLOAD PUSH32 0x8C379A000000000000000000000000000000000000000000000000000000000 DUP2 MSTORE PUSH1 0x4 ADD PUSH2 0x2D58 SWAP1 PUSH2 0x5220 JUMP JUMPDEST PUSH1 0x40 MLOAD DUP1 SWAP2 SUB SWAP1 REVERT JUMPDEST PUSH1 0x0 DUP4 PUSH1 0x5 ADD SLOAD SWAP1 POP PUSH1 0x0 DUP2 GT ISZERO PUSH2 0x2E9C JUMPI PUSH1 0x0 DUP1 PUSH2 0x2D91 PUSH8 0xDE0B6B3A7640000 DUP6 PUSH2 0x33B7 SWAP1 SWAP2 SWAP1 PUSH4 0xFFFFFFFF AND JUMP JUMPDEST SWAP2 POP SWAP2 POP DUP2 PUSH2 0x2DD5 JUMPI PUSH1 0x40 MLOAD PUSH32 0x8C379A000000000000000000000000000000000000000000000000000000000 DUP2 MSTORE PUSH1 0x4 ADD PUSH2 0x2DCC SWAP1 PUSH2 0x528C JUMP JUMPDEST PUSH1 0x40 MLOAD DUP1 SWAP2 SUB SWAP1 REVERT JUMPDEST PUSH2 0x2DE8 DUP4 DUP3 PUSH2 0x38B4 SWAP1 SWAP2 SWAP1 PUSH4 0xFFFFFFFF AND JUMP JUMPDEST DUP1 SWAP3 POP DUP2 SWAP4 POP POP POP DUP2 PUSH2 0x2E30 JUMPI PUSH1 0x40 MLOAD PUSH32 0x8C379A000000000000000000000000000000000000000000000000000000000 DUP2 MSTORE PUSH1 0x4 ADD PUSH2 0x2E27 SWAP1 PUSH2 0x5220 JUMP JUMPDEST PUSH1 0x40 MLOAD DUP1 SWAP2 SUB SWAP1 REVERT JUMPDEST PUSH1 0x0 DUP1 PUSH2 0x2E4A DUP4 DUP10 PUSH1 0x4 ADD SLOAD PUSH2 0x38C9 SWAP1 SWAP2 SWAP1 PUSH4 0xFFFFFFFF AND JUMP JUMPDEST SWAP2 POP SWAP2 POP DUP2 PUSH2 0x2E8E JUMPI PUSH1 0x40 MLOAD PUSH32 0x8C379A000000000000000000000000000000000000000000000000000000000 DUP2 MSTORE PUSH1 0x4 ADD PUSH2 0x2E85 SWAP1 PUSH2 0x52F8 JUMP JUMPDEST PUSH1 0x40 MLOAD DUP1 SWAP2 SUB SWAP1 REVERT JUMPDEST DUP1 DUP9 PUSH1 0x4 ADD DUP2 SWAP1 SSTORE POP POP POP POP POP JUMPDEST NUMBER DUP5 PUSH1 0x3 ADD DUP2 SWAP1 SSTORE POP POP POP POP POP JUMPDEST POP POP JUMP JUMPDEST PUSH1 0x0 PUSH1 0x6 PUSH1 0x0 SWAP1 SLOAD SWAP1 PUSH2 0x100 EXP SWAP1 DIV PUSH20 0xFFFFFFFFFFFFFFFFFFFFFFFFFFFFFFFFFFFFFFFF AND PUSH20 0xFFFFFFFFFFFFFFFFFFFFFFFFFFFFFFFFFFFFFFFF AND PUSH4 0x70A08231 ADDRESS PUSH1 0x40 MLOAD DUP3 PUSH4 0xFFFFFFFF AND PUSH1 0xE0 SHL DUP2 MSTORE PUSH1 0x4 ADD PUSH2 0x2F0B SWAP2 SWAP1 PUSH2 0x5318 JUMP JUMPDEST PUSH1 0x20 PUSH1 0x40 MLOAD DUP1 DUP4 SUB DUP2 DUP7 GAS STATICCALL ISZERO DUP1 ISZERO PUSH2 0x2F28 JUMPI RETURNDATASIZE PUSH1 0x0 DUP1 RETURNDATACOPY RETURNDATASIZE PUSH1 0x0 REVERT JUMPDEST POP POP POP POP PUSH1 0x40 MLOAD RETURNDATASIZE PUSH1 0x1F NOT PUSH1 0x1F DUP3 ADD AND DUP3 ADD DUP1 PUSH1 0x40 MSTORE POP DUP2 ADD SWAP1 PUSH2 0x2F4C SWAP2 SWAP1 PUSH2 0x5348 JUMP JUMPDEST SWAP1 POP DUP1 DUP3 GT ISZERO PUSH2 0x2FFC JUMPI PUSH1 0x6 PUSH1 0x0 SWAP1 SLOAD SWAP1 PUSH2 0x100 EXP SWAP1 DIV PUSH20 0xFFFFFFFFFFFFFFFFFFFFFFFFFFFFFFFFFFFFFFFF AND PUSH20 0xFFFFFFFFFFFFFFFFFFFFFFFFFFFFFFFFFFFFFFFF AND PUSH4 0xA9059CBB DUP5 DUP4 PUSH1 0x40 MLOAD DUP4 PUSH4 0xFFFFFFFF AND PUSH1 0xE0 SHL DUP2 MSTORE PUSH1 0x4 ADD PUSH2 0x2FB3 SWAP3 SWAP2 SWAP1 PUSH2 0x51AB JUMP JUMPDEST PUSH1 0x20 PUSH1 0x40 MLOAD DUP1 DUP4 SUB DUP2 PUSH1 0x0 DUP8 GAS CALL ISZERO DUP1 ISZERO PUSH2 0x2FD2 JUMPI RETURNDATASIZE PUSH1 0x0 DUP1 RETURNDATACOPY RETURNDATASIZE PUSH1 0x0 REVERT JUMPDEST POP POP POP POP PUSH1 0x40 MLOAD RETURNDATASIZE PUSH1 0x1F NOT PUSH1 0x1F DUP3 ADD AND DUP3 ADD DUP1 PUSH1 0x40 MSTORE POP DUP2 ADD SWAP1 PUSH2 0x2FF6 SWAP2 SWAP1 PUSH2 0x50EC JUMP JUMPDEST POP PUSH2 0x309E JUMP JUMPDEST PUSH1 0x6 PUSH1 0x0 SWAP1 SLOAD SWAP1 PUSH2 0x100 EXP SWAP1 DIV PUSH20 0xFFFFFFFFFFFFFFFFFFFFFFFFFFFFFFFFFFFFFFFF AND PUSH20 0xFFFFFFFFFFFFFFFFFFFFFFFFFFFFFFFFFFFFFFFF AND PUSH4 0xA9059CBB DUP5 DUP5 PUSH1 0x40 MLOAD DUP4 PUSH4 0xFFFFFFFF AND PUSH1 0xE0 SHL DUP2 MSTORE PUSH1 0x4 ADD PUSH2 0x3059 SWAP3 SWAP2 SWAP1 PUSH2 0x51AB JUMP JUMPDEST PUSH1 0x20 PUSH1 0x40 MLOAD DUP1 DUP4 SUB DUP2 PUSH1 0x0 DUP8 GAS CALL ISZERO DUP1 ISZERO PUSH2 0x3078 JUMPI RETURNDATASIZE PUSH1 0x0 DUP1 RETURNDATACOPY RETURNDATASIZE PUSH1 0x0 REVERT JUMPDEST POP POP POP POP PUSH1 0x40 MLOAD RETURNDATASIZE PUSH1 0x1F NOT PUSH1 0x1F DUP3 ADD AND DUP3 ADD DUP1 PUSH1 0x40 MSTORE POP DUP2 ADD SWAP1 PUSH2 0x309C SWAP2 SWAP1 PUSH2 0x50EC JUMP JUMPDEST POP JUMPDEST POP POP POP JUMP JUMPDEST PUSH1 0x0 DUP1 PUSH2 0x30AE PUSH2 0x38EE JUMP JUMPDEST SWAP1 POP DUP1 SWAP2 POP POP SWAP1 JUMP JUMPDEST PUSH2 0x30BF PUSH2 0x3919 JUMP JUMPDEST JUMP JUMPDEST PUSH2 0x30C9 PUSH2 0x3919 JUMP JUMPDEST JUMP JUMPDEST PUSH2 0x30D3 PUSH2 0x3919 JUMP JUMPDEST JUMP JUMPDEST PUSH32 0x0 PUSH20 0xFFFFFFFFFFFFFFFFFFFFFFFFFFFFFFFFFFFFFFFF AND ADDRESS PUSH20 0xFFFFFFFFFFFFFFFFFFFFFFFFFFFFFFFFFFFFFFFF AND EQ DUP1 PUSH2 0x3182 JUMPI POP PUSH32 0x0 PUSH20 0xFFFFFFFFFFFFFFFFFFFFFFFFFFFFFFFFFFFFFFFF AND PUSH2 0x3169 PUSH2 0x3959 JUMP JUMPDEST PUSH20 0xFFFFFFFFFFFFFFFFFFFFFFFFFFFFFFFFFFFFFFFF AND EQ ISZERO JUMPDEST ISZERO PUSH2 0x31B9 JUMPI PUSH1 0x40 MLOAD PUSH32 0xE07C8DBA00000000000000000000000000000000000000000000000000000000 DUP2 MSTORE PUSH1 0x4 ADD PUSH1 0x40 MLOAD DUP1 SWAP2 SUB SWAP1 REVERT JUMPDEST JUMP JUMPDEST PUSH32 0x189AB7A9244DF0848122154315AF71FE140F3DB0FE014031783B0946B8C9D2E3 PUSH2 0x31E5 DUP2 PUSH2 0x29FC JUMP JUMPDEST POP POP JUMP JUMPDEST DUP2 PUSH20 0xFFFFFFFFFFFFFFFFFFFFFFFFFFFFFFFFFFFFFFFF AND PUSH4 0x52D1902D PUSH1 0x40 MLOAD DUP2 PUSH4 0xFFFFFFFF AND PUSH1 0xE0 SHL DUP2 MSTORE PUSH1 0x4 ADD PUSH1 0x20 PUSH1 0x40 MLOAD DUP1 DUP4 SUB DUP2 DUP7 GAS STATICCALL SWAP3 POP POP POP DUP1 ISZERO PUSH2 0x3251 JUMPI POP PUSH1 0x40 MLOAD RETURNDATASIZE PUSH1 0x1F NOT PUSH1 0x1F DUP3 ADD AND DUP3 ADD DUP1 PUSH1 0x40 MSTORE POP DUP2 ADD SWAP1 PUSH2 0x324E SWAP2 SWAP1 PUSH2 0x538A JUMP JUMPDEST PUSH1 0x1 JUMPDEST PUSH2 0x3292 JUMPI DUP2 PUSH1 0x40 MLOAD PUSH32 0x4C9C8CE300000000000000000000000000000000000000000000000000000000 DUP2 MSTORE PUSH1 0x4 ADD PUSH2 0x3289 SWAP2 SWAP1 PUSH2 0x5318 JUMP JUMPDEST PUSH1 0x40 MLOAD DUP1 SWAP2 SUB SWAP1 REVERT JUMPDEST PUSH32 0x360894A13BA1A3210667C828492DB98DCA3E2076CC3735A920A3CA505D382BBC PUSH1 0x0 SHL DUP2 EQ PUSH2 0x32F9 JUMPI DUP1 PUSH1 0x40 MLOAD PUSH32 0xAA1D49A400000000000000000000000000000000000000000000000000000000 DUP2 MSTORE PUSH1 0x4 ADD PUSH2 0x32F0 SWAP2 SWAP1 PUSH2 0x3F1E JUMP JUMPDEST PUSH1 0x40 MLOAD DUP1 SWAP2 SUB SWAP1 REVERT JUMPDEST PUSH2 0x3303 DUP4 DUP4 PUSH2 0x39B0 JUMP JUMPDEST POP POP POP JUMP JUMPDEST PUSH32 0x0 PUSH20 0xFFFFFFFFFFFFFFFFFFFFFFFFFFFFFFFFFFFFFFFF AND ADDRESS PUSH20 0xFFFFFFFFFFFFFFFFFFFFFFFFFFFFFFFFFFFFFFFF AND EQ PUSH2 0x338D JUMPI PUSH1 0x40 MLOAD PUSH32 0xE07C8DBA00000000000000000000000000000000000000000000000000000000 DUP2 MSTORE PUSH1 0x4 ADD PUSH1 0x40 MLOAD DUP1 SWAP2 SUB SWAP1 REVERT JUMPDEST JUMP JUMPDEST PUSH1 0x0 PUSH32 0xCD5ED15C6E187E77E9AEE88184C21F4F2182AB5827CB3B7E07FBEDCD63F03300 SWAP1 POP SWAP1 JUMP JUMPDEST PUSH1 0x0 DUP1 PUSH1 0x0 DUP4 DUP6 MUL SWAP1 POP DUP5 ISZERO DUP5 DUP7 DUP4 DIV EQ OR SWAP3 POP PUSH2 0x33D4 DUP4 PUSH2 0x3A23 JUMP JUMPDEST DUP2 MUL SWAP2 POP POP SWAP3 POP SWAP3 SWAP1 POP JUMP JUMPDEST PUSH2 0x345C DUP5 DUP6 PUSH20 0xFFFFFFFFFFFFFFFFFFFFFFFFFFFFFFFFFFFFFFFF AND PUSH4 0x23B872DD DUP7 DUP7 DUP7 PUSH1 0x40 MLOAD PUSH1 0x24 ADD PUSH2 0x3415 SWAP4 SWAP3 SWAP2 SWAP1 PUSH2 0x53B7 JUMP JUMPDEST PUSH1 0x40 MLOAD PUSH1 0x20 DUP2 DUP4 SUB SUB DUP2 MSTORE SWAP1 PUSH1 0x40 MSTORE SWAP2 POP PUSH1 0xE0 SHL PUSH1 0x20 DUP3 ADD DUP1 MLOAD PUSH28 0xFFFFFFFFFFFFFFFFFFFFFFFFFFFFFFFFFFFFFFFFFFFFFFFFFFFFFFFF DUP4 DUP2 DUP4 AND OR DUP4 MSTORE POP POP POP POP PUSH2 0x37C1 JUMP JUMPDEST POP POP POP POP JUMP JUMPDEST DUP2 PUSH1 0x0 DUP1 SLOAD SWAP1 POP DUP2 LT PUSH2 0x34AA JUMPI PUSH1 0x40 MLOAD PUSH32 0x8C379A000000000000000000000000000000000000000000000000000000000 DUP2 MSTORE PUSH1 0x4 ADD PUSH2 0x34A1 SWAP1 PUSH2 0x4586 JUMP JUMPDEST PUSH1 0x40 MLOAD DUP1 SWAP2 SUB SWAP1 REVERT JUMPDEST PUSH1 0x0 DUP1 DUP5 DUP2 SLOAD DUP2 LT PUSH2 0x34BF JUMPI PUSH2 0x34BE PUSH2 0x4612 JUMP JUMPDEST JUMPDEST SWAP1 PUSH1 0x0 MSTORE PUSH1 0x20 PUSH1 0x0 KECCAK256 SWAP1 PUSH1 0x7 MUL ADD SWAP1 POP PUSH1 0x0 PUSH1 0x7 PUSH1 0x0 DUP7 DUP2 MSTORE PUSH1 0x20 ADD SWAP1 DUP2 MSTORE PUSH1 0x20 ADD PUSH1 0x0 KECCAK256 PUSH1 0x0 CALLER PUSH20 0xFFFFFFFFFFFFFFFFFFFFFFFFFFFFFFFFFFFFFFFF AND PUSH20 0xFFFFFFFFFFFFFFFFFFFFFFFFFFFFFFFFFFFFFFFF AND DUP2 MSTORE PUSH1 0x20 ADD SWAP1 DUP2 MSTORE PUSH1 0x20 ADD PUSH1 0x0 KECCAK256 SWAP1 POP PUSH2 0x352C DUP6 PUSH2 0x2C1B JUMP JUMPDEST PUSH1 0x0 DUP2 PUSH1 0x0 ADD SLOAD GT ISZERO PUSH2 0x3671 JUMPI PUSH1 0x0 DUP1 PUSH2 0x3557 DUP5 PUSH1 0x4 ADD SLOAD DUP5 PUSH1 0x0 ADD SLOAD PUSH2 0x33B7 SWAP1 SWAP2 SWAP1 PUSH4 0xFFFFFFFF AND JUMP JUMPDEST SWAP2 POP SWAP2 POP DUP2 PUSH2 0x359B JUMPI PUSH1 0x40 MLOAD PUSH32 0x8C379A000000000000000000000000000000000000000000000000000000000 DUP2 MSTORE PUSH1 0x4 ADD PUSH2 0x3592 SWAP1 PUSH2 0x543A JUMP JUMPDEST PUSH1 0x40 MLOAD DUP1 SWAP2 SUB SWAP1 REVERT JUMPDEST PUSH1 0x0 DUP1 PUSH2 0x35B5 DUP6 PUSH1 0x1 ADD SLOAD DUP5 PUSH2 0x3A2F SWAP1 SWAP2 SWAP1 PUSH4 0xFFFFFFFF AND JUMP JUMPDEST SWAP2 POP SWAP2 POP DUP2 PUSH2 0x35F9 JUMPI PUSH1 0x40 MLOAD PUSH32 0x8C379A000000000000000000000000000000000000000000000000000000000 DUP2 MSTORE PUSH1 0x4 ADD PUSH2 0x35F0 SWAP1 PUSH2 0x54A6 JUMP JUMPDEST PUSH1 0x40 MLOAD DUP1 SWAP2 SUB SWAP1 REVERT JUMPDEST PUSH1 0x0 DUP2 GT ISZERO PUSH2 0x366C JUMPI PUSH1 0x0 DUP1 PUSH2 0x361C DUP8 PUSH1 0x2 ADD SLOAD DUP5 PUSH2 0x38C9 SWAP1 SWAP2 SWAP1 PUSH4 0xFFFFFFFF AND JUMP JUMPDEST SWAP2 POP SWAP2 POP DUP2 PUSH2 0x3660 JUMPI PUSH1 0x40 MLOAD PUSH32 0x8C379A000000000000000000000000000000000000000000000000000000000 DUP2 MSTORE PUSH1 0x4 ADD PUSH2 0x3657 SWAP1 PUSH2 0x5512 JUMP JUMPDEST PUSH1 0x40 MLOAD DUP1 SWAP2 SUB SWAP1 REVERT JUMPDEST DUP1 DUP8 PUSH1 0x2 ADD DUP2 SWAP1 SSTORE POP POP POP JUMPDEST POP POP POP POP JUMPDEST PUSH1 0x0 DUP5 GT ISZERO PUSH2 0x36E4 JUMPI PUSH1 0x0 DUP1 PUSH2 0x3694 DUP4 PUSH1 0x0 ADD SLOAD DUP8 PUSH2 0x38C9 SWAP1 SWAP2 SWAP1 PUSH4 0xFFFFFFFF AND JUMP JUMPDEST SWAP2 POP SWAP2 POP DUP2 PUSH2 0x36D8 JUMPI PUSH1 0x40 MLOAD PUSH32 0x8C379A000000000000000000000000000000000000000000000000000000000 DUP2 MSTORE PUSH1 0x4 ADD PUSH2 0x36CF SWAP1 PUSH2 0x557E JUMP JUMPDEST PUSH1 0x40 MLOAD DUP1 SWAP2 SUB SWAP1 REVERT JUMPDEST DUP1 DUP4 PUSH1 0x0 ADD DUP2 SWAP1 SSTORE POP POP POP JUMPDEST PUSH1 0x0 DUP1 PUSH2 0x36FE DUP5 PUSH1 0x5 ADD SLOAD DUP8 PUSH2 0x38C9 SWAP1 SWAP2 SWAP1 PUSH4 0xFFFFFFFF AND JUMP JUMPDEST SWAP2 POP SWAP2 POP DUP2 PUSH2 0x3742 JUMPI PUSH1 0x40 MLOAD PUSH32 0x8C379A000000000000000000000000000000000000000000000000000000000 DUP2 MSTORE PUSH1 0x4 ADD PUSH2 0x3739 SWAP1 PUSH2 0x55EA JUMP JUMPDEST PUSH1 0x40 MLOAD DUP1 SWAP2 SUB SWAP1 REVERT JUMPDEST DUP1 DUP5 PUSH1 0x5 ADD DUP2 SWAP1 SSTORE POP PUSH1 0x0 DUP1 PUSH2 0x3769 DUP7 PUSH1 0x4 ADD SLOAD DUP7 PUSH1 0x0 ADD SLOAD PUSH2 0x33B7 SWAP1 SWAP2 SWAP1 PUSH4 0xFFFFFFFF AND JUMP JUMPDEST SWAP2 POP SWAP2 POP DUP2 PUSH2 0x37AD JUMPI PUSH1 0x40 MLOAD PUSH32 0x8C379A000000000000000000000000000000000000000000000000000000000 DUP2 MSTORE PUSH1 0x4 ADD PUSH2 0x37A4 SWAP1 PUSH2 0x52F8 JUMP JUMPDEST PUSH1 0x40 MLOAD DUP1 SWAP2 SUB SWAP1 REVERT JUMPDEST DUP1 DUP6 PUSH1 0x1 ADD DUP2 SWAP1 SSTORE POP POP POP POP POP POP POP POP POP POP JUMP JUMPDEST PUSH1 0x0 DUP1 PUSH1 0x20 PUSH1 0x0 DUP5 MLOAD PUSH1 0x20 DUP7 ADD PUSH1 0x0 DUP9 GAS CALL DUP1 PUSH2 0x37E4 JUMPI PUSH1 0x40 MLOAD RETURNDATASIZE PUSH1 0x0 DUP3 RETURNDATACOPY RETURNDATASIZE DUP2 REVERT JUMPDEST RETURNDATASIZE SWAP3 POP PUSH1 0x0 MLOAD SWAP2 POP POP PUSH1 0x0 DUP3 EQ PUSH2 0x37FF JUMPI PUSH1 0x1 DUP2 EQ ISZERO PUSH2 0x381B JUMP JUMPDEST PUSH1 0x0 DUP5 PUSH20 0xFFFFFFFFFFFFFFFFFFFFFFFFFFFFFFFFFFFFFFFF AND EXTCODESIZE EQ JUMPDEST ISZERO PUSH2 0x385D JUMPI DUP4 PUSH1 0x40 MLOAD PUSH32 0x5274AFE700000000000000000000000000000000000000000000000000000000 DUP2 MSTORE PUSH1 0x4 ADD PUSH2 0x3854 SWAP2 SWAP1 PUSH2 0x5318 JUMP JUMPDEST PUSH1 0x40 MLOAD DUP1 SWAP2 SUB SWAP1 REVERT JUMPDEST POP POP POP POP JUMP JUMPDEST PUSH2 0x386D DUP3 DUP3 PUSH2 0x1B1E JUMP JUMPDEST PUSH2 0x38B0 JUMPI DUP1 DUP3 PUSH1 0x40 MLOAD PUSH32 0xE2517D3F00000000000000000000000000000000000000000000000000000000 DUP2 MSTORE PUSH1 0x4 ADD PUSH2 0x38A7 SWAP3 SWAP2 SWAP1 PUSH2 0x560A JUMP JUMPDEST PUSH1 0x40 MLOAD DUP1 SWAP2 SUB SWAP1 REVERT JUMPDEST POP POP JUMP JUMPDEST PUSH1 0x0 DUP1 PUSH1 0x0 DUP4 GT SWAP2 POP DUP3 DUP5 DIV SWAP1 POP SWAP3 POP SWAP3 SWAP1 POP JUMP JUMPDEST PUSH1 0x0 DUP1 PUSH1 0x0 DUP4 DUP6 ADD SWAP1 POP DUP5 DUP2 LT ISZERO SWAP3 POP PUSH2 0x38E2 DUP4 PUSH2 0x3A23 JUMP JUMPDEST DUP2 MUL SWAP2 POP POP SWAP3 POP SWAP3 SWAP1 POP JUMP JUMPDEST PUSH1 0x0 PUSH32 0xF0C57E16840DF040F15088DC2F81FE391C3923BEC73E23A9662EFC9C229C6A00 PUSH1 0x0 SHL SWAP1 POP SWAP1 JUMP JUMPDEST PUSH2 0x3921 PUSH2 0x3A54 JUMP JUMPDEST PUSH2 0x3957 JUMPI PUSH1 0x40 MLOAD PUSH32 0xD7E6BCF800000000000000000000000000000000000000000000000000000000 DUP2 MSTORE PUSH1 0x4 ADD PUSH1 0x40 MLOAD DUP1 SWAP2 SUB SWAP1 REVERT JUMPDEST JUMP JUMPDEST PUSH1 0x0 PUSH2 0x3987 PUSH32 0x360894A13BA1A3210667C828492DB98DCA3E2076CC3735A920A3CA505D382BBC PUSH1 0x0 SHL PUSH2 0x3A74 JUMP JUMPDEST PUSH1 0x0 ADD PUSH1 0x0 SWAP1 SLOAD SWAP1 PUSH2 0x100 EXP SWAP1 DIV PUSH20 0xFFFFFFFFFFFFFFFFFFFFFFFFFFFFFFFFFFFFFFFF AND SWAP1 POP SWAP1 JUMP JUMPDEST PUSH2 0x39B9 DUP3 PUSH2 0x3A7E JUMP JUMPDEST DUP2 PUSH20 0xFFFFFFFFFFFFFFFFFFFFFFFFFFFFFFFFFFFFFFFF AND PUSH32 0xBC7CD75A20EE27FD9ADEBAB32041F755214DBC6BFFA90CC0225B39DA2E5C2D3B PUSH1 0x40 MLOAD PUSH1 0x40 MLOAD DUP1 SWAP2 SUB SWAP1 LOG2 PUSH1 0x0 DUP2 MLOAD GT ISZERO PUSH2 0x3A16 JUMPI PUSH2 0x3A10 DUP3 DUP3 PUSH2 0x3B4B JUMP JUMPDEST POP PUSH2 0x3A1F JUMP JUMPDEST PUSH2 0x3A1E PUSH2 0x3BCF JUMP JUMPDEST JUMPDEST POP POP JUMP JUMPDEST PUSH1 0x0 DUP2 ISZERO ISZERO SWAP1 POP SWAP2 SWAP1 POP JUMP JUMPDEST PUSH1 0x0 DUP1 PUSH1 0x0 DUP4 DUP6 SUB SWAP1 POP DUP5 DUP2 GT ISZERO SWAP3 POP PUSH2 0x3A48 DUP4 PUSH2 0x3A23 JUMP JUMPDEST DUP2 MUL SWAP2 POP POP SWAP3 POP SWAP3 SWAP1 POP JUMP JUMPDEST PUSH1 0x0 PUSH2 0x3A5E PUSH2 0x30A3 JUMP JUMPDEST PUSH1 0x0 ADD PUSH1 0x8 SWAP1 SLOAD SWAP1 PUSH2 0x100 EXP SWAP1 DIV PUSH1 0xFF AND SWAP1 POP SWAP1 JUMP JUMPDEST PUSH1 0x0 DUP2 SWAP1 POP SWAP2 SWAP1 POP JUMP JUMPDEST PUSH1 0x0 DUP2 PUSH20 0xFFFFFFFFFFFFFFFFFFFFFFFFFFFFFFFFFFFFFFFF AND EXTCODESIZE SUB PUSH2 0x3ADA JUMPI DUP1 PUSH1 0x40 MLOAD PUSH32 0x4C9C8CE300000000000000000000000000000000000000000000000000000000 DUP2 MSTORE PUSH1 0x4 ADD PUSH2 0x3AD1 SWAP2 SWAP1 PUSH2 0x5318 JUMP JUMPDEST PUSH1 0x40 MLOAD DUP1 SWAP2 SUB SWAP1 REVERT JUMPDEST DUP1 PUSH2 0x3B07 PUSH32 0x360894A13BA1A3210667C828492DB98DCA3E2076CC3735A920A3CA505D382BBC PUSH1 0x0 SHL PUSH2 0x3A74 JUMP JUMPDEST PUSH1 0x0 ADD PUSH1 0x0 PUSH2 0x100 EXP DUP2 SLOAD DUP2 PUSH20 0xFFFFFFFFFFFFFFFFFFFFFFFFFFFFFFFFFFFFFFFF MUL NOT AND SWAP1 DUP4 PUSH20 0xFFFFFFFFFFFFFFFFFFFFFFFFFFFFFFFFFFFFFFFF AND MUL OR SWAP1 SSTORE POP POP JUMP JUMPDEST PUSH1 0x60 PUSH1 0x0 DUP1 DUP5 PUSH20 0xFFFFFFFFFFFFFFFFFFFFFFFFFFFFFFFFFFFFFFFF AND DUP5 PUSH1 0x40 MLOAD PUSH2 0x3B75 SWAP2 SWAP1 PUSH2 0x566F JUMP JUMPDEST PUSH1 0x0 PUSH1 0x40 MLOAD DUP1 DUP4 SUB DUP2 DUP6 GAS DELEGATECALL SWAP2 POP POP RETURNDATASIZE DUP1 PUSH1 0x0 DUP2 EQ PUSH2 0x3BB0 JUMPI PUSH1 0x40 MLOAD SWAP2 POP PUSH1 0x1F NOT PUSH1 0x3F RETURNDATASIZE ADD AND DUP3 ADD PUSH1 0x40 MSTORE RETURNDATASIZE DUP3 MSTORE RETURNDATASIZE PUSH1 0x0 PUSH1 0x20 DUP5 ADD RETURNDATACOPY PUSH2 0x3BB5 JUMP JUMPDEST PUSH1 0x60 SWAP2 POP JUMPDEST POP SWAP2 POP SWAP2 POP PUSH2 0x3BC5 DUP6 DUP4 DUP4 PUSH2 0x3C0C JUMP JUMPDEST SWAP3 POP POP POP SWAP3 SWAP2 POP POP JUMP JUMPDEST PUSH1 0x0 CALLVALUE GT ISZERO PUSH2 0x3C0A JUMPI PUSH1 0x40 MLOAD PUSH32 0xB398979F00000000000000000000000000000000000000000000000000000000 DUP2 MSTORE PUSH1 0x4 ADD PUSH1 0x40 MLOAD DUP1 SWAP2 SUB SWAP1 REVERT JUMPDEST JUMP JUMPDEST PUSH1 0x60 DUP3 PUSH2 0x3C21 JUMPI PUSH2 0x3C1C DUP3 PUSH2 0x3C9B JUMP JUMPDEST PUSH2 0x3C93 JUMP JUMPDEST PUSH1 0x0 DUP3 MLOAD EQ DUP1 ISZERO PUSH2 0x3C49 JUMPI POP PUSH1 0x0 DUP5 PUSH20 0xFFFFFFFFFFFFFFFFFFFFFFFFFFFFFFFFFFFFFFFF AND EXTCODESIZE EQ JUMPDEST ISZERO PUSH2 0x3C8B JUMPI DUP4 PUSH1 0x40 MLOAD PUSH32 0x9996B31500000000000000000000000000000000000000000000000000000000 DUP2 MSTORE PUSH1 0x4 ADD PUSH2 0x3C82 SWAP2 SWAP1 PUSH2 0x5318 JUMP JUMPDEST PUSH1 0x40 MLOAD DUP1 SWAP2 SUB SWAP1 REVERT JUMPDEST DUP2 SWAP1 POP PUSH2 0x3C94 JUMP JUMPDEST JUMPDEST SWAP4 SWAP3 POP POP POP JUMP JUMPDEST PUSH1 0x0 DUP2 MLOAD GT ISZERO PUSH2 0x3CAD JUMPI DUP1 MLOAD PUSH1 0x20 DUP3 ADD REVERT JUMPDEST PUSH1 0x40 MLOAD PUSH32 0xD6BDA27500000000000000000000000000000000000000000000000000000000 DUP2 MSTORE PUSH1 0x4 ADD PUSH1 0x40 MLOAD DUP1 SWAP2 SUB SWAP1 REVERT JUMPDEST PUSH1 0x0 PUSH1 0x40 MLOAD SWAP1 POP SWAP1 JUMP JUMPDEST PUSH1 0x0 DUP1 REVERT JUMPDEST PUSH1 0x0 DUP1 REVERT JUMPDEST PUSH1 0x0 PUSH32 0xFFFFFFFF00000000000000000000000000000000000000000000000000000000 DUP3 AND SWAP1 POP SWAP2 SWAP1 POP JUMP JUMPDEST PUSH2 0x3D28 DUP2 PUSH2 0x3CF3 JUMP JUMPDEST DUP2 EQ PUSH2 0x3D33 JUMPI PUSH1 0x0 DUP1 REVERT JUMPDEST POP JUMP JUMPDEST PUSH1 0x0 DUP2 CALLDATALOAD SWAP1 POP PUSH2 0x3D45 DUP2 PUSH2 0x3D1F JUMP JUMPDEST SWAP3 SWAP2 POP POP JUMP JUMPDEST PUSH1 0x0 PUSH1 0x20 DUP3 DUP5 SUB SLT ISZERO PUSH2 0x3D61 JUMPI PUSH2 0x3D60 PUSH2 0x3CE9 JUMP JUMPDEST JUMPDEST PUSH1 0x0 PUSH2 0x3D6F DUP5 DUP3 DUP6 ADD PUSH2 0x3D36 JUMP JUMPDEST SWAP2 POP POP SWAP3 SWAP2 POP POP JUMP JUMPDEST PUSH1 0x0 DUP2 ISZERO ISZERO SWAP1 POP SWAP2 SWAP1 POP JUMP JUMPDEST PUSH2 0x3D8D DUP2 PUSH2 0x3D78 JUMP JUMPDEST DUP3 MSTORE POP POP JUMP JUMPDEST PUSH1 0x0 PUSH1 0x20 DUP3 ADD SWAP1 POP PUSH2 0x3DA8 PUSH1 0x0 DUP4 ADD DUP5 PUSH2 0x3D84 JUMP JUMPDEST SWAP3 SWAP2 POP POP JUMP JUMPDEST PUSH1 0x0 DUP2 SWAP1 POP SWAP2 SWAP1 POP JUMP JUMPDEST PUSH2 0x3DC1 DUP2 PUSH2 0x3DAE JUMP JUMPDEST DUP3 MSTORE POP POP JUMP JUMPDEST PUSH1 0x0 PUSH1 0x20 DUP3 ADD SWAP1 POP PUSH2 0x3DDC PUSH1 0x0 DUP4 ADD DUP5 PUSH2 0x3DB8 JUMP JUMPDEST SWAP3 SWAP2 POP POP JUMP JUMPDEST PUSH2 0x3DEB DUP2 PUSH2 0x3DAE JUMP JUMPDEST DUP2 EQ PUSH2 0x3DF6 JUMPI PUSH1 0x0 DUP1 REVERT JUMPDEST POP JUMP JUMPDEST PUSH1 0x0 DUP2 CALLDATALOAD SWAP1 POP PUSH2 0x3E08 DUP2 PUSH2 0x3DE2 JUMP JUMPDEST SWAP3 SWAP2 POP POP JUMP JUMPDEST PUSH1 0x0 PUSH20 0xFFFFFFFFFFFFFFFFFFFFFFFFFFFFFFFFFFFFFFFF DUP3 AND SWAP1 POP SWAP2 SWAP1 POP JUMP JUMPDEST PUSH1 0x0 PUSH2 0x3E39 DUP3 PUSH2 0x3E0E JUMP JUMPDEST SWAP1 POP SWAP2 SWAP1 POP JUMP JUMPDEST PUSH2 0x3E49 DUP2 PUSH2 0x3E2E JUMP JUMPDEST DUP2 EQ PUSH2 0x3E54 JUMPI PUSH1 0x0 DUP1 REVERT JUMPDEST POP JUMP JUMPDEST PUSH1 0x0 DUP2 CALLDATALOAD SWAP1 POP PUSH2 0x3E66 DUP2 PUSH2 0x3E40 JUMP JUMPDEST SWAP3 SWAP2 POP POP JUMP JUMPDEST PUSH1 0x0 DUP1 PUSH1 0x40 DUP4 DUP6 SUB SLT ISZERO PUSH2 0x3E83 JUMPI PUSH2 0x3E82 PUSH2 0x3CE9 JUMP JUMPDEST JUMPDEST PUSH1 0x0 PUSH2 0x3E91 DUP6 DUP3 DUP7 ADD PUSH2 0x3DF9 JUMP JUMPDEST SWAP3 POP POP PUSH1 0x20 PUSH2 0x3EA2 DUP6 DUP3 DUP7 ADD PUSH2 0x3E57 JUMP JUMPDEST SWAP2 POP POP SWAP3 POP SWAP3 SWAP1 POP JUMP JUMPDEST PUSH1 0x0 DUP2 SWAP1 POP SWAP2 SWAP1 POP JUMP JUMPDEST PUSH2 0x3EBF DUP2 PUSH2 0x3EAC JUMP JUMPDEST DUP2 EQ PUSH2 0x3ECA JUMPI PUSH1 0x0 DUP1 REVERT JUMPDEST POP JUMP JUMPDEST PUSH1 0x0 DUP2 CALLDATALOAD SWAP1 POP PUSH2 0x3EDC DUP2 PUSH2 0x3EB6 JUMP JUMPDEST SWAP3 SWAP2 POP POP JUMP JUMPDEST PUSH1 0x0 PUSH1 0x20 DUP3 DUP5 SUB SLT ISZERO PUSH2 0x3EF8 JUMPI PUSH2 0x3EF7 PUSH2 0x3CE9 JUMP JUMPDEST JUMPDEST PUSH1 0x0 PUSH2 0x3F06 DUP5 DUP3 DUP6 ADD PUSH2 0x3ECD JUMP JUMPDEST SWAP2 POP POP SWAP3 SWAP2 POP POP JUMP JUMPDEST PUSH2 0x3F18 DUP2 PUSH2 0x3EAC JUMP JUMPDEST DUP3 MSTORE POP POP JUMP JUMPDEST PUSH1 0x0 PUSH1 0x20 DUP3 ADD SWAP1 POP PUSH2 0x3F33 PUSH1 0x0 DUP4 ADD DUP5 PUSH2 0x3F0F JUMP JUMPDEST SWAP3 SWAP2 POP POP JUMP JUMPDEST PUSH1 0x0 PUSH1 0x20 DUP3 DUP5 SUB SLT ISZERO PUSH2 0x3F4F JUMPI PUSH2 0x3F4E PUSH2 0x3CE9 JUMP JUMPDEST JUMPDEST PUSH1 0x0 PUSH2 0x3F5D DUP5 DUP3 DUP6 ADD PUSH2 0x3DF9 JUMP JUMPDEST SWAP2 POP POP SWAP3 SWAP2 POP POP JUMP JUMPDEST PUSH1 0x0 DUP1 PUSH1 0x40 DUP4 DUP6 SUB SLT ISZERO PUSH2 0x3F7D JUMPI PUSH2 0x3F7C PUSH2 0x3CE9 JUMP JUMPDEST JUMPDEST PUSH1 0x0 PUSH2 0x3F8B DUP6 DUP3 DUP7 ADD PUSH2 0x3ECD JUMP JUMPDEST SWAP3 POP POP PUSH1 0x20 PUSH2 0x3F9C DUP6 DUP3 DUP7 ADD PUSH2 0x3E57 JUMP JUMPDEST SWAP2 POP POP SWAP3 POP SWAP3 SWAP1 POP JUMP JUMPDEST PUSH1 0x0 DUP1 PUSH1 0x0 DUP1 PUSH1 0x80 DUP6 DUP8 SUB SLT ISZERO PUSH2 0x3FC0 JUMPI PUSH2 0x3FBF PUSH2 0x3CE9 JUMP JUMPDEST JUMPDEST PUSH1 0x0 PUSH2 0x3FCE DUP8 DUP3 DUP9 ADD PUSH2 0x3E57 JUMP JUMPDEST SWAP5 POP POP PUSH1 0x20 PUSH2 0x3FDF DUP8 DUP3 DUP9 ADD PUSH2 0x3DF9 JUMP JUMPDEST SWAP4 POP POP PUSH1 0x40 PUSH2 0x3FF0 DUP8 DUP3 DUP9 ADD PUSH2 0x3DF9 JUMP JUMPDEST SWAP3 POP POP PUSH1 0x60 PUSH2 0x4001 DUP8 DUP3 DUP9 ADD PUSH2 0x3DF9 JUMP JUMPDEST SWAP2 POP POP SWAP3 SWAP6 SWAP2 SWAP5 POP SWAP3 POP JUMP JUMPDEST PUSH1 0x0 DUP1 REVERT JUMPDEST PUSH1 0x0 DUP1 REVERT JUMPDEST PUSH1 0x0 PUSH1 0x1F NOT PUSH1 0x1F DUP4 ADD AND SWAP1 POP SWAP2 SWAP1 POP JUMP JUMPDEST PUSH32 0x4E487B7100000000000000000000000000000000000000000000000000000000 PUSH1 0x0 MSTORE PUSH1 0x41 PUSH1 0x4 MSTORE PUSH1 0x24 PUSH1 0x0 REVERT JUMPDEST PUSH2 0x4060 DUP3 PUSH2 0x4017 JUMP JUMPDEST DUP2 ADD DUP2 DUP2 LT PUSH8 0xFFFFFFFFFFFFFFFF DUP3 GT OR ISZERO PUSH2 0x407F JUMPI PUSH2 0x407E PUSH2 0x4028 JUMP JUMPDEST JUMPDEST DUP1 PUSH1 0x40 MSTORE POP POP POP JUMP JUMPDEST PUSH1 0x0 PUSH2 0x4092 PUSH2 0x3CDF JUMP JUMPDEST SWAP1 POP PUSH2 0x409E DUP3 DUP3 PUSH2 0x4057 JUMP JUMPDEST SWAP2 SWAP1 POP JUMP JUMPDEST PUSH1 0x0 PUSH8 0xFFFFFFFFFFFFFFFF DUP3 GT ISZERO PUSH2 0x40BE JUMPI PUSH2 0x40BD PUSH2 0x4028 JUMP JUMPDEST JUMPDEST PUSH2 0x40C7 DUP3 PUSH2 0x4017 JUMP JUMPDEST SWAP1 POP PUSH1 0x20 DUP2 ADD SWAP1 POP SWAP2 SWAP1 POP JUMP JUMPDEST DUP3 DUP2 DUP4 CALLDATACOPY PUSH1 0x0 DUP4 DUP4 ADD MSTORE POP POP POP JUMP JUMPDEST PUSH1 0x0 PUSH2 0x40F6 PUSH2 0x40F1 DUP5 PUSH2 0x40A3 JUMP JUMPDEST PUSH2 0x4088 JUMP JUMPDEST SWAP1 POP DUP3 DUP2 MSTORE PUSH1 0x20 DUP2 ADD DUP5 DUP5 DUP5 ADD GT ISZERO PUSH2 0x4112 JUMPI PUSH2 0x4111 PUSH2 0x4012 JUMP JUMPDEST JUMPDEST PUSH2 0x411D DUP5 DUP3 DUP6 PUSH2 0x40D4 JUMP JUMPDEST POP SWAP4 SWAP3 POP POP POP JUMP JUMPDEST PUSH1 0x0 DUP3 PUSH1 0x1F DUP4 ADD SLT PUSH2 0x413A JUMPI PUSH2 0x4139 PUSH2 0x400D JUMP JUMPDEST JUMPDEST DUP2 CALLDATALOAD PUSH2 0x414A DUP5 DUP3 PUSH1 0x20 DUP7 ADD PUSH2 0x40E3 JUMP JUMPDEST SWAP2 POP POP SWAP3 SWAP2 POP POP JUMP JUMPDEST PUSH1 0x0 DUP1 PUSH1 0x40 DUP4 DUP6 SUB SLT ISZERO PUSH2 0x416A JUMPI PUSH2 0x4169 PUSH2 0x3CE9 JUMP JUMPDEST JUMPDEST PUSH1 0x0 PUSH2 0x4178 DUP6 DUP3 DUP7 ADD PUSH2 0x3E57 JUMP JUMPDEST SWAP3 POP POP PUSH1 0x20 DUP4 ADD CALLDATALOAD PUSH8 0xFFFFFFFFFFFFFFFF DUP2 GT ISZERO PUSH2 0x4199 JUMPI PUSH2 0x4198 PUSH2 0x3CEE JUMP JUMPDEST JUMPDEST PUSH2 0x41A5 DUP6 DUP3 DUP7 ADD PUSH2 0x4125 JUMP JUMPDEST SWAP2 POP POP SWAP3 POP SWAP3 SWAP1 POP JUMP JUMPDEST PUSH1 0x0 PUSH1 0x20 DUP3 DUP5 SUB SLT ISZERO PUSH2 0x41C5 JUMPI PUSH2 0x41C4 PUSH2 0x3CE9 JUMP JUMPDEST JUMPDEST PUSH1 0x0 PUSH2 0x41D3 DUP5 DUP3 DUP6 ADD PUSH2 0x3E57 JUMP JUMPDEST SWAP2 POP POP SWAP3 SWAP2 POP POP JUMP JUMPDEST PUSH1 0x0 DUP1 PUSH1 0x0 PUSH1 0x60 DUP5 DUP7 SUB SLT ISZERO PUSH2 0x41F5 JUMPI PUSH2 0x41F4 PUSH2 0x3CE9 JUMP JUMPDEST JUMPDEST PUSH1 0x0 PUSH2 0x4203 DUP7 DUP3 DUP8 ADD PUSH2 0x3DF9 JUMP JUMPDEST SWAP4 POP POP PUSH1 0x20 PUSH2 0x4214 DUP7 DUP3 DUP8 ADD PUSH2 0x3E57 JUMP JUMPDEST SWAP3 POP POP PUSH1 0x40 PUSH2 0x4225 DUP7 DUP3 DUP8 ADD PUSH2 0x3DF9 JUMP JUMPDEST SWAP2 POP POP SWAP3 POP SWAP3 POP SWAP3 JUMP JUMPDEST PUSH1 0x0 DUP1 PUSH1 0x40 DUP4 DUP6 SUB SLT ISZERO PUSH2 0x4246 JUMPI PUSH2 0x4245 PUSH2 0x3CE9 JUMP JUMPDEST JUMPDEST PUSH1 0x0 PUSH2 0x4254 DUP6 DUP3 DUP7 ADD PUSH2 0x3DF9 JUMP JUMPDEST SWAP3 POP POP PUSH1 0x20 PUSH2 0x4265 DUP6 DUP3 DUP7 ADD PUSH2 0x3DF9 JUMP JUMPDEST SWAP2 POP POP SWAP3 POP SWAP3 SWAP1 POP JUMP JUMPDEST PUSH2 0x4278 DUP2 PUSH2 0x3E2E JUMP JUMPDEST DUP3 MSTORE POP POP JUMP JUMPDEST PUSH1 0x0 PUSH1 0xE0 DUP3 ADD SWAP1 POP PUSH2 0x4293 PUSH1 0x0 DUP4 ADD DUP11 PUSH2 0x426F JUMP JUMPDEST PUSH2 0x42A0 PUSH1 0x20 DUP4 ADD DUP10 PUSH2 0x3DB8 JUMP JUMPDEST PUSH2 0x42AD PUSH1 0x40 DUP4 ADD DUP9 PUSH2 0x3DB8 JUMP JUMPDEST PUSH2 0x42BA PUSH1 0x60 DUP4 ADD DUP8 PUSH2 0x3DB8 JUMP JUMPDEST PUSH2 0x42C7 PUSH1 0x80 DUP4 ADD DUP7 PUSH2 0x3DB8 JUMP JUMPDEST PUSH2 0x42D4 PUSH1 0xA0 DUP4 ADD DUP6 PUSH2 0x3DB8 JUMP JUMPDEST PUSH2 0x42E1 PUSH1 0xC0 DUP4 ADD DUP5 PUSH2 0x3DB8 JUMP JUMPDEST SWAP9 SWAP8 POP POP POP POP POP POP POP POP JUMP JUMPDEST PUSH1 0x0 DUP2 MLOAD SWAP1 POP SWAP2 SWAP1 POP JUMP JUMPDEST PUSH1 0x0 DUP3 DUP3 MSTORE PUSH1 0x20 DUP3 ADD SWAP1 POP SWAP3 SWAP2 POP POP JUMP JUMPDEST PUSH1 0x0 JUMPDEST DUP4 DUP2 LT ISZERO PUSH2 0x4327 JUMPI DUP1 DUP3 ADD MLOAD DUP2 DUP5 ADD MSTORE PUSH1 0x20 DUP2 ADD SWAP1 POP PUSH2 0x430C JUMP JUMPDEST PUSH1 0x0 DUP5 DUP5 ADD MSTORE POP POP POP POP JUMP JUMPDEST PUSH1 0x0 PUSH2 0x433E DUP3 PUSH2 0x42ED JUMP JUMPDEST PUSH2 0x4348 DUP2 DUP6 PUSH2 0x42F8 JUMP JUMPDEST SWAP4 POP PUSH2 0x4358 DUP2 DUP6 PUSH1 0x20 DUP7 ADD PUSH2 0x4309 JUMP JUMPDEST PUSH2 0x4361 DUP2 PUSH2 0x4017 JUMP JUMPDEST DUP5 ADD SWAP2 POP POP SWAP3 SWAP2 POP POP JUMP JUMPDEST PUSH1 0x0 PUSH1 0x20 DUP3 ADD SWAP1 POP DUP2 DUP2 SUB PUSH1 0x0 DUP4 ADD MSTORE PUSH2 0x4386 DUP2 DUP5 PUSH2 0x4333 JUMP JUMPDEST SWAP1 POP SWAP3 SWAP2 POP POP JUMP JUMPDEST PUSH1 0x0 PUSH1 0x60 DUP3 ADD SWAP1 POP PUSH2 0x43A3 PUSH1 0x0 DUP4 ADD DUP7 PUSH2 0x3DB8 JUMP JUMPDEST PUSH2 0x43B0 PUSH1 0x20 DUP4 ADD DUP6 PUSH2 0x3DB8 JUMP JUMPDEST PUSH2 0x43BD PUSH1 0x40 DUP4 ADD DUP5 PUSH2 0x3DB8 JUMP JUMPDEST SWAP5 SWAP4 POP POP POP POP JUMP JUMPDEST PUSH1 0x0 DUP2 SWAP1 POP SWAP2 SWAP1 POP JUMP JUMPDEST PUSH1 0x0 PUSH2 0x43EA PUSH2 0x43E5 PUSH2 0x43E0 DUP5 PUSH2 0x3E0E JUMP JUMPDEST PUSH2 0x43C5 JUMP JUMPDEST PUSH2 0x3E0E JUMP JUMPDEST SWAP1 POP SWAP2 SWAP1 POP JUMP JUMPDEST PUSH1 0x0 PUSH2 0x43FC DUP3 PUSH2 0x43CF JUMP JUMPDEST SWAP1 POP SWAP2 SWAP1 POP JUMP JUMPDEST PUSH1 0x0 PUSH2 0x440E DUP3 PUSH2 0x43F1 JUMP JUMPDEST SWAP1 POP SWAP2 SWAP1 POP JUMP JUMPDEST PUSH2 0x441E DUP2 PUSH2 0x4403 JUMP JUMPDEST DUP3 MSTORE POP POP JUMP JUMPDEST PUSH1 0x0 PUSH1 0x20 DUP3 ADD SWAP1 POP PUSH2 0x4439 PUSH1 0x0 DUP4 ADD DUP5 PUSH2 0x4415 JUMP JUMPDEST SWAP3 SWAP2 POP POP JUMP JUMPDEST PUSH1 0x0 DUP1 PUSH1 0x0 PUSH1 0x60 DUP5 DUP7 SUB SLT ISZERO PUSH2 0x4458 JUMPI PUSH2 0x4457 PUSH2 0x3CE9 JUMP JUMPDEST JUMPDEST PUSH1 0x0 PUSH2 0x4466 DUP7 DUP3 DUP8 ADD PUSH2 0x3DF9 JUMP JUMPDEST SWAP4 POP POP PUSH1 0x20 PUSH2 0x4477 DUP7 DUP3 DUP8 ADD PUSH2 0x3DF9 JUMP JUMPDEST SWAP3 POP POP PUSH1 0x40 PUSH2 0x4488 DUP7 DUP3 DUP8 ADD PUSH2 0x3DF9 JUMP JUMPDEST SWAP2 POP POP SWAP3 POP SWAP3 POP SWAP3 JUMP JUMPDEST PUSH2 0x449B DUP2 PUSH2 0x3D78 JUMP JUMPDEST DUP2 EQ PUSH2 0x44A6 JUMPI PUSH1 0x0 DUP1 REVERT JUMPDEST POP JUMP JUMPDEST PUSH1 0x0 DUP2 CALLDATALOAD SWAP1 POP PUSH2 0x44B8 DUP2 PUSH2 0x4492 JUMP JUMPDEST SWAP3 SWAP2 POP POP JUMP JUMPDEST PUSH1 0x0 DUP1 PUSH1 0x0 PUSH1 0x60 DUP5 DUP7 SUB SLT ISZERO PUSH2 0x44D7 JUMPI PUSH2 0x44D6 PUSH2 0x3CE9 JUMP JUMPDEST JUMPDEST PUSH1 0x0 PUSH2 0x44E5 DUP7 DUP3 DUP8 ADD PUSH2 0x3DF9 JUMP JUMPDEST SWAP4 POP POP PUSH1 0x20 PUSH2 0x44F6 DUP7 DUP3 DUP8 ADD PUSH2 0x3DF9 JUMP JUMPDEST SWAP3 POP POP PUSH1 0x40 PUSH2 0x4507 DUP7 DUP3 DUP8 ADD PUSH2 0x44A9 JUMP JUMPDEST SWAP2 POP POP SWAP3 POP SWAP3 POP SWAP3 JUMP JUMPDEST PUSH1 0x0 PUSH1 0x40 DUP3 ADD SWAP1 POP PUSH2 0x4526 PUSH1 0x0 DUP4 ADD DUP6 PUSH2 0x3DB8 JUMP JUMPDEST PUSH2 0x4533 PUSH1 0x20 DUP4 ADD DUP5 PUSH2 0x3DB8 JUMP JUMPDEST SWAP4 SWAP3 POP POP POP JUMP JUMPDEST PUSH32 0x496E76616C696420706964000000000000000000000000000000000000000000 PUSH1 0x0 DUP3 ADD MSTORE POP JUMP JUMPDEST PUSH1 0x0 PUSH2 0x4570 PUSH1 0xB DUP4 PUSH2 0x42F8 JUMP JUMPDEST SWAP2 POP PUSH2 0x457B DUP3 PUSH2 0x453A JUMP JUMPDEST PUSH1 0x20 DUP3 ADD SWAP1 POP SWAP2 SWAP1 POP JUMP JUMPDEST PUSH1 0x0 PUSH1 0x20 DUP3 ADD SWAP1 POP DUP2 DUP2 SUB PUSH1 0x0 DUP4 ADD MSTORE PUSH2 0x459F DUP2 PUSH2 0x4563 JUMP JUMPDEST SWAP1 POP SWAP2 SWAP1 POP JUMP JUMPDEST PUSH32 0x5769746864726177206973207061757365640000000000000000000000000000 PUSH1 0x0 DUP3 ADD MSTORE POP JUMP JUMPDEST PUSH1 0x0 PUSH2 0x45DC PUSH1 0x12 DUP4 PUSH2 0x42F8 JUMP JUMPDEST SWAP2 POP PUSH2 0x45E7 DUP3 PUSH2 0x45A6 JUMP JUMPDEST PUSH1 0x20 DUP3 ADD SWAP1 POP SWAP2 SWAP1 POP JUMP JUMPDEST PUSH1 0x0 PUSH1 0x20 DUP3 ADD SWAP1 POP DUP2 DUP2 SUB PUSH1 0x0 DUP4 ADD MSTORE PUSH2 0x460B DUP2 PUSH2 0x45CF JUMP JUMPDEST SWAP1 POP SWAP2 SWAP1 POP JUMP JUMPDEST PUSH32 0x4E487B7100000000000000000000000000000000000000000000000000000000 PUSH1 0x0 MSTORE PUSH1 0x32 PUSH1 0x4 MSTORE PUSH1 0x24 PUSH1 0x0 REVERT JUMPDEST PUSH32 0x4E487B7100000000000000000000000000000000000000000000000000000000 PUSH1 0x0 MSTORE PUSH1 0x11 PUSH1 0x4 MSTORE PUSH1 0x24 PUSH1 0x0 REVERT JUMPDEST PUSH1 0x0 PUSH2 0x467B DUP3 PUSH2 0x3DAE JUMP JUMPDEST SWAP2 POP PUSH2 0x4686 DUP4 PUSH2 0x3DAE JUMP JUMPDEST SWAP3 POP DUP3 DUP3 ADD SWAP1 POP DUP1 DUP3 GT ISZERO PUSH2 0x469E JUMPI PUSH2 0x469D PUSH2 0x4641 JUMP JUMPDEST JUMPDEST SWAP3 SWAP2 POP POP JUMP JUMPDEST PUSH1 0x0 PUSH2 0x46AF DUP3 PUSH2 0x3DAE JUMP JUMPDEST SWAP2 POP PUSH32 0xFFFFFFFFFFFFFFFFFFFFFFFFFFFFFFFFFFFFFFFFFFFFFFFFFFFFFFFFFFFFFFFF DUP3 SUB PUSH2 0x46E1 JUMPI PUSH2 0x46E0 PUSH2 0x4641 JUMP JUMPDEST JUMPDEST PUSH1 0x1 DUP3 ADD SWAP1 POP SWAP2 SWAP1 POP JUMP JUMPDEST PUSH1 0x0 PUSH2 0x46F7 DUP3 PUSH2 0x3DAE JUMP JUMPDEST SWAP2 POP PUSH2 0x4702 DUP4 PUSH2 0x3DAE JUMP JUMPDEST SWAP3 POP DUP3 DUP3 SUB SWAP1 POP DUP2 DUP2 GT ISZERO PUSH2 0x471A JUMPI PUSH2 0x4719 PUSH2 0x4641 JUMP JUMPDEST JUMPDEST SWAP3 SWAP2 POP POP JUMP JUMPDEST PUSH32 0x4E487B7100000000000000000000000000000000000000000000000000000000 PUSH1 0x0 MSTORE PUSH1 0x31 PUSH1 0x4 MSTORE PUSH1 0x24 PUSH1 0x0 REVERT JUMPDEST PUSH32 0x436C61696D206973207061757365640000000000000000000000000000000000 PUSH1 0x0 DUP3 ADD MSTORE POP JUMP JUMPDEST PUSH1 0x0 PUSH2 0x4785 PUSH1 0xF DUP4 PUSH2 0x42F8 JUMP JUMPDEST SWAP2 POP PUSH2 0x4790 DUP3 PUSH2 0x474F JUMP JUMPDEST PUSH1 0x20 DUP3 ADD SWAP1 POP SWAP2 SWAP1 POP JUMP JUMPDEST PUSH1 0x0 PUSH1 0x20 DUP3 ADD SWAP1 POP DUP2 DUP2 SUB PUSH1 0x0 DUP4 ADD MSTORE PUSH2 0x47B4 DUP2 PUSH2 0x4778 JUMP JUMPDEST SWAP1 POP SWAP2 SWAP1 POP JUMP JUMPDEST PUSH1 0x0 PUSH2 0x47C6 DUP3 PUSH2 0x3DAE JUMP JUMPDEST SWAP2 POP PUSH2 0x47D1 DUP4 PUSH2 0x3DAE JUMP JUMPDEST SWAP3 POP DUP3 DUP3 MUL PUSH2 0x47DF DUP2 PUSH2 0x3DAE JUMP JUMPDEST SWAP2 POP DUP3 DUP3 DIV DUP5 EQ DUP4 ISZERO OR PUSH2 0x47F6 JUMPI PUSH2 0x47F5 PUSH2 0x4641 JUMP JUMPDEST JUMPDEST POP SWAP3 SWAP2 POP POP JUMP JUMPDEST PUSH32 0x4E487B7100000000000000000000000000000000000000000000000000000000 PUSH1 0x0 MSTORE PUSH1 0x12 PUSH1 0x4 MSTORE PUSH1 0x24 PUSH1 0x0 REVERT JUMPDEST PUSH1 0x0 PUSH2 0x4837 DUP3 PUSH2 0x3DAE JUMP JUMPDEST SWAP2 POP PUSH2 0x4842 DUP4 PUSH2 0x3DAE JUMP JUMPDEST SWAP3 POP DUP3 PUSH2 0x4852 JUMPI PUSH2 0x4851 PUSH2 0x47FD JUMP JUMPDEST JUMPDEST DUP3 DUP3 DIV SWAP1 POP SWAP3 SWAP2 POP POP JUMP JUMPDEST PUSH1 0x0 DUP2 SWAP1 POP SWAP2 SWAP1 POP JUMP JUMPDEST PUSH1 0x0 PUSH8 0xFFFFFFFFFFFFFFFF DUP3 AND SWAP1 POP SWAP2 SWAP1 POP JUMP JUMPDEST PUSH1 0x0 PUSH2 0x4896 PUSH2 0x4891 PUSH2 0x488C DUP5 PUSH2 0x485D JUMP JUMPDEST PUSH2 0x43C5 JUMP JUMPDEST PUSH2 0x4867 JUMP JUMPDEST SWAP1 POP SWAP2 SWAP1 POP JUMP JUMPDEST PUSH2 0x48A6 DUP2 PUSH2 0x487B JUMP JUMPDEST DUP3 MSTORE POP POP JUMP JUMPDEST PUSH1 0x0 PUSH1 0x20 DUP3 ADD SWAP1 POP PUSH2 0x48C1 PUSH1 0x0 DUP4 ADD DUP5 PUSH2 0x489D JUMP JUMPDEST SWAP3 SWAP2 POP POP JUMP JUMPDEST PUSH32 0x506F6F6C20616464726573732063616E6E6F74206265207A65726F0000000000 PUSH1 0x0 DUP3 ADD MSTORE POP JUMP JUMPDEST PUSH1 0x0 PUSH2 0x48FD PUSH1 0x1B DUP4 PUSH2 0x42F8 JUMP JUMPDEST SWAP2 POP PUSH2 0x4908 DUP3 PUSH2 0x48C7 JUMP JUMPDEST PUSH1 0x20 DUP3 ADD SWAP1 POP SWAP2 SWAP1 POP JUMP JUMPDEST PUSH1 0x0 PUSH1 0x20 DUP3 ADD SWAP1 POP DUP2 DUP2 SUB PUSH1 0x0 DUP4 ADD MSTORE PUSH2 0x492C DUP2 PUSH2 0x48F0 JUMP JUMPDEST SWAP1 POP SWAP2 SWAP1 POP JUMP JUMPDEST PUSH32 0x5769746864726177206973206E6F742070617573656400000000000000000000 PUSH1 0x0 DUP3 ADD MSTORE POP JUMP JUMPDEST PUSH1 0x0 PUSH2 0x4969 PUSH1 0x16 DUP4 PUSH2 0x42F8 JUMP JUMPDEST SWAP2 POP PUSH2 0x4974 DUP3 PUSH2 0x4933 JUMP JUMPDEST PUSH1 0x20 DUP3 ADD SWAP1 POP SWAP2 SWAP1 POP JUMP JUMPDEST PUSH1 0x0 PUSH1 0x20 DUP3 ADD SWAP1 POP DUP2 DUP2 SUB PUSH1 0x0 DUP4 ADD MSTORE PUSH2 0x4998 DUP2 PUSH2 0x495C JUMP JUMPDEST SWAP1 POP SWAP2 SWAP1 POP JUMP JUMPDEST PUSH32 0x4C61737420626C6F636B206D7573742062652067726561746572207468616E20 PUSH1 0x0 DUP3 ADD MSTORE PUSH32 0x737461727420626C6F636B000000000000000000000000000000000000000000 PUSH1 0x20 DUP3 ADD MSTORE POP JUMP JUMPDEST PUSH1 0x0 PUSH2 0x49FB PUSH1 0x2B DUP4 PUSH2 0x42F8 JUMP JUMPDEST SWAP2 POP PUSH2 0x4A06 DUP3 PUSH2 0x499F JUMP JUMPDEST PUSH1 0x40 DUP3 ADD SWAP1 POP SWAP2 SWAP1 POP JUMP JUMPDEST PUSH1 0x0 PUSH1 0x20 DUP3 ADD SWAP1 POP DUP2 DUP2 SUB PUSH1 0x0 DUP4 ADD MSTORE PUSH2 0x4A2A DUP2 PUSH2 0x49EE JUMP JUMPDEST SWAP1 POP SWAP2 SWAP1 POP JUMP JUMPDEST PUSH32 0x537461727420626C6F636B206D757374206265206C657373207468616E206C61 PUSH1 0x0 DUP3 ADD MSTORE PUSH32 0x737420626C6F636B000000000000000000000000000000000000000000000000 PUSH1 0x20 DUP3 ADD MSTORE POP JUMP JUMPDEST PUSH1 0x0 PUSH2 0x4A8D PUSH1 0x28 DUP4 PUSH2 0x42F8 JUMP JUMPDEST SWAP2 POP PUSH2 0x4A98 DUP3 PUSH2 0x4A31 JUMP JUMPDEST PUSH1 0x40 DUP3 ADD SWAP1 POP SWAP2 SWAP1 POP JUMP JUMPDEST PUSH1 0x0 PUSH1 0x20 DUP3 ADD SWAP1 POP DUP2 DUP2 SUB PUSH1 0x0 DUP4 ADD MSTORE PUSH2 0x4ABC DUP2 PUSH2 0x4A80 JUMP JUMPDEST SWAP1 POP SWAP2 SWAP1 POP JUMP JUMPDEST PUSH32 0x4D756C7469706C696572206F766572666C6F7700000000000000000000000000 PUSH1 0x0 DUP3 ADD MSTORE POP JUMP JUMPDEST PUSH1 0x0 PUSH2 0x4AF9 PUSH1 0x13 DUP4 PUSH2 0x42F8 JUMP JUMPDEST SWAP2 POP PUSH2 0x4B04 DUP3 PUSH2 0x4AC3 JUMP JUMPDEST PUSH1 0x20 DUP3 ADD SWAP1 POP SWAP2 SWAP1 POP JUMP JUMPDEST PUSH1 0x0 PUSH1 0x20 DUP3 ADD SWAP1 POP DUP2 DUP2 SUB PUSH1 0x0 DUP4 ADD MSTORE PUSH2 0x4B28 DUP2 PUSH2 0x4AEC JUMP JUMPDEST SWAP1 POP SWAP2 SWAP1 POP JUMP JUMPDEST PUSH32 0x436C61696D20697320616C726561647920706175736564000000000000000000 PUSH1 0x0 DUP3 ADD MSTORE POP JUMP JUMPDEST PUSH1 0x0 PUSH2 0x4B65 PUSH1 0x17 DUP4 PUSH2 0x42F8 JUMP JUMPDEST SWAP2 POP PUSH2 0x4B70 DUP3 PUSH2 0x4B2F JUMP JUMPDEST PUSH1 0x20 DUP3 ADD SWAP1 POP SWAP2 SWAP1 POP JUMP JUMPDEST PUSH1 0x0 PUSH1 0x20 DUP3 ADD SWAP1 POP DUP2 DUP2 SUB PUSH1 0x0 DUP4 ADD MSTORE PUSH2 0x4B94 DUP2 PUSH2 0x4B58 JUMP JUMPDEST SWAP1 POP SWAP2 SWAP1 POP JUMP JUMPDEST PUSH32 0x416D6F756E74206D7573742062652067726561746572207468616E2075736572 PUSH1 0x0 DUP3 ADD MSTORE PUSH32 0x20616D6F756E7400000000000000000000000000000000000000000000000000 PUSH1 0x20 DUP3 ADD MSTORE POP JUMP JUMPDEST PUSH1 0x0 PUSH2 0x4BF7 PUSH1 0x27 DUP4 PUSH2 0x42F8 JUMP JUMPDEST SWAP2 POP PUSH2 0x4C02 DUP3 PUSH2 0x4B9B JUMP JUMPDEST PUSH1 0x40 DUP3 ADD SWAP1 POP SWAP2 SWAP1 POP JUMP JUMPDEST PUSH1 0x0 PUSH1 0x20 DUP3 ADD SWAP1 POP DUP2 DUP2 SUB PUSH1 0x0 DUP4 ADD MSTORE PUSH2 0x4C26 DUP2 PUSH2 0x4BEA JUMP JUMPDEST SWAP1 POP SWAP2 SWAP1 POP JUMP JUMPDEST PUSH32 0x576974686472617720697320616C726561647920706175736564000000000000 PUSH1 0x0 DUP3 ADD MSTORE POP JUMP JUMPDEST PUSH1 0x0 PUSH2 0x4C63 PUSH1 0x1A DUP4 PUSH2 0x42F8 JUMP JUMPDEST SWAP2 POP PUSH2 0x4C6E DUP3 PUSH2 0x4C2D JUMP JUMPDEST PUSH1 0x20 DUP3 ADD SWAP1 POP SWAP2 SWAP1 POP JUMP JUMPDEST PUSH1 0x0 PUSH1 0x20 DUP3 ADD SWAP1 POP DUP2 DUP2 SUB PUSH1 0x0 DUP4 ADD MSTORE PUSH2 0x4C92 DUP2 PUSH2 0x4C56 JUMP JUMPDEST SWAP1 POP SWAP2 SWAP1 POP JUMP JUMPDEST PUSH32 0x456E6420626C6F636B206D7573742062652067726561746572207468616E2063 PUSH1 0x0 DUP3 ADD MSTORE PUSH32 0x757272656E7420656E6420626C6F636B00000000000000000000000000000000 PUSH1 0x20 DUP3 ADD MSTORE POP JUMP JUMPDEST PUSH1 0x0 PUSH2 0x4CF5 PUSH1 0x30 DUP4 PUSH2 0x42F8 JUMP JUMPDEST SWAP2 POP PUSH2 0x4D00 DUP3 PUSH2 0x4C99 JUMP JUMPDEST PUSH1 0x40 DUP3 ADD SWAP1 POP SWAP2 SWAP1 POP JUMP JUMPDEST PUSH1 0x0 PUSH1 0x20 DUP3 ADD SWAP1 POP DUP2 DUP2 SUB PUSH1 0x0 DUP4 ADD MSTORE PUSH2 0x4D24 DUP2 PUSH2 0x4CE8 JUMP JUMPDEST SWAP1 POP SWAP2 SWAP1 POP JUMP JUMPDEST PUSH32 0x436C61696D206973206E6F742070617573656400000000000000000000000000 PUSH1 0x0 DUP3 ADD MSTORE POP JUMP JUMPDEST PUSH1 0x0 PUSH2 0x4D61 PUSH1 0x13 DUP4 PUSH2 0x42F8 JUMP JUMPDEST SWAP2 POP PUSH2 0x4D6C DUP3 PUSH2 0x4D2B JUMP JUMPDEST PUSH1 0x20 DUP3 ADD SWAP1 POP SWAP2 SWAP1 POP JUMP JUMPDEST PUSH1 0x0 PUSH1 0x20 DUP3 ADD SWAP1 POP DUP2 DUP2 SUB PUSH1 0x0 DUP4 ADD MSTORE PUSH2 0x4D90 DUP2 PUSH2 0x4D54 JUMP JUMPDEST SWAP1 POP SWAP2 SWAP1 POP JUMP JUMPDEST PUSH32 0x6465706F736974206E6F7420737570706F727420455448207374616B696E6700 PUSH1 0x0 DUP3 ADD MSTORE POP JUMP JUMPDEST PUSH1 0x0 PUSH2 0x4DCD PUSH1 0x1F DUP4 PUSH2 0x42F8 JUMP JUMPDEST SWAP2 POP PUSH2 0x4DD8 DUP3 PUSH2 0x4D97 JUMP JUMPDEST PUSH1 0x20 DUP3 ADD SWAP1 POP SWAP2 SWAP1 POP JUMP JUMPDEST PUSH1 0x0 PUSH1 0x20 DUP3 ADD SWAP1 POP DUP2 DUP2 SUB PUSH1 0x0 DUP4 ADD MSTORE PUSH2 0x4DFC DUP2 PUSH2 0x4DC0 JUMP JUMPDEST SWAP1 POP SWAP2 SWAP1 POP JUMP JUMPDEST PUSH32 0x416D6F756E74206D7573742062652067726561746572207468616E206D696E20 PUSH1 0x0 DUP3 ADD MSTORE PUSH32 0x6465706F73697420616D6F756E74000000000000000000000000000000000000 PUSH1 0x20 DUP3 ADD MSTORE POP JUMP JUMPDEST PUSH1 0x0 PUSH2 0x4E5F PUSH1 0x2E DUP4 PUSH2 0x42F8 JUMP JUMPDEST SWAP2 POP PUSH2 0x4E6A DUP3 PUSH2 0x4E03 JUMP JUMPDEST PUSH1 0x40 DUP3 ADD SWAP1 POP SWAP2 SWAP1 POP JUMP JUMPDEST PUSH1 0x0 PUSH1 0x20 DUP3 ADD SWAP1 POP DUP2 DUP2 SUB PUSH1 0x0 DUP4 ADD MSTORE PUSH2 0x4E8E DUP2 PUSH2 0x4E52 JUMP JUMPDEST SWAP1 POP SWAP2 SWAP1 POP JUMP JUMPDEST PUSH32 0x537461727420626C6F636B206D7573742062652067726561746572207468616E PUSH1 0x0 DUP3 ADD MSTORE PUSH32 0x2063757272656E7420737461727420626C6F636B000000000000000000000000 PUSH1 0x20 DUP3 ADD MSTORE POP JUMP JUMPDEST PUSH1 0x0 PUSH2 0x4EF1 PUSH1 0x34 DUP4 PUSH2 0x42F8 JUMP JUMPDEST SWAP2 POP PUSH2 0x4EFC DUP3 PUSH2 0x4E95 JUMP JUMPDEST PUSH1 0x40 DUP3 ADD SWAP1 POP SWAP2 SWAP1 POP JUMP JUMPDEST PUSH1 0x0 PUSH1 0x20 DUP3 ADD SWAP1 POP DUP2 DUP2 SUB PUSH1 0x0 DUP4 ADD MSTORE PUSH2 0x4F20 DUP2 PUSH2 0x4EE4 JUMP JUMPDEST SWAP1 POP SWAP2 SWAP1 POP JUMP JUMPDEST PUSH32 0x455448207374616B696E672069732066756C6C00000000000000000000000000 PUSH1 0x0 DUP3 ADD MSTORE POP JUMP JUMPDEST PUSH1 0x0 PUSH2 0x4F5D PUSH1 0x13 DUP4 PUSH2 0x42F8 JUMP JUMPDEST SWAP2 POP PUSH2 0x4F68 DUP3 PUSH2 0x4F27 JUMP JUMPDEST PUSH1 0x20 DUP3 ADD SWAP1 POP SWAP2 SWAP1 POP JUMP JUMPDEST PUSH1 0x0 PUSH1 0x20 DUP3 ADD SWAP1 POP DUP2 DUP2 SUB PUSH1 0x0 DUP4 ADD MSTORE PUSH2 0x4F8C DUP2 PUSH2 0x4F50 JUMP JUMPDEST SWAP1 POP SWAP2 SWAP1 POP JUMP JUMPDEST PUSH32 0x506F6F6C20776569676874206D7573742062652067726561746572207468616E PUSH1 0x0 DUP3 ADD MSTORE PUSH32 0x2030000000000000000000000000000000000000000000000000000000000000 PUSH1 0x20 DUP3 ADD MSTORE POP JUMP JUMPDEST PUSH1 0x0 PUSH2 0x4FEF PUSH1 0x22 DUP4 PUSH2 0x42F8 JUMP JUMPDEST SWAP2 POP PUSH2 0x4FFA DUP3 PUSH2 0x4F93 JUMP JUMPDEST PUSH1 0x40 DUP3 ADD SWAP1 POP SWAP2 SWAP1 POP JUMP JUMPDEST PUSH1 0x0 PUSH1 0x20 DUP3 ADD SWAP1 POP DUP2 DUP2 SUB PUSH1 0x0 DUP4 ADD MSTORE PUSH2 0x501E DUP2 PUSH2 0x4FE2 JUMP JUMPDEST SWAP1 POP SWAP2 SWAP1 POP JUMP JUMPDEST PUSH1 0x0 DUP2 SWAP1 POP SWAP3 SWAP2 POP POP JUMP JUMPDEST POP JUMP JUMPDEST PUSH1 0x0 PUSH2 0x5040 PUSH1 0x0 DUP4 PUSH2 0x5025 JUMP JUMPDEST SWAP2 POP PUSH2 0x504B DUP3 PUSH2 0x5030 JUMP JUMPDEST PUSH1 0x0 DUP3 ADD SWAP1 POP SWAP2 SWAP1 POP JUMP JUMPDEST PUSH1 0x0 PUSH2 0x5061 DUP3 PUSH2 0x5033 JUMP JUMPDEST SWAP2 POP DUP2 SWAP1 POP SWAP2 SWAP1 POP JUMP JUMPDEST PUSH32 0x455448207472616E666572206661696C65640000000000000000000000000000 PUSH1 0x0 DUP3 ADD MSTORE POP JUMP JUMPDEST PUSH1 0x0 PUSH2 0x50A1 PUSH1 0x12 DUP4 PUSH2 0x42F8 JUMP JUMPDEST SWAP2 POP PUSH2 0x50AC DUP3 PUSH2 0x506B JUMP JUMPDEST PUSH1 0x20 DUP3 ADD SWAP1 POP SWAP2 SWAP1 POP JUMP JUMPDEST PUSH1 0x0 PUSH1 0x20 DUP3 ADD SWAP1 POP DUP2 DUP2 SUB PUSH1 0x0 DUP4 ADD MSTORE PUSH2 0x50D0 DUP2 PUSH2 0x5094 JUMP JUMPDEST SWAP1 POP SWAP2 SWAP1 POP JUMP JUMPDEST PUSH1 0x0 DUP2 MLOAD SWAP1 POP PUSH2 0x50E6 DUP2 PUSH2 0x4492 JUMP JUMPDEST SWAP3 SWAP2 POP POP JUMP JUMPDEST PUSH1 0x0 PUSH1 0x20 DUP3 DUP5 SUB SLT ISZERO PUSH2 0x5102 JUMPI PUSH2 0x5101 PUSH2 0x3CE9 JUMP JUMPDEST JUMPDEST PUSH1 0x0 PUSH2 0x5110 DUP5 DUP3 DUP6 ADD PUSH2 0x50D7 JUMP JUMPDEST SWAP2 POP POP SWAP3 SWAP2 POP POP JUMP JUMPDEST PUSH32 0x455448207472616E666572206F7065726174696F6E20646964206E6F74207375 PUSH1 0x0 DUP3 ADD MSTORE PUSH32 0x6363656564000000000000000000000000000000000000000000000000000000 PUSH1 0x20 DUP3 ADD MSTORE POP JUMP JUMPDEST PUSH1 0x0 PUSH2 0x5175 PUSH1 0x25 DUP4 PUSH2 0x42F8 JUMP JUMPDEST SWAP2 POP PUSH2 0x5180 DUP3 PUSH2 0x5119 JUMP JUMPDEST PUSH1 0x40 DUP3 ADD SWAP1 POP SWAP2 SWAP1 POP JUMP JUMPDEST PUSH1 0x0 PUSH1 0x20 DUP3 ADD SWAP1 POP DUP2 DUP2 SUB PUSH1 0x0 DUP4 ADD MSTORE PUSH2 0x51A4 DUP2 PUSH2 0x5168 JUMP JUMPDEST SWAP1 POP SWAP2 SWAP1 POP JUMP JUMPDEST PUSH1 0x0 PUSH1 0x40 DUP3 ADD SWAP1 POP PUSH2 0x51C0 PUSH1 0x0 DUP4 ADD DUP6 PUSH2 0x426F JUMP JUMPDEST PUSH2 0x51CD PUSH1 0x20 DUP4 ADD DUP5 PUSH2 0x3DB8 JUMP JUMPDEST SWAP4 SWAP3 POP POP POP JUMP JUMPDEST PUSH32 0x4D6574614E6F64655065725354206F766572666C6F7700000000000000000000 PUSH1 0x0 DUP3 ADD MSTORE POP JUMP JUMPDEST PUSH1 0x0 PUSH2 0x520A PUSH1 0x16 DUP4 PUSH2 0x42F8 JUMP JUMPDEST SWAP2 POP PUSH2 0x5215 DUP3 PUSH2 0x51D4 JUMP JUMPDEST PUSH1 0x20 DUP3 ADD SWAP1 POP SWAP2 SWAP1 POP JUMP JUMPDEST PUSH1 0x0 PUSH1 0x20 DUP3 ADD SWAP1 POP DUP2 DUP2 SUB PUSH1 0x0 DUP4 ADD MSTORE PUSH2 0x5239 DUP2 PUSH2 0x51FD JUMP JUMPDEST SWAP1 POP SWAP2 SWAP1 POP JUMP JUMPDEST PUSH32 0x546F74616C4D6574614E6F6465206F766572666C6F7700000000000000000000 PUSH1 0x0 DUP3 ADD MSTORE POP JUMP JUMPDEST PUSH1 0x0 PUSH2 0x5276 PUSH1 0x16 DUP4 PUSH2 0x42F8 JUMP JUMPDEST SWAP2 POP PUSH2 0x5281 DUP3 PUSH2 0x5240 JUMP JUMPDEST PUSH1 0x20 DUP3 ADD SWAP1 POP SWAP2 SWAP1 POP JUMP JUMPDEST PUSH1 0x0 PUSH1 0x20 DUP3 ADD SWAP1 POP DUP2 DUP2 SUB PUSH1 0x0 DUP4 ADD MSTORE PUSH2 0x52A5 DUP2 PUSH2 0x5269 JUMP JUMPDEST SWAP1 POP SWAP2 SWAP1 POP JUMP JUMPDEST PUSH32 0x4163634D6574614E6F64655065725354206F766572666C6F7700000000000000 PUSH1 0x0 DUP3 ADD MSTORE POP JUMP JUMPDEST PUSH1 0x0 PUSH2 0x52E2 PUSH1 0x19 DUP4 PUSH2 0x42F8 JUMP JUMPDEST SWAP2 POP PUSH2 0x52ED DUP3 PUSH2 0x52AC JUMP JUMPDEST PUSH1 0x20 DUP3 ADD SWAP1 POP SWAP2 SWAP1 POP JUMP JUMPDEST PUSH1 0x0 PUSH1 0x20 DUP3 ADD SWAP1 POP DUP2 DUP2 SUB PUSH1 0x0 DUP4 ADD MSTORE PUSH2 0x5311 DUP2 PUSH2 0x52D5 JUMP JUMPDEST SWAP1 POP SWAP2 SWAP1 POP JUMP JUMPDEST PUSH1 0x0 PUSH1 0x20 DUP3 ADD SWAP1 POP PUSH2 0x532D PUSH1 0x0 DUP4 ADD DUP5 PUSH2 0x426F JUMP JUMPDEST SWAP3 SWAP2 POP POP JUMP JUMPDEST PUSH1 0x0 DUP2 MLOAD SWAP1 POP PUSH2 0x5342 DUP2 PUSH2 0x3DE2 JUMP JUMPDEST SWAP3 SWAP2 POP POP JUMP JUMPDEST PUSH1 0x0 PUSH1 0x20 DUP3 DUP5 SUB SLT ISZERO PUSH2 0x535E JUMPI PUSH2 0x535D PUSH2 0x3CE9 JUMP JUMPDEST JUMPDEST PUSH1 0x0 PUSH2 0x536C DUP5 DUP3 DUP6 ADD PUSH2 0x5333 JUMP JUMPDEST SWAP2 POP POP SWAP3 SWAP2 POP POP JUMP JUMPDEST PUSH1 0x0 DUP2 MLOAD SWAP1 POP PUSH2 0x5384 DUP2 PUSH2 0x3EB6 JUMP JUMPDEST SWAP3 SWAP2 POP POP JUMP JUMPDEST PUSH1 0x0 PUSH1 0x20 DUP3 DUP5 SUB SLT ISZERO PUSH2 0x53A0 JUMPI PUSH2 0x539F PUSH2 0x3CE9 JUMP JUMPDEST JUMPDEST PUSH1 0x0 PUSH2 0x53AE DUP5 DUP3 DUP6 ADD PUSH2 0x5375 JUMP JUMPDEST SWAP2 POP POP SWAP3 SWAP2 POP POP JUMP JUMPDEST PUSH1 0x0 PUSH1 0x60 DUP3 ADD SWAP1 POP PUSH2 0x53CC PUSH1 0x0 DUP4 ADD DUP7 PUSH2 0x426F JUMP JUMPDEST PUSH2 0x53D9 PUSH1 0x20 DUP4 ADD DUP6 PUSH2 0x426F JUMP JUMPDEST PUSH2 0x53E6 PUSH1 0x40 DUP4 ADD DUP5 PUSH2 0x3DB8 JUMP JUMPDEST SWAP5 SWAP4 POP POP POP POP JUMP JUMPDEST PUSH32 0x4163635354416D6F756E74206F766572666C6F77000000000000000000000000 PUSH1 0x0 DUP3 ADD MSTORE POP JUMP JUMPDEST PUSH1 0x0 PUSH2 0x5424 PUSH1 0x14 DUP4 PUSH2 0x42F8 JUMP JUMPDEST SWAP2 POP PUSH2 0x542F DUP3 PUSH2 0x53EE JUMP JUMPDEST PUSH1 0x20 DUP3 ADD SWAP1 POP SWAP2 SWAP1 POP JUMP JUMPDEST PUSH1 0x0 PUSH1 0x20 DUP3 ADD SWAP1 POP DUP2 DUP2 SUB PUSH1 0x0 DUP4 ADD MSTORE PUSH2 0x5453 DUP2 PUSH2 0x5417 JUMP JUMPDEST SWAP1 POP SWAP2 SWAP1 POP JUMP JUMPDEST PUSH32 0x50656E64696E67206F766572666C6F7700000000000000000000000000000000 PUSH1 0x0 DUP3 ADD MSTORE POP JUMP JUMPDEST PUSH1 0x0 PUSH2 0x5490 PUSH1 0x10 DUP4 PUSH2 0x42F8 JUMP JUMPDEST SWAP2 POP PUSH2 0x549B DUP3 PUSH2 0x545A JUMP JUMPDEST PUSH1 0x20 DUP3 ADD SWAP1 POP SWAP2 SWAP1 POP JUMP JUMPDEST PUSH1 0x0 PUSH1 0x20 DUP3 ADD SWAP1 POP DUP2 DUP2 SUB PUSH1 0x0 DUP4 ADD MSTORE PUSH2 0x54BF DUP2 PUSH2 0x5483 JUMP JUMPDEST SWAP1 POP SWAP2 SWAP1 POP JUMP JUMPDEST PUSH32 0x50656E64696E674D6574614E6F6465206F766572666C6F770000000000000000 PUSH1 0x0 DUP3 ADD MSTORE POP JUMP JUMPDEST PUSH1 0x0 PUSH2 0x54FC PUSH1 0x18 DUP4 PUSH2 0x42F8 JUMP JUMPDEST SWAP2 POP PUSH2 0x5507 DUP3 PUSH2 0x54C6 JUMP JUMPDEST PUSH1 0x20 DUP3 ADD SWAP1 POP SWAP2 SWAP1 POP JUMP JUMPDEST PUSH1 0x0 PUSH1 0x20 DUP3 ADD SWAP1 POP DUP2 DUP2 SUB PUSH1 0x0 DUP4 ADD MSTORE PUSH2 0x552B DUP2 PUSH2 0x54EF JUMP JUMPDEST SWAP1 POP SWAP2 SWAP1 POP JUMP JUMPDEST PUSH32 0x55736572416D6F756E74206F766572666C6F7700000000000000000000000000 PUSH1 0x0 DUP3 ADD MSTORE POP JUMP JUMPDEST PUSH1 0x0 PUSH2 0x5568 PUSH1 0x13 DUP4 PUSH2 0x42F8 JUMP JUMPDEST SWAP2 POP PUSH2 0x5573 DUP3 PUSH2 0x5532 JUMP JUMPDEST PUSH1 0x20 DUP3 ADD SWAP1 POP SWAP2 SWAP1 POP JUMP JUMPDEST PUSH1 0x0 PUSH1 0x20 DUP3 ADD SWAP1 POP DUP2 DUP2 SUB PUSH1 0x0 DUP4 ADD MSTORE PUSH2 0x5597 DUP2 PUSH2 0x555B JUMP JUMPDEST SWAP1 POP SWAP2 SWAP1 POP JUMP JUMPDEST PUSH32 0x5374546F6B656E416D6F756E74206F766572666C6F7700000000000000000000 PUSH1 0x0 DUP3 ADD MSTORE POP JUMP JUMPDEST PUSH1 0x0 PUSH2 0x55D4 PUSH1 0x16 DUP4 PUSH2 0x42F8 JUMP JUMPDEST SWAP2 POP PUSH2 0x55DF DUP3 PUSH2 0x559E JUMP JUMPDEST PUSH1 0x20 DUP3 ADD SWAP1 POP SWAP2 SWAP1 POP JUMP JUMPDEST PUSH1 0x0 PUSH1 0x20 DUP3 ADD SWAP1 POP DUP2 DUP2 SUB PUSH1 0x0 DUP4 ADD MSTORE PUSH2 0x5603 DUP2 PUSH2 0x55C7 JUMP JUMPDEST SWAP1 POP SWAP2 SWAP1 POP JUMP JUMPDEST PUSH1 0x0 PUSH1 0x40 DUP3 ADD SWAP1 POP PUSH2 0x561F PUSH1 0x0 DUP4 ADD DUP6 PUSH2 0x426F JUMP JUMPDEST PUSH2 0x562C PUSH1 0x20 DUP4 ADD DUP5 PUSH2 0x3F0F JUMP JUMPDEST SWAP4 SWAP3 POP POP POP JUMP JUMPDEST PUSH1 0x0 DUP2 MLOAD SWAP1 POP SWAP2 SWAP1 POP JUMP JUMPDEST PUSH1 0x0 PUSH2 0x5649 DUP3 PUSH2 0x5633 JUMP JUMPDEST PUSH2 0x5653 DUP2 DUP6 PUSH2 0x5025 JUMP JUMPDEST SWAP4 POP PUSH2 0x5663 DUP2 DUP6 PUSH1 0x20 DUP7 ADD PUSH2 0x4309 JUMP JUMPDEST DUP1 DUP5 ADD SWAP2 POP POP SWAP3 SWAP2 POP POP JUMP JUMPDEST PUSH1 0x0 PUSH2 0x567B DUP3 DUP5 PUSH2 0x563E JUMP JUMPDEST SWAP2 POP DUP2 SWAP1 POP SWAP3 SWAP2 POP POP JUMP INVALID LOG2 PUSH5 0x6970667358 0x22 SLT KECCAK256 ORIGIN EXP PUSH4 0x3DE2F12E EXTCODEHASH 0xD7 LOG4 0xEC LOG3 0xB5 SWAP1 COINBASE 0x4C ISZERO INVALID 0xC9 0xFB DUP12 0xF6 BASEFEE GASLIMIT SWAP2 PUSH28 0xCA7A03FE4AA864736F6C634300081C00330000000000000000000000 "},"methodIdentifiers":{"ADMIN_ROLE()":"75b238fc","DEFAULT_ADMIN_ROLE()":"a217fddf","ETH_PID()":"bfc3ebba","MetaNode()":"d22f1d80","UPGRADER_ROLE()":"f72c0d8b","UPGRADE_INTERFACE_VERSION()":"ad3cb1cc","addPool(address,uint256,uint256,uint256)":"5a4ec0ca","claim(uint256)":"379607f5","claimPaused()":"ab5e124a","deposit(uint256,uint256)":"e2bbb158","depositETH()":"f6326fb3","endBlock()":"083c6323","getMultiplier(uint256,uint256)":"8dbb1e3a","getRoleAdmin(bytes32)":"248a9ca3","grantRole(bytes32,address)":"2f2ff15d","hasRole(bytes32,address)":"91d14854","initialize(address,uint256,uint256,uint256)":"4ec81af1","massUpdatePools()":"630b5ba1","metaNodePerBlock()":"7276d925","pauseClaim()":"8ff095f9","paused()":"5c975abb","pausedWithdraw()":"a25088c6","pendingMetaNode(uint256,address)":"ea5c219d","pendingMetaNodeByBlockNumber(uint256,address,uint256)":"6325d5bc","poolLength()":"081e3eda","pools(uint256)":"ac4afa38","proxiableUUID()":"52d1902d","renounceRole(bytes32,address)":"36568abe","revokeRole(bytes32,address)":"d547741f","setEndBlock(uint256)":"c713aa94","setMetaNode(address)":"61a9a03d","setMetaNodePerBlock(uint256)":"d7bc1769","setPoolWeight(uint256,uint256,bool)":"fad07ece","setStartBlock(uint256)":"f35e4a6e","stakingBalance(uint256,address)":"11548234","startBlock()":"48cd4cb1","supportsInterface(bytes4)":"01ffc9a7","totalWeight()":"96c82e57","unpauseClaim()":"de065caa","unpauseWithdraw()":"5bb6d007","unstake(uint256,uint256)":"9e2c8a5b","updatePool(uint256,uint256,uint256)":"d86c0444","upgradeToAndCall(address,bytes)":"4f1ef286","users(uint256,address)":"b9d02df4","withdraw(uint256)":"2e1a7d4d","withdrawAmount(uint256,address)":"ff423357","withdrawPaused()":"2f3ffb9f"}},"storageLayout":{"storage":[{"astId":6750,"contract":"contracts/MetaNodeStake.sol:MetaNodeStake","label":"pools","offset":0,"slot":"0","type":"t_array(t_struct(Pool)6730_storage)dyn_storage"},{"astId":6752,"contract":"contracts/MetaNodeStake.sol:MetaNodeStake","label":"startBlock","offset":0,"slot":"1","type":"t_uint256"},{"astId":6754,"contract":"contracts/MetaNodeStake.sol:MetaNodeStake","label":"endBlock","offset":0,"slot":"2","type":"t_uint256"},{"astId":6756,"contract":"contracts/MetaNodeStake.sol:MetaNodeStake","label":"metaNodePerBlock","offset":0,"slot":"3","type":"t_uint256"},{"astId":6758,"contract":"contracts/MetaNodeStake.sol:MetaNodeStake","label":"withdrawPaused","offset":0,"slot":"4","type":"t_bool"},{"astId":6760,"contract":"contracts/MetaNodeStake.sol:MetaNodeStake","label":"claimPaused","offset":1,"slot":"4","type":"t_bool"},{"astId":6762,"contract":"contracts/MetaNodeStake.sol:MetaNodeStake","label":"totalWeight","offset":0,"slot":"5","type":"t_uint256"},{"astId":6765,"contract":"contracts/MetaNodeStake.sol:MetaNodeStake","label":"MetaNode","offset":0,"slot":"6","type":"t_contract(IERC20)2298"},{"astId":6772,"contract":"contracts/MetaNodeStake.sol:MetaNodeStake","label":"users","offset":0,"slot":"7","type":"t_mapping(t_uint256,t_mapping(t_address,t_struct(User)6746_storage))"}],"types":{"t_address":{"encoding":"inplace","label":"address","numberOfBytes":"20"},"t_array(t_struct(Pool)6730_storage)dyn_storage":{"base":"t_struct(Pool)6730_storage","encoding":"dynamic_array","label":"struct MetaNodeStake.Pool[]","numberOfBytes":"32"},"t_array(t_struct(UnstakeRequest)6735_storage)dyn_storage":{"base":"t_struct(UnstakeRequest)6735_storage","encoding":"dynamic_array","label":"struct MetaNodeStake.UnstakeRequest[]","numberOfBytes":"32"},"t_bool":{"encoding":"inplace","label":"bool","numberOfBytes":"1"},"t_contract(IERC20)2298":{"encoding":"inplace","label":"contract IERC20","numberOfBytes":"20"},"t_mapping(t_address,t_struct(User)6746_storage)":{"encoding":"mapping","key":"t_address","label":"mapping(address => struct MetaNodeStake.User)","numberOfBytes":"32","value":"t_struct(User)6746_storage"},"t_mapping(t_uint256,t_mapping(t_address,t_struct(User)6746_storage))":{"encoding":"mapping","key":"t_uint256","label":"mapping(uint256 => mapping(address => struct MetaNodeStake.User))","numberOfBytes":"32","value":"t_mapping(t_address,t_struct(User)6746_storage)"},"t_struct(Pool)6730_storage":{"encoding":"inplace","label":"struct MetaNodeStake.Pool","members":[{"astId":6717,"contract":"contracts/MetaNodeStake.sol:MetaNodeStake","label":"poolAddress","offset":0,"slot":"0","type":"t_address"},{"astId":6719,"contract":"contracts/MetaNodeStake.sol:MetaNodeStake","label":"poolWeight","offset":0,"slot":"1","type":"t_uint256"},{"astId":6721,"contract":"contracts/MetaNodeStake.sol:MetaNodeStake","label":"minDepositAmount","offset":0,"slot":"2","type":"t_uint256"},{"astId":6723,"contract":"contracts/MetaNodeStake.sol:MetaNodeStake","label":"lastRewardBlock","offset":0,"slot":"3","type":"t_uint256"},{"astId":6725,"contract":"contracts/MetaNodeStake.sol:MetaNodeStake","label":"accMetaNodePerST","offset":0,"slot":"4","type":"t_uint256"},{"astId":6727,"contract":"contracts/MetaNodeStake.sol:MetaNodeStake","label":"stTokenAmount","offset":0,"slot":"5","type":"t_uint256"},{"astId":6729,"contract":"contracts/MetaNodeStake.sol:MetaNodeStake","label":"unstakeLockedBlocks","offset":0,"slot":"6","type":"t_uint256"}],"numberOfBytes":"224"},"t_struct(UnstakeRequest)6735_storage":{"encoding":"inplace","label":"struct MetaNodeStake.UnstakeRequest","members":[{"astId":6732,"contract":"contracts/MetaNodeStake.sol:MetaNodeStake","label":"amount","offset":0,"slot":"0","type":"t_uint256"},{"astId":6734,"contract":"contracts/MetaNodeStake.sol:MetaNodeStake","label":"unlockBlock","offset":0,"slot":"1","type":"t_uint256"}],"numberOfBytes":"64"},"t_struct(User)6746_storage":{"encoding":"inplace","label":"struct MetaNodeStake.User","members":[{"astId":6737,"contract":"contracts/MetaNodeStake.sol:MetaNodeStake","label":"amount","offset":0,"slot":"0","type":"t_uint256"},{"astId":6739,"contract":"contracts/MetaNodeStake.sol:MetaNodeStake","label":"finishedMetaNode","offset":0,"slot":"1","type":"t_uint256"},{"astId":6741,"contract":"contracts/MetaNodeStake.sol:MetaNodeStake","label":"pendingMetaNode","offset":0,"slot":"2","type":"t_uint256"},{"astId":6745,"contract":"contracts/MetaNodeStake.sol:MetaNodeStake","label":"requests","offset":0,"slot":"3","type":"t_array(t_struct(UnstakeRequest)6735_storage)dyn_storage"}],"numberOfBytes":"128"},"t_uint256":{"encoding":"inplace","label":"uint256","numberOfBytes":"32"}}}}}}